{
  "contractName": "AdaUsdSimpleOracle",
  "abi": [
    {
      "inputs": [
        {
          "internalType": "address",
          "name": "owner",
          "type": "address"
        }
      ],
      "stateMutability": "nonpayable",
      "type": "constructor"
    },
    {
      "inputs": [
        {
          "internalType": "uint64",
          "name": "price",
          "type": "uint64"
        }
      ],
      "name": "putPrice",
      "outputs": [],
      "stateMutability": "nonpayable",
      "type": "function"
    },
    {
      "inputs": [],
      "name": "exchangeRate",
      "outputs": [
        {
          "internalType": "uint64",
          "name": "",
          "type": "uint64"
        }
      ],
      "stateMutability": "view",
      "type": "function",
      "constant": true
    }
  ],
  "bytecode": "0x60a060405234801561001057600080fd5b506040516103b03803806103b0833981810160405281019061003291906100cf565b8073ffffffffffffffffffffffffffffffffffffffff1660808173ffffffffffffffffffffffffffffffffffffffff1681525050506100fc565b600080fd5b600073ffffffffffffffffffffffffffffffffffffffff82169050919050565b600061009c82610071565b9050919050565b6100ac81610091565b81146100b757600080fd5b50565b6000815190506100c9816100a3565b92915050565b6000602082840312156100e5576100e461006c565b5b60006100f3848285016100ba565b91505092915050565b60805161029a61011660003960006094015261029a6000f3fe608060405234801561001057600080fd5b50600436106100365760003560e01c80633ba0b9a91461003b578063efbc9acf14610059575b600080fd5b610043610075565b604051610050919061016e565b60405180910390f35b610073600480360381019061006e91906101ba565b610092565b005b60008060009054906101000a900467ffffffffffffffff16905090565b7f000000000000000000000000000000000000000000000000000000000000000073ffffffffffffffffffffffffffffffffffffffff163373ffffffffffffffffffffffffffffffffffffffff1614610120576040517f08c379a000000000000000000000000000000000000000000000000000000000815260040161011790610244565b60405180910390fd5b806000806101000a81548167ffffffffffffffff021916908367ffffffffffffffff16021790555050565b600067ffffffffffffffff82169050919050565b6101688161014b565b82525050565b6000602082019050610183600083018461015f565b92915050565b600080fd5b6101978161014b565b81146101a257600080fd5b50565b6000813590506101b48161018e565b92915050565b6000602082840312156101d0576101cf610189565b5b60006101de848285016101a5565b91505092915050565b600082825260208201905092915050565b7f4f6e6c79206f776e65722063616e207075742070726963650000000000000000600082015250565b600061022e6018836101e7565b9150610239826101f8565b602082019050919050565b6000602082019050818103600083015261025d81610221565b905091905056fea264697066735822122062967ae71dc1a4f97173524baef080bd9dffff7708b3c5c899f4c0d4fa4e6eeb64736f6c634300080d0033",
  "immutableReferences": {
    "5": [
      {
        "length": 32,
        "start": 148
      }
    ]
  },
  "source": "// SPDX-License-Identifier: MIT\npragma solidity ^0.8.0;\n\ncontract AdaUsdSimpleOracle {\n    uint64 _exchangeRate;\n    address immutable _owner;\n\n    constructor(address owner) {\n        _owner = owner;\n    }\n\n    function putPrice(uint64 price) public {\n        require(msg.sender == _owner, \"Only owner can put price\");\n        _exchangeRate = price;\n    }\n\n    function exchangeRate() public view returns (uint64) {\n        return _exchangeRate;\n    }\n}\n",
  "sourcePath": "/home/vacuumlabs/git/ada-open-oracle/contracts/AdaUsdSimpleOracle.sol",
  "compiler": {
    "name": "solc",
    "version": "0.8.13+commit.abaa5c0e.Emscripten.clang"
  },
  "schemaVersion": "3.4.7",
  "updatedAt": "2022-05-15T15:24:31.895Z",
  "networkType": "ethereum",
  "devdoc": {
    "kind": "dev",
    "methods": {},
    "version": 1
  },
  "userdoc": {
    "kind": "user",
    "methods": {},
    "version": 1
  }
}