{
  "contractName": "Djed",
  "abi": [
    {
      "inputs": [
        {
          "internalType": "address",
          "name": "oracleAddress",
          "type": "address"
        },
        {
          "internalType": "uint256",
          "name": "_scalingFactor",
          "type": "uint256"
        },
        {
          "internalType": "address",
          "name": "_treasury",
          "type": "address"
        },
        {
          "internalType": "uint256",
          "name": "_initialTreasuryFee",
          "type": "uint256"
        },
        {
          "internalType": "uint256",
          "name": "_treasuryRevenueTarget",
          "type": "uint256"
        },
        {
          "internalType": "uint256",
          "name": "_reserveRatioMin",
          "type": "uint256"
        },
        {
          "internalType": "uint256",
          "name": "_reserveRatioMax",
          "type": "uint256"
        },
        {
          "internalType": "uint256",
          "name": "_fee",
          "type": "uint256"
        },
        {
          "internalType": "uint256",
          "name": "_thresholdSupplySC",
          "type": "uint256"
        },
        {
          "internalType": "uint256",
          "name": "_rcMinPrice",
          "type": "uint256"
        },
        {
          "internalType": "uint256",
          "name": "_txLimit",
          "type": "uint256"
        }
      ],
      "stateMutability": "payable",
      "type": "constructor"
    },
    {
      "anonymous": false,
      "inputs": [
        {
          "indexed": true,
          "internalType": "address",
          "name": "buyer",
          "type": "address"
        },
        {
          "indexed": true,
          "internalType": "address",
          "name": "receiver",
          "type": "address"
        },
        {
          "indexed": false,
          "internalType": "uint256",
          "name": "amountRC",
          "type": "uint256"
        },
        {
          "indexed": false,
          "internalType": "uint256",
          "name": "amountBC",
          "type": "uint256"
        }
      ],
      "name": "BoughtReserveCoins",
      "type": "event"
    },
    {
      "anonymous": false,
      "inputs": [
        {
          "indexed": true,
          "internalType": "address",
          "name": "buyer",
          "type": "address"
        },
        {
          "indexed": true,
          "internalType": "address",
          "name": "receiver",
          "type": "address"
        },
        {
          "indexed": false,
          "internalType": "uint256",
          "name": "amountSC",
          "type": "uint256"
        },
        {
          "indexed": false,
          "internalType": "uint256",
          "name": "amountBC",
          "type": "uint256"
        }
      ],
      "name": "BoughtStableCoins",
      "type": "event"
    },
    {
      "anonymous": false,
      "inputs": [
        {
          "indexed": false,
          "internalType": "uint256",
          "name": "value",
          "type": "uint256"
        },
        {
          "indexed": false,
          "internalType": "address",
          "name": "caller",
          "type": "address"
        }
      ],
      "name": "FundedOracle",
      "type": "event"
    },
    {
      "anonymous": false,
      "inputs": [
        {
          "indexed": true,
          "internalType": "address",
          "name": "seller",
          "type": "address"
        },
        {
          "indexed": true,
          "internalType": "address",
          "name": "receiver",
          "type": "address"
        },
        {
          "indexed": false,
          "internalType": "uint256",
          "name": "amountSC",
          "type": "uint256"
        },
        {
          "indexed": false,
          "internalType": "uint256",
          "name": "amountRC",
          "type": "uint256"
        },
        {
          "indexed": false,
          "internalType": "uint256",
          "name": "amountBC",
          "type": "uint256"
        }
      ],
      "name": "SoldBothCoins",
      "type": "event"
    },
    {
      "anonymous": false,
      "inputs": [
        {
          "indexed": true,
          "internalType": "address",
          "name": "seller",
          "type": "address"
        },
        {
          "indexed": true,
          "internalType": "address",
          "name": "receiver",
          "type": "address"
        },
        {
          "indexed": false,
          "internalType": "uint256",
          "name": "amountRC",
          "type": "uint256"
        },
        {
          "indexed": false,
          "internalType": "uint256",
          "name": "amountBC",
          "type": "uint256"
        }
      ],
      "name": "SoldReserveCoins",
      "type": "event"
    },
    {
      "anonymous": false,
      "inputs": [
        {
          "indexed": true,
          "internalType": "address",
          "name": "seller",
          "type": "address"
        },
        {
          "indexed": true,
          "internalType": "address",
          "name": "receiver",
          "type": "address"
        },
        {
          "indexed": false,
          "internalType": "uint256",
          "name": "amountSC",
          "type": "uint256"
        },
        {
          "indexed": false,
          "internalType": "uint256",
          "name": "amountBC",
          "type": "uint256"
        }
      ],
      "name": "SoldStableCoins",
      "type": "event"
    },
    {
      "inputs": [],
      "name": "fee",
      "outputs": [
        {
          "internalType": "uint256",
          "name": "",
          "type": "uint256"
        }
      ],
      "stateMutability": "view",
      "type": "function"
    },
    {
      "inputs": [
        {
          "internalType": "uint256",
          "name": "value",
          "type": "uint256"
        }
      ],
      "name": "fundOracle",
      "outputs": [],
      "stateMutability": "nonpayable",
      "type": "function"
    },
    {
      "inputs": [],
      "name": "initialTreasuryFee",
      "outputs": [
        {
          "internalType": "uint256",
          "name": "",
          "type": "uint256"
        }
      ],
      "stateMutability": "view",
      "type": "function"
    },
    {
      "inputs": [],
      "name": "oracle",
      "outputs": [
        {
          "internalType": "contract IOracle",
          "name": "",
          "type": "address"
        }
      ],
      "stateMutability": "view",
      "type": "function"
    },
    {
      "inputs": [],
      "name": "rcMinPrice",
      "outputs": [
        {
          "internalType": "uint256",
          "name": "",
          "type": "uint256"
        }
      ],
      "stateMutability": "view",
      "type": "function"
    },
    {
      "inputs": [],
      "name": "reserveCoin",
      "outputs": [
        {
          "internalType": "contract Coin",
          "name": "",
          "type": "address"
        }
      ],
      "stateMutability": "view",
      "type": "function"
    },
    {
      "inputs": [],
      "name": "reserveRatioMax",
      "outputs": [
        {
          "internalType": "uint256",
          "name": "",
          "type": "uint256"
        }
      ],
      "stateMutability": "view",
      "type": "function"
    },
    {
      "inputs": [],
      "name": "reserveRatioMin",
      "outputs": [
        {
          "internalType": "uint256",
          "name": "",
          "type": "uint256"
        }
      ],
      "stateMutability": "view",
      "type": "function"
    },
    {
      "inputs": [],
      "name": "stableCoin",
      "outputs": [
        {
          "internalType": "contract Coin",
          "name": "",
          "type": "address"
        }
      ],
      "stateMutability": "view",
      "type": "function"
    },
    {
      "inputs": [],
      "name": "thresholdSupplySC",
      "outputs": [
        {
          "internalType": "uint256",
          "name": "",
          "type": "uint256"
        }
      ],
      "stateMutability": "view",
      "type": "function"
    },
    {
      "inputs": [],
      "name": "treasury",
      "outputs": [
        {
          "internalType": "address",
          "name": "",
          "type": "address"
        }
      ],
      "stateMutability": "view",
      "type": "function"
    },
    {
      "inputs": [],
      "name": "treasuryRevenue",
      "outputs": [
        {
          "internalType": "uint256",
          "name": "",
          "type": "uint256"
        }
      ],
      "stateMutability": "view",
      "type": "function"
    },
    {
      "inputs": [],
      "name": "treasuryRevenueTarget",
      "outputs": [
        {
          "internalType": "uint256",
          "name": "",
          "type": "uint256"
        }
      ],
      "stateMutability": "view",
      "type": "function"
    },
    {
      "inputs": [],
      "name": "txLimit",
      "outputs": [
        {
          "internalType": "uint256",
          "name": "",
          "type": "uint256"
        }
      ],
      "stateMutability": "view",
      "type": "function"
    },
    {
      "inputs": [
        {
          "internalType": "address",
          "name": "receiver",
          "type": "address"
        },
        {
          "internalType": "uint256",
          "name": "fee_ui",
          "type": "uint256"
        },
        {
          "internalType": "address",
          "name": "ui",
          "type": "address"
        }
      ],
      "name": "buyStableCoins",
      "outputs": [],
      "stateMutability": "payable",
      "type": "function"
    },
    {
      "inputs": [
        {
          "internalType": "uint256",
          "name": "amountSC",
          "type": "uint256"
        },
        {
          "internalType": "address",
          "name": "receiver",
          "type": "address"
        },
        {
          "internalType": "uint256",
          "name": "fee_ui",
          "type": "uint256"
        },
        {
          "internalType": "address",
          "name": "ui",
          "type": "address"
        }
      ],
      "name": "sellStableCoins",
      "outputs": [],
      "stateMutability": "nonpayable",
      "type": "function"
    },
    {
      "inputs": [
        {
          "internalType": "address",
          "name": "receiver",
          "type": "address"
        },
        {
          "internalType": "uint256",
          "name": "fee_ui",
          "type": "uint256"
        },
        {
          "internalType": "address",
          "name": "ui",
          "type": "address"
        }
      ],
      "name": "buyReserveCoins",
      "outputs": [],
      "stateMutability": "payable",
      "type": "function"
    },
    {
      "inputs": [
        {
          "internalType": "uint256",
          "name": "amountRC",
          "type": "uint256"
        },
        {
          "internalType": "address",
          "name": "receiver",
          "type": "address"
        },
        {
          "internalType": "uint256",
          "name": "fee_ui",
          "type": "uint256"
        },
        {
          "internalType": "address",
          "name": "ui",
          "type": "address"
        }
      ],
      "name": "sellReserveCoins",
      "outputs": [],
      "stateMutability": "nonpayable",
      "type": "function"
    },
    {
      "inputs": [
        {
          "internalType": "uint256",
          "name": "amountSC",
          "type": "uint256"
        },
        {
          "internalType": "uint256",
          "name": "amountRC",
          "type": "uint256"
        },
        {
          "internalType": "address",
          "name": "receiver",
          "type": "address"
        },
        {
          "internalType": "uint256",
          "name": "fee_ui",
          "type": "uint256"
        },
        {
          "internalType": "address",
          "name": "ui",
          "type": "address"
        }
      ],
      "name": "sellBothCoins",
      "outputs": [],
      "stateMutability": "nonpayable",
      "type": "function"
    },
    {
      "inputs": [],
      "name": "treasuryFee",
      "outputs": [
        {
          "internalType": "uint256",
          "name": "",
          "type": "uint256"
        }
      ],
      "stateMutability": "view",
      "type": "function"
    }
  ],
  "bytecode": "0x6102006040526000600155600060045560405162005bca38038062005bca8339818101604052810190620000349190620003fc565b604051620000429062000349565b6200004d90620005ba565b604051809103906000f0801580156200006a573d6000803e3d6000fd5b50600260006101000a81548173ffffffffffffffffffffffffffffffffffffffff021916908373ffffffffffffffffffffffffffffffffffffffff160217905550604051620000b99062000349565b620000c49062000691565b604051809103906000f080158015620000e1573d6000803e3d6000fd5b50600360006101000a81548173ffffffffffffffffffffffffffffffffffffffff021916908373ffffffffffffffffffffffffffffffffffffffff160217905550600260009054906101000a900473ffffffffffffffffffffffffffffffffffffffff1673ffffffffffffffffffffffffffffffffffffffff1663313ce5676040518163ffffffff1660e01b8152600401602060405180830381865afa15801562000190573d6000803e3d6000fd5b505050506040513d601f19601f82011682018060405250810190620001b6919062000706565b600a620001c49190620008bb565b6101c08181525050600360009054906101000a900473ffffffffffffffffffffffffffffffffffffffff1673ffffffffffffffffffffffffffffffffffffffff1663313ce5676040518163ffffffff1660e01b8152600401602060405180830381865afa1580156200023a573d6000803e3d6000fd5b505050506040513d601f19601f8201168201806040525081019062000260919062000706565b600a6200026e9190620008bb565b6101e081815250508a6000806101000a81548173ffffffffffffffffffffffffffffffffffffffff021916908373ffffffffffffffffffffffffffffffffffffffff160217905550896101a081815250508873ffffffffffffffffffffffffffffffffffffffff1660808173ffffffffffffffffffffffffffffffffffffffff16815250508760a081815250508660c081815250508560e0818152505084610100818152505083610120818152505082610140818152505081610160818152505080610180818152505050505050505050505050506200090c565b611d688062003e6283390190565b600080fd5b600073ffffffffffffffffffffffffffffffffffffffff82169050919050565b600062000389826200035c565b9050919050565b6200039b816200037c565b8114620003a757600080fd5b50565b600081519050620003bb8162000390565b92915050565b6000819050919050565b620003d681620003c1565b8114620003e257600080fd5b50565b600081519050620003f681620003cb565b92915050565b60008060008060008060008060008060006101608c8e03121562000425576200042462000357565b5b6000620004358e828f01620003aa565b9b50506020620004488e828f01620003e5565b9a505060406200045b8e828f01620003aa565b99505060606200046e8e828f01620003e5565b9850506080620004818e828f01620003e5565b97505060a0620004948e828f01620003e5565b96505060c0620004a78e828f01620003e5565b95505060e0620004ba8e828f01620003e5565b945050610100620004ce8e828f01620003e5565b935050610120620004e28e828f01620003e5565b925050610140620004f68e828f01620003e5565b9150509295989b509295989b9093969950565b600082825260208201905092915050565b7f537461626c65436f696e00000000000000000000000000000000000000000000600082015250565b600062000552600a8362000509565b91506200055f826200051a565b602082019050919050565b7f5343000000000000000000000000000000000000000000000000000000000000600082015250565b6000620005a260028362000509565b9150620005af826200056a565b602082019050919050565b60006040820190508181036000830152620005d58162000543565b90508181036020830152620005ea8162000593565b9050919050565b7f52657365727665436f696e000000000000000000000000000000000000000000600082015250565b600062000629600b8362000509565b91506200063682620005f1565b602082019050919050565b7f5243000000000000000000000000000000000000000000000000000000000000600082015250565b60006200067960028362000509565b9150620006868262000641565b602082019050919050565b60006040820190508181036000830152620006ac816200061a565b90508181036020830152620006c1816200066a565b9050919050565b600060ff82169050919050565b620006e081620006c8565b8114620006ec57600080fd5b50565b6000815190506200070081620006d5565b92915050565b6000602082840312156200071f576200071e62000357565b5b60006200072f84828501620006ef565b91505092915050565b7f4e487b7100000000000000000000000000000000000000000000000000000000600052601160045260246000fd5b60008160011c9050919050565b6000808291508390505b6001851115620007c6578086048111156200079e576200079d62000738565b5b6001851615620007ae5780820291505b8081029050620007be8562000767565b94506200077e565b94509492505050565b600082620007e15760019050620008b4565b81620007f15760009050620008b4565b81600181146200080a576002811462000815576200084b565b6001915050620008b4565b60ff8411156200082a576200082962000738565b5b8360020a91508482111562000844576200084362000738565b5b50620008b4565b5060208310610133831016604e8410600b8410161715620008855782820a9050838111156200087f576200087e62000738565b5b620008b4565b62000894848484600162000774565b92509050818404811115620008ae57620008ad62000738565b5b81810290505b9392505050565b6000620008c882620003c1565b9150620008d583620006c8565b9250620009047fffffffffffffffffffffffffffffffffffffffffffffffffffffffffffffffff8484620007cf565b905092915050565b60805160a05160c05160e05161010051610120516101405161016051610180516101a0516101c0516101e0516133c162000aa16000396000818161054801528181610a750152818161174e0152611f8201526000818161058901528181610ab401528181610af701528181610ec0015281816113d2015281816115e001528181611e8d01528181612284015281816124d0015261257d015260008181611fcb0152818161202601528181612061015281816122a501526124f10152600081816105ab01528181610b1901528181610ef8015281816111a4015281816112a60152611602015260008181610e7e015281816123b301526123de0152600081816105e901528181610b5701528181610f22015281816112d001528181611640015281816118240152611a6a015260008181611a8e0152611fec015260008181611ab2015261240901526000818161087a01526121bd0152600081816115b0015281816119af01526119d901526000818161115c015281816119fd0152611a3201526000818161118001526120e801526133c16000f3fe60806040526004361061011f5760003560e01c8063824769f8116100a0578063cc32d17611610064578063cc32d17614610385578063ce797353146103b0578063ddca3f43146103db578063e06b63fc14610406578063f2fdfa82146104315761011f565b8063824769f8146102bd578063992642e5146102e8578063b364e37c14610313578063b77e31f91461033e578063bfebe1821461035a5761011f565b80635f00248e116100e75780635f00248e146101e857806361d027b3146102135780636caae8321461023e5780637a4f8cba146102695780637dc0d1d0146102925761011f565b80631ac8fc2f14610124578063248f24221461014d578063334fc513146101785780634d01dca5146101a1578063574a3093146101cc575b600080fd5b34801561013057600080fd5b5061014b600480360381019061014691906126fc565b61045a565b005b34801561015957600080fd5b50610162610878565b60405161016f9190612772565b60405180910390f35b34801561018457600080fd5b5061019f600480360381019061019a919061278d565b61089c565b005b3480156101ad57600080fd5b506101b6610e7c565b6040516101c39190612772565b60405180910390f35b6101e660048036038101906101e19190612808565b610ea0565b005b3480156101f457600080fd5b506101fd61115a565b60405161020a9190612772565b60405180910390f35b34801561021f57600080fd5b5061022861117e565b604051610235919061286a565b60405180910390f35b34801561024a57600080fd5b506102536111a2565b6040516102609190612772565b60405180910390f35b34801561027557600080fd5b50610290600480360381019061028b91906126fc565b6111c6565b005b34801561029e57600080fd5b506102a761155e565b6040516102b491906128e4565b60405180910390f35b3480156102c957600080fd5b506102d2611582565b6040516102df9190612772565b60405180910390f35b3480156102f457600080fd5b506102fd611588565b60405161030a9190612920565b60405180910390f35b34801561031f57600080fd5b506103286115ae565b6040516103359190612772565b60405180910390f35b61035860048036038101906103539190612808565b6115d2565b005b34801561036657600080fd5b5061036f611985565b60405161037c9190612920565b60405180910390f35b34801561039157600080fd5b5061039a6119ab565b6040516103a79190612772565b60405180910390f35b3480156103bc57600080fd5b506103c5611a68565b6040516103d29190612772565b60405180910390f35b3480156103e757600080fd5b506103f0611a8c565b6040516103fd9190612772565b60405180910390f35b34801561041257600080fd5b5061041b611ab0565b6040516104289190612772565b60405180910390f35b34801561043d57600080fd5b506104586004803603810190610453919061293b565b611ad4565b005b83600360009054906101000a900473ffffffffffffffffffffffffffffffffffffffff1673ffffffffffffffffffffffffffffffffffffffff166370a08231336040518263ffffffff1660e01b81526004016104b6919061286a565b602060405180830381865afa1580156104d3573d6000803e3d6000fd5b505050506040513d601f19601f820116820180604052508101906104f7919061297d565b1015610538576040517f08c379a000000000000000000000000000000000000000000000000000000000815260040161052f90612a07565b60405180910390fd5b6000610542611d55565b905060007f000000000000000000000000000000000000000000000000000000000000000061057083611edb565b8761057b9190612a56565b6105859190612adf565b90507f0000000000000000000000000000000000000000000000000000000000000000827f00000000000000000000000000000000000000000000000000000000000000006105d49190612a56565b6105de9190612adf565b8111158061069c57507f0000000000000000000000000000000000000000000000000000000000000000600260009054906101000a900473ffffffffffffffffffffffffffffffffffffffff1673ffffffffffffffffffffffffffffffffffffffff166318160ddd6040518163ffffffff1660e01b8152600401602060405180830381865afa158015610675573d6000803e3d6000fd5b505050506040513d601f19601f82011682018060405250810190610699919061297d565b11155b6106db576040517f08c379a00000000000000000000000000000000000000000000000000000000081526004016106d290612b5c565b60405180910390fd5b60006106e8828686611fc6565b9050600360009054906101000a900473ffffffffffffffffffffffffffffffffffffffff1673ffffffffffffffffffffffffffffffffffffffff16639dc29fac33896040518363ffffffff1660e01b8152600401610747929190612b7c565b600060405180830381600087803b15801561076157600080fd5b505af1158015610775573d6000803e3d6000fd5b505050508573ffffffffffffffffffffffffffffffffffffffff166108fc829081150290604051600060405180830381858888f193505050501580156107bf573d6000803e3d6000fd5b506107c9836121b9565b610808576040517f08c379a00000000000000000000000000000000000000000000000000000000081526004016107ff90612bf1565b60405180910390fd5b8573ffffffffffffffffffffffffffffffffffffffff163373ffffffffffffffffffffffffffffffffffffffff167f15e4dbe81367be42bcd3070bce6fe49bc9a13b25d7ee7fdd1e59b7563552fab78984604051610867929190612c11565b60405180910390a350505050505050565b7f000000000000000000000000000000000000000000000000000000000000000081565b84600260009054906101000a900473ffffffffffffffffffffffffffffffffffffffff1673ffffffffffffffffffffffffffffffffffffffff166370a08231336040518263ffffffff1660e01b81526004016108f8919061286a565b602060405180830381865afa158015610915573d6000803e3d6000fd5b505050506040513d601f19601f82011682018060405250810190610939919061297d565b101561097a576040517f08c379a000000000000000000000000000000000000000000000000000000000815260040161097190612cac565b60405180910390fd5b83600360009054906101000a900473ffffffffffffffffffffffffffffffffffffffff1673ffffffffffffffffffffffffffffffffffffffff166370a08231336040518263ffffffff1660e01b81526004016109d6919061286a565b602060405180830381865afa1580156109f3573d6000803e3d6000fd5b505050506040513d601f19601f82011682018060405250810190610a17919061297d565b1015610a58576040517f08c379a0000000000000000000000000000000000000000000000000000000008152600401610a4f90612d3e565b60405180910390fd5b6000610a62611d55565b90506000610a6f826122e8565b905060007f0000000000000000000000000000000000000000000000000000000000000000610a9d84611edb565b88610aa89190612a56565b610ab29190612adf565b7f0000000000000000000000000000000000000000000000000000000000000000848a610adf9190612a56565b610ae99190612adf565b610af39190612d5e565b90507f0000000000000000000000000000000000000000000000000000000000000000837f0000000000000000000000000000000000000000000000000000000000000000610b429190612a56565b610b4c9190612adf565b81111580610c0a57507f0000000000000000000000000000000000000000000000000000000000000000600260009054906101000a900473ffffffffffffffffffffffffffffffffffffffff1673ffffffffffffffffffffffffffffffffffffffff166318160ddd6040518163ffffffff1660e01b8152600401602060405180830381865afa158015610be3573d6000803e3d6000fd5b505050506040513d601f19601f82011682018060405250810190610c07919061297d565b11155b610c49576040517f08c379a0000000000000000000000000000000000000000000000000000000008152600401610c4090612e00565b60405180910390fd5b600260009054906101000a900473ffffffffffffffffffffffffffffffffffffffff1673ffffffffffffffffffffffffffffffffffffffff16639dc29fac338a6040518363ffffffff1660e01b8152600401610ca6929190612b7c565b600060405180830381600087803b158015610cc057600080fd5b505af1158015610cd4573d6000803e3d6000fd5b50505050600360009054906101000a900473ffffffffffffffffffffffffffffffffffffffff1673ffffffffffffffffffffffffffffffffffffffff16639dc29fac33896040518363ffffffff1660e01b8152600401610d35929190612b7c565b600060405180830381600087803b158015610d4f57600080fd5b505af1158015610d63573d6000803e3d6000fd5b505050506000610d74828787611fc6565b90508673ffffffffffffffffffffffffffffffffffffffff166108fc829081150290604051600060405180830381858888f19350505050158015610dbc573d6000803e3d6000fd5b5082610dc7856122e8565b1015610e08576040517f08c379a0000000000000000000000000000000000000000000000000000000008152600401610dff90612e92565b60405180910390fd5b8673ffffffffffffffffffffffffffffffffffffffff163373ffffffffffffffffffffffffffffffffffffffff167ff7873e627d69f6f47e1de13a8990f045fa63720d51c6ccf047fd4382962419d38b8b85604051610e6993929190612eb2565b60405180910390a3505050505050505050565b7f000000000000000000000000000000000000000000000000000000000000000081565b6000610ead348484611fc6565b90506000610eb9611d55565b90506000817f000000000000000000000000000000000000000000000000000000000000000084610eea9190612a56565b610ef49190612adf565b90507f000000000000000000000000000000000000000000000000000000000000000081111580610fd557507f0000000000000000000000000000000000000000000000000000000000000000600260009054906101000a900473ffffffffffffffffffffffffffffffffffffffff1673ffffffffffffffffffffffffffffffffffffffff166318160ddd6040518163ffffffff1660e01b8152600401602060405180830381865afa158015610fae573d6000803e3d6000fd5b505050506040513d601f19601f82011682018060405250810190610fd2919061297d565b11155b611014576040517f08c379a000000000000000000000000000000000000000000000000000000000815260040161100b90612f35565b60405180910390fd5b600260009054906101000a900473ffffffffffffffffffffffffffffffffffffffff1673ffffffffffffffffffffffffffffffffffffffff166340c10f1987836040518363ffffffff1660e01b8152600401611071929190612b7c565b600060405180830381600087803b15801561108b57600080fd5b505af115801561109f573d6000803e3d6000fd5b505050506110ac826121b9565b6110eb576040517f08c379a00000000000000000000000000000000000000000000000000000000081526004016110e290612fa1565b60405180910390fd5b8573ffffffffffffffffffffffffffffffffffffffff163373ffffffffffffffffffffffffffffffffffffffff167fe2a93bd50c65406b1485d973a0eefc0938aa42447e8327a24413cf34646cb1c1833460405161114a929190612c11565b60405180910390a3505050505050565b7f000000000000000000000000000000000000000000000000000000000000000081565b7f000000000000000000000000000000000000000000000000000000000000000081565b7f000000000000000000000000000000000000000000000000000000000000000081565b83600260009054906101000a900473ffffffffffffffffffffffffffffffffffffffff1673ffffffffffffffffffffffffffffffffffffffff166370a08231336040518263ffffffff1660e01b8152600401611222919061286a565b602060405180830381865afa15801561123f573d6000803e3d6000fd5b505050506040513d601f19601f82011682018060405250810190611263919061297d565b10156112a4576040517f08c379a000000000000000000000000000000000000000000000000000000000815260040161129b9061300d565b60405180910390fd5b7f00000000000000000000000000000000000000000000000000000000000000008411158061138357507f0000000000000000000000000000000000000000000000000000000000000000600260009054906101000a900473ffffffffffffffffffffffffffffffffffffffff1673ffffffffffffffffffffffffffffffffffffffff166318160ddd6040518163ffffffff1660e01b8152600401602060405180830381865afa15801561135c573d6000803e3d6000fd5b505050506040513d601f19601f82011682018060405250810190611380919061297d565b11155b6113c2576040517f08c379a00000000000000000000000000000000000000000000000000000000081526004016113b990613079565b60405180910390fd5b60006113cc611d55565b905060007f000000000000000000000000000000000000000000000000000000000000000082876113fd9190612a56565b6114079190612adf565b90506000611416828686611fc6565b9050600260009054906101000a900473ffffffffffffffffffffffffffffffffffffffff1673ffffffffffffffffffffffffffffffffffffffff16639dc29fac33896040518363ffffffff1660e01b8152600401611475929190612b7c565b600060405180830381600087803b15801561148f57600080fd5b505af11580156114a3573d6000803e3d6000fd5b505050508573ffffffffffffffffffffffffffffffffffffffff166108fc829081150290604051600060405180830381858888f193505050501580156114ed573d6000803e3d6000fd5b508573ffffffffffffffffffffffffffffffffffffffff163373ffffffffffffffffffffffffffffffffffffffff167f5ca4c7224e0472de3d8d6d7816a14b47de89471be844d8c76bb75d1e528edfd1898460405161154d929190612c11565b60405180910390a350505050505050565b60008054906101000a900473ffffffffffffffffffffffffffffffffffffffff1681565b60045481565b600260009054906101000a900473ffffffffffffffffffffffffffffffffffffffff1681565b7f000000000000000000000000000000000000000000000000000000000000000081565b60006115dc611d55565b90507f0000000000000000000000000000000000000000000000000000000000000000817f000000000000000000000000000000000000000000000000000000000000000061162b9190612a56565b6116359190612adf565b341115806116f357507f0000000000000000000000000000000000000000000000000000000000000000600260009054906101000a900473ffffffffffffffffffffffffffffffffffffffff1673ffffffffffffffffffffffffffffffffffffffff166318160ddd6040518163ffffffff1660e01b8152600401602060405180830381865afa1580156116cc573d6000803e3d6000fd5b505050506040513d601f19601f820116820180604052508101906116f0919061297d565b11155b611732576040517f08c379a0000000000000000000000000000000000000000000000000000000008152600401611729906130e5565b60405180910390fd5b600061173f348585611fc6565b9050600061174c8361230c565b7f0000000000000000000000000000000000000000000000000000000000000000836117789190612a56565b6117829190612adf565b9050600360009054906101000a900473ffffffffffffffffffffffffffffffffffffffff1673ffffffffffffffffffffffffffffffffffffffff166340c10f1987836040518363ffffffff1660e01b81526004016117e1929190612b7c565b600060405180830381600087803b1580156117fb57600080fd5b505af115801561180f573d6000803e3d6000fd5b5050505061181c83612405565b806118d757507f0000000000000000000000000000000000000000000000000000000000000000600260009054906101000a900473ffffffffffffffffffffffffffffffffffffffff1673ffffffffffffffffffffffffffffffffffffffff166318160ddd6040518163ffffffff1660e01b8152600401602060405180830381865afa1580156118b0573d6000803e3d6000fd5b505050506040513d601f19601f820116820180604052508101906118d4919061297d565b11155b611916576040517f08c379a000000000000000000000000000000000000000000000000000000000815260040161190d90613151565b60405180910390fd5b8573ffffffffffffffffffffffffffffffffffffffff163373ffffffffffffffffffffffffffffffffffffffff167f8166a12a2e856c3ebafb91657860659290e42f5f615478292b29fb836f63f7c78334604051611975929190612c11565b60405180910390a3505050505050565b600360009054906101000a900473ffffffffffffffffffffffffffffffffffffffff1681565b60007f00000000000000000000000000000000000000000000000000000000000000006004541015611a60577f00000000000000000000000000000000000000000000000000000000000000006004547f0000000000000000000000000000000000000000000000000000000000000000611a269190612a56565b611a309190612adf565b7f0000000000000000000000000000000000000000000000000000000000000000611a5b9190613171565b611a63565b60005b905090565b7f000000000000000000000000000000000000000000000000000000000000000081565b7f000000000000000000000000000000000000000000000000000000000000000081565b7f000000000000000000000000000000000000000000000000000000000000000081565b60008060008060009054906101000a900473ffffffffffffffffffffffffffffffffffffffff1673ffffffffffffffffffffffffffffffffffffffff166332b7b4a8306040518263ffffffff1660e01b8152600401611b33919061286a565b606060405180830381865afa158015611b50573d6000803e3d6000fd5b505050506040513d601f19601f82011682018060405250810190611b7491906131a5565b9250925092506001548410611bbe576040517f08c379a0000000000000000000000000000000000000000000000000000000008152600401611bb590613244565b60405180910390fd5b6127608184611bcd9190612a56565b611bd79190612a56565b8483611be39190612d5e565b10611c23576040517f08c379a0000000000000000000000000000000000000000000000000000000008152600401611c1a906132d6565b60405180910390fd5b606447611c309190612adf565b8410611c71576040517f08c379a0000000000000000000000000000000000000000000000000000000008152600401611c6890613342565b60405180910390fd5b60008054906101000a900473ffffffffffffffffffffffffffffffffffffffff1673ffffffffffffffffffffffffffffffffffffffff166349fdfb5885306040518363ffffffff1660e01b8152600401611ccb919061286a565b6000604051808303818588803b158015611ce457600080fd5b505af1158015611cf8573d6000803e3d6000fd5b50505050507fd6338209fd93e4755e4eac0ba67b01f19ccadc837ef0f7421f07cf1a7d8c6a828433604051611d2e929190613362565b60405180910390a18360016000828254611d489190613171565b9250508190555050505050565b60008060008054906101000a900473ffffffffffffffffffffffffffffffffffffffff1673ffffffffffffffffffffffffffffffffffffffff1663bef55ef36040518163ffffffff1660e01b8152600401602060405180830381865afa158015611dc3573d6000803e3d6000fd5b505050506040513d601f19601f82011682018060405250810190611de7919061297d565b90506000600260009054906101000a900473ffffffffffffffffffffffffffffffffffffffff1673ffffffffffffffffffffffffffffffffffffffff166318160ddd6040518163ffffffff1660e01b8152600401602060405180830381865afa158015611e58573d6000803e3d6000fd5b505050506040513d601f19601f82011682018060405250810190611e7c919061297d565b905060008114611ed257611ecd82827f0000000000000000000000000000000000000000000000000000000000000000611eb4612534565b611ebe9190612a56565b611ec89190612adf565b61253c565b611ed4565b815b9250505090565b600080600360009054906101000a900473ffffffffffffffffffffffffffffffffffffffff1673ffffffffffffffffffffffffffffffffffffffff166318160ddd6040518163ffffffff1660e01b8152600401602060405180830381865afa158015611f4b573d6000803e3d6000fd5b505050506040513d601f19601f82011682018060405250810190611f6f919061297d565b90506000811415611f7f57600080fd5b807f0000000000000000000000000000000000000000000000000000000000000000611faa85612555565b611fb49190612a56565b611fbe9190612adf565b915050919050565b6000807f00000000000000000000000000000000000000000000000000000000000000007f0000000000000000000000000000000000000000000000000000000000000000866120169190612a56565b6120209190612adf565b905060007f000000000000000000000000000000000000000000000000000000000000000085876120519190612a56565b61205b9190612adf565b905060007f00000000000000000000000000000000000000000000000000000000000000006120886119ab565b886120939190612a56565b61209d9190612adf565b90508473ffffffffffffffffffffffffffffffffffffffff166108fc839081150290604051600060405180830381858888f193505050501580156120e5573d6000803e3d6000fd5b507f000000000000000000000000000000000000000000000000000000000000000073ffffffffffffffffffffffffffffffffffffffff166108fc829081150290604051600060405180830381858888f1935050505015801561214c573d6000803e3d6000fd5b50806004600082825461215f9190612d5e565b92505081905550600a836121739190612adf565b600160008282546121849190612d5e565b92505081905550808284896121999190613171565b6121a39190613171565b6121ad9190613171565b93505050509392505050565b60007f000000000000000000000000000000000000000000000000000000000000000082600260009054906101000a900473ffffffffffffffffffffffffffffffffffffffff1673ffffffffffffffffffffffffffffffffffffffff166318160ddd6040518163ffffffff1660e01b8152600401602060405180830381865afa15801561224a573d6000803e3d6000fd5b505050506040513d601f19601f8201168201806040525081019061226e919061297d565b6122789190612a56565b6122829190612a56565b7f00000000000000000000000000000000000000000000000000000000000000007f00000000000000000000000000000000000000000000000000000000000000006122cc612534565b6122d69190612a56565b6122e09190612a56565b119050919050565b60006122f382612579565b6122fb612534565b6123059190612adf565b9050919050565b600080600360009054906101000a900473ffffffffffffffffffffffffffffffffffffffff1673ffffffffffffffffffffffffffffffffffffffff166318160ddd6040518163ffffffff1660e01b8152600401602060405180830381865afa15801561237c573d6000803e3d6000fd5b505050506040513d601f19601f820116820180604052508101906123a0919061297d565b146123dc576123d76123b183611edb565b7f0000000000000000000000000000000000000000000000000000000000000000612649565b6123fe565b7f00000000000000000000000000000000000000000000000000000000000000005b9050919050565b60007f000000000000000000000000000000000000000000000000000000000000000082600260009054906101000a900473ffffffffffffffffffffffffffffffffffffffff1673ffffffffffffffffffffffffffffffffffffffff166318160ddd6040518163ffffffff1660e01b8152600401602060405180830381865afa158015612496573d6000803e3d6000fd5b505050506040513d601f19601f820116820180604052508101906124ba919061297d565b6124c49190612a56565b6124ce9190612a56565b7f00000000000000000000000000000000000000000000000000000000000000007f0000000000000000000000000000000000000000000000000000000000000000612518612534565b6125229190612a56565b61252c9190612a56565b109050919050565b600047905090565b600081831061254b578161254d565b825b905092915050565b600061256082612579565b612568612534565b6125729190613171565b9050919050565b60007f000000000000000000000000000000000000000000000000000000000000000082600260009054906101000a900473ffffffffffffffffffffffffffffffffffffffff1673ffffffffffffffffffffffffffffffffffffffff166318160ddd6040518163ffffffff1660e01b8152600401602060405180830381865afa15801561260a573d6000803e3d6000fd5b505050506040513d601f19601f8201168201806040525081019061262e919061297d565b6126389190612a56565b6126429190612adf565b9050919050565b600081831015612659578161265b565b825b905092915050565b600080fd5b6000819050919050565b61267b81612668565b811461268657600080fd5b50565b60008135905061269881612672565b92915050565b600073ffffffffffffffffffffffffffffffffffffffff82169050919050565b60006126c98261269e565b9050919050565b6126d9816126be565b81146126e457600080fd5b50565b6000813590506126f6816126d0565b92915050565b6000806000806080858703121561271657612715612663565b5b600061272487828801612689565b9450506020612735878288016126e7565b935050604061274687828801612689565b9250506060612757878288016126e7565b91505092959194509250565b61276c81612668565b82525050565b60006020820190506127876000830184612763565b92915050565b600080600080600060a086880312156127a9576127a8612663565b5b60006127b788828901612689565b95505060206127c888828901612689565b94505060406127d9888289016126e7565b93505060606127ea88828901612689565b92505060806127fb888289016126e7565b9150509295509295909350565b60008060006060848603121561282157612820612663565b5b600061282f868287016126e7565b935050602061284086828701612689565b9250506040612851868287016126e7565b9150509250925092565b612864816126be565b82525050565b600060208201905061287f600083018461285b565b92915050565b6000819050919050565b60006128aa6128a56128a08461269e565b612885565b61269e565b9050919050565b60006128bc8261288f565b9050919050565b60006128ce826128b1565b9050919050565b6128de816128c3565b82525050565b60006020820190506128f960008301846128d5565b92915050565b600061290a826128b1565b9050919050565b61291a816128ff565b82525050565b60006020820190506129356000830184612911565b92915050565b60006020828403121561295157612950612663565b5b600061295f84828501612689565b91505092915050565b60008151905061297781612672565b92915050565b60006020828403121561299357612992612663565b5b60006129a184828501612968565b91505092915050565b600082825260208201905092915050565b7f73656c6c52433a20696e73756666696369656e742052432062616c616e636500600082015250565b60006129f1601f836129aa565b91506129fc826129bb565b602082019050919050565b60006020820190508181036000830152612a20816129e4565b9050919050565b7f4e487b7100000000000000000000000000000000000000000000000000000000600052601160045260246000fd5b6000612a6182612668565b9150612a6c83612668565b9250817fffffffffffffffffffffffffffffffffffffffffffffffffffffffffffffffff0483118215151615612aa557612aa4612a27565b5b828202905092915050565b7f4e487b7100000000000000000000000000000000000000000000000000000000600052601260045260246000fd5b6000612aea82612668565b9150612af583612668565b925082612b0557612b04612ab0565b5b828204905092915050565b7f73656c6c52433a207478206c696d697420657863656564656400000000000000600082015250565b6000612b466019836129aa565b9150612b5182612b10565b602082019050919050565b60006020820190508181036000830152612b7581612b39565b9050919050565b6000604082019050612b91600083018561285b565b612b9e6020830184612763565b9392505050565b7f73656c6c52433a20726174696f2062656c6f77206d696e000000000000000000600082015250565b6000612bdb6017836129aa565b9150612be682612ba5565b602082019050919050565b60006020820190508181036000830152612c0a81612bce565b9050919050565b6000604082019050612c266000830185612763565b612c336020830184612763565b9392505050565b7f73656c6c426f74683a20696e73756666696369656e742053432062616c616e6360008201527f6500000000000000000000000000000000000000000000000000000000000000602082015250565b6000612c966021836129aa565b9150612ca182612c3a565b604082019050919050565b60006020820190508181036000830152612cc581612c89565b9050919050565b7f73656c6c426f74683a20696e73756666696369656e742052432062616c616e6360008201527f6500000000000000000000000000000000000000000000000000000000000000602082015250565b6000612d286021836129aa565b9150612d3382612ccc565b604082019050919050565b60006020820190508181036000830152612d5781612d1b565b9050919050565b6000612d6982612668565b9150612d7483612668565b9250827fffffffffffffffffffffffffffffffffffffffffffffffffffffffffffffffff03821115612da957612da8612a27565b5b828201905092915050565b7f73656c6c426f74683a207478206c696d69742065786365656465640000000000600082015250565b6000612dea601b836129aa565b9150612df582612db4565b602082019050919050565b60006020820190508181036000830152612e1981612ddd565b9050919050565b7f73656c6c426f74683a207265736572766520726174696f20646563726561736560008201527f6400000000000000000000000000000000000000000000000000000000000000602082015250565b6000612e7c6021836129aa565b9150612e8782612e20565b604082019050919050565b60006020820190508181036000830152612eab81612e6f565b9050919050565b6000606082019050612ec76000830186612763565b612ed46020830185612763565b612ee16040830184612763565b949350505050565b7f62757953433a207478206c696d69742065786365656465640000000000000000600082015250565b6000612f1f6018836129aa565b9150612f2a82612ee9565b602082019050919050565b60006020820190508181036000830152612f4e81612f12565b9050919050565b7f62757953433a20726174696f2062656c6f77206d696e00000000000000000000600082015250565b6000612f8b6016836129aa565b9150612f9682612f55565b602082019050919050565b60006020820190508181036000830152612fba81612f7e565b9050919050565b7f73656c6c53433a20696e73756666696369656e742053432062616c616e636500600082015250565b6000612ff7601f836129aa565b915061300282612fc1565b602082019050919050565b6000602082019050818103600083015261302681612fea565b9050919050565b7f73656c6c53433a207478206c696d697420657863656564656400000000000000600082015250565b60006130636019836129aa565b915061306e8261302d565b602082019050919050565b6000602082019050818103600083015261309281613056565b9050919050565b7f62757952433a207478206c696d69742065786365656465640000000000000000600082015250565b60006130cf6018836129aa565b91506130da82613099565b602082019050919050565b600060208201905081810360008301526130fe816130c2565b9050919050565b7f62757952433a20726174696f2061626f7665206d617800000000000000000000600082015250565b600061313b6016836129aa565b915061314682613105565b602082019050919050565b6000602082019050818103600083015261316a8161312e565b9050919050565b600061317c82612668565b915061318783612668565b92508282101561319a57613199612a27565b5b828203905092915050565b6000806000606084860312156131be576131bd612663565b5b60006131cc86828701612968565b93505060206131dd86828701612968565b92505060406131ee86828701612968565b9150509250925092565b7f696e73756666696369656e7420617661696c61626c652066756e64696e670000600082015250565b600061322e601e836129aa565b9150613239826131f8565b602082019050919050565b6000602082019050818103600083015261325d81613221565b9050919050565b7f6f7261636c652063726564697420776f756c6420657863656564206d6178696d60008201527f756d000000000000000000000000000000000000000000000000000000000000602082015250565b60006132c06022836129aa565b91506132cb82613264565b604082019050919050565b600060208201905081810360008301526132ef816132b3565b9050919050565b7f76616c75652067726561746572207468616e203125206f662072657365727665600082015250565b600061332c6020836129aa565b9150613337826132f6565b602082019050919050565b6000602082019050818103600083015261335b8161331f565b9050919050565b60006040820190506133776000830185612763565b613384602083018461285b565b939250505056fea2646970667358221220268d81c7d6b27f7030615faac7c04e57ab5e8972f8fd944ae87b538065e9c08b64736f6c634300080a003360a06040523480156200001157600080fd5b5060405162001d6838038062001d688339818101604052810190620000379190620002f6565b8181816003908051906020019062000051929190620000a9565b5080600490805190602001906200006a929190620000a9565b5050503373ffffffffffffffffffffffffffffffffffffffff1660808173ffffffffffffffffffffffffffffffffffffffff16815250505050620003e0565b828054620000b790620003aa565b90600052602060002090601f016020900481019282620000db576000855562000127565b82601f10620000f657805160ff191683800117855562000127565b8280016001018555821562000127579182015b828111156200012657825182559160200191906001019062000109565b5b5090506200013691906200013a565b5090565b5b80821115620001555760008160009055506001016200013b565b5090565b6000604051905090565b600080fd5b600080fd5b600080fd5b600080fd5b6000601f19601f8301169050919050565b7f4e487b7100000000000000000000000000000000000000000000000000000000600052604160045260246000fd5b620001c28262000177565b810181811067ffffffffffffffff82111715620001e457620001e362000188565b5b80604052505050565b6000620001f962000159565b9050620002078282620001b7565b919050565b600067ffffffffffffffff8211156200022a576200022962000188565b5b620002358262000177565b9050602081019050919050565b60005b838110156200026257808201518184015260208101905062000245565b8381111562000272576000848401525b50505050565b60006200028f62000289846200020c565b620001ed565b905082815260208101848484011115620002ae57620002ad62000172565b5b620002bb84828562000242565b509392505050565b600082601f830112620002db57620002da6200016d565b5b8151620002ed84826020860162000278565b91505092915050565b6000806040838503121562000310576200030f62000163565b5b600083015167ffffffffffffffff81111562000331576200033062000168565b5b6200033f85828601620002c3565b925050602083015167ffffffffffffffff81111562000363576200036262000168565b5b6200037185828601620002c3565b9150509250929050565b7f4e487b7100000000000000000000000000000000000000000000000000000000600052602260045260246000fd5b60006002820490506001821680620003c357607f821691505b60208210811415620003da57620003d96200037b565b5b50919050565b6080516119656200040360003960008181610404015261057a01526119656000f3fe608060405234801561001057600080fd5b50600436106100cf5760003560e01c806340c10f191161008c5780639dc29fac116100665780639dc29fac14610228578063a457c2d714610244578063a9059cbb14610274578063dd62ed3e146102a4576100cf565b806340c10f19146101be57806370a08231146101da57806395d89b411461020a576100cf565b806306fdde03146100d4578063095ea7b3146100f257806318160ddd1461012257806323b872dd14610140578063313ce56714610170578063395093511461018e575b600080fd5b6100dc6102d4565b6040516100e99190610fef565b60405180910390f35b61010c600480360381019061010791906110aa565b610366565b6040516101199190611105565b60405180910390f35b61012a610389565b604051610137919061112f565b60405180910390f35b61015a6004803603810190610155919061114a565b610393565b6040516101679190611105565b60405180910390f35b6101786103c2565b60405161018591906111b9565b60405180910390f35b6101a860048036038101906101a391906110aa565b6103cb565b6040516101b59190611105565b60405180910390f35b6101d860048036038101906101d391906110aa565b610402565b005b6101f460048036038101906101ef91906111d4565b61049e565b604051610201919061112f565b60405180910390f35b6102126104e6565b60405161021f9190610fef565b60405180910390f35b610242600480360381019061023d91906110aa565b610578565b005b61025e600480360381019061025991906110aa565b610614565b60405161026b9190611105565b60405180910390f35b61028e600480360381019061028991906110aa565b61068b565b60405161029b9190611105565b60405180910390f35b6102be60048036038101906102b99190611201565b6106ae565b6040516102cb919061112f565b60405180910390f35b6060600380546102e390611270565b80601f016020809104026020016040519081016040528092919081815260200182805461030f90611270565b801561035c5780601f106103315761010080835404028352916020019161035c565b820191906000526020600020905b81548152906001019060200180831161033f57829003601f168201915b5050505050905090565b600080610371610735565b905061037e81858561073d565b600191505092915050565b6000600254905090565b60008061039e610735565b90506103ab858285610908565b6103b6858585610994565b60019150509392505050565b60006006905090565b6000806103d6610735565b90506103f78185856103e885896106ae565b6103f291906112d1565b61073d565b600191505092915050565b7f000000000000000000000000000000000000000000000000000000000000000073ffffffffffffffffffffffffffffffffffffffff163373ffffffffffffffffffffffffffffffffffffffff1614610490576040517f08c379a000000000000000000000000000000000000000000000000000000000815260040161048790611373565b60405180910390fd5b61049a8282610c15565b5050565b60008060008373ffffffffffffffffffffffffffffffffffffffff1673ffffffffffffffffffffffffffffffffffffffff168152602001908152602001600020549050919050565b6060600480546104f590611270565b80601f016020809104026020016040519081016040528092919081815260200182805461052190611270565b801561056e5780601f106105435761010080835404028352916020019161056e565b820191906000526020600020905b81548152906001019060200180831161055157829003601f168201915b5050505050905090565b7f000000000000000000000000000000000000000000000000000000000000000073ffffffffffffffffffffffffffffffffffffffff163373ffffffffffffffffffffffffffffffffffffffff1614610606576040517f08c379a00000000000000000000000000000000000000000000000000000000081526004016105fd90611373565b60405180910390fd5b6106108282610d75565b5050565b60008061061f610735565b9050600061062d82866106ae565b905083811015610672576040517f08c379a000000000000000000000000000000000000000000000000000000000815260040161066990611405565b60405180910390fd5b61067f828686840361073d565b60019250505092915050565b600080610696610735565b90506106a3818585610994565b600191505092915050565b6000600160008473ffffffffffffffffffffffffffffffffffffffff1673ffffffffffffffffffffffffffffffffffffffff16815260200190815260200160002060008373ffffffffffffffffffffffffffffffffffffffff1673ffffffffffffffffffffffffffffffffffffffff16815260200190815260200160002054905092915050565b600033905090565b600073ffffffffffffffffffffffffffffffffffffffff168373ffffffffffffffffffffffffffffffffffffffff1614156107ad576040517f08c379a00000000000000000000000000000000000000000000000000000000081526004016107a490611497565b60405180910390fd5b600073ffffffffffffffffffffffffffffffffffffffff168273ffffffffffffffffffffffffffffffffffffffff16141561081d576040517f08c379a000000000000000000000000000000000000000000000000000000000815260040161081490611529565b60405180910390fd5b80600160008573ffffffffffffffffffffffffffffffffffffffff1673ffffffffffffffffffffffffffffffffffffffff16815260200190815260200160002060008473ffffffffffffffffffffffffffffffffffffffff1673ffffffffffffffffffffffffffffffffffffffff168152602001908152602001600020819055508173ffffffffffffffffffffffffffffffffffffffff168373ffffffffffffffffffffffffffffffffffffffff167f8c5be1e5ebec7d5bd14f71427d1e84f3dd0314c0f7b2291e5b200ac8c7c3b925836040516108fb919061112f565b60405180910390a3505050565b600061091484846106ae565b90507fffffffffffffffffffffffffffffffffffffffffffffffffffffffffffffffff811461098e5781811015610980576040517f08c379a000000000000000000000000000000000000000000000000000000000815260040161097790611595565b60405180910390fd5b61098d848484840361073d565b5b50505050565b600073ffffffffffffffffffffffffffffffffffffffff168373ffffffffffffffffffffffffffffffffffffffff161415610a04576040517f08c379a00000000000000000000000000000000000000000000000000000000081526004016109fb90611627565b60405180910390fd5b600073ffffffffffffffffffffffffffffffffffffffff168273ffffffffffffffffffffffffffffffffffffffff161415610a74576040517f08c379a0000000000000000000000000000000000000000000000000000000008152600401610a6b906116b9565b60405180910390fd5b610a7f838383610f4c565b60008060008573ffffffffffffffffffffffffffffffffffffffff1673ffffffffffffffffffffffffffffffffffffffff16815260200190815260200160002054905081811015610b05576040517f08c379a0000000000000000000000000000000000000000000000000000000008152600401610afc9061174b565b60405180910390fd5b8181036000808673ffffffffffffffffffffffffffffffffffffffff1673ffffffffffffffffffffffffffffffffffffffff16815260200190815260200160002081905550816000808573ffffffffffffffffffffffffffffffffffffffff1673ffffffffffffffffffffffffffffffffffffffff1681526020019081526020016000206000828254610b9891906112d1565b925050819055508273ffffffffffffffffffffffffffffffffffffffff168473ffffffffffffffffffffffffffffffffffffffff167fddf252ad1be2c89b69c2b068fc378daa952ba7f163c4a11628f55a4df523b3ef84604051610bfc919061112f565b60405180910390a3610c0f848484610f51565b50505050565b600073ffffffffffffffffffffffffffffffffffffffff168273ffffffffffffffffffffffffffffffffffffffff161415610c85576040517f08c379a0000000000000000000000000000000000000000000000000000000008152600401610c7c906117b7565b60405180910390fd5b610c9160008383610f4c565b8060026000828254610ca391906112d1565b92505081905550806000808473ffffffffffffffffffffffffffffffffffffffff1673ffffffffffffffffffffffffffffffffffffffff1681526020019081526020016000206000828254610cf891906112d1565b925050819055508173ffffffffffffffffffffffffffffffffffffffff16600073ffffffffffffffffffffffffffffffffffffffff167fddf252ad1be2c89b69c2b068fc378daa952ba7f163c4a11628f55a4df523b3ef83604051610d5d919061112f565b60405180910390a3610d7160008383610f51565b5050565b600073ffffffffffffffffffffffffffffffffffffffff168273ffffffffffffffffffffffffffffffffffffffff161415610de5576040517f08c379a0000000000000000000000000000000000000000000000000000000008152600401610ddc90611849565b60405180910390fd5b610df182600083610f4c565b60008060008473ffffffffffffffffffffffffffffffffffffffff1673ffffffffffffffffffffffffffffffffffffffff16815260200190815260200160002054905081811015610e77576040517f08c379a0000000000000000000000000000000000000000000000000000000008152600401610e6e906118db565b60405180910390fd5b8181036000808573ffffffffffffffffffffffffffffffffffffffff1673ffffffffffffffffffffffffffffffffffffffff168152602001908152602001600020819055508160026000828254610ece91906118fb565b92505081905550600073ffffffffffffffffffffffffffffffffffffffff168373ffffffffffffffffffffffffffffffffffffffff167fddf252ad1be2c89b69c2b068fc378daa952ba7f163c4a11628f55a4df523b3ef84604051610f33919061112f565b60405180910390a3610f4783600084610f51565b505050565b505050565b505050565b600081519050919050565b600082825260208201905092915050565b60005b83811015610f90578082015181840152602081019050610f75565b83811115610f9f576000848401525b50505050565b6000601f19601f8301169050919050565b6000610fc182610f56565b610fcb8185610f61565b9350610fdb818560208601610f72565b610fe481610fa5565b840191505092915050565b600060208201905081810360008301526110098184610fb6565b905092915050565b600080fd5b600073ffffffffffffffffffffffffffffffffffffffff82169050919050565b600061104182611016565b9050919050565b61105181611036565b811461105c57600080fd5b50565b60008135905061106e81611048565b92915050565b6000819050919050565b61108781611074565b811461109257600080fd5b50565b6000813590506110a48161107e565b92915050565b600080604083850312156110c1576110c0611011565b5b60006110cf8582860161105f565b92505060206110e085828601611095565b9150509250929050565b60008115159050919050565b6110ff816110ea565b82525050565b600060208201905061111a60008301846110f6565b92915050565b61112981611074565b82525050565b60006020820190506111446000830184611120565b92915050565b60008060006060848603121561116357611162611011565b5b60006111718682870161105f565b93505060206111828682870161105f565b925050604061119386828701611095565b9150509250925092565b600060ff82169050919050565b6111b38161119d565b82525050565b60006020820190506111ce60008301846111aa565b92915050565b6000602082840312156111ea576111e9611011565b5b60006111f88482850161105f565b91505092915050565b6000806040838503121561121857611217611011565b5b60006112268582860161105f565b92505060206112378582860161105f565b9150509250929050565b7f4e487b7100000000000000000000000000000000000000000000000000000000600052602260045260246000fd5b6000600282049050600182168061128857607f821691505b6020821081141561129c5761129b611241565b5b50919050565b7f4e487b7100000000000000000000000000000000000000000000000000000000600052601160045260246000fd5b60006112dc82611074565b91506112e783611074565b9250827fffffffffffffffffffffffffffffffffffffffffffffffffffffffffffffffff0382111561131c5761131b6112a2565b5b828201905092915050565b7f556e617574686f72697a65640000000000000000000000000000000000000000600082015250565b600061135d600c83610f61565b915061136882611327565b602082019050919050565b6000602082019050818103600083015261138c81611350565b9050919050565b7f45524332303a2064656372656173656420616c6c6f77616e63652062656c6f7760008201527f207a65726f000000000000000000000000000000000000000000000000000000602082015250565b60006113ef602583610f61565b91506113fa82611393565b604082019050919050565b6000602082019050818103600083015261141e816113e2565b9050919050565b7f45524332303a20617070726f76652066726f6d20746865207a65726f2061646460008201527f7265737300000000000000000000000000000000000000000000000000000000602082015250565b6000611481602483610f61565b915061148c82611425565b604082019050919050565b600060208201905081810360008301526114b081611474565b9050919050565b7f45524332303a20617070726f766520746f20746865207a65726f20616464726560008201527f7373000000000000000000000000000000000000000000000000000000000000602082015250565b6000611513602283610f61565b915061151e826114b7565b604082019050919050565b6000602082019050818103600083015261154281611506565b9050919050565b7f45524332303a20696e73756666696369656e7420616c6c6f77616e6365000000600082015250565b600061157f601d83610f61565b915061158a82611549565b602082019050919050565b600060208201905081810360008301526115ae81611572565b9050919050565b7f45524332303a207472616e736665722066726f6d20746865207a65726f20616460008201527f6472657373000000000000000000000000000000000000000000000000000000602082015250565b6000611611602583610f61565b915061161c826115b5565b604082019050919050565b6000602082019050818103600083015261164081611604565b9050919050565b7f45524332303a207472616e7366657220746f20746865207a65726f206164647260008201527f6573730000000000000000000000000000000000000000000000000000000000602082015250565b60006116a3602383610f61565b91506116ae82611647565b604082019050919050565b600060208201905081810360008301526116d281611696565b9050919050565b7f45524332303a207472616e7366657220616d6f756e742065786365656473206260008201527f616c616e63650000000000000000000000000000000000000000000000000000602082015250565b6000611735602683610f61565b9150611740826116d9565b604082019050919050565b6000602082019050818103600083015261176481611728565b9050919050565b7f45524332303a206d696e7420746f20746865207a65726f206164647265737300600082015250565b60006117a1601f83610f61565b91506117ac8261176b565b602082019050919050565b600060208201905081810360008301526117d081611794565b9050919050565b7f45524332303a206275726e2066726f6d20746865207a65726f2061646472657360008201527f7300000000000000000000000000000000000000000000000000000000000000602082015250565b6000611833602183610f61565b915061183e826117d7565b604082019050919050565b6000602082019050818103600083015261186281611826565b9050919050565b7f45524332303a206275726e20616d6f756e7420657863656564732062616c616e60008201527f6365000000000000000000000000000000000000000000000000000000000000602082015250565b60006118c5602283610f61565b91506118d082611869565b604082019050919050565b600060208201905081810360008301526118f4816118b8565b9050919050565b600061190682611074565b915061191183611074565b925082821015611924576119236112a2565b5b82820390509291505056fea264697066735822122063aed0bb8c5e6171770de66b1a5959ebb6a807cd502390de901991fd1ffb3fa764736f6c634300080a0033",
  "immutableReferences": {
    "890": [
      {
        "length": 32,
        "start": 4480
      },
      {
        "length": 32,
        "start": 8424
      }
    ],
    "892": [
      {
        "length": 32,
        "start": 4444
      },
      {
        "length": 32,
        "start": 6653
      },
      {
        "length": 32,
        "start": 6706
      }
    ],
    "894": [
      {
        "length": 32,
        "start": 5552
      },
      {
        "length": 32,
        "start": 6575
      },
      {
        "length": 32,
        "start": 6617
      }
    ],
    "899": [
      {
        "length": 32,
        "start": 2170
      },
      {
        "length": 32,
        "start": 8637
      }
    ],
    "901": [
      {
        "length": 32,
        "start": 6834
      },
      {
        "length": 32,
        "start": 9225
      }
    ],
    "903": [
      {
        "length": 32,
        "start": 6798
      },
      {
        "length": 32,
        "start": 8172
      }
    ],
    "905": [
      {
        "length": 32,
        "start": 1513
      },
      {
        "length": 32,
        "start": 2903
      },
      {
        "length": 32,
        "start": 3874
      },
      {
        "length": 32,
        "start": 4816
      },
      {
        "length": 32,
        "start": 5696
      },
      {
        "length": 32,
        "start": 6180
      },
      {
        "length": 32,
        "start": 6762
      }
    ],
    "907": [
      {
        "length": 32,
        "start": 3710
      },
      {
        "length": 32,
        "start": 9139
      },
      {
        "length": 32,
        "start": 9182
      }
    ],
    "909": [
      {
        "length": 32,
        "start": 1451
      },
      {
        "length": 32,
        "start": 2841
      },
      {
        "length": 32,
        "start": 3832
      },
      {
        "length": 32,
        "start": 4516
      },
      {
        "length": 32,
        "start": 4774
      },
      {
        "length": 32,
        "start": 5634
      }
    ],
    "911": [
      {
        "length": 32,
        "start": 8139
      },
      {
        "length": 32,
        "start": 8230
      },
      {
        "length": 32,
        "start": 8289
      },
      {
        "length": 32,
        "start": 8869
      },
      {
        "length": 32,
        "start": 9457
      }
    ],
    "913": [
      {
        "length": 32,
        "start": 1417
      },
      {
        "length": 32,
        "start": 2740
      },
      {
        "length": 32,
        "start": 2807
      },
      {
        "length": 32,
        "start": 3776
      },
      {
        "length": 32,
        "start": 5074
      },
      {
        "length": 32,
        "start": 5600
      },
      {
        "length": 32,
        "start": 7821
      },
      {
        "length": 32,
        "start": 8836
      },
      {
        "length": 32,
        "start": 9424
      },
      {
        "length": 32,
        "start": 9597
      }
    ],
    "915": [
      {
        "length": 32,
        "start": 1352
      },
      {
        "length": 32,
        "start": 2677
      },
      {
        "length": 32,
        "start": 5966
      },
      {
        "length": 32,
        "start": 8066
      }
    ]
  },
  "source": "// SPDX-License-Identifier: AFEL\npragma solidity ^0.8.0;\n\nimport \"@openzeppelin/contracts/utils/math/Math.sol\";\nimport \"./Coin.sol\";\nimport \"./OracleConsumer.sol\";\nimport \"./IOracle.sol\";\n\ncontract Djed is OracleConsumer {\n    Coin public stableCoin;\n    Coin public reserveCoin;\n\n    // Treasury Parameters:\n    address public immutable treasury;           // address of the treasury \n    uint public immutable initialTreasuryFee;    // initial fee to fund the treasury\n    uint public immutable treasuryRevenueTarget; // target revenue above which the treasury fee is set to 0\n    uint public treasuryRevenue = 0;             // holds how much has already been paid to the treasury // Mutable state variable\n\n    // Djed Parameters:\n    uint public immutable reserveRatioMin;\n    uint public immutable reserveRatioMax;\n    uint public immutable fee;\n    uint public immutable thresholdSupplySC;\n    uint public immutable rcMinPrice;\n    uint public immutable txLimit; \n\n    // Scaling factors:\n    uint immutable scalingFactor; // used to represent a decimal number `d` as the uint number `d * scalingFactor`\n    uint immutable scDecimalScalingFactor;\n    uint immutable rcDecimalScalingFactor;\n\n    event BoughtStableCoins(address indexed buyer, address indexed receiver, uint amountSC, uint amountBC);\n    event SoldStableCoins(address indexed seller, address indexed receiver, uint amountSC, uint amountBC);\n    event BoughtReserveCoins(address indexed buyer, address indexed receiver, uint amountRC, uint amountBC);\n    event SoldReserveCoins(address indexed seller, address indexed receiver, uint amountRC, uint amountBC);\n    event SoldBothCoins(address indexed seller, address indexed receiver, uint amountSC, uint amountRC, uint amountBC);\n\n    constructor(\n        address oracleAddress, uint _scalingFactor, address _treasury, uint _initialTreasuryFee, uint _treasuryRevenueTarget,\n        uint _reserveRatioMin, uint _reserveRatioMax, uint _fee, uint _thresholdSupplySC, uint _rcMinPrice, uint _txLimit\n    ) payable {\n        stableCoin = new Coin(\"StableCoin\", \"SC\");\n        reserveCoin = new Coin(\"ReserveCoin\", \"RC\");\n        scDecimalScalingFactor = 10**stableCoin.decimals();\n        rcDecimalScalingFactor = 10**reserveCoin.decimals();\n        oracle = IOracle(oracleAddress);\n        scalingFactor = _scalingFactor;\n\n        treasury = _treasury;\n        initialTreasuryFee = _initialTreasuryFee;\n        treasuryRevenueTarget = _treasuryRevenueTarget;\n\n        reserveRatioMin = _reserveRatioMin;\n        reserveRatioMax = _reserveRatioMax;\n        fee = _fee;\n        thresholdSupplySC = _thresholdSupplySC;\n        rcMinPrice = _rcMinPrice;\n        txLimit = _txLimit;\n    }\n\n    // Reserve, Liabilities, Equity (in weis) and Reserve Ratio\n    function R() internal view returns (uint) { return address(this).balance; }\n    function L(uint _scPrice) internal view returns (uint) { return stableCoin.totalSupply() * _scPrice / scDecimalScalingFactor; }\n    function E(uint _scPrice) internal view returns (uint) { return R() - L(_scPrice); }\n    function ratio(uint _scPrice) internal view returns (uint) { return R()/L(_scPrice); }\n\n    // # Public Trading Functions:\n\n    function buyStableCoins(address receiver, uint fee_ui, address ui) external payable {\n        uint amountBC = deductFees(msg.value, fee_ui, ui); // side-effect: increases `treasuryRevenue` and `oracleAvailableFunding`\n        uint scP = scPrice();\n        uint amountSC = (amountBC * scDecimalScalingFactor) / scP;\n        require(amountSC <= txLimit || stableCoin.totalSupply() <= thresholdSupplySC, \"buySC: tx limit exceeded\");\n        stableCoin.mint(receiver, amountSC);\n        require(isRatioAboveMin(scP), \"buySC: ratio below min\");\n        emit BoughtStableCoins(msg.sender, receiver, amountSC, msg.value);\n    }\n\n    function sellStableCoins(uint amountSC, address receiver, uint fee_ui, address ui) external {\n        require(stableCoin.balanceOf(msg.sender) >= amountSC, \"sellSC: insufficient SC balance\");\n        require(amountSC <= txLimit || stableCoin.totalSupply() <= thresholdSupplySC, \"sellSC: tx limit exceeded\");\n        uint scP = scPrice();\n        uint value = amountSC * scP / scDecimalScalingFactor;\n        uint amountBC = deductFees(value, fee_ui, ui); // side-effect: increases `treasuryRevenue` and `oracleAvailableFunding`\n        stableCoin.burn(msg.sender, amountSC);\n        payable(receiver).transfer(amountBC);\n        emit SoldStableCoins(msg.sender, receiver, amountSC, amountBC);\n    }\n\n    function buyReserveCoins(address receiver, uint fee_ui, address ui) external payable {\n        uint scP = scPrice();\n        require(msg.value <= txLimit  * scP / scDecimalScalingFactor || stableCoin.totalSupply() <= thresholdSupplySC, \"buyRC: tx limit exceeded\");\n        uint amountBC = deductFees(msg.value, fee_ui, ui); // side-effect: increases `treasuryRevenue` and `oracleAvailableFunding`\n        uint amountRC = (amountBC * rcDecimalScalingFactor) / rcBuyingPrice(scP);\n        reserveCoin.mint(receiver, amountRC);\n        require(isRatioBelowMax(scP) || stableCoin.totalSupply() <= thresholdSupplySC, \"buyRC: ratio above max\");\n        emit BoughtReserveCoins(msg.sender, receiver, amountRC, msg.value);\n    }   \n\n    function sellReserveCoins(uint amountRC, address receiver, uint fee_ui, address ui) external {\n        require(reserveCoin.balanceOf(msg.sender) >= amountRC, \"sellRC: insufficient RC balance\"); \n        uint scP = scPrice();\n        uint value = amountRC * rcTargetPrice(scP) / rcDecimalScalingFactor;\n        require(value <= txLimit * scP / scDecimalScalingFactor || stableCoin.totalSupply() <= thresholdSupplySC, \"sellRC: tx limit exceeded\");\n        uint amountBC = deductFees(value, fee_ui, ui); // side-effect: increases `treasuryRevenue` and `oracleAvailableFunding`\n        reserveCoin.burn(msg.sender, amountRC);\n        payable(receiver).transfer(amountBC);\n        require(isRatioAboveMin(scP), \"sellRC: ratio below min\");\n        emit SoldReserveCoins(msg.sender, receiver, amountRC, amountBC);\n    }\n\n    function sellBothCoins(uint amountSC, uint amountRC, address receiver, uint fee_ui, address ui) external {\n        require(stableCoin.balanceOf(msg.sender) >= amountSC, \"sellBoth: insufficient SC balance\"); \n        require(reserveCoin.balanceOf(msg.sender) >= amountRC, \"sellBoth: insufficient RC balance\");\n        uint scP = scPrice();\n        uint preRatio = ratio(scP);\n        uint value = amountSC * scP / scDecimalScalingFactor +\n                     amountRC * rcTargetPrice(scP) / rcDecimalScalingFactor;\n        require(value <= txLimit * scP / scDecimalScalingFactor || stableCoin.totalSupply() <= thresholdSupplySC, \"sellBoth: tx limit exceeded\");\n        stableCoin.burn(msg.sender, amountSC);\n        reserveCoin.burn(msg.sender, amountRC);\n        uint amountBC = deductFees(value, fee_ui, ui); // side-effect: increases `treasuryRevenue` and `oracleAvailableFunding`\n        payable(receiver).transfer(amountBC);\n        require(ratio(scP) >= preRatio, \"sellBoth: reserve ratio decreased\");\n        emit SoldBothCoins(msg.sender, receiver, amountSC, amountRC, amountBC);\n    }\n\n    // # Auxiliary Functions\n\n    function deductFees(uint value, uint fee_ui, address ui) internal returns (uint) {\n        uint f = value * fee / scalingFactor;\n        uint f_ui = value * fee_ui / scalingFactor;\n        uint f_t = value * treasuryFee() / scalingFactor;\n        // payable(address(this)).transfer(f); // this happens implicitly, and thus `f` is effectively transfered to the reserve.\n        payable(ui).transfer(f_ui);\n        payable(treasury).transfer(f_t); \n        treasuryRevenue += f_t;\n        oracleAvailableFunding += f / 10; // one 10th of the fee paid to the reserve is made available to be used to fund the oracle.\n        return value - f - f_ui - f_t; // amountBC\n    }\n \n    function isRatioAboveMin(uint _scPrice) internal view returns (bool) {\n        return R() * scalingFactor * scDecimalScalingFactor > stableCoin.totalSupply() * _scPrice * reserveRatioMin;\n    }\n\n    function isRatioBelowMax(uint _scPrice) internal view returns (bool) {\n        return R() * scalingFactor * scDecimalScalingFactor < stableCoin.totalSupply() * _scPrice * reserveRatioMax;\n    }\n\n    // Treasury Fee: starts as `initialTreasuryFee` and decreases linearly to 0 as the `treasuryRevenue` approaches the `treasuryRevenueTarget`\n    function treasuryFee() public view returns (uint) {\n        return (treasuryRevenue >= treasuryRevenueTarget) ? 0 : initialTreasuryFee - ((initialTreasuryFee * treasuryRevenue) / treasuryRevenueTarget);\n    }\n\n    // # Price Functions: return the price in weis for 1 whole coin.\n\n    function scPrice() internal view returns (uint) {\n        uint scTargetPrice = oracle.readData();\n        uint sSC = stableCoin.totalSupply();\n        return sSC == 0  ?  scTargetPrice  :  Math.min(scTargetPrice, (R() * scDecimalScalingFactor) / sSC);\n    }\n\n    function rcTargetPrice(uint _scPrice) internal view returns (uint) {\n        uint sRC = reserveCoin.totalSupply();\n        require(sRC != 0);\n        return (E(_scPrice) * rcDecimalScalingFactor) / sRC;\n    }\n\n    function rcBuyingPrice(uint _scPrice) internal view returns (uint) {\n        return reserveCoin.totalSupply() == 0  ?  rcMinPrice  :  Math.max(rcTargetPrice(_scPrice), rcMinPrice);\n    }\n}",
  "sourcePath": "/Users/bruno/Dropbox/DjedAlliance/Code/Djed-Solidity/src/Djed.sol",
  "compiler": {
    "name": "solc",
    "version": "0.8.10+commit.fc410830.Emscripten.clang"
  },
  "schemaVersion": "3.4.9",
  "updatedAt": "2022-09-16T11:19:16.577Z",
  "devdoc": {
    "kind": "dev",
    "methods": {},
    "version": 1
  },
  "userdoc": {
    "kind": "user",
    "methods": {},
    "version": 1
  }
}