{
  "contractName": "DjedProtocol",
  "abi": [
    {
      "inputs": [
        {
          "internalType": "uint256",
          "name": "_scalingFactor",
          "type": "uint256"
        },
        {
          "internalType": "uint256",
          "name": "_reserveRatioMin",
          "type": "uint256"
        },
        {
          "internalType": "uint256",
          "name": "_reserveRatioMax",
          "type": "uint256"
        },
        {
          "internalType": "uint256",
          "name": "_fee",
          "type": "uint256"
        },
        {
          "internalType": "uint256",
          "name": "_thresholdNumberSC",
          "type": "uint256"
        },
        {
          "internalType": "uint256",
          "name": "_reserveCoinWholeMinimumPriceBC",
          "type": "uint256"
        },
        {
          "internalType": "address",
          "name": "oracleAddress",
          "type": "address"
        }
      ],
      "stateMutability": "payable",
      "type": "constructor",
      "payable": true
    },
    {
      "anonymous": false,
      "inputs": [
        {
          "indexed": true,
          "internalType": "address",
          "name": "buyer",
          "type": "address"
        },
        {
          "indexed": false,
          "internalType": "uint256",
          "name": "amount",
          "type": "uint256"
        }
      ],
      "name": "BoughtReserveCoins",
      "type": "event"
    },
    {
      "anonymous": false,
      "inputs": [
        {
          "indexed": true,
          "internalType": "address",
          "name": "buyer",
          "type": "address"
        },
        {
          "indexed": false,
          "internalType": "uint256",
          "name": "amount",
          "type": "uint256"
        }
      ],
      "name": "BoughtStableCoins",
      "type": "event"
    },
    {
      "anonymous": false,
      "inputs": [
        {
          "indexed": false,
          "internalType": "uint256",
          "name": "amountRC",
          "type": "uint256"
        },
        {
          "indexed": false,
          "internalType": "uint256",
          "name": "totalBC",
          "type": "uint256"
        }
      ],
      "name": "PriceBuyRc",
      "type": "event"
    },
    {
      "anonymous": false,
      "inputs": [
        {
          "indexed": false,
          "internalType": "uint256",
          "name": "amountSC",
          "type": "uint256"
        },
        {
          "indexed": false,
          "internalType": "uint256",
          "name": "totalBC",
          "type": "uint256"
        }
      ],
      "name": "PriceBuySc",
      "type": "event"
    },
    {
      "anonymous": false,
      "inputs": [
        {
          "indexed": false,
          "internalType": "uint256",
          "name": "amountRC",
          "type": "uint256"
        },
        {
          "indexed": false,
          "internalType": "uint256",
          "name": "totalBC",
          "type": "uint256"
        }
      ],
      "name": "PriceSellRc",
      "type": "event"
    },
    {
      "anonymous": false,
      "inputs": [
        {
          "indexed": false,
          "internalType": "uint256",
          "name": "amountSC",
          "type": "uint256"
        },
        {
          "indexed": false,
          "internalType": "uint256",
          "name": "totalBC",
          "type": "uint256"
        }
      ],
      "name": "PriceSellSc",
      "type": "event"
    },
    {
      "anonymous": false,
      "inputs": [
        {
          "indexed": true,
          "internalType": "address",
          "name": "sender",
          "type": "address"
        },
        {
          "indexed": false,
          "internalType": "uint256",
          "name": "amount",
          "type": "uint256"
        }
      ],
      "name": "ReceivedBaseCoins",
      "type": "event"
    },
    {
      "anonymous": false,
      "inputs": [
        {
          "indexed": true,
          "internalType": "address",
          "name": "seller",
          "type": "address"
        },
        {
          "indexed": false,
          "internalType": "uint256",
          "name": "amount",
          "type": "uint256"
        }
      ],
      "name": "SoldReserveCoins",
      "type": "event"
    },
    {
      "anonymous": false,
      "inputs": [
        {
          "indexed": true,
          "internalType": "address",
          "name": "seller",
          "type": "address"
        },
        {
          "indexed": false,
          "internalType": "uint256",
          "name": "amount",
          "type": "uint256"
        }
      ],
      "name": "SoldStableCoins",
      "type": "event"
    },
    {
      "stateMutability": "payable",
      "type": "fallback",
      "payable": true
    },
    {
      "inputs": [],
      "name": "fee",
      "outputs": [
        {
          "internalType": "uint256",
          "name": "",
          "type": "uint256"
        }
      ],
      "stateMutability": "view",
      "type": "function",
      "constant": true
    },
    {
      "inputs": [],
      "name": "reserveBC",
      "outputs": [
        {
          "internalType": "uint256",
          "name": "",
          "type": "uint256"
        }
      ],
      "stateMutability": "view",
      "type": "function",
      "constant": true
    },
    {
      "inputs": [],
      "name": "reserveCoin",
      "outputs": [
        {
          "internalType": "contract DjedReserveCoin",
          "name": "",
          "type": "address"
        }
      ],
      "stateMutability": "view",
      "type": "function",
      "constant": true
    },
    {
      "inputs": [],
      "name": "reserveCoinWholeMinimumPriceBC",
      "outputs": [
        {
          "internalType": "uint256",
          "name": "",
          "type": "uint256"
        }
      ],
      "stateMutability": "view",
      "type": "function",
      "constant": true
    },
    {
      "inputs": [],
      "name": "reserveRatioMax",
      "outputs": [
        {
          "internalType": "uint256",
          "name": "",
          "type": "uint256"
        }
      ],
      "stateMutability": "view",
      "type": "function",
      "constant": true
    },
    {
      "inputs": [],
      "name": "reserveRatioMin",
      "outputs": [
        {
          "internalType": "uint256",
          "name": "",
          "type": "uint256"
        }
      ],
      "stateMutability": "view",
      "type": "function",
      "constant": true
    },
    {
      "inputs": [],
      "name": "stableCoin",
      "outputs": [
        {
          "internalType": "contract DjedStableCoin",
          "name": "",
          "type": "address"
        }
      ],
      "stateMutability": "view",
      "type": "function",
      "constant": true
    },
    {
      "inputs": [],
      "name": "thresholdNumberSC",
      "outputs": [
        {
          "internalType": "uint256",
          "name": "",
          "type": "uint256"
        }
      ],
      "stateMutability": "view",
      "type": "function",
      "constant": true
    },
    {
      "stateMutability": "payable",
      "type": "receive",
      "payable": true
    },
    {
      "inputs": [],
      "name": "buyStableCoins",
      "outputs": [],
      "stateMutability": "payable",
      "type": "function",
      "payable": true
    },
    {
      "inputs": [
        {
          "internalType": "uint256",
          "name": "amountSC",
          "type": "uint256"
        }
      ],
      "name": "sellStableCoins",
      "outputs": [],
      "stateMutability": "payable",
      "type": "function",
      "payable": true
    },
    {
      "inputs": [],
      "name": "buyReserveCoins",
      "outputs": [],
      "stateMutability": "payable",
      "type": "function",
      "payable": true
    },
    {
      "inputs": [
        {
          "internalType": "uint256",
          "name": "amountRC",
          "type": "uint256"
        }
      ],
      "name": "sellReserveCoins",
      "outputs": [],
      "stateMutability": "payable",
      "type": "function",
      "payable": true
    },
    {
      "inputs": [],
      "name": "getStableCoinWholeTargetPriceBC",
      "outputs": [
        {
          "internalType": "uint256",
          "name": "",
          "type": "uint256"
        }
      ],
      "stateMutability": "nonpayable",
      "type": "function"
    },
    {
      "inputs": [],
      "name": "getReserveCoinWholeBuyPriceBC",
      "outputs": [
        {
          "internalType": "uint256",
          "name": "",
          "type": "uint256"
        }
      ],
      "stateMutability": "nonpayable",
      "type": "function"
    },
    {
      "inputs": [],
      "name": "getReserveCoinWholeSellPriceBC",
      "outputs": [
        {
          "internalType": "uint256",
          "name": "",
          "type": "uint256"
        }
      ],
      "stateMutability": "nonpayable",
      "type": "function"
    },
    {
      "inputs": [
        {
          "internalType": "uint256",
          "name": "amountSC",
          "type": "uint256"
        }
      ],
      "name": "checkBuyableNStableCoins",
      "outputs": [
        {
          "internalType": "bool",
          "name": "",
          "type": "bool"
        }
      ],
      "stateMutability": "nonpayable",
      "type": "function"
    },
    {
      "inputs": [
        {
          "internalType": "uint256",
          "name": "amountRC",
          "type": "uint256"
        }
      ],
      "name": "checkBuyableNReserveCoins",
      "outputs": [
        {
          "internalType": "bool",
          "name": "",
          "type": "bool"
        }
      ],
      "stateMutability": "nonpayable",
      "type": "function"
    },
    {
      "inputs": [
        {
          "internalType": "uint256",
          "name": "amountRC",
          "type": "uint256"
        }
      ],
      "name": "checkSellableNReserveCoins",
      "outputs": [
        {
          "internalType": "bool",
          "name": "",
          "type": "bool"
        }
      ],
      "stateMutability": "nonpayable",
      "type": "function"
    },
    {
      "inputs": [],
      "name": "getMaxBuyableStableCoins",
      "outputs": [
        {
          "internalType": "uint256",
          "name": "",
          "type": "uint256"
        }
      ],
      "stateMutability": "nonpayable",
      "type": "function"
    },
    {
      "inputs": [],
      "name": "getMaxBuyableReserveCoins",
      "outputs": [
        {
          "internalType": "uint256",
          "name": "",
          "type": "uint256"
        }
      ],
      "stateMutability": "nonpayable",
      "type": "function"
    },
    {
      "inputs": [],
      "name": "getMaxSellableReserveCoins",
      "outputs": [
        {
          "internalType": "uint256",
          "name": "",
          "type": "uint256"
        }
      ],
      "stateMutability": "nonpayable",
      "type": "function"
    },
    {
      "inputs": [
        {
          "internalType": "uint256",
          "name": "amountSC",
          "type": "uint256"
        }
      ],
      "name": "getPriceBuyNStableCoinsBC",
      "outputs": [
        {
          "internalType": "uint256",
          "name": "",
          "type": "uint256"
        }
      ],
      "stateMutability": "nonpayable",
      "type": "function"
    },
    {
      "inputs": [
        {
          "internalType": "uint256",
          "name": "amountSC",
          "type": "uint256"
        }
      ],
      "name": "getPriceSellNStableCoinsBC",
      "outputs": [
        {
          "internalType": "uint256",
          "name": "",
          "type": "uint256"
        }
      ],
      "stateMutability": "nonpayable",
      "type": "function"
    },
    {
      "inputs": [
        {
          "internalType": "uint256",
          "name": "amountRC",
          "type": "uint256"
        }
      ],
      "name": "getPriceBuyNReserveCoinsBC",
      "outputs": [
        {
          "internalType": "uint256",
          "name": "",
          "type": "uint256"
        }
      ],
      "stateMutability": "nonpayable",
      "type": "function"
    },
    {
      "inputs": [
        {
          "internalType": "uint256",
          "name": "amountRC",
          "type": "uint256"
        }
      ],
      "name": "getPriceSellNReserveCoinsBC",
      "outputs": [
        {
          "internalType": "uint256",
          "name": "",
          "type": "uint256"
        }
      ],
      "stateMutability": "nonpayable",
      "type": "function"
    },
    {
      "inputs": [],
      "name": "getReserveRatio",
      "outputs": [
        {
          "internalType": "uint256",
          "name": "",
          "type": "uint256"
        }
      ],
      "stateMutability": "nonpayable",
      "type": "function"
    }
  ],
  "bytecode": "0x61018060405260405162007fc838038062007fc883398181016040528101906200002a9190620003bb565b34600381905550306040516200004090620002fa565b6200004c91906200047f565b604051809103906000f08015801562000069573d6000803e3d6000fd5b506000806101000a81548173ffffffffffffffffffffffffffffffffffffffff021916908373ffffffffffffffffffffffffffffffffffffffff16021790555030604051620000b89062000308565b620000c491906200047f565b604051809103906000f080158015620000e1573d6000803e3d6000fd5b50600160006101000a81548173ffffffffffffffffffffffffffffffffffffffff021916908373ffffffffffffffffffffffffffffffffffffffff16021790555060008054906101000a900473ffffffffffffffffffffffffffffffffffffffff1673ffffffffffffffffffffffffffffffffffffffff1663313ce5676040518163ffffffff1660e01b8152600401602060405180830381865afa1580156200018e573d6000803e3d6000fd5b505050506040513d601f19601f82011682018060405250810190620001b49190620004da565b60ff16600a620001c591906200068f565b60a08181525050600160009054906101000a900473ffffffffffffffffffffffffffffffffffffffff1673ffffffffffffffffffffffffffffffffffffffff1663313ce5676040518163ffffffff1660e01b8152600401602060405180830381865afa1580156200023a573d6000803e3d6000fd5b505050506040513d601f19601f82011682018060405250810190620002609190620004da565b60ff16600a6200027191906200068f565b60c0818152505080600260006101000a81548173ffffffffffffffffffffffffffffffffffffffff021916908373ffffffffffffffffffffffffffffffffffffffff16021790555086608081815250508560e0818152505084610100818152505083610120818152505082610140818152505081610160818152505050505050505050620006e0565b611da3806200448283390190565b611da3806200622583390190565b600080fd5b6000819050919050565b62000330816200031b565b81146200033c57600080fd5b50565b600081519050620003508162000325565b92915050565b600073ffffffffffffffffffffffffffffffffffffffff82169050919050565b6000620003838262000356565b9050919050565b620003958162000376565b8114620003a157600080fd5b50565b600081519050620003b5816200038a565b92915050565b600080600080600080600060e0888a031215620003dd57620003dc62000316565b5b6000620003ed8a828b016200033f565b9750506020620004008a828b016200033f565b9650506040620004138a828b016200033f565b9550506060620004268a828b016200033f565b9450506080620004398a828b016200033f565b93505060a06200044c8a828b016200033f565b92505060c06200045f8a828b01620003a4565b91505092959891949750929550565b620004798162000376565b82525050565b60006020820190506200049660008301846200046e565b92915050565b600060ff82169050919050565b620004b4816200049c565b8114620004c057600080fd5b50565b600081519050620004d481620004a9565b92915050565b600060208284031215620004f357620004f262000316565b5b60006200050384828501620004c3565b91505092915050565b7f4e487b7100000000000000000000000000000000000000000000000000000000600052601160045260246000fd5b60008160011c9050919050565b6000808291508390505b60018511156200059a578086048111156200057257620005716200050c565b5b6001851615620005825780820291505b808102905062000592856200053b565b945062000552565b94509492505050565b600082620005b5576001905062000688565b81620005c5576000905062000688565b8160018114620005de5760028114620005e9576200061f565b600191505062000688565b60ff841115620005fe57620005fd6200050c565b5b8360020a9150848211156200061857620006176200050c565b5b5062000688565b5060208310610133831016604e8410600b8410161715620006595782820a9050838111156200065357620006526200050c565b5b62000688565b62000668848484600162000548565b925090508184048111156200068257620006816200050c565b5b81810290505b9392505050565b60006200069c826200031b565b9150620006a9836200031b565b9250620006d87fffffffffffffffffffffffffffffffffffffffffffffffffffffffffffffffff8484620005a3565b905092915050565b60805160a05160c05160e05161010051610120516101405161016051613b9f620008e36000396000818161296001528181612d9701528181612dcf0152612df60152600081816109b601528181611295015281816115b201526119f301526000818161087101528181610b870152818161298401528181612c2b01528181612ec4015281816130710152613194015260008181610a72015281816129a80152612fd5015260008181610824015281816108b301528181610d6f01528181612b160152612f3a015260008181610be801528181611159015281816113aa0152818161155b0152818161158a01528181611f680152818161215a015281816123f201528181612c8c015261324701526000818161077a015281816107c701528181610a1501528181610b6601528181610e4101528181610f77015281816118160152818161195c01528181611c4801528181611c77015281816126d601528181612a6c01528181612ab901528181612c0a01528181612e4101528181612f710152818161300c0152818161321b015261327e0152600081816107e80152818161089201528181610a3601528181610ba801528181610f9801528181612ada01528181612c4c01528181612e9801528181612ee501528181612f920152818161302d01528181613092015281816130c80152818161316801526131b50152613b9f6000f3fe6080604052600436106101855760003560e01c8063992642e5116100d1578063c688495d1161008a578063dc0980a411610064578063dc0980a41461062c578063ddca3f4314610657578063e06b63fc14610682578063f05c8a77146106ad576101f3565b8063c688495d146105b7578063c75dbd73146105f4578063d10c285c14610610576101f3565b8063992642e5146104c4578063a0e87163146104ef578063ba4b59ae1461051a578063bfebe18214610545578063c4c1f04214610570578063c50546211461057a576101f3565b806356b6d0d51161013e5780637616121d116101185780637616121d1461041557806386d20c531461041f5780638e2e87321461045c5780638f005d6c14610487576101f3565b806356b6d0d51461037057806359dd5d731461039b5780635c81062c146103d8576101f3565b806302f15a921461025c5780630a57a0351461028757806319b8a81e146102b25780631f26a47d146102dd578063248f2422146103085780632b2dc02414610333576101f3565b366101f357346003600082825461019c919061335d565b925050819055503373ffffffffffffffffffffffffffffffffffffffff167fae786ea72ec3a884875da7f10f6311ab3e5fe5f17cbfff151b4ef848e2664c47346040516101e991906133c2565b60405180910390a2005b3460036000828254610205919061335d565b925050819055503373ffffffffffffffffffffffffffffffffffffffff167fae786ea72ec3a884875da7f10f6311ab3e5fe5f17cbfff151b4ef848e2664c473460405161025291906133c2565b60405180910390a2005b34801561026857600080fd5b506102716106d8565b60405161027e91906133c2565b60405180910390f35b34801561029357600080fd5b5061029c610911565b6040516102a991906133c2565b60405180910390f35b3480156102be57600080fd5b506102c7610920565b6040516102d491906133c2565b60405180910390f35b3480156102e957600080fd5b506102f2610c33565b6040516102ff91906133c2565b60405180910390f35b34801561031457600080fd5b5061031d610d6d565b60405161032a91906133c2565b60405180910390f35b34801561033f57600080fd5b5061035a6004803603810190610355919061340e565b610d91565b60405161036791906133c2565b60405180910390f35b34801561037c57600080fd5b50610385610eaa565b60405161039291906133c2565b60405180910390f35b3480156103a757600080fd5b506103c260048036038101906103bd919061340e565b610fe0565b6040516103cf9190613456565b60405180910390f35b3480156103e457600080fd5b506103ff60048036038101906103fa919061340e565b6111ff565b60405161040c9190613456565b60405180910390f35b61041d61140b565b005b34801561042b57600080fd5b506104466004803603810190610441919061340e565b611766565b60405161045391906133c2565b60405180910390f35b34801561046857600080fd5b5061047161187f565b60405161047e91906133c2565b60405180910390f35b34801561049357600080fd5b506104ae60048036038101906104a9919061340e565b611885565b6040516104bb9190613456565b60405180910390f35b3480156104d057600080fd5b506104d96119cd565b6040516104e691906134f0565b60405180910390f35b3480156104fb57600080fd5b506105046119f1565b60405161051191906133c2565b60405180910390f35b34801561052657600080fd5b5061052f611a15565b60405161053c91906133c2565b60405180910390f35b34801561055157600080fd5b5061055a611b68565b604051610567919061352c565b60405180910390f35b610578611b8e565b005b34801561058657600080fd5b506105a1600480360381019061059c919061340e565b611e27565b6040516105ae91906133c2565b60405180910390f35b3480156105c357600080fd5b506105de60048036038101906105d9919061340e565b611fd1565b6040516105eb91906133c2565b60405180910390f35b61060e6004803603810190610609919061340e565b6121c4565b005b61062a6004803603810190610625919061340e565b612621565b005b34801561063857600080fd5b5061064161295e565b60405161064e91906133c2565b60405180910390f35b34801561066357600080fd5b5061066c612982565b60405161067991906133c2565b60405180910390f35b34801561068e57600080fd5b506106976129a6565b6040516106a491906133c2565b60405180910390f35b3480156106b957600080fd5b506106c26129ca565b6040516106cf91906133c2565b60405180910390f35b60008060008054906101000a900473ffffffffffffffffffffffffffffffffffffffff1673ffffffffffffffffffffffffffffffffffffffff166318160ddd6040518163ffffffff1660e01b8152600401602060405180830381865afa158015610746573d6000803e3d6000fd5b505050506040513d601f19601f8201168201806040525081019061076a919061355c565b90506000610776612cd7565b90507f00000000000000000000000000000000000000000000000000000000000000006003546107a69190613589565b82826107b29190613589565b11156107c35760009250505061090e565b60007f00000000000000000000000000000000000000000000000000000000000000007f00000000000000000000000000000000000000000000000000000000000000006003546108149190613589565b61081e9190613589565b905060007f0000000000000000000000000000000000000000000000000000000000000000838561084f9190613589565b6108599190613589565b905080821161086f57600094505050505061090e565b7f00000000000000000000000000000000000000000000000000000000000000007f00000000000000000000000000000000000000000000000000000000000000007f00000000000000000000000000000000000000000000000000000000000000006108dc91906135e3565b6108e691906135e3565b836108f19190613589565b81836108fd91906135e3565b6109079190613646565b9450505050505b90565b600061091b612cd7565b905090565b60008060008054906101000a900473ffffffffffffffffffffffffffffffffffffffff1673ffffffffffffffffffffffffffffffffffffffff166318160ddd6040518163ffffffff1660e01b8152600401602060405180830381865afa15801561098e573d6000803e3d6000fd5b505050506040513d601f19601f820116820180604052508101906109b2919061355c565b90507f0000000000000000000000000000000000000000000000000000000000000000811015610a05577fffffffffffffffffffffffffffffffffffffffffffffffffffffffffffffffff915050610c30565b6000610a0f612cd7565b905060007f00000000000000000000000000000000000000000000000000000000000000007f0000000000000000000000000000000000000000000000000000000000000000600354610a629190613589565b610a6c9190613589565b905060007f00000000000000000000000000000000000000000000000000000000000000008385610a9d9190613589565b610aa79190613589565b9050808210610abd576000945050505050610c30565b6000600160009054906101000a900473ffffffffffffffffffffffffffffffffffffffff1673ffffffffffffffffffffffffffffffffffffffff166318160ddd6040518163ffffffff1660e01b8152600401602060405180830381865afa158015610b2c573d6000803e3d6000fd5b505050506040513d601f19601f82011682018060405250810190610b50919061355c565b90506000610b62828760035488612d8b565b90507f00000000000000000000000000000000000000000000000000000000000000007f00000000000000000000000000000000000000000000000000000000000000007f0000000000000000000000000000000000000000000000000000000000000000610bd1919061335d565b82610bdc9190613589565b610be69190613589565b7f00000000000000000000000000000000000000000000000000000000000000008585610c1391906135e3565b610c1d9190613589565b610c279190613646565b96505050505050505b90565b6000610d68600160009054906101000a900473ffffffffffffffffffffffffffffffffffffffff1673ffffffffffffffffffffffffffffffffffffffff166318160ddd6040518163ffffffff1660e01b8152600401602060405180830381865afa158015610ca5573d6000803e3d6000fd5b505050506040513d601f19601f82011682018060405250810190610cc9919061355c565b60008054906101000a900473ffffffffffffffffffffffffffffffffffffffff1673ffffffffffffffffffffffffffffffffffffffff166318160ddd6040518163ffffffff1660e01b8152600401602060405180830381865afa158015610d34573d6000803e3d6000fd5b505050506040513d601f19601f82011682018060405250810190610d58919061355c565b600354610d63612cd7565b612d8b565b905090565b7f000000000000000000000000000000000000000000000000000000000000000081565b600080610e3660008054906101000a900473ffffffffffffffffffffffffffffffffffffffff1673ffffffffffffffffffffffffffffffffffffffff166318160ddd6040518163ffffffff1660e01b8152600401602060405180830381865afa158015610e02573d6000803e3d6000fd5b505050506040513d601f19601f82011682018060405250810190610e26919061355c565b600354610e31612cd7565b612e2a565b90506000610e6584837f0000000000000000000000000000000000000000000000000000000000000000612e93565b90507fefdf667f55b25bad666c896954940f457a88f2d7ef5d543f7ae7df5797e1759b8482604051610e98929190613677565b60405180910390a18092505050919050565b60008060008054906101000a900473ffffffffffffffffffffffffffffffffffffffff1673ffffffffffffffffffffffffffffffffffffffff166318160ddd6040518163ffffffff1660e01b8152600401602060405180830381865afa158015610f18573d6000803e3d6000fd5b505050506040513d601f19601f82011682018060405250810190610f3c919061355c565b90506000811415610f51576000915050610fdd565b6000610f6782600354610f62612cd7565b612e2a565b90508181610f759190613589565b7f00000000000000000000000000000000000000000000000000000000000000007f0000000000000000000000000000000000000000000000000000000000000000600354610fc49190613589565b610fce9190613589565b610fd89190613646565b925050505b90565b60008060008054906101000a900473ffffffffffffffffffffffffffffffffffffffff1673ffffffffffffffffffffffffffffffffffffffff166318160ddd6040518163ffffffff1660e01b8152600401602060405180830381865afa15801561104e573d6000803e3d6000fd5b505050506040513d601f19601f82011682018060405250810190611072919061355c565b9050600061107e612cd7565b9050600061108f8360035484612e2a565b905061109e6003548483612f36565b6110ae57600093505050506111fa565b600061114e600160009054906101000a900473ffffffffffffffffffffffffffffffffffffffff1673ffffffffffffffffffffffffffffffffffffffff166318160ddd6040518163ffffffff1660e01b8152600401602060405180830381865afa158015611120573d6000803e3d6000fd5b505050506040513d601f19601f82011682018060405250810190611144919061355c565b8560035486612d8b565b9050600061117d87837f0000000000000000000000000000000000000000000000000000000000000000612e93565b90508060035410156111c4576040517f08c379a00000000000000000000000000000000000000000000000000000000081526004016111bb906136fd565b60405180910390fd5b6000816003546111d491906135e3565b905060006111e3878388612e2a565b90506111f0828883612f36565b9750505050505050505b919050565b60008060008054906101000a900473ffffffffffffffffffffffffffffffffffffffff1673ffffffffffffffffffffffffffffffffffffffff166318160ddd6040518163ffffffff1660e01b8152600401602060405180830381865afa15801561126d573d6000803e3d6000fd5b505050506040513d601f19601f82011682018060405250810190611291919061355c565b90507f00000000000000000000000000000000000000000000000000000000000000008110156112c5576001915050611406565b60006112cf612cd7565b905060006112e08360035484612e2a565b90506112ef6003548483612fd1565b6112ff5760009350505050611406565b600061139f600160009054906101000a900473ffffffffffffffffffffffffffffffffffffffff1673ffffffffffffffffffffffffffffffffffffffff166318160ddd6040518163ffffffff1660e01b8152600401602060405180830381865afa158015611371573d6000803e3d6000fd5b505050506040513d601f19601f82011682018060405250810190611395919061355c565b8560035486612d8b565b905060006113ce87837f0000000000000000000000000000000000000000000000000000000000000000612e93565b90506000816003546113e0919061335d565b905060006113ef878388612e2a565b90506113fc828883612fd1565b9750505050505050505b919050565b60008060009054906101000a900473ffffffffffffffffffffffffffffffffffffffff1673ffffffffffffffffffffffffffffffffffffffff166318160ddd6040518163ffffffff1660e01b8152600401602060405180830381865afa158015611479573d6000803e3d6000fd5b505050506040513d601f19601f8201168201806040525081019061149d919061355c565b90506000600160009054906101000a900473ffffffffffffffffffffffffffffffffffffffff1673ffffffffffffffffffffffffffffffffffffffff166318160ddd6040518163ffffffff1660e01b8152600401602060405180830381865afa15801561150e573d6000803e3d6000fd5b505050506040513d601f19601f82011682018060405250810190611532919061355c565b9050600061153e612cd7565b90506000611550838560035485612d8b565b9050600061157f34837f000000000000000000000000000000000000000000000000000000000000000061306c565b905060006115ae82847f0000000000000000000000000000000000000000000000000000000000000000612e93565b90507f000000000000000000000000000000000000000000000000000000000000000086106116575760006115e68760035487612e2a565b90506000826003546115f8919061335d565b90506000611607898389612e2a565b905061162f6003548a85604051806060016040528060218152602001613ae36021913961310f565b611653828a83604051806060016040528060228152602001613b046022913961310f565b5050505b803410156116685761166761371d565b5b806003600082825461167a919061335d565b92505081905550600160009054906101000a900473ffffffffffffffffffffffffffffffffffffffff1673ffffffffffffffffffffffffffffffffffffffff166340c10f1933846040518363ffffffff1660e01b81526004016116de92919061376d565b600060405180830381600087803b1580156116f857600080fd5b505af115801561170c573d6000803e3d6000fd5b505050503373ffffffffffffffffffffffffffffffffffffffff167f5f360c6e95a1f57a89921801996b387131d8a1c6db8049460249cb9499a38b958360405161175691906133c2565b60405180910390a2505050505050565b60008061180b60008054906101000a900473ffffffffffffffffffffffffffffffffffffffff1673ffffffffffffffffffffffffffffffffffffffff166318160ddd6040518163ffffffff1660e01b8152600401602060405180830381865afa1580156117d7573d6000803e3d6000fd5b505050506040513d601f19601f820116820180604052508101906117fb919061355c565b600354611806612cd7565b612e2a565b9050600061183a84837f0000000000000000000000000000000000000000000000000000000000000000613163565b90507faf71c8ed47d5395b4b0f3c69ceb5ceeb9badd654dd294b388fda7fee7c80b956848260405161186d929190613677565b60405180910390a18092505050919050565b60035481565b60008060008054906101000a900473ffffffffffffffffffffffffffffffffffffffff1673ffffffffffffffffffffffffffffffffffffffff166318160ddd6040518163ffffffff1660e01b8152600401602060405180830381865afa1580156118f3573d6000803e3d6000fd5b505050506040513d601f19601f82011682018060405250810190611917919061355c565b90506000611923612cd7565b905060006119348360035484612e2a565b90506119436003548483612f36565b61195357600093505050506119c8565b600061198086837f0000000000000000000000000000000000000000000000000000000000000000612e93565b905060008685611990919061335d565b90506000826003546119a2919061335d565b905060006119b1838388612e2a565b90506119be828483612f36565b9750505050505050505b919050565b60008054906101000a900473ffffffffffffffffffffffffffffffffffffffff1681565b7f000000000000000000000000000000000000000000000000000000000000000081565b600080600160009054906101000a900473ffffffffffffffffffffffffffffffffffffffff1673ffffffffffffffffffffffffffffffffffffffff166318160ddd6040518163ffffffff1660e01b8152600401602060405180830381865afa158015611a85573d6000803e3d6000fd5b505050506040513d601f19601f82011682018060405250810190611aa9919061355c565b90506000811415611abe576000915050611b65565b611b618160008054906101000a900473ffffffffffffffffffffffffffffffffffffffff1673ffffffffffffffffffffffffffffffffffffffff166318160ddd6040518163ffffffff1660e01b8152600401602060405180830381865afa158015611b2d573d6000803e3d6000fd5b505050506040513d601f19601f82011682018060405250810190611b51919061355c565b600354611b5c612cd7565b613206565b9150505b90565b600160009054906101000a900473ffffffffffffffffffffffffffffffffffffffff1681565b60008060009054906101000a900473ffffffffffffffffffffffffffffffffffffffff1673ffffffffffffffffffffffffffffffffffffffff166318160ddd6040518163ffffffff1660e01b8152600401602060405180830381865afa158015611bfc573d6000803e3d6000fd5b505050506040513d601f19601f82011682018060405250810190611c20919061355c565b90506000611c2c612cd7565b90506000611c3d8360035484612e2a565b90506000611c6c34837f000000000000000000000000000000000000000000000000000000000000000061306c565b90506000611c9b82847f0000000000000000000000000000000000000000000000000000000000000000612e93565b905060008286611cab919061335d565b9050600082600354611cbd919061335d565b90506000611ccc838389612e2a565b9050611cf46003548988604051806060016040528060218152602001613ac2602191396132d0565b611d18828483604051806060016040528060228152602001613b48602291396132d0565b83341015611d2957611d2861371d565b5b8360036000828254611d3b919061335d565b9250508190555060008054906101000a900473ffffffffffffffffffffffffffffffffffffffff1673ffffffffffffffffffffffffffffffffffffffff166340c10f1933876040518363ffffffff1660e01b8152600401611d9d92919061376d565b600060405180830381600087803b158015611db757600080fd5b505af1158015611dcb573d6000803e3d6000fd5b505050503373ffffffffffffffffffffffffffffffffffffffff167fa0513cc357003c76f3b8cb3e013a54447b25f30ad8f3a9b474ed15ddfad6038186604051611e1591906133c2565b60405180910390a25050505050505050565b600080611f5d600160009054906101000a900473ffffffffffffffffffffffffffffffffffffffff1673ffffffffffffffffffffffffffffffffffffffff166318160ddd6040518163ffffffff1660e01b8152600401602060405180830381865afa158015611e9a573d6000803e3d6000fd5b505050506040513d601f19601f82011682018060405250810190611ebe919061355c565b60008054906101000a900473ffffffffffffffffffffffffffffffffffffffff1673ffffffffffffffffffffffffffffffffffffffff166318160ddd6040518163ffffffff1660e01b8152600401602060405180830381865afa158015611f29573d6000803e3d6000fd5b505050506040513d601f19601f82011682018060405250810190611f4d919061355c565b600354611f58612cd7565b612d8b565b90506000611f8c84837f0000000000000000000000000000000000000000000000000000000000000000612e93565b90507f476b4ca0a9077445399e5ec9f4278c25e0a0ba9d18b9bb9b7e42ec5e423346688482604051611fbf929190613677565b60405180910390a18092505050919050565b600080600160009054906101000a900473ffffffffffffffffffffffffffffffffffffffff1673ffffffffffffffffffffffffffffffffffffffff166318160ddd6040518163ffffffff1660e01b8152600401602060405180830381865afa158015612041573d6000803e3d6000fd5b505050506040513d601f19601f82011682018060405250810190612065919061355c565b9050600081116120aa576040517f08c379a00000000000000000000000000000000000000000000000000000000081526004016120a190613808565b60405180910390fd5b600061214f8260008054906101000a900473ffffffffffffffffffffffffffffffffffffffff1673ffffffffffffffffffffffffffffffffffffffff166318160ddd6040518163ffffffff1660e01b8152600401602060405180830381865afa15801561211b573d6000803e3d6000fd5b505050506040513d601f19601f8201168201806040525081019061213f919061355c565b60035461214a612cd7565b613206565b9050600061217e85837f0000000000000000000000000000000000000000000000000000000000000000613163565b90507f305aefe3ede91b4130d176641a725a1cf67befd9920dacfa7cdbe03a6c27b87a85826040516121b1929190613677565b60405180910390a1809350505050919050565b80600160009054906101000a900473ffffffffffffffffffffffffffffffffffffffff1673ffffffffffffffffffffffffffffffffffffffff166370a08231336040518263ffffffff1660e01b81526004016122209190613828565b602060405180830381865afa15801561223d573d6000803e3d6000fd5b505050506040513d601f19601f82011682018060405250810190612261919061355c565b10156122a2576040517f08c379a00000000000000000000000000000000000000000000000000000000081526004016122999061388f565b60405180910390fd5b60008060009054906101000a900473ffffffffffffffffffffffffffffffffffffffff1673ffffffffffffffffffffffffffffffffffffffff166318160ddd6040518163ffffffff1660e01b8152600401602060405180830381865afa158015612310573d6000803e3d6000fd5b505050506040513d601f19601f82011682018060405250810190612334919061355c565b90506000600160009054906101000a900473ffffffffffffffffffffffffffffffffffffffff1673ffffffffffffffffffffffffffffffffffffffff166318160ddd6040518163ffffffff1660e01b8152600401602060405180830381865afa1580156123a5573d6000803e3d6000fd5b505050506040513d601f19601f820116820180604052508101906123c9919061355c565b905060006123d5612cd7565b905060006123e7838560035485613206565b9050600061241686837f0000000000000000000000000000000000000000000000000000000000000000613163565b905060006124278660035486612e2a565b905060008260035461243991906135e3565b90506000612448888388612e2a565b90506124706003548985604051806060016040528060228152602001613b26602291396132d0565b612494828983604051806060016040528060238152602001613a9f602391396132d0565b8360035410156124d9576040517f08c379a00000000000000000000000000000000000000000000000000000000081526004016124d0906138fb565b60405180910390fd5b83600360008282546124eb91906135e3565b92505081905550600160009054906101000a900473ffffffffffffffffffffffffffffffffffffffff1673ffffffffffffffffffffffffffffffffffffffff16639dc29fac338b6040518363ffffffff1660e01b815260040161254f92919061376d565b600060405180830381600087803b15801561256957600080fd5b505af115801561257d573d6000803e3d6000fd5b505050503373ffffffffffffffffffffffffffffffffffffffff166108fc859081150290604051600060405180830381858888f193505050501580156125c7573d6000803e3d6000fd5b503373ffffffffffffffffffffffffffffffffffffffff167fca76755bde817115b0cb1a1d8be6c1e36ae91f97719de5b6d5e2a146bce91d178a60405161260e91906133c2565b60405180910390a2505050505050505050565b60008060009054906101000a900473ffffffffffffffffffffffffffffffffffffffff1673ffffffffffffffffffffffffffffffffffffffff166318160ddd6040518163ffffffff1660e01b8152600401602060405180830381865afa15801561268f573d6000803e3d6000fd5b505050506040513d601f19601f820116820180604052508101906126b3919061355c565b905060006126cb826003546126c6612cd7565b612e2a565b905060006126fa84837f0000000000000000000000000000000000000000000000000000000000000000613163565b90508360008054906101000a900473ffffffffffffffffffffffffffffffffffffffff1673ffffffffffffffffffffffffffffffffffffffff166370a08231336040518263ffffffff1660e01b81526004016127569190613828565b602060405180830381865afa158015612773573d6000803e3d6000fd5b505050506040513d601f19601f82011682018060405250810190612797919061355c565b10156127d8576040517f08c379a00000000000000000000000000000000000000000000000000000000081526004016127cf90613967565b60405180910390fd5b80600354101561281d576040517f08c379a0000000000000000000000000000000000000000000000000000000008152600401612814906138fb565b60405180910390fd5b806003600082825461282f91906135e3565b9250508190555060008054906101000a900473ffffffffffffffffffffffffffffffffffffffff1673ffffffffffffffffffffffffffffffffffffffff16639dc29fac33866040518363ffffffff1660e01b815260040161289192919061376d565b600060405180830381600087803b1580156128ab57600080fd5b505af11580156128bf573d6000803e3d6000fd5b505050503373ffffffffffffffffffffffffffffffffffffffff166108fc829081150290604051600060405180830381858888f19350505050158015612909573d6000803e3d6000fd5b503373ffffffffffffffffffffffffffffffffffffffff167fcecdd70bead12876e23eb751da7ba3e55045ac51a9673372db3475c8c3235ec78560405161295091906133c2565b60405180910390a250505050565b7f000000000000000000000000000000000000000000000000000000000000000081565b7f000000000000000000000000000000000000000000000000000000000000000081565b7f000000000000000000000000000000000000000000000000000000000000000081565b60008060008054906101000a900473ffffffffffffffffffffffffffffffffffffffff1673ffffffffffffffffffffffffffffffffffffffff166318160ddd6040518163ffffffff1660e01b8152600401602060405180830381865afa158015612a38573d6000803e3d6000fd5b505050506040513d601f19601f82011682018060405250810190612a5c919061355c565b90506000612a68612cd7565b90507f0000000000000000000000000000000000000000000000000000000000000000600354612a989190613589565b8282612aa49190613589565b1115612ab557600092505050612cd4565b60007f00000000000000000000000000000000000000000000000000000000000000007f0000000000000000000000000000000000000000000000000000000000000000600354612b069190613589565b612b109190613589565b905060007f00000000000000000000000000000000000000000000000000000000000000008385612b419190613589565b612b4b9190613589565b9050808211612b61576000945050505050612cd4565b6000600160009054906101000a900473ffffffffffffffffffffffffffffffffffffffff1673ffffffffffffffffffffffffffffffffffffffff166318160ddd6040518163ffffffff1660e01b8152600401602060405180830381865afa158015612bd0573d6000803e3d6000fd5b505050506040513d601f19601f82011682018060405250810190612bf4919061355c565b90506000612c06828760035488612d8b565b90507f00000000000000000000000000000000000000000000000000000000000000007f00000000000000000000000000000000000000000000000000000000000000007f0000000000000000000000000000000000000000000000000000000000000000612c7591906135e3565b82612c809190613589565b612c8a9190613589565b7f00000000000000000000000000000000000000000000000000000000000000008486612cb791906135e3565b612cc19190613589565b612ccb9190613646565b96505050505050505b90565b600064e8d4a51000600260009054906101000a900473ffffffffffffffffffffffffffffffffffffffff1673ffffffffffffffffffffffffffffffffffffffff16633ba0b9a96040518163ffffffff1660e01b81526004016020604051808303816000875af1158015612d4e573d6000803e3d6000fd5b505050506040513d601f19601f82011682018060405250810190612d7291906139c7565b67ffffffffffffffff16612d869190613589565b905090565b600080851415612dbd577f00000000000000000000000000000000000000000000000000000000000000009050612e22565b6000612dcb86868686613206565b90507f00000000000000000000000000000000000000000000000000000000000000008111612e1d577f0000000000000000000000000000000000000000000000000000000000000000915050612e22565b809150505b949350505050565b600080841415612e3c57819050612e8c565b6000847f000000000000000000000000000000000000000000000000000000000000000085612e6b9190613589565b612e759190613646565b9050828110612e875782915050612e8c565b809150505b9392505050565b6000817f0000000000000000000000000000000000000000000000000000000000000000612ec19190613589565b837f00000000000000000000000000000000000000000000000000000000000000007f0000000000000000000000000000000000000000000000000000000000000000612f0e919061335d565b86612f199190613589565b612f239190613589565b612f2d9190613646565b90509392505050565b60007f00000000000000000000000000000000000000000000000000000000000000008284612f659190613589565b612f6f9190613589565b7f00000000000000000000000000000000000000000000000000000000000000007f000000000000000000000000000000000000000000000000000000000000000086612fbc9190613589565b612fc69190613589565b101590509392505050565b60007f000000000000000000000000000000000000000000000000000000000000000082846130009190613589565b61300a9190613589565b7f00000000000000000000000000000000000000000000000000000000000000007f0000000000000000000000000000000000000000000000000000000000000000866130579190613589565b6130619190613589565b111590509392505050565b6000827f00000000000000000000000000000000000000000000000000000000000000007f00000000000000000000000000000000000000000000000000000000000000006130bb919061335d565b6130c59190613589565b827f0000000000000000000000000000000000000000000000000000000000000000866130f29190613589565b6130fc9190613589565b6131069190613646565b90509392505050565b61311a848484612fd1565b819061315c576040517f08c379a00000000000000000000000000000000000000000000000000000000081526004016131539190613a7c565b60405180910390fd5b5050505050565b6000817f00000000000000000000000000000000000000000000000000000000000000006131919190613589565b837f00000000000000000000000000000000000000000000000000000000000000007f00000000000000000000000000000000000000000000000000000000000000006131de91906135e3565b866131e99190613589565b6131f39190613589565b6131fd9190613646565b90509392505050565b6000808514156132195761321861371d565b5b7f0000000000000000000000000000000000000000000000000000000000000000856132459190613589565b7f0000000000000000000000000000000000000000000000000000000000000000613271868686612e2a565b8661327c9190613589565b7f0000000000000000000000000000000000000000000000000000000000000000866132a89190613589565b6132b291906135e3565b6132bc9190613589565b6132c69190613646565b9050949350505050565b6132db848484612f36565b819061331d576040517f08c379a00000000000000000000000000000000000000000000000000000000081526004016133149190613a7c565b60405180910390fd5b5050505050565b6000819050919050565b7f4e487b7100000000000000000000000000000000000000000000000000000000600052601160045260246000fd5b600061336882613324565b915061337383613324565b9250827fffffffffffffffffffffffffffffffffffffffffffffffffffffffffffffffff038211156133a8576133a761332e565b5b828201905092915050565b6133bc81613324565b82525050565b60006020820190506133d760008301846133b3565b92915050565b600080fd5b6133eb81613324565b81146133f657600080fd5b50565b600081359050613408816133e2565b92915050565b600060208284031215613424576134236133dd565b5b6000613432848285016133f9565b91505092915050565b60008115159050919050565b6134508161343b565b82525050565b600060208201905061346b6000830184613447565b92915050565b600073ffffffffffffffffffffffffffffffffffffffff82169050919050565b6000819050919050565b60006134b66134b16134ac84613471565b613491565b613471565b9050919050565b60006134c88261349b565b9050919050565b60006134da826134bd565b9050919050565b6134ea816134cf565b82525050565b600060208201905061350560008301846134e1565b92915050565b6000613516826134bd565b9050919050565b6135268161350b565b82525050565b6000602082019050613541600083018461351d565b92915050565b600081519050613556816133e2565b92915050565b600060208284031215613572576135716133dd565b5b600061358084828501613547565b91505092915050565b600061359482613324565b915061359f83613324565b9250817fffffffffffffffffffffffffffffffffffffffffffffffffffffffffffffffff04831182151516156135d8576135d761332e565b5b828202905092915050565b60006135ee82613324565b91506135f983613324565b92508282101561360c5761360b61332e565b5b828203905092915050565b7f4e487b7100000000000000000000000000000000000000000000000000000000600052601260045260246000fd5b600061365182613324565b915061365c83613324565b92508261366c5761366b613617565b5b828204905092915050565b600060408201905061368c60008301856133b3565b61369960208301846133b3565b9392505050565b600082825260208201905092915050565b7f496e73756666696369656e742072657365727665730000000000000000000000600082015250565b60006136e76015836136a0565b91506136f2826136b1565b602082019050919050565b60006020820190508181036000830152613716816136da565b9050919050565b7f4e487b7100000000000000000000000000000000000000000000000000000000600052600160045260246000fd5b600061375782613471565b9050919050565b6137678161374c565b82525050565b6000604082019050613782600083018561375e565b61378f60208301846133b3565b9392505050565b7f4e6f2052437320696e2063697263756c6174696f6e2c20756e646566696e656460008201527f2070726963650000000000000000000000000000000000000000000000000000602082015250565b60006137f26026836136a0565b91506137fd82613796565b604082019050919050565b60006020820190508181036000830152613821816137e5565b9050919050565b600060208201905061383d600083018461375e565b92915050565b7f53656c6c65722068617320746f6f206665772052437300000000000000000000600082015250565b60006138796016836136a0565b915061388482613843565b602082019050919050565b600060208201905081810360008301526138a88161386c565b9050919050565b7f4e6f7420656e6f7567682042437320696e207265736572766500000000000000600082015250565b60006138e56019836136a0565b91506138f0826138af565b602082019050919050565b60006020820190508181036000830152613914816138d8565b9050919050565b7f53656c6c65722068617320746f6f206665772053437300000000000000000000600082015250565b60006139516016836136a0565b915061395c8261391b565b602082019050919050565b6000602082019050818103600083015261398081613944565b9050919050565b600067ffffffffffffffff82169050919050565b6139a481613987565b81146139af57600080fd5b50565b6000815190506139c18161399b565b92915050565b6000602082840312156139dd576139dc6133dd565b5b60006139eb848285016139b2565b91505092915050565b600081519050919050565b60005b83811015613a1d578082015181840152602081019050613a02565b83811115613a2c576000848401525b50505050565b6000601f19601f8301169050919050565b6000613a4e826139f4565b613a5881856136a0565b9350613a688185602086016139ff565b613a7181613a32565b840191505092915050565b60006020820190508181036000830152613a968184613a43565b90509291505056fe52432073656c6c20706f7374636f6e646974696f6e20646f6573206e6f7420686f6c6453432062757920707265636f6e646974696f6e20646f6573206e6f7420686f6c6452432062757920707265636f6e646974696f6e20646f6573206e6f7420686f6c6452432062757920706f7374636f6e646974696f6e20646f6573206e6f7420686f6c6452432073656c6c20707265636f6e646974696f6e20646f6573206e6f7420686f6c6453432062757920706f7374636f6e646974696f6e20646f6573206e6f7420686f6c64a264697066735822122006a08bceab03617d5535b0f2b0505f7941b29a144bfeb619dc373ad54b4d933864736f6c634300080a003360a06040523480156200001157600080fd5b5060405162001da338038062001da3833981810160405281019062000037919062000232565b6040518060400160405280601081526020017f446a656420537461626c6520436f696e000000000000000000000000000000008152506040518060400160405280600381526020017f44534300000000000000000000000000000000000000000000000000000000008152508282828160039080519060200190620000be92919062000118565b508060049080519060200190620000d792919062000118565b5050508073ffffffffffffffffffffffffffffffffffffffff1660808173ffffffffffffffffffffffffffffffffffffffff168152505050505050620002c9565b828054620001269062000293565b90600052602060002090601f0160209004810192826200014a576000855562000196565b82601f106200016557805160ff191683800117855562000196565b8280016001018555821562000196579182015b828111156200019557825182559160200191906001019062000178565b5b509050620001a59190620001a9565b5090565b5b80821115620001c4576000816000905550600101620001aa565b5090565b600080fd5b600073ffffffffffffffffffffffffffffffffffffffff82169050919050565b6000620001fa82620001cd565b9050919050565b6200020c81620001ed565b81146200021857600080fd5b50565b6000815190506200022c8162000201565b92915050565b6000602082840312156200024b576200024a620001c8565b5b60006200025b848285016200021b565b91505092915050565b7f4e487b7100000000000000000000000000000000000000000000000000000000600052602260045260246000fd5b60006002820490506001821680620002ac57607f821691505b60208210811415620002c357620002c262000264565b5b50919050565b608051611ab7620002ec6000396000818161047701526105ed0152611ab76000f3fe608060405234801561001057600080fd5b50600436106100cf5760003560e01c806340c10f191161008c5780639dc29fac116100665780639dc29fac14610228578063a457c2d714610244578063a9059cbb14610274578063dd62ed3e146102a4576100cf565b806340c10f19146101be57806370a08231146101da57806395d89b411461020a576100cf565b806306fdde03146100d4578063095ea7b3146100f257806318160ddd1461012257806323b872dd14610140578063313ce56714610170578063395093511461018e575b600080fd5b6100dc6102d4565b6040516100e991906110d5565b60405180910390f35b61010c60048036038101906101079190611190565b610366565b60405161011991906111eb565b60405180910390f35b61012a610389565b6040516101379190611215565b60405180910390f35b61015a60048036038101906101559190611230565b610393565b60405161016791906111eb565b60405180910390f35b6101786103c2565b604051610185919061129f565b60405180910390f35b6101a860048036038101906101a39190611190565b6103cb565b6040516101b591906111eb565b60405180910390f35b6101d860048036038101906101d39190611190565b610475565b005b6101f460048036038101906101ef91906112ba565b610511565b6040516102019190611215565b60405180910390f35b610212610559565b60405161021f91906110d5565b60405180910390f35b610242600480360381019061023d9190611190565b6105eb565b005b61025e60048036038101906102599190611190565b610687565b60405161026b91906111eb565b60405180910390f35b61028e60048036038101906102899190611190565b610771565b60405161029b91906111eb565b60405180910390f35b6102be60048036038101906102b991906112e7565b610794565b6040516102cb9190611215565b60405180910390f35b6060600380546102e390611356565b80601f016020809104026020016040519081016040528092919081815260200182805461030f90611356565b801561035c5780601f106103315761010080835404028352916020019161035c565b820191906000526020600020905b81548152906001019060200180831161033f57829003601f168201915b5050505050905090565b60008061037161081b565b905061037e818585610823565b600191505092915050565b6000600254905090565b60008061039e61081b565b90506103ab8582856109ee565b6103b6858585610a7a565b60019150509392505050565b60006006905090565b6000806103d661081b565b905061046a818585600160008673ffffffffffffffffffffffffffffffffffffffff1673ffffffffffffffffffffffffffffffffffffffff16815260200190815260200160002060008973ffffffffffffffffffffffffffffffffffffffff1673ffffffffffffffffffffffffffffffffffffffff1681526020019081526020016000205461046591906113b7565b610823565b600191505092915050565b7f000000000000000000000000000000000000000000000000000000000000000073ffffffffffffffffffffffffffffffffffffffff163373ffffffffffffffffffffffffffffffffffffffff1614610503576040517f08c379a00000000000000000000000000000000000000000000000000000000081526004016104fa90611459565b60405180910390fd5b61050d8282610cfb565b5050565b60008060008373ffffffffffffffffffffffffffffffffffffffff1673ffffffffffffffffffffffffffffffffffffffff168152602001908152602001600020549050919050565b60606004805461056890611356565b80601f016020809104026020016040519081016040528092919081815260200182805461059490611356565b80156105e15780601f106105b6576101008083540402835291602001916105e1565b820191906000526020600020905b8154815290600101906020018083116105c457829003601f168201915b5050505050905090565b7f000000000000000000000000000000000000000000000000000000000000000073ffffffffffffffffffffffffffffffffffffffff163373ffffffffffffffffffffffffffffffffffffffff1614610679576040517f08c379a0000000000000000000000000000000000000000000000000000000008152600401610670906114c5565b60405180910390fd5b6106838282610e5b565b5050565b60008061069261081b565b90506000600160008373ffffffffffffffffffffffffffffffffffffffff1673ffffffffffffffffffffffffffffffffffffffff16815260200190815260200160002060008673ffffffffffffffffffffffffffffffffffffffff1673ffffffffffffffffffffffffffffffffffffffff16815260200190815260200160002054905083811015610758576040517f08c379a000000000000000000000000000000000000000000000000000000000815260040161074f90611557565b60405180910390fd5b6107658286868403610823565b60019250505092915050565b60008061077c61081b565b9050610789818585610a7a565b600191505092915050565b6000600160008473ffffffffffffffffffffffffffffffffffffffff1673ffffffffffffffffffffffffffffffffffffffff16815260200190815260200160002060008373ffffffffffffffffffffffffffffffffffffffff1673ffffffffffffffffffffffffffffffffffffffff16815260200190815260200160002054905092915050565b600033905090565b600073ffffffffffffffffffffffffffffffffffffffff168373ffffffffffffffffffffffffffffffffffffffff161415610893576040517f08c379a000000000000000000000000000000000000000000000000000000000815260040161088a906115e9565b60405180910390fd5b600073ffffffffffffffffffffffffffffffffffffffff168273ffffffffffffffffffffffffffffffffffffffff161415610903576040517f08c379a00000000000000000000000000000000000000000000000000000000081526004016108fa9061167b565b60405180910390fd5b80600160008573ffffffffffffffffffffffffffffffffffffffff1673ffffffffffffffffffffffffffffffffffffffff16815260200190815260200160002060008473ffffffffffffffffffffffffffffffffffffffff1673ffffffffffffffffffffffffffffffffffffffff168152602001908152602001600020819055508173ffffffffffffffffffffffffffffffffffffffff168373ffffffffffffffffffffffffffffffffffffffff167f8c5be1e5ebec7d5bd14f71427d1e84f3dd0314c0f7b2291e5b200ac8c7c3b925836040516109e19190611215565b60405180910390a3505050565b60006109fa8484610794565b90507fffffffffffffffffffffffffffffffffffffffffffffffffffffffffffffffff8114610a745781811015610a66576040517f08c379a0000000000000000000000000000000000000000000000000000000008152600401610a5d906116e7565b60405180910390fd5b610a738484848403610823565b5b50505050565b600073ffffffffffffffffffffffffffffffffffffffff168373ffffffffffffffffffffffffffffffffffffffff161415610aea576040517f08c379a0000000000000000000000000000000000000000000000000000000008152600401610ae190611779565b60405180910390fd5b600073ffffffffffffffffffffffffffffffffffffffff168273ffffffffffffffffffffffffffffffffffffffff161415610b5a576040517f08c379a0000000000000000000000000000000000000000000000000000000008152600401610b519061180b565b60405180910390fd5b610b65838383611032565b60008060008573ffffffffffffffffffffffffffffffffffffffff1673ffffffffffffffffffffffffffffffffffffffff16815260200190815260200160002054905081811015610beb576040517f08c379a0000000000000000000000000000000000000000000000000000000008152600401610be29061189d565b60405180910390fd5b8181036000808673ffffffffffffffffffffffffffffffffffffffff1673ffffffffffffffffffffffffffffffffffffffff16815260200190815260200160002081905550816000808573ffffffffffffffffffffffffffffffffffffffff1673ffffffffffffffffffffffffffffffffffffffff1681526020019081526020016000206000828254610c7e91906113b7565b925050819055508273ffffffffffffffffffffffffffffffffffffffff168473ffffffffffffffffffffffffffffffffffffffff167fddf252ad1be2c89b69c2b068fc378daa952ba7f163c4a11628f55a4df523b3ef84604051610ce29190611215565b60405180910390a3610cf5848484611037565b50505050565b600073ffffffffffffffffffffffffffffffffffffffff168273ffffffffffffffffffffffffffffffffffffffff161415610d6b576040517f08c379a0000000000000000000000000000000000000000000000000000000008152600401610d6290611909565b60405180910390fd5b610d7760008383611032565b8060026000828254610d8991906113b7565b92505081905550806000808473ffffffffffffffffffffffffffffffffffffffff1673ffffffffffffffffffffffffffffffffffffffff1681526020019081526020016000206000828254610dde91906113b7565b925050819055508173ffffffffffffffffffffffffffffffffffffffff16600073ffffffffffffffffffffffffffffffffffffffff167fddf252ad1be2c89b69c2b068fc378daa952ba7f163c4a11628f55a4df523b3ef83604051610e439190611215565b60405180910390a3610e5760008383611037565b5050565b600073ffffffffffffffffffffffffffffffffffffffff168273ffffffffffffffffffffffffffffffffffffffff161415610ecb576040517f08c379a0000000000000000000000000000000000000000000000000000000008152600401610ec29061199b565b60405180910390fd5b610ed782600083611032565b60008060008473ffffffffffffffffffffffffffffffffffffffff1673ffffffffffffffffffffffffffffffffffffffff16815260200190815260200160002054905081811015610f5d576040517f08c379a0000000000000000000000000000000000000000000000000000000008152600401610f5490611a2d565b60405180910390fd5b8181036000808573ffffffffffffffffffffffffffffffffffffffff1673ffffffffffffffffffffffffffffffffffffffff168152602001908152602001600020819055508160026000828254610fb49190611a4d565b92505081905550600073ffffffffffffffffffffffffffffffffffffffff168373ffffffffffffffffffffffffffffffffffffffff167fddf252ad1be2c89b69c2b068fc378daa952ba7f163c4a11628f55a4df523b3ef846040516110199190611215565b60405180910390a361102d83600084611037565b505050565b505050565b505050565b600081519050919050565b600082825260208201905092915050565b60005b8381101561107657808201518184015260208101905061105b565b83811115611085576000848401525b50505050565b6000601f19601f8301169050919050565b60006110a78261103c565b6110b18185611047565b93506110c1818560208601611058565b6110ca8161108b565b840191505092915050565b600060208201905081810360008301526110ef818461109c565b905092915050565b600080fd5b600073ffffffffffffffffffffffffffffffffffffffff82169050919050565b6000611127826110fc565b9050919050565b6111378161111c565b811461114257600080fd5b50565b6000813590506111548161112e565b92915050565b6000819050919050565b61116d8161115a565b811461117857600080fd5b50565b60008135905061118a81611164565b92915050565b600080604083850312156111a7576111a66110f7565b5b60006111b585828601611145565b92505060206111c68582860161117b565b9150509250929050565b60008115159050919050565b6111e5816111d0565b82525050565b600060208201905061120060008301846111dc565b92915050565b61120f8161115a565b82525050565b600060208201905061122a6000830184611206565b92915050565b600080600060608486031215611249576112486110f7565b5b600061125786828701611145565b935050602061126886828701611145565b92505060406112798682870161117b565b9150509250925092565b600060ff82169050919050565b61129981611283565b82525050565b60006020820190506112b46000830184611290565b92915050565b6000602082840312156112d0576112cf6110f7565b5b60006112de84828501611145565b91505092915050565b600080604083850312156112fe576112fd6110f7565b5b600061130c85828601611145565b925050602061131d85828601611145565b9150509250929050565b7f4e487b7100000000000000000000000000000000000000000000000000000000600052602260045260246000fd5b6000600282049050600182168061136e57607f821691505b6020821081141561138257611381611327565b5b50919050565b7f4e487b7100000000000000000000000000000000000000000000000000000000600052601160045260246000fd5b60006113c28261115a565b91506113cd8361115a565b9250827fffffffffffffffffffffffffffffffffffffffffffffffffffffffffffffffff0382111561140257611401611388565b5b828201905092915050565b7f4f6e6c79206f776e65722063616e206d696e7400000000000000000000000000600082015250565b6000611443601383611047565b915061144e8261140d565b602082019050919050565b6000602082019050818103600083015261147281611436565b9050919050565b7f4f6e6c79206f776e65722063616e206275726e00000000000000000000000000600082015250565b60006114af601383611047565b91506114ba82611479565b602082019050919050565b600060208201905081810360008301526114de816114a2565b9050919050565b7f45524332303a2064656372656173656420616c6c6f77616e63652062656c6f7760008201527f207a65726f000000000000000000000000000000000000000000000000000000602082015250565b6000611541602583611047565b915061154c826114e5565b604082019050919050565b6000602082019050818103600083015261157081611534565b9050919050565b7f45524332303a20617070726f76652066726f6d20746865207a65726f2061646460008201527f7265737300000000000000000000000000000000000000000000000000000000602082015250565b60006115d3602483611047565b91506115de82611577565b604082019050919050565b60006020820190508181036000830152611602816115c6565b9050919050565b7f45524332303a20617070726f766520746f20746865207a65726f20616464726560008201527f7373000000000000000000000000000000000000000000000000000000000000602082015250565b6000611665602283611047565b915061167082611609565b604082019050919050565b6000602082019050818103600083015261169481611658565b9050919050565b7f45524332303a20696e73756666696369656e7420616c6c6f77616e6365000000600082015250565b60006116d1601d83611047565b91506116dc8261169b565b602082019050919050565b60006020820190508181036000830152611700816116c4565b9050919050565b7f45524332303a207472616e736665722066726f6d20746865207a65726f20616460008201527f6472657373000000000000000000000000000000000000000000000000000000602082015250565b6000611763602583611047565b915061176e82611707565b604082019050919050565b6000602082019050818103600083015261179281611756565b9050919050565b7f45524332303a207472616e7366657220746f20746865207a65726f206164647260008201527f6573730000000000000000000000000000000000000000000000000000000000602082015250565b60006117f5602383611047565b915061180082611799565b604082019050919050565b60006020820190508181036000830152611824816117e8565b9050919050565b7f45524332303a207472616e7366657220616d6f756e742065786365656473206260008201527f616c616e63650000000000000000000000000000000000000000000000000000602082015250565b6000611887602683611047565b91506118928261182b565b604082019050919050565b600060208201905081810360008301526118b68161187a565b9050919050565b7f45524332303a206d696e7420746f20746865207a65726f206164647265737300600082015250565b60006118f3601f83611047565b91506118fe826118bd565b602082019050919050565b60006020820190508181036000830152611922816118e6565b9050919050565b7f45524332303a206275726e2066726f6d20746865207a65726f2061646472657360008201527f7300000000000000000000000000000000000000000000000000000000000000602082015250565b6000611985602183611047565b915061199082611929565b604082019050919050565b600060208201905081810360008301526119b481611978565b9050919050565b7f45524332303a206275726e20616d6f756e7420657863656564732062616c616e60008201527f6365000000000000000000000000000000000000000000000000000000000000602082015250565b6000611a17602283611047565b9150611a22826119bb565b604082019050919050565b60006020820190508181036000830152611a4681611a0a565b9050919050565b6000611a588261115a565b9150611a638361115a565b925082821015611a7657611a75611388565b5b82820390509291505056fea26469706673582212203e23171fcc84802c898c25ad75a76b654e4b6afea7b325f904f6f005e25fc8bf64736f6c634300080a003360a06040523480156200001157600080fd5b5060405162001da338038062001da3833981810160405281019062000037919062000232565b6040518060400160405280601181526020017f446a6564205265736572766520436f696e0000000000000000000000000000008152506040518060400160405280600381526020017f44524300000000000000000000000000000000000000000000000000000000008152508282828160039080519060200190620000be92919062000118565b508060049080519060200190620000d792919062000118565b5050508073ffffffffffffffffffffffffffffffffffffffff1660808173ffffffffffffffffffffffffffffffffffffffff168152505050505050620002c9565b828054620001269062000293565b90600052602060002090601f0160209004810192826200014a576000855562000196565b82601f106200016557805160ff191683800117855562000196565b8280016001018555821562000196579182015b828111156200019557825182559160200191906001019062000178565b5b509050620001a59190620001a9565b5090565b5b80821115620001c4576000816000905550600101620001aa565b5090565b600080fd5b600073ffffffffffffffffffffffffffffffffffffffff82169050919050565b6000620001fa82620001cd565b9050919050565b6200020c81620001ed565b81146200021857600080fd5b50565b6000815190506200022c8162000201565b92915050565b6000602082840312156200024b576200024a620001c8565b5b60006200025b848285016200021b565b91505092915050565b7f4e487b7100000000000000000000000000000000000000000000000000000000600052602260045260246000fd5b60006002820490506001821680620002ac57607f821691505b60208210811415620002c357620002c262000264565b5b50919050565b608051611ab7620002ec6000396000818161047701526105ed0152611ab76000f3fe608060405234801561001057600080fd5b50600436106100cf5760003560e01c806340c10f191161008c5780639dc29fac116100665780639dc29fac14610228578063a457c2d714610244578063a9059cbb14610274578063dd62ed3e146102a4576100cf565b806340c10f19146101be57806370a08231146101da57806395d89b411461020a576100cf565b806306fdde03146100d4578063095ea7b3146100f257806318160ddd1461012257806323b872dd14610140578063313ce56714610170578063395093511461018e575b600080fd5b6100dc6102d4565b6040516100e991906110d5565b60405180910390f35b61010c60048036038101906101079190611190565b610366565b60405161011991906111eb565b60405180910390f35b61012a610389565b6040516101379190611215565b60405180910390f35b61015a60048036038101906101559190611230565b610393565b60405161016791906111eb565b60405180910390f35b6101786103c2565b604051610185919061129f565b60405180910390f35b6101a860048036038101906101a39190611190565b6103cb565b6040516101b591906111eb565b60405180910390f35b6101d860048036038101906101d39190611190565b610475565b005b6101f460048036038101906101ef91906112ba565b610511565b6040516102019190611215565b60405180910390f35b610212610559565b60405161021f91906110d5565b60405180910390f35b610242600480360381019061023d9190611190565b6105eb565b005b61025e60048036038101906102599190611190565b610687565b60405161026b91906111eb565b60405180910390f35b61028e60048036038101906102899190611190565b610771565b60405161029b91906111eb565b60405180910390f35b6102be60048036038101906102b991906112e7565b610794565b6040516102cb9190611215565b60405180910390f35b6060600380546102e390611356565b80601f016020809104026020016040519081016040528092919081815260200182805461030f90611356565b801561035c5780601f106103315761010080835404028352916020019161035c565b820191906000526020600020905b81548152906001019060200180831161033f57829003601f168201915b5050505050905090565b60008061037161081b565b905061037e818585610823565b600191505092915050565b6000600254905090565b60008061039e61081b565b90506103ab8582856109ee565b6103b6858585610a7a565b60019150509392505050565b60006006905090565b6000806103d661081b565b905061046a818585600160008673ffffffffffffffffffffffffffffffffffffffff1673ffffffffffffffffffffffffffffffffffffffff16815260200190815260200160002060008973ffffffffffffffffffffffffffffffffffffffff1673ffffffffffffffffffffffffffffffffffffffff1681526020019081526020016000205461046591906113b7565b610823565b600191505092915050565b7f000000000000000000000000000000000000000000000000000000000000000073ffffffffffffffffffffffffffffffffffffffff163373ffffffffffffffffffffffffffffffffffffffff1614610503576040517f08c379a00000000000000000000000000000000000000000000000000000000081526004016104fa90611459565b60405180910390fd5b61050d8282610cfb565b5050565b60008060008373ffffffffffffffffffffffffffffffffffffffff1673ffffffffffffffffffffffffffffffffffffffff168152602001908152602001600020549050919050565b60606004805461056890611356565b80601f016020809104026020016040519081016040528092919081815260200182805461059490611356565b80156105e15780601f106105b6576101008083540402835291602001916105e1565b820191906000526020600020905b8154815290600101906020018083116105c457829003601f168201915b5050505050905090565b7f000000000000000000000000000000000000000000000000000000000000000073ffffffffffffffffffffffffffffffffffffffff163373ffffffffffffffffffffffffffffffffffffffff1614610679576040517f08c379a0000000000000000000000000000000000000000000000000000000008152600401610670906114c5565b60405180910390fd5b6106838282610e5b565b5050565b60008061069261081b565b90506000600160008373ffffffffffffffffffffffffffffffffffffffff1673ffffffffffffffffffffffffffffffffffffffff16815260200190815260200160002060008673ffffffffffffffffffffffffffffffffffffffff1673ffffffffffffffffffffffffffffffffffffffff16815260200190815260200160002054905083811015610758576040517f08c379a000000000000000000000000000000000000000000000000000000000815260040161074f90611557565b60405180910390fd5b6107658286868403610823565b60019250505092915050565b60008061077c61081b565b9050610789818585610a7a565b600191505092915050565b6000600160008473ffffffffffffffffffffffffffffffffffffffff1673ffffffffffffffffffffffffffffffffffffffff16815260200190815260200160002060008373ffffffffffffffffffffffffffffffffffffffff1673ffffffffffffffffffffffffffffffffffffffff16815260200190815260200160002054905092915050565b600033905090565b600073ffffffffffffffffffffffffffffffffffffffff168373ffffffffffffffffffffffffffffffffffffffff161415610893576040517f08c379a000000000000000000000000000000000000000000000000000000000815260040161088a906115e9565b60405180910390fd5b600073ffffffffffffffffffffffffffffffffffffffff168273ffffffffffffffffffffffffffffffffffffffff161415610903576040517f08c379a00000000000000000000000000000000000000000000000000000000081526004016108fa9061167b565b60405180910390fd5b80600160008573ffffffffffffffffffffffffffffffffffffffff1673ffffffffffffffffffffffffffffffffffffffff16815260200190815260200160002060008473ffffffffffffffffffffffffffffffffffffffff1673ffffffffffffffffffffffffffffffffffffffff168152602001908152602001600020819055508173ffffffffffffffffffffffffffffffffffffffff168373ffffffffffffffffffffffffffffffffffffffff167f8c5be1e5ebec7d5bd14f71427d1e84f3dd0314c0f7b2291e5b200ac8c7c3b925836040516109e19190611215565b60405180910390a3505050565b60006109fa8484610794565b90507fffffffffffffffffffffffffffffffffffffffffffffffffffffffffffffffff8114610a745781811015610a66576040517f08c379a0000000000000000000000000000000000000000000000000000000008152600401610a5d906116e7565b60405180910390fd5b610a738484848403610823565b5b50505050565b600073ffffffffffffffffffffffffffffffffffffffff168373ffffffffffffffffffffffffffffffffffffffff161415610aea576040517f08c379a0000000000000000000000000000000000000000000000000000000008152600401610ae190611779565b60405180910390fd5b600073ffffffffffffffffffffffffffffffffffffffff168273ffffffffffffffffffffffffffffffffffffffff161415610b5a576040517f08c379a0000000000000000000000000000000000000000000000000000000008152600401610b519061180b565b60405180910390fd5b610b65838383611032565b60008060008573ffffffffffffffffffffffffffffffffffffffff1673ffffffffffffffffffffffffffffffffffffffff16815260200190815260200160002054905081811015610beb576040517f08c379a0000000000000000000000000000000000000000000000000000000008152600401610be29061189d565b60405180910390fd5b8181036000808673ffffffffffffffffffffffffffffffffffffffff1673ffffffffffffffffffffffffffffffffffffffff16815260200190815260200160002081905550816000808573ffffffffffffffffffffffffffffffffffffffff1673ffffffffffffffffffffffffffffffffffffffff1681526020019081526020016000206000828254610c7e91906113b7565b925050819055508273ffffffffffffffffffffffffffffffffffffffff168473ffffffffffffffffffffffffffffffffffffffff167fddf252ad1be2c89b69c2b068fc378daa952ba7f163c4a11628f55a4df523b3ef84604051610ce29190611215565b60405180910390a3610cf5848484611037565b50505050565b600073ffffffffffffffffffffffffffffffffffffffff168273ffffffffffffffffffffffffffffffffffffffff161415610d6b576040517f08c379a0000000000000000000000000000000000000000000000000000000008152600401610d6290611909565b60405180910390fd5b610d7760008383611032565b8060026000828254610d8991906113b7565b92505081905550806000808473ffffffffffffffffffffffffffffffffffffffff1673ffffffffffffffffffffffffffffffffffffffff1681526020019081526020016000206000828254610dde91906113b7565b925050819055508173ffffffffffffffffffffffffffffffffffffffff16600073ffffffffffffffffffffffffffffffffffffffff167fddf252ad1be2c89b69c2b068fc378daa952ba7f163c4a11628f55a4df523b3ef83604051610e439190611215565b60405180910390a3610e5760008383611037565b5050565b600073ffffffffffffffffffffffffffffffffffffffff168273ffffffffffffffffffffffffffffffffffffffff161415610ecb576040517f08c379a0000000000000000000000000000000000000000000000000000000008152600401610ec29061199b565b60405180910390fd5b610ed782600083611032565b60008060008473ffffffffffffffffffffffffffffffffffffffff1673ffffffffffffffffffffffffffffffffffffffff16815260200190815260200160002054905081811015610f5d576040517f08c379a0000000000000000000000000000000000000000000000000000000008152600401610f5490611a2d565b60405180910390fd5b8181036000808573ffffffffffffffffffffffffffffffffffffffff1673ffffffffffffffffffffffffffffffffffffffff168152602001908152602001600020819055508160026000828254610fb49190611a4d565b92505081905550600073ffffffffffffffffffffffffffffffffffffffff168373ffffffffffffffffffffffffffffffffffffffff167fddf252ad1be2c89b69c2b068fc378daa952ba7f163c4a11628f55a4df523b3ef846040516110199190611215565b60405180910390a361102d83600084611037565b505050565b505050565b505050565b600081519050919050565b600082825260208201905092915050565b60005b8381101561107657808201518184015260208101905061105b565b83811115611085576000848401525b50505050565b6000601f19601f8301169050919050565b60006110a78261103c565b6110b18185611047565b93506110c1818560208601611058565b6110ca8161108b565b840191505092915050565b600060208201905081810360008301526110ef818461109c565b905092915050565b600080fd5b600073ffffffffffffffffffffffffffffffffffffffff82169050919050565b6000611127826110fc565b9050919050565b6111378161111c565b811461114257600080fd5b50565b6000813590506111548161112e565b92915050565b6000819050919050565b61116d8161115a565b811461117857600080fd5b50565b60008135905061118a81611164565b92915050565b600080604083850312156111a7576111a66110f7565b5b60006111b585828601611145565b92505060206111c68582860161117b565b9150509250929050565b60008115159050919050565b6111e5816111d0565b82525050565b600060208201905061120060008301846111dc565b92915050565b61120f8161115a565b82525050565b600060208201905061122a6000830184611206565b92915050565b600080600060608486031215611249576112486110f7565b5b600061125786828701611145565b935050602061126886828701611145565b92505060406112798682870161117b565b9150509250925092565b600060ff82169050919050565b61129981611283565b82525050565b60006020820190506112b46000830184611290565b92915050565b6000602082840312156112d0576112cf6110f7565b5b60006112de84828501611145565b91505092915050565b600080604083850312156112fe576112fd6110f7565b5b600061130c85828601611145565b925050602061131d85828601611145565b9150509250929050565b7f4e487b7100000000000000000000000000000000000000000000000000000000600052602260045260246000fd5b6000600282049050600182168061136e57607f821691505b6020821081141561138257611381611327565b5b50919050565b7f4e487b7100000000000000000000000000000000000000000000000000000000600052601160045260246000fd5b60006113c28261115a565b91506113cd8361115a565b9250827fffffffffffffffffffffffffffffffffffffffffffffffffffffffffffffffff0382111561140257611401611388565b5b828201905092915050565b7f4f6e6c79206f776e65722063616e206d696e7400000000000000000000000000600082015250565b6000611443601383611047565b915061144e8261140d565b602082019050919050565b6000602082019050818103600083015261147281611436565b9050919050565b7f4f6e6c79206f776e65722063616e206275726e00000000000000000000000000600082015250565b60006114af601383611047565b91506114ba82611479565b602082019050919050565b600060208201905081810360008301526114de816114a2565b9050919050565b7f45524332303a2064656372656173656420616c6c6f77616e63652062656c6f7760008201527f207a65726f000000000000000000000000000000000000000000000000000000602082015250565b6000611541602583611047565b915061154c826114e5565b604082019050919050565b6000602082019050818103600083015261157081611534565b9050919050565b7f45524332303a20617070726f76652066726f6d20746865207a65726f2061646460008201527f7265737300000000000000000000000000000000000000000000000000000000602082015250565b60006115d3602483611047565b91506115de82611577565b604082019050919050565b60006020820190508181036000830152611602816115c6565b9050919050565b7f45524332303a20617070726f766520746f20746865207a65726f20616464726560008201527f7373000000000000000000000000000000000000000000000000000000000000602082015250565b6000611665602283611047565b915061167082611609565b604082019050919050565b6000602082019050818103600083015261169481611658565b9050919050565b7f45524332303a20696e73756666696369656e7420616c6c6f77616e6365000000600082015250565b60006116d1601d83611047565b91506116dc8261169b565b602082019050919050565b60006020820190508181036000830152611700816116c4565b9050919050565b7f45524332303a207472616e736665722066726f6d20746865207a65726f20616460008201527f6472657373000000000000000000000000000000000000000000000000000000602082015250565b6000611763602583611047565b915061176e82611707565b604082019050919050565b6000602082019050818103600083015261179281611756565b9050919050565b7f45524332303a207472616e7366657220746f20746865207a65726f206164647260008201527f6573730000000000000000000000000000000000000000000000000000000000602082015250565b60006117f5602383611047565b915061180082611799565b604082019050919050565b60006020820190508181036000830152611824816117e8565b9050919050565b7f45524332303a207472616e7366657220616d6f756e742065786365656473206260008201527f616c616e63650000000000000000000000000000000000000000000000000000602082015250565b6000611887602683611047565b91506118928261182b565b604082019050919050565b600060208201905081810360008301526118b68161187a565b9050919050565b7f45524332303a206d696e7420746f20746865207a65726f206164647265737300600082015250565b60006118f3601f83611047565b91506118fe826118bd565b602082019050919050565b60006020820190508181036000830152611922816118e6565b9050919050565b7f45524332303a206275726e2066726f6d20746865207a65726f2061646472657360008201527f7300000000000000000000000000000000000000000000000000000000000000602082015250565b6000611985602183611047565b915061199082611929565b604082019050919050565b600060208201905081810360008301526119b481611978565b9050919050565b7f45524332303a206275726e20616d6f756e7420657863656564732062616c616e60008201527f6365000000000000000000000000000000000000000000000000000000000000602082015250565b6000611a17602283611047565b9150611a22826119bb565b604082019050919050565b60006020820190508181036000830152611a4681611a0a565b9050919050565b6000611a588261115a565b9150611a638361115a565b925082821015611a7657611a75611388565b5b82820390509291505056fea264697066735822122009cc15f154141b77e793c726f62670ff962f5879a47e01bd43273cf775cb213b64736f6c634300080a0033",
  "immutableReferences": {
    "738": [
      {
        "length": 32,
        "start": 2024
      },
      {
        "length": 32,
        "start": 2194
      },
      {
        "length": 32,
        "start": 2614
      },
      {
        "length": 32,
        "start": 2984
      },
      {
        "length": 32,
        "start": 3992
      },
      {
        "length": 32,
        "start": 10970
      },
      {
        "length": 32,
        "start": 11340
      },
      {
        "length": 32,
        "start": 11928
      },
      {
        "length": 32,
        "start": 12005
      },
      {
        "length": 32,
        "start": 12178
      },
      {
        "length": 32,
        "start": 12333
      },
      {
        "length": 32,
        "start": 12434
      },
      {
        "length": 32,
        "start": 12488
      },
      {
        "length": 32,
        "start": 12648
      },
      {
        "length": 32,
        "start": 12725
      }
    ],
    "740": [
      {
        "length": 32,
        "start": 1914
      },
      {
        "length": 32,
        "start": 1991
      },
      {
        "length": 32,
        "start": 2581
      },
      {
        "length": 32,
        "start": 2918
      },
      {
        "length": 32,
        "start": 3649
      },
      {
        "length": 32,
        "start": 3959
      },
      {
        "length": 32,
        "start": 6166
      },
      {
        "length": 32,
        "start": 6492
      },
      {
        "length": 32,
        "start": 7240
      },
      {
        "length": 32,
        "start": 7287
      },
      {
        "length": 32,
        "start": 9942
      },
      {
        "length": 32,
        "start": 10860
      },
      {
        "length": 32,
        "start": 10937
      },
      {
        "length": 32,
        "start": 11274
      },
      {
        "length": 32,
        "start": 11841
      },
      {
        "length": 32,
        "start": 12145
      },
      {
        "length": 32,
        "start": 12300
      },
      {
        "length": 32,
        "start": 12827
      },
      {
        "length": 32,
        "start": 12926
      }
    ],
    "742": [
      {
        "length": 32,
        "start": 3048
      },
      {
        "length": 32,
        "start": 4441
      },
      {
        "length": 32,
        "start": 5034
      },
      {
        "length": 32,
        "start": 5467
      },
      {
        "length": 32,
        "start": 5514
      },
      {
        "length": 32,
        "start": 8040
      },
      {
        "length": 32,
        "start": 8538
      },
      {
        "length": 32,
        "start": 9202
      },
      {
        "length": 32,
        "start": 11404
      },
      {
        "length": 32,
        "start": 12871
      }
    ],
    "746": [
      {
        "length": 32,
        "start": 2084
      },
      {
        "length": 32,
        "start": 2227
      },
      {
        "length": 32,
        "start": 3439
      },
      {
        "length": 32,
        "start": 11030
      },
      {
        "length": 32,
        "start": 12090
      }
    ],
    "748": [
      {
        "length": 32,
        "start": 2674
      },
      {
        "length": 32,
        "start": 10664
      },
      {
        "length": 32,
        "start": 12245
      }
    ],
    "750": [
      {
        "length": 32,
        "start": 2161
      },
      {
        "length": 32,
        "start": 2951
      },
      {
        "length": 32,
        "start": 10628
      },
      {
        "length": 32,
        "start": 11307
      },
      {
        "length": 32,
        "start": 11972
      },
      {
        "length": 32,
        "start": 12401
      },
      {
        "length": 32,
        "start": 12692
      }
    ],
    "752": [
      {
        "length": 32,
        "start": 2486
      },
      {
        "length": 32,
        "start": 4757
      },
      {
        "length": 32,
        "start": 5554
      },
      {
        "length": 32,
        "start": 6643
      }
    ],
    "754": [
      {
        "length": 32,
        "start": 10592
      },
      {
        "length": 32,
        "start": 11671
      },
      {
        "length": 32,
        "start": 11727
      },
      {
        "length": 32,
        "start": 11766
      }
    ]
  },
  "source": "// SPDX-License-Identifier: MIT\npragma solidity ^0.8.0;\n\nimport \"./DjedStableCoin.sol\";\nimport \"./DjedReserveCoin.sol\";\n//import \"./ExchangeRateOracle.sol\";\nimport \"./IPriceOracle.sol\";\n\ncontract DjedProtocol {\n    DjedStableCoin public stableCoin;\n    DjedReserveCoin public reserveCoin;\n\n    IPriceOracle oracle;\n\n    // The oracle implementation for this version of Djed\n    // returns the USD/ADA exchange rate multiplied by 1e6,\n    // thus, multiplication by 1e12 is needed to reach the\n    // 18 decimals of milkADA.\n    uint256 constant EXCHANGE_RATE_SCALING = 1e12;\n\n    uint256 constant MAX_UINT256 = 2**256 - 1;\n\n    uint256 immutable scalingFactor;\n    uint256 immutable scDecimalScalingFactor;\n    uint256 immutable rcDecimalScalingFactor;\n\n    // State variable:\n    uint256 public reserveBC;\n\n    // System parameters:\n    uint256 public immutable reserveRatioMin;\n    uint256 public immutable reserveRatioMax;\n    uint256 public immutable fee;\n    uint256 public immutable thresholdNumberSC;\n    uint256 public immutable reserveCoinWholeMinimumPriceBC;\n\n    event BoughtStableCoins(address indexed buyer, uint256 amount);\n    event SoldStableCoins(address indexed seller, uint256 amount);\n    event BoughtReserveCoins(address indexed buyer, uint256 amount);\n    event SoldReserveCoins(address indexed seller, uint256 amount);\n\n    event PriceBuySc(uint256 amountSC, uint256 totalBC);\n    event PriceSellSc(uint256 amountSC, uint256 totalBC);\n    event PriceBuyRc(uint256 amountRC, uint256 totalBC);\n    event PriceSellRc(uint256 amountRC, uint256 totalBC);\n\n    event ReceivedBaseCoins(address indexed sender, uint256 amount);\n\n    constructor(\n        uint256 _scalingFactor,\n        uint256 _reserveRatioMin,\n        uint256 _reserveRatioMax,\n        uint256 _fee,\n        uint256 _thresholdNumberSC,\n        uint256 _reserveCoinWholeMinimumPriceBC,\n        address oracleAddress\n    ) payable {\n        reserveBC = msg.value;\n        stableCoin = new DjedStableCoin(address(this));\n        reserveCoin = new DjedReserveCoin(address(this));\n\n        scDecimalScalingFactor = uint256(10)**uint256(stableCoin.decimals());\n        rcDecimalScalingFactor = uint256(10)**uint256(reserveCoin.decimals());\n\n        oracle = IPriceOracle(oracleAddress);\n\n        scalingFactor = _scalingFactor;\n        reserveRatioMin = _reserveRatioMin;\n        reserveRatioMax = _reserveRatioMax;\n        fee = _fee;\n        thresholdNumberSC = _thresholdNumberSC;\n        reserveCoinWholeMinimumPriceBC = _reserveCoinWholeMinimumPriceBC;\n    }\n\n    receive() external payable {\n        reserveBC += msg.value;\n        emit ReceivedBaseCoins(msg.sender, msg.value);\n    }\n\n    fallback() external payable {\n        reserveBC += msg.value;\n        emit ReceivedBaseCoins(msg.sender, msg.value);\n    }\n\n    /// Public trading API:\n\n    function buyStableCoins() public payable {\n        uint256 numberSC = stableCoin.totalSupply();\n        uint256 scWholeTargetPriceBC = stableCoinWholeTargetPriceBC();\n        uint256 preScWholePriceBC = stableCoinWholePriceBC(\n            numberSC,\n            reserveBC,\n            scWholeTargetPriceBC\n        );\n        uint256 amountSC = getAmountBuyForPrice(\n            msg.value,\n            preScWholePriceBC,\n            scDecimalScalingFactor\n        );\n        uint256 totalBC = getPriceBuyN(\n            amountSC,\n            preScWholePriceBC,\n            scDecimalScalingFactor\n        );\n\n        uint256 postNumberSC = numberSC + amountSC;\n        uint256 postReserveBC = reserveBC + totalBC;\n        uint256 postScWholePriceBC = stableCoinWholePriceBC(\n            postNumberSC,\n            postReserveBC,\n            scWholeTargetPriceBC\n        );\n\n        requireRatioAboveMin(\n            reserveBC,\n            numberSC,\n            preScWholePriceBC,\n            \"SC buy precondition does not hold\"\n        );\n        requireRatioAboveMin(\n            postReserveBC,\n            postNumberSC,\n            postScWholePriceBC,\n            \"SC buy postcondition does not hold\"\n        );\n\n        // The following should always hold assuming the prices are calculated correctly:\n        assert(msg.value >= totalBC);\n\n        reserveBC += totalBC;\n        stableCoin.mint(msg.sender, amountSC);\n        emit BoughtStableCoins(msg.sender, amountSC);\n    }\n\n    function sellStableCoins(uint256 amountSC) public payable {\n        uint256 numberSC = stableCoin.totalSupply();\n        uint256 scWholePriceBC = stableCoinWholePriceBC(\n            numberSC,\n            reserveBC,\n            stableCoinWholeTargetPriceBC()\n        );\n        uint256 totalBC = getPriceSellN(\n            amountSC,\n            scWholePriceBC,\n            scDecimalScalingFactor\n        );\n\n        require(\n            stableCoin.balanceOf(msg.sender) >= amountSC,\n            \"Seller has too few SCs\"\n        );\n        require(reserveBC >= totalBC, \"Not enough BCs in reserve\");\n\n        reserveBC -= totalBC;\n        stableCoin.burn(msg.sender, amountSC);\n        payable(msg.sender).transfer(totalBC);\n        emit SoldStableCoins(msg.sender, amountSC);\n    }\n\n    function buyReserveCoins() public payable {\n        uint256 numberSC = stableCoin.totalSupply();\n        uint256 numberRC = reserveCoin.totalSupply();\n        uint256 scWholeTargetPriceBC = stableCoinWholeTargetPriceBC();\n        uint256 rcWholePriceBC = reserveCoinWholeBuyPriceBC(\n            numberRC,\n            numberSC,\n            reserveBC,\n            scWholeTargetPriceBC\n        );\n        uint256 amountRC = getAmountBuyForPrice(\n            msg.value,\n            rcWholePriceBC,\n            rcDecimalScalingFactor\n        );\n        uint256 totalBC = getPriceBuyN(\n            amountRC,\n            rcWholePriceBC,\n            rcDecimalScalingFactor\n        );\n\n        if (numberSC >= thresholdNumberSC) {\n            uint256 preScWholePriceBC = stableCoinWholePriceBC(\n                numberSC,\n                reserveBC,\n                scWholeTargetPriceBC\n            );\n            uint256 postReserveBC = reserveBC + totalBC;\n            uint256 postScWholePriceBC = stableCoinWholePriceBC(\n                numberSC,\n                postReserveBC,\n                scWholeTargetPriceBC\n            );\n\n            requireRatioBelowMax(\n                reserveBC,\n                numberSC,\n                preScWholePriceBC,\n                \"RC buy precondition does not hold\"\n            );\n            requireRatioBelowMax(\n                postReserveBC,\n                numberSC,\n                postScWholePriceBC,\n                \"RC buy postcondition does not hold\"\n            );\n        }\n\n        //require(msg.value >= totalBC, \"Supplied value not equal to expected\");\n        // The following should always hold assuming the prices are calculated correctly:\n        assert(msg.value >= totalBC);\n\n        reserveBC += totalBC;\n        reserveCoin.mint(msg.sender, amountRC);\n        emit BoughtReserveCoins(msg.sender, amountRC);\n    }\n\n    function sellReserveCoins(uint256 amountRC) public payable {\n        require(\n            reserveCoin.balanceOf(msg.sender) >= amountRC,\n            \"Seller has too few RCs\"\n        );\n        uint256 numberSC = stableCoin.totalSupply();\n        uint256 numberRC = reserveCoin.totalSupply();\n        uint256 scWholeTargetPriceBC = stableCoinWholeTargetPriceBC();\n        uint256 rcWholePriceBC = reserveCoinWholeTargetPriceBC(\n            numberRC,\n            numberSC,\n            reserveBC,\n            scWholeTargetPriceBC\n        );\n        uint256 totalBC = getPriceSellN(\n            amountRC,\n            rcWholePriceBC,\n            rcDecimalScalingFactor\n        );\n        uint256 preScWholePriceBC = stableCoinWholePriceBC(\n            numberSC,\n            reserveBC,\n            scWholeTargetPriceBC\n        );\n        uint256 postReserveBC = reserveBC - totalBC;\n        uint256 postScWholePriceBC = stableCoinWholePriceBC(\n            numberSC,\n            postReserveBC,\n            scWholeTargetPriceBC\n        );\n\n        requireRatioAboveMin(\n            reserveBC,\n            numberSC,\n            preScWholePriceBC,\n            \"RC sell precondition does not hold\"\n        );\n        requireRatioAboveMin(\n            postReserveBC,\n            numberSC,\n            postScWholePriceBC,\n            \"RC sell postcondition does not hold\"\n        );\n\n        require(reserveBC >= totalBC, \"Not enough BCs in reserve\");\n\n        reserveBC -= totalBC;\n        reserveCoin.burn(msg.sender, amountRC);\n        payable(msg.sender).transfer(totalBC);\n        emit SoldReserveCoins(msg.sender, amountRC);\n    }\n\n    /// Public informative API\n\n    function getStableCoinWholeTargetPriceBC() public returns (uint256) {\n        return stableCoinWholeTargetPriceBC();\n    }\n\n    function getReserveCoinWholeBuyPriceBC() public returns (uint256) {\n        return\n            reserveCoinWholeBuyPriceBC(\n                reserveCoin.totalSupply(),\n                stableCoin.totalSupply(),\n                reserveBC,\n                stableCoinWholeTargetPriceBC()\n            );\n    }\n\n    function getReserveCoinWholeSellPriceBC() public returns (uint256) {\n        uint256 numberRC = reserveCoin.totalSupply();\n        if (numberRC == 0) {\n            return 0;\n        }\n        return\n            reserveCoinWholeTargetPriceBC(\n                numberRC,\n                stableCoin.totalSupply(),\n                reserveBC,\n                stableCoinWholeTargetPriceBC()\n            );\n    }\n\n    function checkBuyableNStableCoins(uint256 amountSC) public returns (bool) {\n        uint256 numberSC = stableCoin.totalSupply();\n        uint256 scWholeTargetPriceBC = stableCoinWholeTargetPriceBC();\n        uint256 scWholePriceBC = stableCoinWholePriceBC(\n            numberSC,\n            reserveBC,\n            scWholeTargetPriceBC\n        );\n\n        // Precondition check:\n        if (!isRatioAboveMin(reserveBC, numberSC, scWholePriceBC)) {\n            return false;\n        }\n\n        uint256 totalBC = getPriceBuyN(\n            amountSC,\n            scWholePriceBC,\n            scDecimalScalingFactor\n        );\n        uint256 postNumberSC = numberSC + amountSC;\n        uint256 postReserveBC = reserveBC + totalBC;\n        uint256 postScWholePriceBC = stableCoinWholePriceBC(\n            postNumberSC,\n            postReserveBC,\n            scWholeTargetPriceBC\n        );\n\n        // Postcondition check:\n        return isRatioAboveMin(postReserveBC, postNumberSC, postScWholePriceBC);\n    }\n\n    function checkBuyableNReserveCoins(uint256 amountRC) public returns (bool) {\n        uint256 numberSC = stableCoin.totalSupply();\n        if (numberSC < thresholdNumberSC) {\n            return true;\n        }\n\n        uint256 scWholeTargetPriceBC = stableCoinWholeTargetPriceBC();\n        uint256 preScWholePriceBC = stableCoinWholePriceBC(\n            numberSC,\n            reserveBC,\n            scWholeTargetPriceBC\n        );\n\n        // Precondition check:\n        if (!isRatioBelowMax(reserveBC, numberSC, preScWholePriceBC)) {\n            return false;\n        }\n\n        uint256 rcWholePriceBC = reserveCoinWholeBuyPriceBC(\n            reserveCoin.totalSupply(),\n            numberSC,\n            reserveBC,\n            scWholeTargetPriceBC\n        );\n        uint256 totalBC = getPriceBuyN(\n            amountRC,\n            rcWholePriceBC,\n            rcDecimalScalingFactor\n        );\n        uint256 postReserveBC = reserveBC + totalBC;\n        uint256 postScWholePriceBC = stableCoinWholePriceBC(\n            numberSC,\n            postReserveBC,\n            scWholeTargetPriceBC\n        );\n\n        // Postcondition check:\n        return isRatioBelowMax(postReserveBC, numberSC, postScWholePriceBC);\n    }\n\n    function checkSellableNReserveCoins(uint256 amountRC)\n        public\n        returns (bool)\n    {\n        uint256 numberSC = stableCoin.totalSupply();\n\n        uint256 scWholeTargetPriceBC = stableCoinWholeTargetPriceBC();\n        uint256 preScWholePriceBC = stableCoinWholePriceBC(\n            numberSC,\n            reserveBC,\n            scWholeTargetPriceBC\n        );\n\n        // Precondition check:\n        if (!isRatioAboveMin(reserveBC, numberSC, preScWholePriceBC)) {\n            return false;\n        }\n\n        uint256 rcWholePriceBC = reserveCoinWholeBuyPriceBC(\n            reserveCoin.totalSupply(),\n            numberSC,\n            reserveBC,\n            scWholeTargetPriceBC\n        );\n        uint256 totalBC = getPriceBuyN(\n            amountRC,\n            rcWholePriceBC,\n            rcDecimalScalingFactor\n        );\n        // The following should never happen due to how Djed works,\n        // but the code allows it in principle.\n        require(reserveBC >= totalBC, \"Insufficient reserves\");\n        uint256 postReserveBC = reserveBC - totalBC;\n        uint256 postScWholePriceBC = stableCoinWholePriceBC(\n            numberSC,\n            postReserveBC,\n            scWholeTargetPriceBC\n        );\n\n        // Postcondition check:\n        return isRatioAboveMin(postReserveBC, numberSC, postScWholePriceBC);\n    }\n\n    // NOTE: only Djed conditions are checked, not account balances\n    function getMaxBuyableStableCoins() public returns (uint256) {\n        uint256 numberSC = stableCoin.totalSupply();\n        uint256 scWholeTargetPriceBC = stableCoinWholeTargetPriceBC();\n        if (\n            (scWholeTargetPriceBC * numberSC) >\n            (reserveBC * scDecimalScalingFactor)\n        ) {\n            return 0;\n        }\n        uint256 scaledReserves = reserveBC *\n            scalingFactor *\n            scDecimalScalingFactor;\n        uint256 liabilitiesRmin = numberSC *\n            scWholeTargetPriceBC *\n            reserveRatioMin;\n        if (scaledReserves <= liabilitiesRmin) {\n            return 0;\n        }\n\n        return\n            (scaledReserves - liabilitiesRmin) /\n            (scWholeTargetPriceBC * (reserveRatioMin - scalingFactor - fee));\n    }\n\n    // NOTE: only Djed conditions are checked, not account balances\n    function getMaxBuyableReserveCoins() public returns (uint256) {\n        uint256 numberSC = stableCoin.totalSupply();\n        if (numberSC < thresholdNumberSC) {\n            return MAX_UINT256;\n        }\n\n        uint256 scWholeTargetPriceBC = stableCoinWholeTargetPriceBC();\n        uint256 scaledReserves = reserveBC *\n            scalingFactor *\n            scDecimalScalingFactor;\n        uint256 liabilitiesRmax = numberSC *\n            scWholeTargetPriceBC *\n            reserveRatioMax;\n        if (scaledReserves >= liabilitiesRmax) {\n            return 0;\n        }\n\n        uint256 numberRC = reserveCoin.totalSupply();\n        uint256 rcWholeBuyPriceBC = reserveCoinWholeBuyPriceBC(\n            numberRC,\n            numberSC,\n            reserveBC,\n            scWholeTargetPriceBC\n        );\n\n        return\n            ((liabilitiesRmax - scaledReserves) * rcDecimalScalingFactor) /\n            (rcWholeBuyPriceBC *\n                (scalingFactor + fee) *\n                scDecimalScalingFactor);\n    }\n\n    // NOTE: only Djed conditions are checked, not account balances\n    function getMaxSellableReserveCoins() public returns (uint256) {\n        uint256 numberSC = stableCoin.totalSupply();\n        uint256 scWholeTargetPriceBC = stableCoinWholeTargetPriceBC();\n        if (\n            (scWholeTargetPriceBC * numberSC) >\n            (reserveBC * scDecimalScalingFactor)\n        ) {\n            return 0;\n        }\n        uint256 scaledReserves = reserveBC *\n            scalingFactor *\n            scDecimalScalingFactor;\n        uint256 liabilitiesRmin = numberSC *\n            scWholeTargetPriceBC *\n            reserveRatioMin;\n        if (scaledReserves <= liabilitiesRmin) {\n            return 0;\n        }\n\n        uint256 numberRC = reserveCoin.totalSupply();\n        uint256 rcWholeBuyPriceBC = reserveCoinWholeBuyPriceBC(\n            numberRC,\n            numberSC,\n            reserveBC,\n            scWholeTargetPriceBC\n        );\n\n        return\n            ((scaledReserves - liabilitiesRmin) * rcDecimalScalingFactor) /\n            (rcWholeBuyPriceBC *\n                (scalingFactor - fee) *\n                scDecimalScalingFactor);\n    }\n\n    function getPriceBuyNStableCoinsBC(uint256 amountSC)\n        public\n        returns (uint256)\n    {\n        uint256 scWholePriceBC = stableCoinWholePriceBC(\n            stableCoin.totalSupply(),\n            reserveBC,\n            stableCoinWholeTargetPriceBC()\n        );\n        uint256 totalBC = getPriceBuyN(\n            amountSC,\n            scWholePriceBC,\n            scDecimalScalingFactor\n        );\n        emit PriceBuySc(amountSC, totalBC);\n        return totalBC;\n    }\n\n    function getPriceSellNStableCoinsBC(uint256 amountSC)\n        public\n        returns (uint256)\n    {\n        uint256 scWholePriceBC = stableCoinWholePriceBC(\n            stableCoin.totalSupply(),\n            reserveBC,\n            stableCoinWholeTargetPriceBC()\n        );\n        uint256 totalBC = getPriceSellN(\n            amountSC,\n            scWholePriceBC,\n            scDecimalScalingFactor\n        );\n        emit PriceSellSc(amountSC, totalBC);\n        return totalBC;\n    }\n\n    function getPriceBuyNReserveCoinsBC(uint256 amountRC)\n        public\n        returns (uint256)\n    {\n        uint256 rcWholePriceBC = reserveCoinWholeBuyPriceBC(\n            reserveCoin.totalSupply(),\n            stableCoin.totalSupply(),\n            reserveBC,\n            stableCoinWholeTargetPriceBC()\n        );\n        uint256 totalBC = getPriceBuyN(\n            amountRC,\n            rcWholePriceBC,\n            rcDecimalScalingFactor\n        );\n        emit PriceBuyRc(amountRC, totalBC);\n        return totalBC;\n    }\n\n    function getPriceSellNReserveCoinsBC(uint256 amountRC)\n        public\n        returns (uint256)\n    {\n        uint256 numberRC = reserveCoin.totalSupply();\n        require(numberRC > 0, \"No RCs in circulation, undefined price\");\n        uint256 rcWholePriceBC = reserveCoinWholeTargetPriceBC(\n            numberRC,\n            stableCoin.totalSupply(),\n            reserveBC,\n            stableCoinWholeTargetPriceBC()\n        );\n        uint256 totalBC = getPriceSellN(\n            amountRC,\n            rcWholePriceBC,\n            rcDecimalScalingFactor\n        );\n        emit PriceSellRc(amountRC, totalBC);\n        return totalBC;\n    }\n\n    function getReserveRatio() public returns (uint256) {\n        uint256 numberSC = stableCoin.totalSupply();\n        if (numberSC == 0) {\n            return 0;\n        }\n        uint256 scWholePriceBC = stableCoinWholePriceBC(\n            numberSC,\n            reserveBC,\n            stableCoinWholeTargetPriceBC()\n        );\n        return\n            (reserveBC * scalingFactor * scDecimalScalingFactor) /\n            (scWholePriceBC * numberSC);\n    }\n\n    /// Internal utils:\n\n    function requireRatioAboveMin(\n        uint256 _reserveBC,\n        uint256 _numberSC,\n        uint256 _priceScWholeBC,\n        string memory errMsg\n    ) internal view {\n        require(\n            isRatioAboveMin(_reserveBC, _numberSC, _priceScWholeBC),\n            errMsg\n        );\n    }\n\n    function requireRatioBelowMax(\n        uint256 _reserveBC,\n        uint256 _numberSC,\n        uint256 _priceScWholeBC,\n        string memory errMsg\n    ) internal view {\n        require(\n            isRatioBelowMax(_reserveBC, _numberSC, _priceScWholeBC),\n            errMsg\n        );\n    }\n\n    /// Internal calculations:\n\n    function getPriceBuyN(\n        uint256 amount,\n        uint256 unitWholePrice,\n        uint256 decimalScalingFactor\n    ) internal view returns (uint256) {\n        return\n            (amount * (scalingFactor + fee) * unitWholePrice) /\n            (scalingFactor * decimalScalingFactor);\n    }\n\n    function getPriceSellN(\n        uint256 amount,\n        uint256 unitWholePrice,\n        uint256 decimalScalingFactor\n    ) internal view returns (uint256) {\n        return\n            (amount * (scalingFactor - fee) * unitWholePrice) /\n            (scalingFactor * decimalScalingFactor);\n    }\n\n    function getAmountBuyForPrice(\n        uint256 totalBC,\n        uint256 unitWholePrice,\n        uint256 decimalScalingFactor\n    ) internal view returns (uint256) {\n        return\n            (totalBC * scalingFactor * decimalScalingFactor) /\n            ((scalingFactor + fee) * unitWholePrice);\n    }\n\n    function stableCoinWholeTargetPriceBC() internal returns (uint256) {\n        return uint256(oracle.exchangeRate()) * EXCHANGE_RATE_SCALING;\n    }\n\n    function stableCoinWholePriceBC(\n        uint256 numberSC,\n        uint256 _reserveBC,\n        uint256 scWholeTargetPriceBC\n    ) internal view returns (uint256) {\n        if (numberSC == 0) {\n            return scWholeTargetPriceBC;\n        }\n\n        uint256 reservePerWholeScBC = (_reserveBC * scDecimalScalingFactor) /\n            numberSC;\n\n        if (reservePerWholeScBC >= scWholeTargetPriceBC) {\n            return scWholeTargetPriceBC;\n        } else {\n            return reservePerWholeScBC;\n        }\n    }\n\n    function reserveCoinWholeTargetPriceBC(\n        uint256 numberRC,\n        uint256 numberSC,\n        uint256 _reserveBC,\n        uint256 scWholeTargetPriceBC\n    ) internal view returns (uint256) {\n        assert(numberRC != 0);\n        return\n            ((_reserveBC *\n                scDecimalScalingFactor -\n                numberSC *\n                stableCoinWholePriceBC(\n                    numberSC,\n                    _reserveBC,\n                    scWholeTargetPriceBC\n                )) * rcDecimalScalingFactor) /\n            (numberRC * scDecimalScalingFactor);\n    }\n\n    function reserveCoinWholeBuyPriceBC(\n        uint256 numberRC,\n        uint256 numberSC,\n        uint256 _reserveBC,\n        uint256 scWholeTargetPriceBC\n    ) internal view returns (uint256) {\n        if (numberRC == 0) {\n            return reserveCoinWholeMinimumPriceBC;\n        }\n\n        uint256 rcWholeTargetPriceBC = reserveCoinWholeTargetPriceBC(\n            numberRC,\n            numberSC,\n            _reserveBC,\n            scWholeTargetPriceBC\n        );\n        if (rcWholeTargetPriceBC <= reserveCoinWholeMinimumPriceBC) {\n            return reserveCoinWholeMinimumPriceBC;\n        } else {\n            return rcWholeTargetPriceBC;\n        }\n    }\n\n    function isRatioAboveMin(\n        uint256 _reserveBC,\n        uint256 _numberSC,\n        uint256 _priceScWholeBC\n    ) internal view returns (bool) {\n        return\n            _reserveBC * scalingFactor * scDecimalScalingFactor >=\n            _numberSC * _priceScWholeBC * reserveRatioMin;\n    }\n\n    function isRatioBelowMax(\n        uint256 _reserveBC,\n        uint256 _numberSC,\n        uint256 _priceScWholeBC\n    ) internal view returns (bool) {\n        return\n            _reserveBC * scalingFactor * scDecimalScalingFactor <=\n            _numberSC * _priceScWholeBC * reserveRatioMax;\n    }\n}\n",
  "sourcePath": "/home/vacuumlabs/git/milkomeda-djed/src/DjedProtocol.sol",
  "compiler": {
    "name": "solc",
    "version": "0.8.10+commit.fc410830.Emscripten.clang"
  },
  "schemaVersion": "3.4.6",
  "updatedAt": "2022-05-25T13:29:15.090Z",
  "networkType": "ethereum",
  "devdoc": {
    "kind": "dev",
    "methods": {},
    "version": 1
  },
  "userdoc": {
    "kind": "user",
    "methods": {
      "buyStableCoins()": {
        "notice": "Public trading API:"
      },
      "getStableCoinWholeTargetPriceBC()": {
        "notice": "Public informative API"
      }
    },
    "version": 1
  }
}