{
  "contractName": "Djed",
  "abi": [
    {
      "inputs": [
        {
          "internalType": "address",
          "name": "oracleAddress",
          "type": "address"
        },
        {
          "internalType": "uint256",
          "name": "_scalingFactor",
          "type": "uint256"
        },
        {
          "internalType": "address",
          "name": "_treasury",
          "type": "address"
        },
        {
          "internalType": "uint256",
          "name": "_initialTreasuryFee",
          "type": "uint256"
        },
        {
          "internalType": "uint256",
          "name": "_treasuryRevenueTarget",
          "type": "uint256"
        },
        {
          "internalType": "uint256",
          "name": "_reserveRatioMin",
          "type": "uint256"
        },
        {
          "internalType": "uint256",
          "name": "_reserveRatioMax",
          "type": "uint256"
        },
        {
          "internalType": "uint256",
          "name": "_fee",
          "type": "uint256"
        },
        {
          "internalType": "uint256",
          "name": "_thresholdSupplySC",
          "type": "uint256"
        },
        {
          "internalType": "uint256",
          "name": "_rcMinPrice",
          "type": "uint256"
        },
        {
          "internalType": "uint256",
          "name": "_txLimit",
          "type": "uint256"
        }
      ],
      "stateMutability": "payable",
      "type": "constructor"
    },
    {
      "anonymous": false,
      "inputs": [
        {
          "indexed": true,
          "internalType": "address",
          "name": "buyer",
          "type": "address"
        },
        {
          "indexed": true,
          "internalType": "address",
          "name": "receiver",
          "type": "address"
        },
        {
          "indexed": false,
          "internalType": "uint256",
          "name": "amountRC",
          "type": "uint256"
        },
        {
          "indexed": false,
          "internalType": "uint256",
          "name": "amountBC",
          "type": "uint256"
        }
      ],
      "name": "BoughtReserveCoins",
      "type": "event"
    },
    {
      "anonymous": false,
      "inputs": [
        {
          "indexed": true,
          "internalType": "address",
          "name": "buyer",
          "type": "address"
        },
        {
          "indexed": true,
          "internalType": "address",
          "name": "receiver",
          "type": "address"
        },
        {
          "indexed": false,
          "internalType": "uint256",
          "name": "amountSC",
          "type": "uint256"
        },
        {
          "indexed": false,
          "internalType": "uint256",
          "name": "amountBC",
          "type": "uint256"
        }
      ],
      "name": "BoughtStableCoins",
      "type": "event"
    },
    {
      "anonymous": false,
      "inputs": [
        {
          "indexed": true,
          "internalType": "address",
          "name": "seller",
          "type": "address"
        },
        {
          "indexed": true,
          "internalType": "address",
          "name": "receiver",
          "type": "address"
        },
        {
          "indexed": false,
          "internalType": "uint256",
          "name": "amountSC",
          "type": "uint256"
        },
        {
          "indexed": false,
          "internalType": "uint256",
          "name": "amountRC",
          "type": "uint256"
        },
        {
          "indexed": false,
          "internalType": "uint256",
          "name": "amountBC",
          "type": "uint256"
        }
      ],
      "name": "SoldBothCoins",
      "type": "event"
    },
    {
      "anonymous": false,
      "inputs": [
        {
          "indexed": true,
          "internalType": "address",
          "name": "seller",
          "type": "address"
        },
        {
          "indexed": true,
          "internalType": "address",
          "name": "receiver",
          "type": "address"
        },
        {
          "indexed": false,
          "internalType": "uint256",
          "name": "amountRC",
          "type": "uint256"
        },
        {
          "indexed": false,
          "internalType": "uint256",
          "name": "amountBC",
          "type": "uint256"
        }
      ],
      "name": "SoldReserveCoins",
      "type": "event"
    },
    {
      "anonymous": false,
      "inputs": [
        {
          "indexed": true,
          "internalType": "address",
          "name": "seller",
          "type": "address"
        },
        {
          "indexed": true,
          "internalType": "address",
          "name": "receiver",
          "type": "address"
        },
        {
          "indexed": false,
          "internalType": "uint256",
          "name": "amountSC",
          "type": "uint256"
        },
        {
          "indexed": false,
          "internalType": "uint256",
          "name": "amountBC",
          "type": "uint256"
        }
      ],
      "name": "SoldStableCoins",
      "type": "event"
    },
    {
      "inputs": [
        {
          "internalType": "uint256",
          "name": "_currentPaymentAmount",
          "type": "uint256"
        }
      ],
      "name": "E",
      "outputs": [
        {
          "internalType": "uint256",
          "name": "",
          "type": "uint256"
        }
      ],
      "stateMutability": "view",
      "type": "function"
    },
    {
      "inputs": [],
      "name": "L",
      "outputs": [
        {
          "internalType": "uint256",
          "name": "",
          "type": "uint256"
        }
      ],
      "stateMutability": "view",
      "type": "function"
    },
    {
      "inputs": [
        {
          "internalType": "uint256",
          "name": "_currentPaymentAmount",
          "type": "uint256"
        }
      ],
      "name": "R",
      "outputs": [
        {
          "internalType": "uint256",
          "name": "",
          "type": "uint256"
        }
      ],
      "stateMutability": "view",
      "type": "function"
    },
    {
      "inputs": [
        {
          "internalType": "address",
          "name": "receiver",
          "type": "address"
        },
        {
          "internalType": "uint256",
          "name": "fee_ui",
          "type": "uint256"
        },
        {
          "internalType": "address",
          "name": "ui",
          "type": "address"
        }
      ],
      "name": "buyReserveCoins",
      "outputs": [],
      "stateMutability": "payable",
      "type": "function"
    },
    {
      "inputs": [
        {
          "internalType": "address",
          "name": "receiver",
          "type": "address"
        },
        {
          "internalType": "uint256",
          "name": "feeUI",
          "type": "uint256"
        },
        {
          "internalType": "address",
          "name": "ui",
          "type": "address"
        }
      ],
      "name": "buyStableCoins",
      "outputs": [],
      "stateMutability": "payable",
      "type": "function"
    },
    {
      "inputs": [],
      "name": "fee",
      "outputs": [
        {
          "internalType": "uint256",
          "name": "",
          "type": "uint256"
        }
      ],
      "stateMutability": "view",
      "type": "function"
    },
    {
      "inputs": [],
      "name": "initialTreasuryFee",
      "outputs": [
        {
          "internalType": "uint256",
          "name": "",
          "type": "uint256"
        }
      ],
      "stateMutability": "view",
      "type": "function"
    },
    {
      "inputs": [],
      "name": "oracle",
      "outputs": [
        {
          "internalType": "contract IFreeOracle",
          "name": "",
          "type": "address"
        }
      ],
      "stateMutability": "view",
      "type": "function"
    },
    {
      "inputs": [],
      "name": "ratio",
      "outputs": [
        {
          "internalType": "uint256",
          "name": "",
          "type": "uint256"
        }
      ],
      "stateMutability": "view",
      "type": "function"
    },
    {
      "inputs": [
        {
          "internalType": "uint256",
          "name": "_currentPaymentAmount",
          "type": "uint256"
        }
      ],
      "name": "rcBuyingPrice",
      "outputs": [
        {
          "internalType": "uint256",
          "name": "",
          "type": "uint256"
        }
      ],
      "stateMutability": "view",
      "type": "function"
    },
    {
      "inputs": [],
      "name": "rcDecimalScalingFactor",
      "outputs": [
        {
          "internalType": "uint256",
          "name": "",
          "type": "uint256"
        }
      ],
      "stateMutability": "view",
      "type": "function"
    },
    {
      "inputs": [],
      "name": "rcMinPrice",
      "outputs": [
        {
          "internalType": "uint256",
          "name": "",
          "type": "uint256"
        }
      ],
      "stateMutability": "view",
      "type": "function"
    },
    {
      "inputs": [
        {
          "internalType": "uint256",
          "name": "_currentPaymentAmount",
          "type": "uint256"
        }
      ],
      "name": "rcTargetPrice",
      "outputs": [
        {
          "internalType": "uint256",
          "name": "",
          "type": "uint256"
        }
      ],
      "stateMutability": "view",
      "type": "function"
    },
    {
      "inputs": [],
      "name": "reserveCoin",
      "outputs": [
        {
          "internalType": "contract Coin",
          "name": "",
          "type": "address"
        }
      ],
      "stateMutability": "view",
      "type": "function"
    },
    {
      "inputs": [],
      "name": "reserveRatioMax",
      "outputs": [
        {
          "internalType": "uint256",
          "name": "",
          "type": "uint256"
        }
      ],
      "stateMutability": "view",
      "type": "function"
    },
    {
      "inputs": [],
      "name": "reserveRatioMin",
      "outputs": [
        {
          "internalType": "uint256",
          "name": "",
          "type": "uint256"
        }
      ],
      "stateMutability": "view",
      "type": "function"
    },
    {
      "inputs": [],
      "name": "scDecimalScalingFactor",
      "outputs": [
        {
          "internalType": "uint256",
          "name": "",
          "type": "uint256"
        }
      ],
      "stateMutability": "view",
      "type": "function"
    },
    {
      "inputs": [
        {
          "internalType": "uint256",
          "name": "_currentPaymentAmount",
          "type": "uint256"
        }
      ],
      "name": "scPrice",
      "outputs": [
        {
          "internalType": "uint256",
          "name": "",
          "type": "uint256"
        }
      ],
      "stateMutability": "view",
      "type": "function"
    },
    {
      "inputs": [],
      "name": "scalingFactor",
      "outputs": [
        {
          "internalType": "uint256",
          "name": "",
          "type": "uint256"
        }
      ],
      "stateMutability": "view",
      "type": "function"
    },
    {
      "inputs": [
        {
          "internalType": "uint256",
          "name": "amountSC",
          "type": "uint256"
        },
        {
          "internalType": "uint256",
          "name": "amountRC",
          "type": "uint256"
        },
        {
          "internalType": "address",
          "name": "receiver",
          "type": "address"
        },
        {
          "internalType": "uint256",
          "name": "fee_ui",
          "type": "uint256"
        },
        {
          "internalType": "address",
          "name": "ui",
          "type": "address"
        }
      ],
      "name": "sellBothCoins",
      "outputs": [],
      "stateMutability": "nonpayable",
      "type": "function"
    },
    {
      "inputs": [
        {
          "internalType": "uint256",
          "name": "amountRC",
          "type": "uint256"
        },
        {
          "internalType": "address",
          "name": "receiver",
          "type": "address"
        },
        {
          "internalType": "uint256",
          "name": "fee_ui",
          "type": "uint256"
        },
        {
          "internalType": "address",
          "name": "ui",
          "type": "address"
        }
      ],
      "name": "sellReserveCoins",
      "outputs": [],
      "stateMutability": "nonpayable",
      "type": "function"
    },
    {
      "inputs": [
        {
          "internalType": "uint256",
          "name": "amountSC",
          "type": "uint256"
        },
        {
          "internalType": "address",
          "name": "receiver",
          "type": "address"
        },
        {
          "internalType": "uint256",
          "name": "feeUI",
          "type": "uint256"
        },
        {
          "internalType": "address",
          "name": "ui",
          "type": "address"
        }
      ],
      "name": "sellStableCoins",
      "outputs": [],
      "stateMutability": "nonpayable",
      "type": "function"
    },
    {
      "inputs": [],
      "name": "stableCoin",
      "outputs": [
        {
          "internalType": "contract Coin",
          "name": "",
          "type": "address"
        }
      ],
      "stateMutability": "view",
      "type": "function"
    },
    {
      "inputs": [],
      "name": "thresholdSupplySC",
      "outputs": [
        {
          "internalType": "uint256",
          "name": "",
          "type": "uint256"
        }
      ],
      "stateMutability": "view",
      "type": "function"
    },
    {
      "inputs": [],
      "name": "treasury",
      "outputs": [
        {
          "internalType": "address",
          "name": "",
          "type": "address"
        }
      ],
      "stateMutability": "view",
      "type": "function"
    },
    {
      "inputs": [],
      "name": "treasuryFee",
      "outputs": [
        {
          "internalType": "uint256",
          "name": "",
          "type": "uint256"
        }
      ],
      "stateMutability": "view",
      "type": "function"
    },
    {
      "inputs": [],
      "name": "treasuryRevenue",
      "outputs": [
        {
          "internalType": "uint256",
          "name": "",
          "type": "uint256"
        }
      ],
      "stateMutability": "view",
      "type": "function"
    },
    {
      "inputs": [],
      "name": "treasuryRevenueTarget",
      "outputs": [
        {
          "internalType": "uint256",
          "name": "",
          "type": "uint256"
        }
      ],
      "stateMutability": "view",
      "type": "function"
    },
    {
      "inputs": [],
      "name": "txLimit",
      "outputs": [
        {
          "internalType": "uint256",
          "name": "",
          "type": "uint256"
        }
      ],
      "stateMutability": "view",
      "type": "function"
    }
  ],
  "bytecode": "0x6102006040526000600155600060045560405162005de738038062005de78339818101604052810190620000349190620003fc565b604051620000429062000349565b6200004d90620005ba565b604051809103906000f0801580156200006a573d6000803e3d6000fd5b50600260006101000a81548173ffffffffffffffffffffffffffffffffffffffff021916908373ffffffffffffffffffffffffffffffffffffffff160217905550604051620000b99062000349565b620000c49062000691565b604051809103906000f080158015620000e1573d6000803e3d6000fd5b50600360006101000a81548173ffffffffffffffffffffffffffffffffffffffff021916908373ffffffffffffffffffffffffffffffffffffffff160217905550600260009054906101000a900473ffffffffffffffffffffffffffffffffffffffff1673ffffffffffffffffffffffffffffffffffffffff1663313ce5676040518163ffffffff1660e01b8152600401602060405180830381865afa15801562000190573d6000803e3d6000fd5b505050506040513d601f19601f82011682018060405250810190620001b6919062000706565b600a620001c49190620008bb565b6101c08181525050600360009054906101000a900473ffffffffffffffffffffffffffffffffffffffff1673ffffffffffffffffffffffffffffffffffffffff1663313ce5676040518163ffffffff1660e01b8152600401602060405180830381865afa1580156200023a573d6000803e3d6000fd5b505050506040513d601f19601f8201168201806040525081019062000260919062000706565b600a6200026e9190620008bb565b6101e081815250508a6000806101000a81548173ffffffffffffffffffffffffffffffffffffffff021916908373ffffffffffffffffffffffffffffffffffffffff160217905550896101a081815250508873ffffffffffffffffffffffffffffffffffffffff1660808173ffffffffffffffffffffffffffffffffffffffff16815250508760a081815250508660c081815250508560e0818152505084610100818152505083610120818152505082610140818152505081610160818152505080610180818152505050505050505050505050506200090c565b611d68806200407f83390190565b600080fd5b600073ffffffffffffffffffffffffffffffffffffffff82169050919050565b600062000389826200035c565b9050919050565b6200039b816200037c565b8114620003a757600080fd5b50565b600081519050620003bb8162000390565b92915050565b6000819050919050565b620003d681620003c1565b8114620003e257600080fd5b50565b600081519050620003f681620003cb565b92915050565b60008060008060008060008060008060006101608c8e03121562000425576200042462000357565b5b6000620004358e828f01620003aa565b9b50506020620004488e828f01620003e5565b9a505060406200045b8e828f01620003aa565b99505060606200046e8e828f01620003e5565b9850506080620004818e828f01620003e5565b97505060a0620004948e828f01620003e5565b96505060c0620004a78e828f01620003e5565b95505060e0620004ba8e828f01620003e5565b945050610100620004ce8e828f01620003e5565b935050610120620004e28e828f01620003e5565b925050610140620004f68e828f01620003e5565b9150509295989b509295989b9093969950565b600082825260208201905092915050565b7f537461626c65436f696e00000000000000000000000000000000000000000000600082015250565b600062000552600a8362000509565b91506200055f826200051a565b602082019050919050565b7f5343000000000000000000000000000000000000000000000000000000000000600082015250565b6000620005a260028362000509565b9150620005af826200056a565b602082019050919050565b60006040820190508181036000830152620005d58162000543565b90508181036020830152620005ea8162000593565b9050919050565b7f52657365727665436f696e000000000000000000000000000000000000000000600082015250565b600062000629600b8362000509565b91506200063682620005f1565b602082019050919050565b7f5243000000000000000000000000000000000000000000000000000000000000600082015250565b60006200067960028362000509565b9150620006868262000641565b602082019050919050565b60006040820190508181036000830152620006ac816200061a565b90508181036020830152620006c1816200066a565b9050919050565b600060ff82169050919050565b620006e081620006c8565b8114620006ec57600080fd5b50565b6000815190506200070081620006d5565b92915050565b6000602082840312156200071f576200071e62000357565b5b60006200072f84828501620006ef565b91505092915050565b7f4e487b7100000000000000000000000000000000000000000000000000000000600052601160045260246000fd5b60008160011c9050919050565b6000808291508390505b6001851115620007c6578086048111156200079e576200079d62000738565b5b6001851615620007ae5780820291505b8081029050620007be8562000767565b94506200077e565b94509492505050565b600082620007e15760019050620008b4565b81620007f15760009050620008b4565b81600181146200080a576002811462000815576200084b565b6001915050620008b4565b60ff8411156200082a576200082962000738565b5b8360020a91508482111562000844576200084362000738565b5b50620008b4565b5060208310610133831016604e8410600b8410161715620008855782820a9050838111156200087f576200087e62000738565b5b620008b4565b62000894848484600162000774565b92509050818404811115620008ae57620008ad62000738565b5b81810290505b9392505050565b6000620008c882620003c1565b9150620008d583620006c8565b9250620009047fffffffffffffffffffffffffffffffffffffffffffffffffffffffffffffffff8484620007cf565b905092915050565b60805160a05160c05160e05161010051610120516101405161016051610180516101a0516101c0516101e0516135de62000aa1600039600081816106f201528181610c1f01528181611ae201526121a701526000818161073301528181610c5e01528181610ca101528181611166015281816111f80152818161172101528181611974015281816124a90152818161257201526128020152600081816121f00152818161224b01528181612286015281816124ca015261282301526000818161075501528181610cc301528181611230015281816114dc015281816115f501526119960152600081816111b6015281816126e5015261271001526000818161079301528181610d010152818161125a0152818161161f015281816119d401528181611bb80152611e15015260008181611e390152612211015260008181611e5d015261273b015260008181610a2401526123e201526000818161194401528181611d5a0152611d8401526000818161149401528181611da80152611ddd0152600081816114b8015261230d01526135de6000f3fe60806040526004361061019c5760003560e01c8063824769f8116100ec578063bfebe1821161008a578063ce79735311610064578063ce7973531461055a578063ddca3f4314610585578063e06b63fc146105b0578063f2fdfa82146105db5761019c565b8063bfebe182146104d9578063c11c0ee114610504578063cc32d1761461052f5761019c565b8063992642e5116100c6578063992642e51461043c5780639f13f76d14610467578063b364e37c14610492578063b77e31f9146104bd5761019c565b8063824769f8146103bb5780638d0d36b4146103e657806392bbf6e8146104115761019c565b8063574a3093116101595780636caae832116101335780636caae8321461031157806371ca337d1461033c5780637a4f8cba146103675780637dc0d1d0146103905761019c565b8063574a30931461029f5780635f00248e146102bb57806361d027b3146102e65761019c565b80631ac8fc2f146101a1578063248f2422146101ca578063334fc513146101f55780634980e1be1461021e5780634c19586a146102495780634d01dca514610274575b600080fd5b3480156101ad57600080fd5b506101c860048036038101906101c39190612919565b610604565b005b3480156101d657600080fd5b506101df610a22565b6040516101ec919061298f565b60405180910390f35b34801561020157600080fd5b5061021c600480360381019061021791906129aa565b610a46565b005b34801561022a57600080fd5b50610233611026565b604051610240919061298f565b60405180910390f35b34801561025557600080fd5b5061025e61102e565b60405161026b919061298f565b60405180910390f35b34801561028057600080fd5b506102896111b4565b604051610296919061298f565b60405180910390f35b6102b960048036038101906102b49190612a25565b6111d8565b005b3480156102c757600080fd5b506102d0611492565b6040516102dd919061298f565b60405180910390f35b3480156102f257600080fd5b506102fb6114b6565b6040516103089190612a87565b60405180910390f35b34801561031d57600080fd5b506103266114da565b604051610333919061298f565b60405180910390f35b34801561034857600080fd5b506103516114fe565b60405161035e919061298f565b60405180910390f35b34801561037357600080fd5b5061038e60048036038101906103899190612919565b611515565b005b34801561039c57600080fd5b506103a56118ad565b6040516103b29190612b01565b60405180910390f35b3480156103c757600080fd5b506103d06118d1565b6040516103dd919061298f565b60405180910390f35b3480156103f257600080fd5b506103fb6118d7565b604051610408919061298f565b60405180910390f35b34801561041d57600080fd5b506104266118ee565b604051610433919061298f565b60405180910390f35b34801561044857600080fd5b50610451611905565b60405161045e9190612b3d565b60405180910390f35b34801561047357600080fd5b5061047c61192b565b604051610489919061298f565b60405180910390f35b34801561049e57600080fd5b506104a7611942565b6040516104b4919061298f565b60405180910390f35b6104d760048036038101906104d29190612a25565b611966565b005b3480156104e557600080fd5b506104ee611d19565b6040516104fb9190612b3d565b60405180910390f35b34801561051057600080fd5b50610519611d3f565b604051610526919061298f565b60405180910390f35b34801561053b57600080fd5b50610544611d56565b604051610551919061298f565b60405180910390f35b34801561056657600080fd5b5061056f611e13565b60405161057c919061298f565b60405180910390f35b34801561059157600080fd5b5061059a611e37565b6040516105a7919061298f565b60405180910390f35b3480156105bc57600080fd5b506105c5611e5b565b6040516105d2919061298f565b60405180910390f35b3480156105e757600080fd5b5061060260048036038101906105fd9190612b58565b611e7f565b005b83600360009054906101000a900473ffffffffffffffffffffffffffffffffffffffff1673ffffffffffffffffffffffffffffffffffffffff166370a08231336040518263ffffffff1660e01b81526004016106609190612a87565b602060405180830381865afa15801561067d573d6000803e3d6000fd5b505050506040513d601f19601f820116820180604052508101906106a19190612b9a565b10156106e2576040517f08c379a00000000000000000000000000000000000000000000000000000000081526004016106d990612c24565b60405180910390fd5b60006106ec61102e565b905060007f000000000000000000000000000000000000000000000000000000000000000061071a83612100565b876107259190612c73565b61072f9190612cfc565b90507f0000000000000000000000000000000000000000000000000000000000000000827f000000000000000000000000000000000000000000000000000000000000000061077e9190612c73565b6107889190612cfc565b8111158061084657507f0000000000000000000000000000000000000000000000000000000000000000600260009054906101000a900473ffffffffffffffffffffffffffffffffffffffff1673ffffffffffffffffffffffffffffffffffffffff166318160ddd6040518163ffffffff1660e01b8152600401602060405180830381865afa15801561081f573d6000803e3d6000fd5b505050506040513d601f19601f820116820180604052508101906108439190612b9a565b11155b610885576040517f08c379a000000000000000000000000000000000000000000000000000000000815260040161087c90612d79565b60405180910390fd5b60006108928286866121eb565b9050600360009054906101000a900473ffffffffffffffffffffffffffffffffffffffff1673ffffffffffffffffffffffffffffffffffffffff16639dc29fac33896040518363ffffffff1660e01b81526004016108f1929190612d99565b600060405180830381600087803b15801561090b57600080fd5b505af115801561091f573d6000803e3d6000fd5b505050508573ffffffffffffffffffffffffffffffffffffffff166108fc829081150290604051600060405180830381858888f19350505050158015610969573d6000803e3d6000fd5b50610973836123de565b6109b2576040517f08c379a00000000000000000000000000000000000000000000000000000000081526004016109a990612e0e565b60405180910390fd5b8573ffffffffffffffffffffffffffffffffffffffff163373ffffffffffffffffffffffffffffffffffffffff167f15e4dbe81367be42bcd3070bce6fe49bc9a13b25d7ee7fdd1e59b7563552fab78984604051610a11929190612e2e565b60405180910390a350505050505050565b7f000000000000000000000000000000000000000000000000000000000000000081565b84600260009054906101000a900473ffffffffffffffffffffffffffffffffffffffff1673ffffffffffffffffffffffffffffffffffffffff166370a08231336040518263ffffffff1660e01b8152600401610aa29190612a87565b602060405180830381865afa158015610abf573d6000803e3d6000fd5b505050506040513d601f19601f82011682018060405250810190610ae39190612b9a565b1015610b24576040517f08c379a0000000000000000000000000000000000000000000000000000000008152600401610b1b90612ec9565b60405180910390fd5b83600360009054906101000a900473ffffffffffffffffffffffffffffffffffffffff1673ffffffffffffffffffffffffffffffffffffffff166370a08231336040518263ffffffff1660e01b8152600401610b809190612a87565b602060405180830381865afa158015610b9d573d6000803e3d6000fd5b505050506040513d601f19601f82011682018060405250810190610bc19190612b9a565b1015610c02576040517f08c379a0000000000000000000000000000000000000000000000000000000008152600401610bf990612f5b565b60405180910390fd5b6000610c0c61102e565b90506000610c198261250d565b905060007f0000000000000000000000000000000000000000000000000000000000000000610c4784612100565b88610c529190612c73565b610c5c9190612cfc565b7f0000000000000000000000000000000000000000000000000000000000000000848a610c899190612c73565b610c939190612cfc565b610c9d9190612f7b565b90507f0000000000000000000000000000000000000000000000000000000000000000837f0000000000000000000000000000000000000000000000000000000000000000610cec9190612c73565b610cf69190612cfc565b81111580610db457507f0000000000000000000000000000000000000000000000000000000000000000600260009054906101000a900473ffffffffffffffffffffffffffffffffffffffff1673ffffffffffffffffffffffffffffffffffffffff166318160ddd6040518163ffffffff1660e01b8152600401602060405180830381865afa158015610d8d573d6000803e3d6000fd5b505050506040513d601f19601f82011682018060405250810190610db19190612b9a565b11155b610df3576040517f08c379a0000000000000000000000000000000000000000000000000000000008152600401610dea9061301d565b60405180910390fd5b600260009054906101000a900473ffffffffffffffffffffffffffffffffffffffff1673ffffffffffffffffffffffffffffffffffffffff16639dc29fac338a6040518363ffffffff1660e01b8152600401610e50929190612d99565b600060405180830381600087803b158015610e6a57600080fd5b505af1158015610e7e573d6000803e3d6000fd5b50505050600360009054906101000a900473ffffffffffffffffffffffffffffffffffffffff1673ffffffffffffffffffffffffffffffffffffffff16639dc29fac33896040518363ffffffff1660e01b8152600401610edf929190612d99565b600060405180830381600087803b158015610ef957600080fd5b505af1158015610f0d573d6000803e3d6000fd5b505050506000610f1e8287876121eb565b90508673ffffffffffffffffffffffffffffffffffffffff166108fc829081150290604051600060405180830381858888f19350505050158015610f66573d6000803e3d6000fd5b5082610f718561250d565b1015610fb2576040517f08c379a0000000000000000000000000000000000000000000000000000000008152600401610fa9906130af565b60405180910390fd5b8673ffffffffffffffffffffffffffffffffffffffff163373ffffffffffffffffffffffffffffffffffffffff167ff7873e627d69f6f47e1de13a8990f045fa63720d51c6ccf047fd4382962419d38b8b85604051611013939291906130cf565b60405180910390a3505050505050505050565b600047905090565b60008060008054906101000a900473ffffffffffffffffffffffffffffffffffffffff1673ffffffffffffffffffffffffffffffffffffffff1663bef55ef36040518163ffffffff1660e01b8152600401602060405180830381865afa15801561109c573d6000803e3d6000fd5b505050506040513d601f19601f820116820180604052508101906110c09190612b9a565b90506000600260009054906101000a900473ffffffffffffffffffffffffffffffffffffffff1673ffffffffffffffffffffffffffffffffffffffff166318160ddd6040518163ffffffff1660e01b8152600401602060405180830381865afa158015611131573d6000803e3d6000fd5b505050506040513d601f19601f820116820180604052508101906111559190612b9a565b9050600081146111ab576111a682827f000000000000000000000000000000000000000000000000000000000000000061118d611026565b6111979190612c73565b6111a19190612cfc565b612531565b6111ad565b815b9250505090565b7f000000000000000000000000000000000000000000000000000000000000000081565b60006111e53484846121eb565b905060006111f161102e565b90506000817f0000000000000000000000000000000000000000000000000000000000000000846112229190612c73565b61122c9190612cfc565b90507f00000000000000000000000000000000000000000000000000000000000000008111158061130d57507f0000000000000000000000000000000000000000000000000000000000000000600260009054906101000a900473ffffffffffffffffffffffffffffffffffffffff1673ffffffffffffffffffffffffffffffffffffffff166318160ddd6040518163ffffffff1660e01b8152600401602060405180830381865afa1580156112e6573d6000803e3d6000fd5b505050506040513d601f19601f8201168201806040525081019061130a9190612b9a565b11155b61134c576040517f08c379a000000000000000000000000000000000000000000000000000000000815260040161134390613152565b60405180910390fd5b600260009054906101000a900473ffffffffffffffffffffffffffffffffffffffff1673ffffffffffffffffffffffffffffffffffffffff166340c10f1987836040518363ffffffff1660e01b81526004016113a9929190612d99565b600060405180830381600087803b1580156113c357600080fd5b505af11580156113d7573d6000803e3d6000fd5b505050506113e4826123de565b611423576040517f08c379a000000000000000000000000000000000000000000000000000000000815260040161141a906131be565b60405180910390fd5b8573ffffffffffffffffffffffffffffffffffffffff163373ffffffffffffffffffffffffffffffffffffffff167fe2a93bd50c65406b1485d973a0eefc0938aa42447e8327a24413cf34646cb1c18334604051611482929190612e2e565b60405180910390a3505050505050565b7f000000000000000000000000000000000000000000000000000000000000000081565b7f000000000000000000000000000000000000000000000000000000000000000081565b7f000000000000000000000000000000000000000000000000000000000000000081565b600061151061150b61102e565b61250d565b905090565b83600260009054906101000a900473ffffffffffffffffffffffffffffffffffffffff1673ffffffffffffffffffffffffffffffffffffffff166370a08231336040518263ffffffff1660e01b81526004016115719190612a87565b602060405180830381865afa15801561158e573d6000803e3d6000fd5b505050506040513d601f19601f820116820180604052508101906115b29190612b9a565b10156115f3576040517f08c379a00000000000000000000000000000000000000000000000000000000081526004016115ea9061322a565b60405180910390fd5b7f0000000000000000000000000000000000000000000000000000000000000000841115806116d257507f0000000000000000000000000000000000000000000000000000000000000000600260009054906101000a900473ffffffffffffffffffffffffffffffffffffffff1673ffffffffffffffffffffffffffffffffffffffff166318160ddd6040518163ffffffff1660e01b8152600401602060405180830381865afa1580156116ab573d6000803e3d6000fd5b505050506040513d601f19601f820116820180604052508101906116cf9190612b9a565b11155b611711576040517f08c379a000000000000000000000000000000000000000000000000000000000815260040161170890613296565b60405180910390fd5b600061171b61102e565b905060007f0000000000000000000000000000000000000000000000000000000000000000828761174c9190612c73565b6117569190612cfc565b905060006117658286866121eb565b9050600260009054906101000a900473ffffffffffffffffffffffffffffffffffffffff1673ffffffffffffffffffffffffffffffffffffffff16639dc29fac33896040518363ffffffff1660e01b81526004016117c4929190612d99565b600060405180830381600087803b1580156117de57600080fd5b505af11580156117f2573d6000803e3d6000fd5b505050508573ffffffffffffffffffffffffffffffffffffffff166108fc829081150290604051600060405180830381858888f1935050505015801561183c573d6000803e3d6000fd5b508573ffffffffffffffffffffffffffffffffffffffff163373ffffffffffffffffffffffffffffffffffffffff167f5ca4c7224e0472de3d8d6d7816a14b47de89471be844d8c76bb75d1e528edfd1898460405161189c929190612e2e565b60405180910390a350505050505050565b60008054906101000a900473ffffffffffffffffffffffffffffffffffffffff1681565b60045481565b60006118e96118e461102e565b612100565b905090565b60006119006118fb61102e565b61254a565b905090565b600260009054906101000a900473ffffffffffffffffffffffffffffffffffffffff1681565b600061193d61193861102e565b61256e565b905090565b7f000000000000000000000000000000000000000000000000000000000000000081565b600061197061102e565b90507f0000000000000000000000000000000000000000000000000000000000000000817f00000000000000000000000000000000000000000000000000000000000000006119bf9190612c73565b6119c99190612cfc565b34111580611a8757507f0000000000000000000000000000000000000000000000000000000000000000600260009054906101000a900473ffffffffffffffffffffffffffffffffffffffff1673ffffffffffffffffffffffffffffffffffffffff166318160ddd6040518163ffffffff1660e01b8152600401602060405180830381865afa158015611a60573d6000803e3d6000fd5b505050506040513d601f19601f82011682018060405250810190611a849190612b9a565b11155b611ac6576040517f08c379a0000000000000000000000000000000000000000000000000000000008152600401611abd90613302565b60405180910390fd5b6000611ad33485856121eb565b90506000611ae08361263e565b7f000000000000000000000000000000000000000000000000000000000000000083611b0c9190612c73565b611b169190612cfc565b9050600360009054906101000a900473ffffffffffffffffffffffffffffffffffffffff1673ffffffffffffffffffffffffffffffffffffffff166340c10f1987836040518363ffffffff1660e01b8152600401611b75929190612d99565b600060405180830381600087803b158015611b8f57600080fd5b505af1158015611ba3573d6000803e3d6000fd5b50505050611bb083612737565b80611c6b57507f0000000000000000000000000000000000000000000000000000000000000000600260009054906101000a900473ffffffffffffffffffffffffffffffffffffffff1673ffffffffffffffffffffffffffffffffffffffff166318160ddd6040518163ffffffff1660e01b8152600401602060405180830381865afa158015611c44573d6000803e3d6000fd5b505050506040513d601f19601f82011682018060405250810190611c689190612b9a565b11155b611caa576040517f08c379a0000000000000000000000000000000000000000000000000000000008152600401611ca19061336e565b60405180910390fd5b8573ffffffffffffffffffffffffffffffffffffffff163373ffffffffffffffffffffffffffffffffffffffff167f8166a12a2e856c3ebafb91657860659290e42f5f615478292b29fb836f63f7c78334604051611d09929190612e2e565b60405180910390a3505050505050565b600360009054906101000a900473ffffffffffffffffffffffffffffffffffffffff1681565b6000611d51611d4c61102e565b61263e565b905090565b60007f00000000000000000000000000000000000000000000000000000000000000006004541015611e0b577f00000000000000000000000000000000000000000000000000000000000000006004547f0000000000000000000000000000000000000000000000000000000000000000611dd19190612c73565b611ddb9190612cfc565b7f0000000000000000000000000000000000000000000000000000000000000000611e06919061338e565b611e0e565b60005b905090565b7f000000000000000000000000000000000000000000000000000000000000000081565b7f000000000000000000000000000000000000000000000000000000000000000081565b7f000000000000000000000000000000000000000000000000000000000000000081565b60008060008060009054906101000a900473ffffffffffffffffffffffffffffffffffffffff1673ffffffffffffffffffffffffffffffffffffffff166332b7b4a8306040518263ffffffff1660e01b8152600401611ede9190612a87565b606060405180830381865afa158015611efb573d6000803e3d6000fd5b505050506040513d601f19601f82011682018060405250810190611f1f91906133c2565b9250925092506001548410611f69576040517f08c379a0000000000000000000000000000000000000000000000000000000008152600401611f6090613461565b60405180910390fd5b6127608184611f789190612c73565b611f829190612c73565b8483611f8e9190612f7b565b10611fce576040517f08c379a0000000000000000000000000000000000000000000000000000000008152600401611fc5906134f3565b60405180910390fd5b606447611fdb9190612cfc565b841061201c576040517f08c379a00000000000000000000000000000000000000000000000000000000081526004016120139061355f565b60405180910390fd5b60008054906101000a900473ffffffffffffffffffffffffffffffffffffffff1673ffffffffffffffffffffffffffffffffffffffff166349fdfb5885306040518363ffffffff1660e01b81526004016120769190612a87565b6000604051808303818588803b15801561208f57600080fd5b505af11580156120a3573d6000803e3d6000fd5b50505050507fd6338209fd93e4755e4eac0ba67b01f19ccadc837ef0f7421f07cf1a7d8c6a8284336040516120d992919061357f565b60405180910390a183600160008282546120f3919061338e565b9250508190555050505050565b600080600360009054906101000a900473ffffffffffffffffffffffffffffffffffffffff1673ffffffffffffffffffffffffffffffffffffffff166318160ddd6040518163ffffffff1660e01b8152600401602060405180830381865afa158015612170573d6000803e3d6000fd5b505050506040513d601f19601f820116820180604052508101906121949190612b9a565b905060008114156121a457600080fd5b807f00000000000000000000000000000000000000000000000000000000000000006121cf8561254a565b6121d99190612c73565b6121e39190612cfc565b915050919050565b6000807f00000000000000000000000000000000000000000000000000000000000000007f00000000000000000000000000000000000000000000000000000000000000008661223b9190612c73565b6122459190612cfc565b905060007f000000000000000000000000000000000000000000000000000000000000000085876122769190612c73565b6122809190612cfc565b905060007f00000000000000000000000000000000000000000000000000000000000000006122ad611d56565b886122b89190612c73565b6122c29190612cfc565b90508473ffffffffffffffffffffffffffffffffffffffff166108fc839081150290604051600060405180830381858888f1935050505015801561230a573d6000803e3d6000fd5b507f000000000000000000000000000000000000000000000000000000000000000073ffffffffffffffffffffffffffffffffffffffff166108fc829081150290604051600060405180830381858888f19350505050158015612371573d6000803e3d6000fd5b5080600460008282546123849190612f7b565b92505081905550600a836123989190612cfc565b600160008282546123a99190612f7b565b92505081905550808284896123be919061338e565b6123c8919061338e565b6123d2919061338e565b93505050509392505050565b60007f000000000000000000000000000000000000000000000000000000000000000082600260009054906101000a900473ffffffffffffffffffffffffffffffffffffffff1673ffffffffffffffffffffffffffffffffffffffff166318160ddd6040518163ffffffff1660e01b8152600401602060405180830381865afa15801561246f573d6000803e3d6000fd5b505050506040513d601f19601f820116820180604052508101906124939190612b9a565b61249d9190612c73565b6124a79190612c73565b7f00000000000000000000000000000000000000000000000000000000000000007f00000000000000000000000000000000000000000000000000000000000000006124f1611026565b6124fb9190612c73565b6125059190612c73565b119050919050565b60006125188261256e565b612520611026565b61252a9190612cfc565b9050919050565b60008183106125405781612542565b825b905092915050565b60006125558261256e565b61255d611026565b612567919061338e565b9050919050565b60007f000000000000000000000000000000000000000000000000000000000000000082600260009054906101000a900473ffffffffffffffffffffffffffffffffffffffff1673ffffffffffffffffffffffffffffffffffffffff166318160ddd6040518163ffffffff1660e01b8152600401602060405180830381865afa1580156125ff573d6000803e3d6000fd5b505050506040513d601f19601f820116820180604052508101906126239190612b9a565b61262d9190612c73565b6126379190612cfc565b9050919050565b600080600360009054906101000a900473ffffffffffffffffffffffffffffffffffffffff1673ffffffffffffffffffffffffffffffffffffffff166318160ddd6040518163ffffffff1660e01b8152600401602060405180830381865afa1580156126ae573d6000803e3d6000fd5b505050506040513d601f19601f820116820180604052508101906126d29190612b9a565b1461270e576127096126e383612100565b7f0000000000000000000000000000000000000000000000000000000000000000612866565b612730565b7f00000000000000000000000000000000000000000000000000000000000000005b9050919050565b60007f000000000000000000000000000000000000000000000000000000000000000082600260009054906101000a900473ffffffffffffffffffffffffffffffffffffffff1673ffffffffffffffffffffffffffffffffffffffff166318160ddd6040518163ffffffff1660e01b8152600401602060405180830381865afa1580156127c8573d6000803e3d6000fd5b505050506040513d601f19601f820116820180604052508101906127ec9190612b9a565b6127f69190612c73565b6128009190612c73565b7f00000000000000000000000000000000000000000000000000000000000000007f000000000000000000000000000000000000000000000000000000000000000061284a611026565b6128549190612c73565b61285e9190612c73565b109050919050565b6000818310156128765781612878565b825b905092915050565b600080fd5b6000819050919050565b61289881612885565b81146128a357600080fd5b50565b6000813590506128b58161288f565b92915050565b600073ffffffffffffffffffffffffffffffffffffffff82169050919050565b60006128e6826128bb565b9050919050565b6128f6816128db565b811461290157600080fd5b50565b600081359050612913816128ed565b92915050565b6000806000806080858703121561293357612932612880565b5b6000612941878288016128a6565b945050602061295287828801612904565b9350506040612963878288016128a6565b925050606061297487828801612904565b91505092959194509250565b61298981612885565b82525050565b60006020820190506129a46000830184612980565b92915050565b600080600080600060a086880312156129c6576129c5612880565b5b60006129d4888289016128a6565b95505060206129e5888289016128a6565b94505060406129f688828901612904565b9350506060612a07888289016128a6565b9250506080612a1888828901612904565b9150509295509295909350565b600080600060608486031215612a3e57612a3d612880565b5b6000612a4c86828701612904565b9350506020612a5d868287016128a6565b9250506040612a6e86828701612904565b9150509250925092565b612a81816128db565b82525050565b6000602082019050612a9c6000830184612a78565b92915050565b6000819050919050565b6000612ac7612ac2612abd846128bb565b612aa2565b6128bb565b9050919050565b6000612ad982612aac565b9050919050565b6000612aeb82612ace565b9050919050565b612afb81612ae0565b82525050565b6000602082019050612b166000830184612af2565b92915050565b6000612b2782612ace565b9050919050565b612b3781612b1c565b82525050565b6000602082019050612b526000830184612b2e565b92915050565b600060208284031215612b6e57612b6d612880565b5b6000612b7c848285016128a6565b91505092915050565b600081519050612b948161288f565b92915050565b600060208284031215612bb057612baf612880565b5b6000612bbe84828501612b85565b91505092915050565b600082825260208201905092915050565b7f73656c6c52433a20696e73756666696369656e742052432062616c616e636500600082015250565b6000612c0e601f83612bc7565b9150612c1982612bd8565b602082019050919050565b60006020820190508181036000830152612c3d81612c01565b9050919050565b7f4e487b7100000000000000000000000000000000000000000000000000000000600052601160045260246000fd5b6000612c7e82612885565b9150612c8983612885565b9250817fffffffffffffffffffffffffffffffffffffffffffffffffffffffffffffffff0483118215151615612cc257612cc1612c44565b5b828202905092915050565b7f4e487b7100000000000000000000000000000000000000000000000000000000600052601260045260246000fd5b6000612d0782612885565b9150612d1283612885565b925082612d2257612d21612ccd565b5b828204905092915050565b7f73656c6c52433a207478206c696d697420657863656564656400000000000000600082015250565b6000612d63601983612bc7565b9150612d6e82612d2d565b602082019050919050565b60006020820190508181036000830152612d9281612d56565b9050919050565b6000604082019050612dae6000830185612a78565b612dbb6020830184612980565b9392505050565b7f73656c6c52433a20726174696f2062656c6f77206d696e000000000000000000600082015250565b6000612df8601783612bc7565b9150612e0382612dc2565b602082019050919050565b60006020820190508181036000830152612e2781612deb565b9050919050565b6000604082019050612e436000830185612980565b612e506020830184612980565b9392505050565b7f73656c6c426f74683a20696e73756666696369656e742053432062616c616e6360008201527f6500000000000000000000000000000000000000000000000000000000000000602082015250565b6000612eb3602183612bc7565b9150612ebe82612e57565b604082019050919050565b60006020820190508181036000830152612ee281612ea6565b9050919050565b7f73656c6c426f74683a20696e73756666696369656e742052432062616c616e6360008201527f6500000000000000000000000000000000000000000000000000000000000000602082015250565b6000612f45602183612bc7565b9150612f5082612ee9565b604082019050919050565b60006020820190508181036000830152612f7481612f38565b9050919050565b6000612f8682612885565b9150612f9183612885565b9250827fffffffffffffffffffffffffffffffffffffffffffffffffffffffffffffffff03821115612fc657612fc5612c44565b5b828201905092915050565b7f73656c6c426f74683a207478206c696d69742065786365656465640000000000600082015250565b6000613007601b83612bc7565b915061301282612fd1565b602082019050919050565b6000602082019050818103600083015261303681612ffa565b9050919050565b7f73656c6c426f74683a207265736572766520726174696f20646563726561736560008201527f6400000000000000000000000000000000000000000000000000000000000000602082015250565b6000613099602183612bc7565b91506130a48261303d565b604082019050919050565b600060208201905081810360008301526130c88161308c565b9050919050565b60006060820190506130e46000830186612980565b6130f16020830185612980565b6130fe6040830184612980565b949350505050565b7f62757953433a207478206c696d69742065786365656465640000000000000000600082015250565b600061313c601883612bc7565b915061314782613106565b602082019050919050565b6000602082019050818103600083015261316b8161312f565b9050919050565b7f62757953433a20726174696f2062656c6f77206d696e00000000000000000000600082015250565b60006131a8601683612bc7565b91506131b382613172565b602082019050919050565b600060208201905081810360008301526131d78161319b565b9050919050565b7f73656c6c53433a20696e73756666696369656e742053432062616c616e636500600082015250565b6000613214601f83612bc7565b915061321f826131de565b602082019050919050565b6000602082019050818103600083015261324381613207565b9050919050565b7f73656c6c53433a207478206c696d697420657863656564656400000000000000600082015250565b6000613280601983612bc7565b915061328b8261324a565b602082019050919050565b600060208201905081810360008301526132af81613273565b9050919050565b7f62757952433a207478206c696d69742065786365656465640000000000000000600082015250565b60006132ec601883612bc7565b91506132f7826132b6565b602082019050919050565b6000602082019050818103600083015261331b816132df565b9050919050565b7f62757952433a20726174696f2061626f7665206d617800000000000000000000600082015250565b6000613358601683612bc7565b915061336382613322565b602082019050919050565b600060208201905081810360008301526133878161334b565b9050919050565b600061339982612885565b91506133a483612885565b9250828210156133b7576133b6612c44565b5b828203905092915050565b6000806000606084860312156133db576133da612880565b5b60006133e986828701612b85565b93505060206133fa86828701612b85565b925050604061340b86828701612b85565b9150509250925092565b7f696e73756666696369656e7420617661696c61626c652066756e64696e670000600082015250565b600061344b601e83612bc7565b915061345682613415565b602082019050919050565b6000602082019050818103600083015261347a8161343e565b9050919050565b7f6f7261636c652063726564697420776f756c6420657863656564206d6178696d60008201527f756d000000000000000000000000000000000000000000000000000000000000602082015250565b60006134dd602283612bc7565b91506134e882613481565b604082019050919050565b6000602082019050818103600083015261350c816134d0565b9050919050565b7f76616c75652067726561746572207468616e203125206f662072657365727665600082015250565b6000613549602083612bc7565b915061355482613513565b602082019050919050565b600060208201905081810360008301526135788161353c565b9050919050565b60006040820190506135946000830185612980565b6135a16020830184612a78565b939250505056fea2646970667358221220402477f7a9c5bdaed26740e394b1ac0ac8a7d7cfc7d8b6a2b3ac02246e71d3b164736f6c634300080a003360a06040523480156200001157600080fd5b5060405162001d6838038062001d688339818101604052810190620000379190620002f6565b8181816003908051906020019062000051929190620000a9565b5080600490805190602001906200006a929190620000a9565b5050503373ffffffffffffffffffffffffffffffffffffffff1660808173ffffffffffffffffffffffffffffffffffffffff16815250505050620003e0565b828054620000b790620003aa565b90600052602060002090601f016020900481019282620000db576000855562000127565b82601f10620000f657805160ff191683800117855562000127565b8280016001018555821562000127579182015b828111156200012657825182559160200191906001019062000109565b5b5090506200013691906200013a565b5090565b5b80821115620001555760008160009055506001016200013b565b5090565b6000604051905090565b600080fd5b600080fd5b600080fd5b600080fd5b6000601f19601f8301169050919050565b7f4e487b7100000000000000000000000000000000000000000000000000000000600052604160045260246000fd5b620001c28262000177565b810181811067ffffffffffffffff82111715620001e457620001e362000188565b5b80604052505050565b6000620001f962000159565b9050620002078282620001b7565b919050565b600067ffffffffffffffff8211156200022a576200022962000188565b5b620002358262000177565b9050602081019050919050565b60005b838110156200026257808201518184015260208101905062000245565b8381111562000272576000848401525b50505050565b60006200028f62000289846200020c565b620001ed565b905082815260208101848484011115620002ae57620002ad62000172565b5b620002bb84828562000242565b509392505050565b600082601f830112620002db57620002da6200016d565b5b8151620002ed84826020860162000278565b91505092915050565b6000806040838503121562000310576200030f62000163565b5b600083015167ffffffffffffffff81111562000331576200033062000168565b5b6200033f85828601620002c3565b925050602083015167ffffffffffffffff81111562000363576200036262000168565b5b6200037185828601620002c3565b9150509250929050565b7f4e487b7100000000000000000000000000000000000000000000000000000000600052602260045260246000fd5b60006002820490506001821680620003c357607f821691505b60208210811415620003da57620003d96200037b565b5b50919050565b6080516119656200040360003960008181610404015261057a01526119656000f3fe608060405234801561001057600080fd5b50600436106100cf5760003560e01c806340c10f191161008c5780639dc29fac116100665780639dc29fac14610228578063a457c2d714610244578063a9059cbb14610274578063dd62ed3e146102a4576100cf565b806340c10f19146101be57806370a08231146101da57806395d89b411461020a576100cf565b806306fdde03146100d4578063095ea7b3146100f257806318160ddd1461012257806323b872dd14610140578063313ce56714610170578063395093511461018e575b600080fd5b6100dc6102d4565b6040516100e99190610fef565b60405180910390f35b61010c600480360381019061010791906110aa565b610366565b6040516101199190611105565b60405180910390f35b61012a610389565b604051610137919061112f565b60405180910390f35b61015a6004803603810190610155919061114a565b610393565b6040516101679190611105565b60405180910390f35b6101786103c2565b60405161018591906111b9565b60405180910390f35b6101a860048036038101906101a391906110aa565b6103cb565b6040516101b59190611105565b60405180910390f35b6101d860048036038101906101d391906110aa565b610402565b005b6101f460048036038101906101ef91906111d4565b61049e565b604051610201919061112f565b60405180910390f35b6102126104e6565b60405161021f9190610fef565b60405180910390f35b610242600480360381019061023d91906110aa565b610578565b005b61025e600480360381019061025991906110aa565b610614565b60405161026b9190611105565b60405180910390f35b61028e600480360381019061028991906110aa565b61068b565b60405161029b9190611105565b60405180910390f35b6102be60048036038101906102b99190611201565b6106ae565b6040516102cb919061112f565b60405180910390f35b6060600380546102e390611270565b80601f016020809104026020016040519081016040528092919081815260200182805461030f90611270565b801561035c5780601f106103315761010080835404028352916020019161035c565b820191906000526020600020905b81548152906001019060200180831161033f57829003601f168201915b5050505050905090565b600080610371610735565b905061037e81858561073d565b600191505092915050565b6000600254905090565b60008061039e610735565b90506103ab858285610908565b6103b6858585610994565b60019150509392505050565b60006006905090565b6000806103d6610735565b90506103f78185856103e885896106ae565b6103f291906112d1565b61073d565b600191505092915050565b7f000000000000000000000000000000000000000000000000000000000000000073ffffffffffffffffffffffffffffffffffffffff163373ffffffffffffffffffffffffffffffffffffffff1614610490576040517f08c379a000000000000000000000000000000000000000000000000000000000815260040161048790611373565b60405180910390fd5b61049a8282610c15565b5050565b60008060008373ffffffffffffffffffffffffffffffffffffffff1673ffffffffffffffffffffffffffffffffffffffff168152602001908152602001600020549050919050565b6060600480546104f590611270565b80601f016020809104026020016040519081016040528092919081815260200182805461052190611270565b801561056e5780601f106105435761010080835404028352916020019161056e565b820191906000526020600020905b81548152906001019060200180831161055157829003601f168201915b5050505050905090565b7f000000000000000000000000000000000000000000000000000000000000000073ffffffffffffffffffffffffffffffffffffffff163373ffffffffffffffffffffffffffffffffffffffff1614610606576040517f08c379a00000000000000000000000000000000000000000000000000000000081526004016105fd90611373565b60405180910390fd5b6106108282610d75565b5050565b60008061061f610735565b9050600061062d82866106ae565b905083811015610672576040517f08c379a000000000000000000000000000000000000000000000000000000000815260040161066990611405565b60405180910390fd5b61067f828686840361073d565b60019250505092915050565b600080610696610735565b90506106a3818585610994565b600191505092915050565b6000600160008473ffffffffffffffffffffffffffffffffffffffff1673ffffffffffffffffffffffffffffffffffffffff16815260200190815260200160002060008373ffffffffffffffffffffffffffffffffffffffff1673ffffffffffffffffffffffffffffffffffffffff16815260200190815260200160002054905092915050565b600033905090565b600073ffffffffffffffffffffffffffffffffffffffff168373ffffffffffffffffffffffffffffffffffffffff1614156107ad576040517f08c379a00000000000000000000000000000000000000000000000000000000081526004016107a490611497565b60405180910390fd5b600073ffffffffffffffffffffffffffffffffffffffff168273ffffffffffffffffffffffffffffffffffffffff16141561081d576040517f08c379a000000000000000000000000000000000000000000000000000000000815260040161081490611529565b60405180910390fd5b80600160008573ffffffffffffffffffffffffffffffffffffffff1673ffffffffffffffffffffffffffffffffffffffff16815260200190815260200160002060008473ffffffffffffffffffffffffffffffffffffffff1673ffffffffffffffffffffffffffffffffffffffff168152602001908152602001600020819055508173ffffffffffffffffffffffffffffffffffffffff168373ffffffffffffffffffffffffffffffffffffffff167f8c5be1e5ebec7d5bd14f71427d1e84f3dd0314c0f7b2291e5b200ac8c7c3b925836040516108fb919061112f565b60405180910390a3505050565b600061091484846106ae565b90507fffffffffffffffffffffffffffffffffffffffffffffffffffffffffffffffff811461098e5781811015610980576040517f08c379a000000000000000000000000000000000000000000000000000000000815260040161097790611595565b60405180910390fd5b61098d848484840361073d565b5b50505050565b600073ffffffffffffffffffffffffffffffffffffffff168373ffffffffffffffffffffffffffffffffffffffff161415610a04576040517f08c379a00000000000000000000000000000000000000000000000000000000081526004016109fb90611627565b60405180910390fd5b600073ffffffffffffffffffffffffffffffffffffffff168273ffffffffffffffffffffffffffffffffffffffff161415610a74576040517f08c379a0000000000000000000000000000000000000000000000000000000008152600401610a6b906116b9565b60405180910390fd5b610a7f838383610f4c565b60008060008573ffffffffffffffffffffffffffffffffffffffff1673ffffffffffffffffffffffffffffffffffffffff16815260200190815260200160002054905081811015610b05576040517f08c379a0000000000000000000000000000000000000000000000000000000008152600401610afc9061174b565b60405180910390fd5b8181036000808673ffffffffffffffffffffffffffffffffffffffff1673ffffffffffffffffffffffffffffffffffffffff16815260200190815260200160002081905550816000808573ffffffffffffffffffffffffffffffffffffffff1673ffffffffffffffffffffffffffffffffffffffff1681526020019081526020016000206000828254610b9891906112d1565b925050819055508273ffffffffffffffffffffffffffffffffffffffff168473ffffffffffffffffffffffffffffffffffffffff167fddf252ad1be2c89b69c2b068fc378daa952ba7f163c4a11628f55a4df523b3ef84604051610bfc919061112f565b60405180910390a3610c0f848484610f51565b50505050565b600073ffffffffffffffffffffffffffffffffffffffff168273ffffffffffffffffffffffffffffffffffffffff161415610c85576040517f08c379a0000000000000000000000000000000000000000000000000000000008152600401610c7c906117b7565b60405180910390fd5b610c9160008383610f4c565b8060026000828254610ca391906112d1565b92505081905550806000808473ffffffffffffffffffffffffffffffffffffffff1673ffffffffffffffffffffffffffffffffffffffff1681526020019081526020016000206000828254610cf891906112d1565b925050819055508173ffffffffffffffffffffffffffffffffffffffff16600073ffffffffffffffffffffffffffffffffffffffff167fddf252ad1be2c89b69c2b068fc378daa952ba7f163c4a11628f55a4df523b3ef83604051610d5d919061112f565b60405180910390a3610d7160008383610f51565b5050565b600073ffffffffffffffffffffffffffffffffffffffff168273ffffffffffffffffffffffffffffffffffffffff161415610de5576040517f08c379a0000000000000000000000000000000000000000000000000000000008152600401610ddc90611849565b60405180910390fd5b610df182600083610f4c565b60008060008473ffffffffffffffffffffffffffffffffffffffff1673ffffffffffffffffffffffffffffffffffffffff16815260200190815260200160002054905081811015610e77576040517f08c379a0000000000000000000000000000000000000000000000000000000008152600401610e6e906118db565b60405180910390fd5b8181036000808573ffffffffffffffffffffffffffffffffffffffff1673ffffffffffffffffffffffffffffffffffffffff168152602001908152602001600020819055508160026000828254610ece91906118fb565b92505081905550600073ffffffffffffffffffffffffffffffffffffffff168373ffffffffffffffffffffffffffffffffffffffff167fddf252ad1be2c89b69c2b068fc378daa952ba7f163c4a11628f55a4df523b3ef84604051610f33919061112f565b60405180910390a3610f4783600084610f51565b505050565b505050565b505050565b600081519050919050565b600082825260208201905092915050565b60005b83811015610f90578082015181840152602081019050610f75565b83811115610f9f576000848401525b50505050565b6000601f19601f8301169050919050565b6000610fc182610f56565b610fcb8185610f61565b9350610fdb818560208601610f72565b610fe481610fa5565b840191505092915050565b600060208201905081810360008301526110098184610fb6565b905092915050565b600080fd5b600073ffffffffffffffffffffffffffffffffffffffff82169050919050565b600061104182611016565b9050919050565b61105181611036565b811461105c57600080fd5b50565b60008135905061106e81611048565b92915050565b6000819050919050565b61108781611074565b811461109257600080fd5b50565b6000813590506110a48161107e565b92915050565b600080604083850312156110c1576110c0611011565b5b60006110cf8582860161105f565b92505060206110e085828601611095565b9150509250929050565b60008115159050919050565b6110ff816110ea565b82525050565b600060208201905061111a60008301846110f6565b92915050565b61112981611074565b82525050565b60006020820190506111446000830184611120565b92915050565b60008060006060848603121561116357611162611011565b5b60006111718682870161105f565b93505060206111828682870161105f565b925050604061119386828701611095565b9150509250925092565b600060ff82169050919050565b6111b38161119d565b82525050565b60006020820190506111ce60008301846111aa565b92915050565b6000602082840312156111ea576111e9611011565b5b60006111f88482850161105f565b91505092915050565b6000806040838503121561121857611217611011565b5b60006112268582860161105f565b92505060206112378582860161105f565b9150509250929050565b7f4e487b7100000000000000000000000000000000000000000000000000000000600052602260045260246000fd5b6000600282049050600182168061128857607f821691505b6020821081141561129c5761129b611241565b5b50919050565b7f4e487b7100000000000000000000000000000000000000000000000000000000600052601160045260246000fd5b60006112dc82611074565b91506112e783611074565b9250827fffffffffffffffffffffffffffffffffffffffffffffffffffffffffffffffff0382111561131c5761131b6112a2565b5b828201905092915050565b7f556e617574686f72697a65640000000000000000000000000000000000000000600082015250565b600061135d600c83610f61565b915061136882611327565b602082019050919050565b6000602082019050818103600083015261138c81611350565b9050919050565b7f45524332303a2064656372656173656420616c6c6f77616e63652062656c6f7760008201527f207a65726f000000000000000000000000000000000000000000000000000000602082015250565b60006113ef602583610f61565b91506113fa82611393565b604082019050919050565b6000602082019050818103600083015261141e816113e2565b9050919050565b7f45524332303a20617070726f76652066726f6d20746865207a65726f2061646460008201527f7265737300000000000000000000000000000000000000000000000000000000602082015250565b6000611481602483610f61565b915061148c82611425565b604082019050919050565b600060208201905081810360008301526114b081611474565b9050919050565b7f45524332303a20617070726f766520746f20746865207a65726f20616464726560008201527f7373000000000000000000000000000000000000000000000000000000000000602082015250565b6000611513602283610f61565b915061151e826114b7565b604082019050919050565b6000602082019050818103600083015261154281611506565b9050919050565b7f45524332303a20696e73756666696369656e7420616c6c6f77616e6365000000600082015250565b600061157f601d83610f61565b915061158a82611549565b602082019050919050565b600060208201905081810360008301526115ae81611572565b9050919050565b7f45524332303a207472616e736665722066726f6d20746865207a65726f20616460008201527f6472657373000000000000000000000000000000000000000000000000000000602082015250565b6000611611602583610f61565b915061161c826115b5565b604082019050919050565b6000602082019050818103600083015261164081611604565b9050919050565b7f45524332303a207472616e7366657220746f20746865207a65726f206164647260008201527f6573730000000000000000000000000000000000000000000000000000000000602082015250565b60006116a3602383610f61565b91506116ae82611647565b604082019050919050565b600060208201905081810360008301526116d281611696565b9050919050565b7f45524332303a207472616e7366657220616d6f756e742065786365656473206260008201527f616c616e63650000000000000000000000000000000000000000000000000000602082015250565b6000611735602683610f61565b9150611740826116d9565b604082019050919050565b6000602082019050818103600083015261176481611728565b9050919050565b7f45524332303a206d696e7420746f20746865207a65726f206164647265737300600082015250565b60006117a1601f83610f61565b91506117ac8261176b565b602082019050919050565b600060208201905081810360008301526117d081611794565b9050919050565b7f45524332303a206275726e2066726f6d20746865207a65726f2061646472657360008201527f7300000000000000000000000000000000000000000000000000000000000000602082015250565b6000611833602183610f61565b915061183e826117d7565b604082019050919050565b6000602082019050818103600083015261186281611826565b9050919050565b7f45524332303a206275726e20616d6f756e7420657863656564732062616c616e60008201527f6365000000000000000000000000000000000000000000000000000000000000602082015250565b60006118c5602283610f61565b91506118d082611869565b604082019050919050565b600060208201905081810360008301526118f4816118b8565b9050919050565b600061190682611074565b915061191183611074565b925082821015611924576119236112a2565b5b82820390509291505056fea264697066735822122063aed0bb8c5e6171770de66b1a5959ebb6a807cd502390de901991fd1ffb3fa764736f6c634300080a0033",
  "immutableReferences": {
    "890": [
      {
        "length": 32,
        "start": 5304
      },
      {
        "length": 32,
        "start": 8973
      }
    ],
    "892": [
      {
        "length": 32,
        "start": 5268
      },
      {
        "length": 32,
        "start": 7592
      },
      {
        "length": 32,
        "start": 7645
      }
    ],
    "894": [
      {
        "length": 32,
        "start": 6468
      },
      {
        "length": 32,
        "start": 7514
      },
      {
        "length": 32,
        "start": 7556
      }
    ],
    "899": [
      {
        "length": 32,
        "start": 2596
      },
      {
        "length": 32,
        "start": 9186
      }
    ],
    "901": [
      {
        "length": 32,
        "start": 7773
      },
      {
        "length": 32,
        "start": 10043
      }
    ],
    "903": [
      {
        "length": 32,
        "start": 7737
      },
      {
        "length": 32,
        "start": 8721
      }
    ],
    "905": [
      {
        "length": 32,
        "start": 1939
      },
      {
        "length": 32,
        "start": 3329
      },
      {
        "length": 32,
        "start": 4698
      },
      {
        "length": 32,
        "start": 5663
      },
      {
        "length": 32,
        "start": 6612
      },
      {
        "length": 32,
        "start": 7096
      },
      {
        "length": 32,
        "start": 7701
      }
    ],
    "907": [
      {
        "length": 32,
        "start": 4534
      },
      {
        "length": 32,
        "start": 9957
      },
      {
        "length": 32,
        "start": 10000
      }
    ],
    "909": [
      {
        "length": 32,
        "start": 1877
      },
      {
        "length": 32,
        "start": 3267
      },
      {
        "length": 32,
        "start": 4656
      },
      {
        "length": 32,
        "start": 5340
      },
      {
        "length": 32,
        "start": 5621
      },
      {
        "length": 32,
        "start": 6550
      }
    ],
    "911": [
      {
        "length": 32,
        "start": 8688
      },
      {
        "length": 32,
        "start": 8779
      },
      {
        "length": 32,
        "start": 8838
      },
      {
        "length": 32,
        "start": 9418
      },
      {
        "length": 32,
        "start": 10275
      }
    ],
    "913": [
      {
        "length": 32,
        "start": 1843
      },
      {
        "length": 32,
        "start": 3166
      },
      {
        "length": 32,
        "start": 3233
      },
      {
        "length": 32,
        "start": 4454
      },
      {
        "length": 32,
        "start": 4600
      },
      {
        "length": 32,
        "start": 5921
      },
      {
        "length": 32,
        "start": 6516
      },
      {
        "length": 32,
        "start": 9385
      },
      {
        "length": 32,
        "start": 9586
      },
      {
        "length": 32,
        "start": 10242
      }
    ],
    "915": [
      {
        "length": 32,
        "start": 1778
      },
      {
        "length": 32,
        "start": 3103
      },
      {
        "length": 32,
        "start": 6882
      },
      {
        "length": 32,
        "start": 8615
      }
    ]
  },
  "source": "// SPDX-License-Identifier: AFEL\npragma solidity ^0.8.0;\n\nimport \"@openzeppelin/contracts/utils/math/Math.sol\";\nimport \"./Coin.sol\";\nimport \"./OracleConsumer.sol\";\nimport \"./IOracle.sol\";\n\ncontract Djed is OracleConsumer {\n    Coin public stableCoin;\n    Coin public reserveCoin;\n\n    // Treasury Parameters:\n    address public immutable treasury;           // address of the treasury \n    uint public immutable initialTreasuryFee;    // initial fee to fund the treasury\n    uint public immutable treasuryRevenueTarget; // target revenue above which the treasury fee is set to 0\n    uint public treasuryRevenue = 0;             // holds how much has already been paid to the treasury // Mutable state variable\n\n    // Djed Parameters:\n    uint public immutable reserveRatioMin;\n    uint public immutable reserveRatioMax;\n    uint public immutable fee;\n    uint public immutable thresholdSupplySC;\n    uint public immutable rcMinPrice;\n    uint public immutable txLimit; \n\n    // Scaling factors:\n    uint immutable scalingFactor; // used to represent a decimal number `d` as the uint number `d * scalingFactor`\n    uint immutable scDecimalScalingFactor;\n    uint immutable rcDecimalScalingFactor;\n\n    event BoughtStableCoins(address indexed buyer, address indexed receiver, uint amountSC, uint amountBC);\n    event SoldStableCoins(address indexed seller, address indexed receiver, uint amountSC, uint amountBC);\n    event BoughtReserveCoins(address indexed buyer, address indexed receiver, uint amountRC, uint amountBC);\n    event SoldReserveCoins(address indexed seller, address indexed receiver, uint amountRC, uint amountBC);\n    event SoldBothCoins(address indexed seller, address indexed receiver, uint amountSC, uint amountRC, uint amountBC);\n\n    constructor(\n        address oracleAddress, uint _scalingFactor, address _treasury, uint _initialTreasuryFee, uint _treasuryRevenueTarget,\n        uint _reserveRatioMin, uint _reserveRatioMax, uint _fee, uint _thresholdSupplySC, uint _rcMinPrice, uint _txLimit\n    ) payable {\n        stableCoin = new Coin(\"StableCoin\", \"SC\");\n        reserveCoin = new Coin(\"ReserveCoin\", \"RC\");\n        scDecimalScalingFactor = 10**stableCoin.decimals();\n        rcDecimalScalingFactor = 10**reserveCoin.decimals();\n        oracle = IOracle(oracleAddress);\n        scalingFactor = _scalingFactor;\n\n        treasury = _treasury;\n        initialTreasuryFee = _initialTreasuryFee;\n        treasuryRevenueTarget = _treasuryRevenueTarget;\n\n        reserveRatioMin = _reserveRatioMin;\n        reserveRatioMax = _reserveRatioMax;\n        fee = _fee;\n        thresholdSupplySC = _thresholdSupplySC;\n        rcMinPrice = _rcMinPrice;\n        txLimit = _txLimit;\n    }\n\n    // Reserve, Liabilities, Equity (in weis) and Reserve Ratio\n    function R() public view returns (uint) { return address(this).balance; }\n    function L(uint _scPrice) internal view returns (uint) { return stableCoin.totalSupply() * _scPrice / scDecimalScalingFactor; }\n    function L() external view returns (uint) { return L(scPrice()); }\n    function E(uint _scPrice) internal view returns (uint) { return R() - L(_scPrice); }\n    function E() external view returns (uint) { return E(scPrice()); }\n    function ratio(uint _scPrice) internal view returns (uint) { return R()/L(_scPrice); }\n    function ratio() external view returns (uint) { return ratio(scPrice()); }\n    \n\n    // # Public Trading Functions:\n\n    function buyStableCoins(address receiver, uint fee_ui, address ui) external payable {\n        uint amountBC = deductFees(msg.value, fee_ui, ui); // side-effect: increases `treasuryRevenue` and `oracleAvailableFunding`\n        uint scP = scPrice();\n        uint amountSC = (amountBC * scDecimalScalingFactor) / scP;\n        require(amountSC <= txLimit || stableCoin.totalSupply() <= thresholdSupplySC, \"buySC: tx limit exceeded\");\n        stableCoin.mint(receiver, amountSC);\n        require(isRatioAboveMin(scP), \"buySC: ratio below min\");\n        emit BoughtStableCoins(msg.sender, receiver, amountSC, msg.value);\n    }\n\n    function sellStableCoins(uint amountSC, address receiver, uint fee_ui, address ui) external {\n        require(stableCoin.balanceOf(msg.sender) >= amountSC, \"sellSC: insufficient SC balance\");\n        require(amountSC <= txLimit || stableCoin.totalSupply() <= thresholdSupplySC, \"sellSC: tx limit exceeded\");\n        uint scP = scPrice();\n        uint value = amountSC * scP / scDecimalScalingFactor;\n        uint amountBC = deductFees(value, fee_ui, ui); // side-effect: increases `treasuryRevenue` and `oracleAvailableFunding`\n        stableCoin.burn(msg.sender, amountSC);\n        payable(receiver).transfer(amountBC);\n        emit SoldStableCoins(msg.sender, receiver, amountSC, amountBC);\n    }\n\n    function buyReserveCoins(address receiver, uint fee_ui, address ui) external payable {\n        uint scP = scPrice();\n        require(msg.value <= txLimit  * scP / scDecimalScalingFactor || stableCoin.totalSupply() <= thresholdSupplySC, \"buyRC: tx limit exceeded\");\n        uint amountBC = deductFees(msg.value, fee_ui, ui); // side-effect: increases `treasuryRevenue` and `oracleAvailableFunding`\n        uint amountRC = (amountBC * rcDecimalScalingFactor) / rcBuyingPrice(scP);\n        reserveCoin.mint(receiver, amountRC);\n        require(isRatioBelowMax(scP) || stableCoin.totalSupply() <= thresholdSupplySC, \"buyRC: ratio above max\");\n        emit BoughtReserveCoins(msg.sender, receiver, amountRC, msg.value);\n    }   \n\n    function sellReserveCoins(uint amountRC, address receiver, uint fee_ui, address ui) external {\n        require(reserveCoin.balanceOf(msg.sender) >= amountRC, \"sellRC: insufficient RC balance\"); \n        uint scP = scPrice();\n        uint value = amountRC * rcTargetPrice(scP) / rcDecimalScalingFactor;\n        require(value <= txLimit * scP / scDecimalScalingFactor || stableCoin.totalSupply() <= thresholdSupplySC, \"sellRC: tx limit exceeded\");\n        uint amountBC = deductFees(value, fee_ui, ui); // side-effect: increases `treasuryRevenue` and `oracleAvailableFunding`\n        reserveCoin.burn(msg.sender, amountRC);\n        payable(receiver).transfer(amountBC);\n        require(isRatioAboveMin(scP), \"sellRC: ratio below min\");\n        emit SoldReserveCoins(msg.sender, receiver, amountRC, amountBC);\n    }\n\n    function sellBothCoins(uint amountSC, uint amountRC, address receiver, uint fee_ui, address ui) external {\n        require(stableCoin.balanceOf(msg.sender) >= amountSC, \"sellBoth: insufficient SC balance\"); \n        require(reserveCoin.balanceOf(msg.sender) >= amountRC, \"sellBoth: insufficient RC balance\");\n        uint scP = scPrice();\n        uint preRatio = ratio(scP);\n        uint value = amountSC * scP / scDecimalScalingFactor +\n                     amountRC * rcTargetPrice(scP) / rcDecimalScalingFactor;\n        require(value <= txLimit * scP / scDecimalScalingFactor || stableCoin.totalSupply() <= thresholdSupplySC, \"sellBoth: tx limit exceeded\");\n        stableCoin.burn(msg.sender, amountSC);\n        reserveCoin.burn(msg.sender, amountRC);\n        uint amountBC = deductFees(value, fee_ui, ui); // side-effect: increases `treasuryRevenue` and `oracleAvailableFunding`\n        payable(receiver).transfer(amountBC);\n        require(ratio(scP) >= preRatio, \"sellBoth: reserve ratio decreased\");\n        emit SoldBothCoins(msg.sender, receiver, amountSC, amountRC, amountBC);\n    }\n\n    // # Auxiliary Functions\n\n    function deductFees(uint value, uint fee_ui, address ui) internal returns (uint) {\n        uint f = value * fee / scalingFactor;\n        uint f_ui = value * fee_ui / scalingFactor;\n        uint f_t = value * treasuryFee() / scalingFactor;\n        // payable(address(this)).transfer(f); // this happens implicitly, and thus `f` is effectively transfered to the reserve.\n        payable(ui).transfer(f_ui);\n        payable(treasury).transfer(f_t); \n        treasuryRevenue += f_t;\n        oracleAvailableFunding += f / 10; // one 10th of the fee paid to the reserve is made available to be used to fund the oracle.\n        return value - f - f_ui - f_t; // amountBC\n    }\n \n    function isRatioAboveMin(uint _scPrice) internal view returns (bool) {\n        return R() * scalingFactor * scDecimalScalingFactor > stableCoin.totalSupply() * _scPrice * reserveRatioMin;\n    }\n\n    function isRatioBelowMax(uint _scPrice) internal view returns (bool) {\n        return R() * scalingFactor * scDecimalScalingFactor < stableCoin.totalSupply() * _scPrice * reserveRatioMax;\n    }\n\n    // Treasury Fee: starts as `initialTreasuryFee` and decreases linearly to 0 as the `treasuryRevenue` approaches the `treasuryRevenueTarget`\n    function treasuryFee() public view returns (uint) {\n        return (treasuryRevenue >= treasuryRevenueTarget) ? 0 : initialTreasuryFee - ((initialTreasuryFee * treasuryRevenue) / treasuryRevenueTarget);\n    }\n\n    // # Price Functions: return the price in weis for 1 whole coin.\n\n    function scPrice() public view returns (uint) {\n        uint scTargetPrice = oracle.readData();\n        uint sSC = stableCoin.totalSupply();\n        return sSC == 0  ?  scTargetPrice  :  Math.min(scTargetPrice, (R() * scDecimalScalingFactor) / sSC);\n    }\n\n    function rcTargetPrice() external view returns (uint) { return rcTargetPrice(scPrice()); }\n    function rcTargetPrice(uint _scPrice) internal view returns (uint) {\n        uint sRC = reserveCoin.totalSupply();\n        require(sRC != 0);\n        return (E(_scPrice) * rcDecimalScalingFactor) / sRC;\n    }\n\n    function rcBuyingPrice() external view returns (uint) { return rcBuyingPrice(scPrice()); }\n    function rcBuyingPrice(uint _scPrice) internal view returns (uint) {\n        return reserveCoin.totalSupply() == 0  ?  rcMinPrice  :  Math.max(rcTargetPrice(_scPrice), rcMinPrice);\n    }\n}",
  "sourcePath": "/Users/bruno/Dropbox/DjedAlliance/Code/Djed-Solidity/src/Djed.sol",
  "compiler": {
    "name": "solc",
    "version": "0.8.10+commit.fc410830.Emscripten.clang"
  },
  "schemaVersion": "3.4.9",
  "updatedAt": "2022-09-16T15:53:42.472Z",
  "devdoc": {
    "kind": "dev",
    "methods": {},
    "version": 1
  },
  "userdoc": {
    "kind": "user",
    "methods": {},
    "version": 1
  }
}