{"abi":[{"type":"constructor","inputs":[{"name":"oracleAddress","type":"address","internalType":"address"},{"name":"scalingFactor","type":"uint256","internalType":"uint256"},{"name":"treasury","type":"address","internalType":"address"},{"name":"treasuryFee","type":"uint256","internalType":"uint256"},{"name":"fee","type":"uint256","internalType":"uint256"},{"name":"thresholdSupplySc","type":"uint256","internalType":"uint256"},{"name":"rcMinPrice","type":"uint256","internalType":"uint256"},{"name":"rcInitialPrice","type":"uint256","internalType":"uint256"},{"name":"txLimit","type":"uint256","internalType":"uint256"}],"stateMutability":"payable"},{"type":"function","name":"E","inputs":[{"name":"currentPaymentAmount","type":"uint256","internalType":"uint256"}],"outputs":[{"name":"","type":"uint256","internalType":"uint256"}],"stateMutability":"view"},{"type":"function","name":"FEE","inputs":[],"outputs":[{"name":"","type":"uint256","internalType":"uint256"}],"stateMutability":"view"},{"type":"function","name":"L","inputs":[],"outputs":[{"name":"","type":"uint256","internalType":"uint256"}],"stateMutability":"view"},{"type":"function","name":"R","inputs":[{"name":"currentPaymentAmount","type":"uint256","internalType":"uint256"}],"outputs":[{"name":"","type":"uint256","internalType":"uint256"}],"stateMutability":"view"},{"type":"function","name":"RC_DECIMAL_SCALING_FACTOR","inputs":[],"outputs":[{"name":"","type":"uint256","internalType":"uint256"}],"stateMutability":"view"},{"type":"function","name":"RC_INITIAL_PRICE","inputs":[],"outputs":[{"name":"","type":"uint256","internalType":"uint256"}],"stateMutability":"view"},{"type":"function","name":"RC_MIN_PRICE","inputs":[],"outputs":[{"name":"","type":"uint256","internalType":"uint256"}],"stateMutability":"view"},{"type":"function","name":"SCALING_FACTOR","inputs":[],"outputs":[{"name":"","type":"uint256","internalType":"uint256"}],"stateMutability":"view"},{"type":"function","name":"SC_DECIMAL_SCALING_FACTOR","inputs":[],"outputs":[{"name":"","type":"uint256","internalType":"uint256"}],"stateMutability":"view"},{"type":"function","name":"THRESHOLD_SUPPLY_SC","inputs":[],"outputs":[{"name":"","type":"uint256","internalType":"uint256"}],"stateMutability":"view"},{"type":"function","name":"TREASURY","inputs":[],"outputs":[{"name":"","type":"address","internalType":"address"}],"stateMutability":"view"},{"type":"function","name":"TREASURY_FEE","inputs":[],"outputs":[{"name":"","type":"uint256","internalType":"uint256"}],"stateMutability":"view"},{"type":"function","name":"TX_LIMIT","inputs":[],"outputs":[{"name":"","type":"uint256","internalType":"uint256"}],"stateMutability":"view"},{"type":"function","name":"buyReserveCoins","inputs":[{"name":"receiver","type":"address","internalType":"address"},{"name":"feeUi","type":"uint256","internalType":"uint256"},{"name":"ui","type":"address","internalType":"address"}],"outputs":[],"stateMutability":"payable"},{"type":"function","name":"buyStableCoins","inputs":[{"name":"receiver","type":"address","internalType":"address"},{"name":"feeUi","type":"uint256","internalType":"uint256"},{"name":"ui","type":"address","internalType":"address"}],"outputs":[],"stateMutability":"payable"},{"type":"function","name":"oracle","inputs":[],"outputs":[{"name":"","type":"address","internalType":"contract IOracleShu"}],"stateMutability":"view"},{"type":"function","name":"ratio","inputs":[],"outputs":[{"name":"","type":"uint256","internalType":"uint256"}],"stateMutability":"view"},{"type":"function","name":"rcBuyingPrice","inputs":[{"name":"currentPaymentAmount","type":"uint256","internalType":"uint256"}],"outputs":[{"name":"","type":"uint256","internalType":"uint256"}],"stateMutability":"view"},{"type":"function","name":"rcTargetPrice","inputs":[{"name":"currentPaymentAmount","type":"uint256","internalType":"uint256"}],"outputs":[{"name":"","type":"uint256","internalType":"uint256"}],"stateMutability":"view"},{"type":"function","name":"reserveCoin","inputs":[],"outputs":[{"name":"","type":"address","internalType":"contract Coin"}],"stateMutability":"view"},{"type":"function","name":"scMaxPrice","inputs":[{"name":"currentPaymentAmount","type":"uint256","internalType":"uint256"}],"outputs":[{"name":"","type":"uint256","internalType":"uint256"}],"stateMutability":"view"},{"type":"function","name":"scMinPrice","inputs":[{"name":"currentPaymentAmount","type":"uint256","internalType":"uint256"}],"outputs":[{"name":"","type":"uint256","internalType":"uint256"}],"stateMutability":"view"},{"type":"function","name":"sellReserveCoins","inputs":[{"name":"amountRc","type":"uint256","internalType":"uint256"},{"name":"receiver","type":"address","internalType":"address"},{"name":"feeUi","type":"uint256","internalType":"uint256"},{"name":"ui","type":"address","internalType":"address"}],"outputs":[],"stateMutability":"nonpayable"},{"type":"function","name":"sellStableCoins","inputs":[{"name":"amountSc","type":"uint256","internalType":"uint256"},{"name":"receiver","type":"address","internalType":"address"},{"name":"feeUi","type":"uint256","internalType":"uint256"},{"name":"ui","type":"address","internalType":"address"}],"outputs":[],"stateMutability":"nonpayable"},{"type":"function","name":"stableCoin","inputs":[],"outputs":[{"name":"","type":"address","internalType":"contract Coin"}],"stateMutability":"view"},{"type":"event","name":"BoughtReserveCoins","inputs":[{"name":"buyer","type":"address","indexed":true,"internalType":"address"},{"name":"receiver","type":"address","indexed":true,"internalType":"address"},{"name":"amountRc","type":"uint256","indexed":false,"internalType":"uint256"},{"name":"amountBc","type":"uint256","indexed":false,"internalType":"uint256"}],"anonymous":false},{"type":"event","name":"BoughtStableCoins","inputs":[{"name":"buyer","type":"address","indexed":true,"internalType":"address"},{"name":"receiver","type":"address","indexed":true,"internalType":"address"},{"name":"amountSc","type":"uint256","indexed":false,"internalType":"uint256"},{"name":"amountBc","type":"uint256","indexed":false,"internalType":"uint256"}],"anonymous":false},{"type":"event","name":"SoldReserveCoins","inputs":[{"name":"seller","type":"address","indexed":true,"internalType":"address"},{"name":"receiver","type":"address","indexed":true,"internalType":"address"},{"name":"amountRc","type":"uint256","indexed":false,"internalType":"uint256"},{"name":"amountBc","type":"uint256","indexed":false,"internalType":"uint256"}],"anonymous":false},{"type":"event","name":"SoldStableCoins","inputs":[{"name":"seller","type":"address","indexed":true,"internalType":"address"},{"name":"receiver","type":"address","indexed":true,"internalType":"address"},{"name":"amountSc","type":"uint256","indexed":false,"internalType":"uint256"},{"name":"amountBc","type":"uint256","indexed":false,"internalType":"uint256"}],"anonymous":false}],"bytecode":{"object":"0x6101c06040526040516159b43803806159b483398181016040528101906100269190610658565b60015f819055505f73ffffffffffffffffffffffffffffffffffffffff168973ffffffffffffffffffffffffffffffffffffffff160361009b576040517f08c379a000000000000000000000000000000000000000000000000000000000815260040161009290610776565b60405180910390fd5b5f73ffffffffffffffffffffffffffffffffffffffff168773ffffffffffffffffffffffffffffffffffffffff1603610109576040517f08c379a0000000000000000000000000000000000000000000000000000000008152600401610100906107de565b60405180910390fd5b5f881161014b576040517f08c379a000000000000000000000000000000000000000000000000000000000815260040161014290610846565b60405180910390fd5b8786866101589190610891565b1115610199576040517f08c379a00000000000000000000000000000000000000000000000000000000081526004016101909061090e565b60405180910390fd5b828210156101dc576040517f08c379a00000000000000000000000000000000000000000000000000000000081526004016101d390610976565b60405180910390fd5b5f841161021e576040517f08c379a0000000000000000000000000000000000000000000000000000000008152600401610215906109de565b60405180910390fd5b5f8111610260576040517f08c379a000000000000000000000000000000000000000000000000000000000815260040161025790610a46565b60405180910390fd5b60405161026c906105ba565b61027590610af8565b604051809103905ff08015801561028e573d5f5f3e3d5ffd5b5060025f6101000a81548173ffffffffffffffffffffffffffffffffffffffff021916908373ffffffffffffffffffffffffffffffffffffffff1602179055506040516102da906105ba565b6102e390610bbd565b604051809103905ff0801580156102fc573d5f5f3e3d5ffd5b5060035f6101000a81548173ffffffffffffffffffffffffffffffffffffffff021916908373ffffffffffffffffffffffffffffffffffffffff16021790555060025f9054906101000a900473ffffffffffffffffffffffffffffffffffffffff1673ffffffffffffffffffffffffffffffffffffffff1663313ce5676040518163ffffffff1660e01b8152600401602060405180830381865afa1580156103a6573d5f5f3e3d5ffd5b505050506040513d601f19601f820116820180604052508101906103ca9190610c24565b600a6103d69190610d7e565b610180818152505060035f9054906101000a900473ffffffffffffffffffffffffffffffffffffffff1673ffffffffffffffffffffffffffffffffffffffff1663313ce5676040518163ffffffff1660e01b8152600401602060405180830381865afa158015610448573d5f5f3e3d5ffd5b505050506040513d601f19601f8201168201806040525081019061046c9190610c24565b600a6104789190610d7e565b6101a081815250508761016081815250508673ffffffffffffffffffffffffffffffffffffffff1660808173ffffffffffffffffffffffffffffffffffffffff16815250508560a081815250508460c081815250508360e081815250508261010081815250508161012081815250508061014081815250508860015f6101000a81548173ffffffffffffffffffffffffffffffffffffffff021916908373ffffffffffffffffffffffffffffffffffffffff16021790555060015f9054906101000a900473ffffffffffffffffffffffffffffffffffffffff1673ffffffffffffffffffffffffffffffffffffffff1663dddd9e966040518163ffffffff1660e01b81526004015f604051808303815f87803b158015610596575f5ffd5b505af11580156105a8573d5f5f3e3d5ffd5b50505050505050505050505050610dc8565b611e1980613b9b83390190565b5f5ffd5b5f73ffffffffffffffffffffffffffffffffffffffff82169050919050565b5f6105f4826105cb565b9050919050565b610604816105ea565b811461060e575f5ffd5b50565b5f8151905061061f816105fb565b92915050565b5f819050919050565b61063781610625565b8114610641575f5ffd5b50565b5f815190506106528161062e565b92915050565b5f5f5f5f5f5f5f5f5f6101208a8c031215610676576106756105c7565b5b5f6106838c828d01610611565b99505060206106948c828d01610644565b98505060406106a58c828d01610611565b97505060606106b68c828d01610644565b96505060806106c78c828d01610644565b95505060a06106d88c828d01610644565b94505060c06106e98c828d01610644565b93505060e06106fa8c828d01610644565b92505061010061070c8c828d01610644565b9150509295985092959850929598565b5f82825260208201905092915050565b7f496e76616c6964206f7261636c652061646472657373000000000000000000005f82015250565b5f61076060168361071c565b915061076b8261072c565b602082019050919050565b5f6020820190508181035f83015261078d81610754565b9050919050565b7f496e76616c6964207472656173757279206164647265737300000000000000005f82015250565b5f6107c860188361071c565b91506107d382610794565b602082019050919050565b5f6020820190508181035f8301526107f5816107bc565b9050919050565b7f5363616c696e6720666163746f72206d757374206265203e20300000000000005f82015250565b5f610830601a8361071c565b915061083b826107fc565b602082019050919050565b5f6020820190508181035f83015261085d81610824565b9050919050565b7f4e487b71000000000000000000000000000000000000000000000000000000005f52601160045260245ffd5b5f61089b82610625565b91506108a683610625565b92508282019050808211156108be576108bd610864565b5b92915050565b7f546f74616c2066656573206578636565642031303025000000000000000000005f82015250565b5f6108f860168361071c565b9150610903826108c4565b602082019050919050565b5f6020820190508181035f830152610925816108ec565b9050919050565b7f496e697469616c207072696365203c206d696e207072696365000000000000005f82015250565b5f61096060198361071c565b915061096b8261092c565b602082019050919050565b5f6020820190508181035f83015261098d81610954565b9050919050565b7f5468726573686f6c6420737570706c79206d757374206265203e2030000000005f82015250565b5f6109c8601c8361071c565b91506109d382610994565b602082019050919050565b5f6020820190508181035f8301526109f5816109bc565b9050919050565b7f5458206c696d6974206d757374206265203e20300000000000000000000000005f82015250565b5f610a3060148361071c565b9150610a3b826109fc565b602082019050919050565b5f6020820190508181035f830152610a5d81610a24565b9050919050565b7f537461626c65436f696e000000000000000000000000000000000000000000005f82015250565b5f610a98600a8361071c565b9150610aa382610a64565b602082019050919050565b7f53430000000000000000000000000000000000000000000000000000000000005f82015250565b5f610ae260028361071c565b9150610aed82610aae565b602082019050919050565b5f6040820190508181035f830152610b0f81610a8c565b90508181036020830152610b2281610ad6565b9050919050565b7f52657365727665436f696e0000000000000000000000000000000000000000005f82015250565b5f610b5d600b8361071c565b9150610b6882610b29565b602082019050919050565b7f52430000000000000000000000000000000000000000000000000000000000005f82015250565b5f610ba760028361071c565b9150610bb282610b73565b602082019050919050565b5f6040820190508181035f830152610bd481610b51565b90508181036020830152610be781610b9b565b9050919050565b5f60ff82169050919050565b610c0381610bee565b8114610c0d575f5ffd5b50565b5f81519050610c1e81610bfa565b92915050565b5f60208284031215610c3957610c386105c7565b5b5f610c4684828501610c10565b91505092915050565b5f8160011c9050919050565b5f5f8291508390505b6001851115610ca457808604811115610c8057610c7f610864565b5b6001851615610c8f5780820291505b8081029050610c9d85610c4f565b9450610c64565b94509492505050565b5f82610cbc5760019050610d77565b81610cc9575f9050610d77565b8160018114610cdf5760028114610ce957610d18565b6001915050610d77565b60ff841115610cfb57610cfa610864565b5b8360020a915084821115610d1257610d11610864565b5b50610d77565b5060208310610133831016604e8410600b8410161715610d4d5782820a905083811115610d4857610d47610864565b5b610d77565b610d5a8484846001610c5b565b92509050818404811115610d7157610d70610864565b5b81810290505b9392505050565b5f610d8882610625565b9150610d9383610bee565b9250610dc07fffffffffffffffffffffffffffffffffffffffffffffffffffffffffffffffff8484610cad565b905092915050565b60805160a05160c05160e05161010051610120516101405161016051610180516101a051612c99610f025f395f81816107f90152818161168f015281816118c90152611b9c01525f818161083b01528181610bce015281816111730152818161153d01528181611877015281816119d40152611f1301525f8181610eb1015281816118ed01528181611c5301528181611d0d01528181611d670152611da101525f818161085d01528181610c060152818161104c0152818161144a015261155f01525f818161185301526120ab01525f8181610b0a015261208001525f818161089b01528181610c30015281816110760152818161146e015261159d01525f818161182f01528181611c950152611d2e01525f818161134601528181611c740152611dc201525f8181610ae60152611dfd0152612c995ff3fe608060405260043610610163575f3560e01c8063992642e5116100d0578063c57981b511610089578063e5cfd84911610063578063e5cfd84914610501578063e652ae471461053d578063ee5af83314610579578063ef4cadc5146105a357610163565b8063c57981b514610483578063cf90d782146104ad578063e17ca3b4146104d757610163565b8063992642e5146103955780639f13f76d146103bf578063afb5453f146103e9578063b66e611e14610413578063b77e31f91461043d578063bfebe1821461045957610163565b806371ca337d1161012257806371ca337d146102775780637a4f8cba146102a15780637dc0d1d0146102c957806388b2cbb6146102f35780638ce1a4831461032f578063957f8afc1461035957610163565b80622ff06714610167578062bccbcb146101a35780631ac8fc2f146101df5780632d2c5565146102075780634a3c48d014610231578063574a30931461025b575b5f5ffd5b348015610172575f5ffd5b5061018d6004803603810190610188919061213a565b6105cd565b60405161019a9190612174565b60405180910390f35b3480156101ae575f5ffd5b506101c960048036038101906101c4919061213a565b6105e7565b6040516101d69190612174565b60405180910390f35b3480156101ea575f5ffd5b50610205600480360381019061020091906121e7565b61068b565b005b348015610212575f5ffd5b5061021b610ae4565b604051610228919061225a565b60405180910390f35b34801561023c575f5ffd5b50610245610b08565b6040516102529190612174565b60405180910390f35b61027560048036038101906102709190612273565b610b2c565b005b348015610282575f5ffd5b5061028b610e60565b6040516102989190612174565b60405180910390f35b3480156102ac575f5ffd5b506102c760048036038101906102c291906121e7565b610eeb565b005b3480156102d4575f5ffd5b506102dd611305565b6040516102ea919061231e565b60405180910390f35b3480156102fe575f5ffd5b506103196004803603810190610314919061213a565b61132a565b6040516103269190612174565b60405180910390f35b34801561033a575f5ffd5b50610343611344565b6040516103509190612174565b60405180910390f35b348015610364575f5ffd5b5061037f600480360381019061037a919061213a565b611368565b60405161038c9190612174565b60405180910390f35b3480156103a0575f5ffd5b506103a961140c565b6040516103b69190612357565b60405180910390f35b3480156103ca575f5ffd5b506103d3611431565b6040516103e09190612174565b60405180910390f35b3480156103f4575f5ffd5b506103fd611448565b60405161040a9190612174565b60405180910390f35b34801561041e575f5ffd5b5061042761146c565b6040516104349190612174565b60405180910390f35b61045760048036038101906104529190612273565b611490565b005b348015610464575f5ffd5b5061046d611808565b60405161047a9190612357565b60405180910390f35b34801561048e575f5ffd5b5061049761182d565b6040516104a49190612174565b60405180910390f35b3480156104b8575f5ffd5b506104c1611851565b6040516104ce9190612174565b60405180910390f35b3480156104e2575f5ffd5b506104eb611875565b6040516104f89190612174565b60405180910390f35b34801561050c575f5ffd5b506105276004803603810190610522919061213a565b611899565b6040516105349190612174565b60405180910390f35b348015610548575f5ffd5b50610563600480360381019061055e919061213a565b6118ad565b6040516105709190612174565b60405180910390f35b348015610584575f5ffd5b5061058d6118c7565b60405161059a9190612174565b60405180910390f35b3480156105ae575f5ffd5b506105b76118eb565b6040516105c49190612174565b60405180910390f35b5f6105e06105da836105e7565b8361190f565b9050919050565b5f5f60015f9054906101000a900473ffffffffffffffffffffffffffffffffffffffff1673ffffffffffffffffffffffffffffffffffffffff1663d4316da86040518163ffffffff1660e01b81526004016040805180830381865afa158015610652573d5f5f3e3d5ffd5b505050506040513d601f19601f820116820180604052508101906106769190612384565b5090506106838382611934565b915050919050565b610693611a25565b60015f9054906101000a900473ffffffffffffffffffffffffffffffffffffffff1673ffffffffffffffffffffffffffffffffffffffff166386b629b56040518163ffffffff1660e01b81526004015f604051808303815f87803b1580156106f9575f5ffd5b505af115801561070b573d5f5f3e3d5ffd5b505050508360035f9054906101000a900473ffffffffffffffffffffffffffffffffffffffff1673ffffffffffffffffffffffffffffffffffffffff166370a08231336040518263ffffffff1660e01b815260040161076a919061225a565b602060405180830381865afa158015610785573d5f5f3e3d5ffd5b505050506040513d601f19601f820116820180604052508101906107a991906123c2565b10156107ea576040517f08c379a00000000000000000000000000000000000000000000000000000000081526004016107e190612447565b60405180910390fd5b5f6107f45f6105e7565b90505f7f0000000000000000000000000000000000000000000000000000000000000000610822835f611a72565b8761082d9190612492565b6108379190612500565b90507f0000000000000000000000000000000000000000000000000000000000000000827f00000000000000000000000000000000000000000000000000000000000000006108869190612492565b6108909190612500565b8111158061094a57507f000000000000000000000000000000000000000000000000000000000000000060025f9054906101000a900473ffffffffffffffffffffffffffffffffffffffff1673ffffffffffffffffffffffffffffffffffffffff166318160ddd6040518163ffffffff1660e01b8152600401602060405180830381865afa158015610924573d5f5f3e3d5ffd5b505050506040513d601f19601f8201168201806040525081019061094891906123c2565b105b610989576040517f08c379a00000000000000000000000000000000000000000000000000000000081526004016109809061257a565b60405180910390fd5b5f610995828686611be2565b90505f81116109d9576040517f08c379a00000000000000000000000000000000000000000000000000000000081526004016109d0906125e2565b60405180910390fd5b60035f9054906101000a900473ffffffffffffffffffffffffffffffffffffffff1673ffffffffffffffffffffffffffffffffffffffff16639dc29fac33896040518363ffffffff1660e01b8152600401610a35929190612600565b5f604051808303815f87803b158015610a4c575f5ffd5b505af1158015610a5e573d5f5f3e3d5ffd5b50505050610a6c8682611e5a565b8573ffffffffffffffffffffffffffffffffffffffff163373ffffffffffffffffffffffffffffffffffffffff167f15e4dbe81367be42bcd3070bce6fe49bc9a13b25d7ee7fdd1e59b7563552fab78984604051610acb929190612627565b60405180910390a3505050610ade611f07565b50505050565b7f000000000000000000000000000000000000000000000000000000000000000081565b7f000000000000000000000000000000000000000000000000000000000000000081565b610b34611a25565b60015f9054906101000a900473ffffffffffffffffffffffffffffffffffffffff1673ffffffffffffffffffffffffffffffffffffffff166386b629b56040518163ffffffff1660e01b81526004015f604051808303815f87803b158015610b9a575f5ffd5b505af1158015610bac573d5f5f3e3d5ffd5b505050505f610bba346105e7565b90505f610bc8348585611be2565b90505f827f000000000000000000000000000000000000000000000000000000000000000083610bf89190612492565b610c029190612500565b90507f000000000000000000000000000000000000000000000000000000000000000081111580610cdf57507f000000000000000000000000000000000000000000000000000000000000000060025f9054906101000a900473ffffffffffffffffffffffffffffffffffffffff1673ffffffffffffffffffffffffffffffffffffffff166318160ddd6040518163ffffffff1660e01b8152600401602060405180830381865afa158015610cb9573d5f5f3e3d5ffd5b505050506040513d601f19601f82011682018060405250810190610cdd91906123c2565b105b610d1e576040517f08c379a0000000000000000000000000000000000000000000000000000000008152600401610d1590612698565b60405180910390fd5b5f8111610d60576040517f08c379a0000000000000000000000000000000000000000000000000000000008152600401610d5790612700565b60405180910390fd5b60025f9054906101000a900473ffffffffffffffffffffffffffffffffffffffff1673ffffffffffffffffffffffffffffffffffffffff166340c10f1987836040518363ffffffff1660e01b8152600401610dbc929190612600565b5f604051808303815f87803b158015610dd3575f5ffd5b505af1158015610de5573d5f5f3e3d5ffd5b505050508573ffffffffffffffffffffffffffffffffffffffff163373ffffffffffffffffffffffffffffffffffffffff167fe2a93bd50c65406b1485d973a0eefc0938aa42447e8327a24413cf34646cb1c18385604051610e48929190612627565b60405180910390a3505050610e5b611f07565b505050565b5f5f610e73610e6e5f6105e7565b611f10565b90505f8103610ea5577fffffffffffffffffffffffffffffffffffffffffffffffffffffffffffffffff915050610ee8565b80610eaf5f611899565b7f0000000000000000000000000000000000000000000000000000000000000000610eda9190612492565b610ee49190612500565b9150505b90565b610ef3611a25565b60015f9054906101000a900473ffffffffffffffffffffffffffffffffffffffff1673ffffffffffffffffffffffffffffffffffffffff166386b629b56040518163ffffffff1660e01b81526004015f604051808303815f87803b158015610f59575f5ffd5b505af1158015610f6b573d5f5f3e3d5ffd5b505050508360025f9054906101000a900473ffffffffffffffffffffffffffffffffffffffff1673ffffffffffffffffffffffffffffffffffffffff166370a08231336040518263ffffffff1660e01b8152600401610fca919061225a565b602060405180830381865afa158015610fe5573d5f5f3e3d5ffd5b505050506040513d601f19601f8201168201806040525081019061100991906123c2565b101561104a576040517f08c379a000000000000000000000000000000000000000000000000000000000815260040161104190612768565b60405180910390fd5b7f00000000000000000000000000000000000000000000000000000000000000008411158061112557507f000000000000000000000000000000000000000000000000000000000000000060025f9054906101000a900473ffffffffffffffffffffffffffffffffffffffff1673ffffffffffffffffffffffffffffffffffffffff166318160ddd6040518163ffffffff1660e01b8152600401602060405180830381865afa1580156110ff573d5f5f3e3d5ffd5b505050506040513d601f19601f8201168201806040525081019061112391906123c2565b105b611164576040517f08c379a000000000000000000000000000000000000000000000000000000000815260040161115b906127d0565b60405180910390fd5b5f61116e5f611368565b90505f7f0000000000000000000000000000000000000000000000000000000000000000828761119e9190612492565b6111a89190612500565b90505f6111b6828686611be2565b90505f81116111fa576040517f08c379a00000000000000000000000000000000000000000000000000000000081526004016111f190612838565b60405180910390fd5b60025f9054906101000a900473ffffffffffffffffffffffffffffffffffffffff1673ffffffffffffffffffffffffffffffffffffffff16639dc29fac33896040518363ffffffff1660e01b8152600401611256929190612600565b5f604051808303815f87803b15801561126d575f5ffd5b505af115801561127f573d5f5f3e3d5ffd5b5050505061128d8682611e5a565b8573ffffffffffffffffffffffffffffffffffffffff163373ffffffffffffffffffffffffffffffffffffffff167f5ca4c7224e0472de3d8d6d7816a14b47de89471be844d8c76bb75d1e528edfd189846040516112ec929190612627565b60405180910390a35050506112ff611f07565b50505050565b60015f9054906101000a900473ffffffffffffffffffffffffffffffffffffffff1681565b5f61133d611337836105e7565b83611a72565b9050919050565b7f000000000000000000000000000000000000000000000000000000000000000081565b5f5f60015f9054906101000a900473ffffffffffffffffffffffffffffffffffffffff1673ffffffffffffffffffffffffffffffffffffffff16636fbdfa476040518163ffffffff1660e01b81526004016040805180830381865afa1580156113d3573d5f5f3e3d5ffd5b505050506040513d601f19601f820116820180604052508101906113f79190612384565b5090506114048382611934565b915050919050565b60025f9054906101000a900473ffffffffffffffffffffffffffffffffffffffff1681565b5f61144361143e5f6105e7565b611f10565b905090565b7f000000000000000000000000000000000000000000000000000000000000000081565b7f000000000000000000000000000000000000000000000000000000000000000081565b611498611a25565b60015f9054906101000a900473ffffffffffffffffffffffffffffffffffffffff1673ffffffffffffffffffffffffffffffffffffffff166386b629b56040518163ffffffff1660e01b81526004015f604051808303815f87803b1580156114fe575f5ffd5b505af1158015611510573d5f5f3e3d5ffd5b505050505f61151e34611368565b90505f61152b8234611fdc565b90505f611539348686611be2565b90507f0000000000000000000000000000000000000000000000000000000000000000837f00000000000000000000000000000000000000000000000000000000000000006115889190612492565b6115929190612500565b8111158061164c57507f000000000000000000000000000000000000000000000000000000000000000060025f9054906101000a900473ffffffffffffffffffffffffffffffffffffffff1673ffffffffffffffffffffffffffffffffffffffff166318160ddd6040518163ffffffff1660e01b8152600401602060405180830381865afa158015611626573d5f5f3e3d5ffd5b505050506040513d601f19601f8201168201806040525081019061164a91906123c2565b105b61168b576040517f08c379a0000000000000000000000000000000000000000000000000000000008152600401611682906128a0565b60405180910390fd5b5f827f0000000000000000000000000000000000000000000000000000000000000000836116b99190612492565b6116c39190612500565b90505f8111611707576040517f08c379a00000000000000000000000000000000000000000000000000000000081526004016116fe90612908565b60405180910390fd5b60035f9054906101000a900473ffffffffffffffffffffffffffffffffffffffff1673ffffffffffffffffffffffffffffffffffffffff166340c10f1988836040518363ffffffff1660e01b8152600401611763929190612600565b5f604051808303815f87803b15801561177a575f5ffd5b505af115801561178c573d5f5f3e3d5ffd5b505050508673ffffffffffffffffffffffffffffffffffffffff163373ffffffffffffffffffffffffffffffffffffffff167f8166a12a2e856c3ebafb91657860659290e42f5f615478292b29fb836f63f7c783856040516117ef929190612627565b60405180910390a350505050611803611f07565b505050565b60035f9054906101000a900473ffffffffffffffffffffffffffffffffffffffff1681565b7f000000000000000000000000000000000000000000000000000000000000000081565b7f000000000000000000000000000000000000000000000000000000000000000081565b7f000000000000000000000000000000000000000000000000000000000000000081565b5f81476118a69190612926565b9050919050565b5f6118c06118ba836105e7565b83611fdc565b9050919050565b7f000000000000000000000000000000000000000000000000000000000000000081565b7f000000000000000000000000000000000000000000000000000000000000000081565b5f61191983611f10565b61192283611899565b61192c9190612926565b905092915050565b5f5f60025f9054906101000a900473ffffffffffffffffffffffffffffffffffffffff1673ffffffffffffffffffffffffffffffffffffffff166318160ddd6040518163ffffffff1660e01b8152600401602060405180830381865afa1580156119a0573d5f5f3e3d5ffd5b505050506040513d601f19601f820116820180604052508101906119c491906123c2565b90505f8114611a1a57611a1583827f00000000000000000000000000000000000000000000000000000000000000006119fc88611899565b611a069190612492565b611a109190612500565b6120d3565b611a1c565b825b91505092915050565b60025f5403611a69576040517f08c379a0000000000000000000000000000000000000000000000000000000008152600401611a60906129a3565b60405180910390fd5b60025f81905550565b5f5f60035f9054906101000a900473ffffffffffffffffffffffffffffffffffffffff1673ffffffffffffffffffffffffffffffffffffffff166318160ddd6040518163ffffffff1660e01b8152600401602060405180830381865afa158015611ade573d5f5f3e3d5ffd5b505050506040513d601f19601f82011682018060405250810190611b0291906123c2565b90505f8103611b46576040517f08c379a0000000000000000000000000000000000000000000000000000000008152600401611b3d90612a0b565b60405180910390fd5b611b4f84611f10565b611b5884611899565b1015611b99576040517f08c379a0000000000000000000000000000000000000000000000000000000008152600401611b9090612a99565b60405180910390fd5b807f0000000000000000000000000000000000000000000000000000000000000000611bc5868661190f565b611bcf9190612492565b611bd99190612500565b91505092915050565b5f5f73ffffffffffffffffffffffffffffffffffffffff168273ffffffffffffffffffffffffffffffffffffffff1603611c51576040517f08c379a0000000000000000000000000000000000000000000000000000000008152600401611c4890612b01565b60405180910390fd5b7f00000000000000000000000000000000000000000000000000000000000000007f00000000000000000000000000000000000000000000000000000000000000007f000000000000000000000000000000000000000000000000000000000000000085611cbf9190612b1f565b611cc99190612b1f565b1115611d0a576040517f08c379a0000000000000000000000000000000000000000000000000000000008152600401611d0190612b9c565b60405180910390fd5b5f7f00000000000000000000000000000000000000000000000000000000000000007f000000000000000000000000000000000000000000000000000000000000000086611d589190612492565b611d629190612500565b90505f7f00000000000000000000000000000000000000000000000000000000000000008587611d929190612492565b611d9c9190612500565b90505f7f00000000000000000000000000000000000000000000000000000000000000007f000000000000000000000000000000000000000000000000000000000000000088611dec9190612492565b611df69190612500565b9050611e227f000000000000000000000000000000000000000000000000000000000000000082611e5a565b611e2c8583611e5a565b80828489611e3a9190612926565b611e449190612926565b611e4e9190612926565b93505050509392505050565b5f8273ffffffffffffffffffffffffffffffffffffffff1682604051611e7f90612be7565b5f6040518083038185875af1925050503d805f8114611eb9576040519150601f19603f3d011682016040523d82523d5f602084013e611ebe565b606091505b5050905080611f02576040517f08c379a0000000000000000000000000000000000000000000000000000000008152600401611ef990612c45565b60405180910390fd5b505050565b60015f81905550565b5f7f00000000000000000000000000000000000000000000000000000000000000008260025f9054906101000a900473ffffffffffffffffffffffffffffffffffffffff1673ffffffffffffffffffffffffffffffffffffffff166318160ddd6040518163ffffffff1660e01b8152600401602060405180830381865afa158015611f9d573d5f5f3e3d5ffd5b505050506040513d601f19601f82011682018060405250810190611fc191906123c2565b611fcb9190612492565b611fd59190612500565b9050919050565b5f5f60035f9054906101000a900473ffffffffffffffffffffffffffffffffffffffff1673ffffffffffffffffffffffffffffffffffffffff166318160ddd6040518163ffffffff1660e01b8152600401602060405180830381865afa158015612048573d5f5f3e3d5ffd5b505050506040513d601f19601f8201168201806040525081019061206c91906123c2565b146120a9576120a461207e8484611a72565b7f00000000000000000000000000000000000000000000000000000000000000006120eb565b6120cb565b7f00000000000000000000000000000000000000000000000000000000000000005b905092915050565b5f8183106120e157816120e3565b825b905092915050565b5f8183116120f957816120fb565b825b905092915050565b5f5ffd5b5f819050919050565b61211981612107565b8114612123575f5ffd5b50565b5f8135905061213481612110565b92915050565b5f6020828403121561214f5761214e612103565b5b5f61215c84828501612126565b91505092915050565b61216e81612107565b82525050565b5f6020820190506121875f830184612165565b92915050565b5f73ffffffffffffffffffffffffffffffffffffffff82169050919050565b5f6121b68261218d565b9050919050565b6121c6816121ac565b81146121d0575f5ffd5b50565b5f813590506121e1816121bd565b92915050565b5f5f5f5f608085870312156121ff576121fe612103565b5b5f61220c87828801612126565b945050602061221d878288016121d3565b935050604061222e87828801612126565b925050606061223f878288016121d3565b91505092959194509250565b612254816121ac565b82525050565b5f60208201905061226d5f83018461224b565b92915050565b5f5f5f6060848603121561228a57612289612103565b5b5f612297868287016121d3565b93505060206122a886828701612126565b92505060406122b9868287016121d3565b9150509250925092565b5f819050919050565b5f6122e66122e16122dc8461218d565b6122c3565b61218d565b9050919050565b5f6122f7826122cc565b9050919050565b5f612308826122ed565b9050919050565b612318816122fe565b82525050565b5f6020820190506123315f83018461230f565b92915050565b5f612341826122ed565b9050919050565b61235181612337565b82525050565b5f60208201905061236a5f830184612348565b92915050565b5f8151905061237e81612110565b92915050565b5f5f6040838503121561239a57612399612103565b5b5f6123a785828601612370565b92505060206123b885828601612370565b9150509250929050565b5f602082840312156123d7576123d6612103565b5b5f6123e484828501612370565b91505092915050565b5f82825260208201905092915050565b7f73656c6c52433a20696e73756666696369656e742052432062616c616e6365005f82015250565b5f612431601f836123ed565b915061243c826123fd565b602082019050919050565b5f6020820190508181035f83015261245e81612425565b9050919050565b7f4e487b71000000000000000000000000000000000000000000000000000000005f52601160045260245ffd5b5f61249c82612107565b91506124a783612107565b92508282026124b581612107565b915082820484148315176124cc576124cb612465565b5b5092915050565b7f4e487b71000000000000000000000000000000000000000000000000000000005f52601260045260245ffd5b5f61250a82612107565b915061251583612107565b925082612525576125246124d3565b5b828204905092915050565b7f73656c6c52433a207478206c696d6974206578636565646564000000000000005f82015250565b5f6125646019836123ed565b915061256f82612530565b602082019050919050565b5f6020820190508181035f83015261259181612558565b9050919050565b7f73656c6c52433a20726563656976696e67207a65726f204243730000000000005f82015250565b5f6125cc601a836123ed565b91506125d782612598565b602082019050919050565b5f6020820190508181035f8301526125f9816125c0565b9050919050565b5f6040820190506126135f83018561224b565b6126206020830184612165565b9392505050565b5f60408201905061263a5f830185612165565b6126476020830184612165565b9392505050565b7f62757953433a207478206c696d697420657863656564656400000000000000005f82015250565b5f6126826018836123ed565b915061268d8261264e565b602082019050919050565b5f6020820190508181035f8301526126af81612676565b9050919050565b7f62757953433a20726563656976696e67207a65726f20534373000000000000005f82015250565b5f6126ea6019836123ed565b91506126f5826126b6565b602082019050919050565b5f6020820190508181035f830152612717816126de565b9050919050565b7f73656c6c53433a20696e73756666696369656e742053432062616c616e6365005f82015250565b5f612752601f836123ed565b915061275d8261271e565b602082019050919050565b5f6020820190508181035f83015261277f81612746565b9050919050565b7f73656c6c53433a207478206c696d6974206578636565646564000000000000005f82015250565b5f6127ba6019836123ed565b91506127c582612786565b602082019050919050565b5f6020820190508181035f8301526127e7816127ae565b9050919050565b7f73656c6c53433a20726563656976696e67207a65726f204243730000000000005f82015250565b5f612822601a836123ed565b915061282d826127ee565b602082019050919050565b5f6020820190508181035f83015261284f81612816565b9050919050565b7f62757952433a207478206c696d697420657863656564656400000000000000005f82015250565b5f61288a6018836123ed565b915061289582612856565b602082019050919050565b5f6020820190508181035f8301526128b78161287e565b9050919050565b7f62757952433a20726563656976696e67207a65726f20524373000000000000005f82015250565b5f6128f26019836123ed565b91506128fd826128be565b602082019050919050565b5f6020820190508181035f83015261291f816128e6565b9050919050565b5f61293082612107565b915061293b83612107565b925082820390508181111561295357612952612465565b5b92915050565b7f5265656e7472616e637947756172643a207265656e7472616e742063616c6c005f82015250565b5f61298d601f836123ed565b915061299882612959565b602082019050919050565b5f6020820190508181035f8301526129ba81612981565b9050919050565b7f524320737570706c79206973207a65726f0000000000000000000000000000005f82015250565b5f6129f56011836123ed565b9150612a00826129c1565b602082019050919050565b5f6020820190508181035f830152612a22816129e9565b9050919050565b7f556e6465722d636f6c6c61746572616c697a65643a2072657365727665203c205f8201527f6c696162696c6974790000000000000000000000000000000000000000000000602082015250565b5f612a836029836123ed565b9150612a8e82612a29565b604082019050919050565b5f6020820190508181035f830152612ab081612a77565b9050919050565b7f496e76616c6964205549206164647265737300000000000000000000000000005f82015250565b5f612aeb6012836123ed565b9150612af682612ab7565b602082019050919050565b5f6020820190508181035f830152612b1881612adf565b9050919050565b5f612b2982612107565b9150612b3483612107565b9250828201905080821115612b4c57612b4b612465565b5b92915050565b7f546f74616c2066656573206578636565642031303025000000000000000000005f82015250565b5f612b866016836123ed565b9150612b9182612b52565b602082019050919050565b5f6020820190508181035f830152612bb381612b7a565b9050919050565b5f81905092915050565b50565b5f612bd25f83612bba565b9150612bdd82612bc4565b5f82019050919050565b5f612bf182612bc7565b9150819050919050565b7f5472616e73666572206661696c65642e000000000000000000000000000000005f82015250565b5f612c2f6010836123ed565b9150612c3a82612bfb565b602082019050919050565b5f6020820190508181035f830152612c5c81612c23565b905091905056fea2646970667358221220ccd74c52e40a2c06be2ff9d83188a8453f11cf9581ed4a268d6b33c158cf18aa64736f6c634300081e003360a060405234801561000f575f5ffd5b50604051611e19380380611e19833981810160405281019061003191906101dd565b818181600390816100429190610463565b5080600490816100529190610463565b5050503373ffffffffffffffffffffffffffffffffffffffff1660808173ffffffffffffffffffffffffffffffffffffffff16815250505050610532565b5f604051905090565b5f5ffd5b5f5ffd5b5f5ffd5b5f5ffd5b5f601f19601f8301169050919050565b7f4e487b71000000000000000000000000000000000000000000000000000000005f52604160045260245ffd5b6100ef826100a9565b810181811067ffffffffffffffff8211171561010e5761010d6100b9565b5b80604052505050565b5f610120610090565b905061012c82826100e6565b919050565b5f67ffffffffffffffff82111561014b5761014a6100b9565b5b610154826100a9565b9050602081019050919050565b8281835e5f83830152505050565b5f61018161017c84610131565b610117565b90508281526020810184848401111561019d5761019c6100a5565b5b6101a8848285610161565b509392505050565b5f82601f8301126101c4576101c36100a1565b5b81516101d484826020860161016f565b91505092915050565b5f5f604083850312156101f3576101f2610099565b5b5f83015167ffffffffffffffff8111156102105761020f61009d565b5b61021c858286016101b0565b925050602083015167ffffffffffffffff81111561023d5761023c61009d565b5b610249858286016101b0565b9150509250929050565b5f81519050919050565b7f4e487b71000000000000000000000000000000000000000000000000000000005f52602260045260245ffd5b5f60028204905060018216806102a157607f821691505b6020821081036102b4576102b361025d565b5b50919050565b5f819050815f5260205f209050919050565b5f6020601f8301049050919050565b5f82821b905092915050565b5f600883026103167fffffffffffffffffffffffffffffffffffffffffffffffffffffffffffffffff826102db565b61032086836102db565b95508019841693508086168417925050509392505050565b5f819050919050565b5f819050919050565b5f61036461035f61035a84610338565b610341565b610338565b9050919050565b5f819050919050565b61037d8361034a565b6103916103898261036b565b8484546102e7565b825550505050565b5f5f905090565b6103a8610399565b6103b3818484610374565b505050565b5b818110156103d6576103cb5f826103a0565b6001810190506103b9565b5050565b601f82111561041b576103ec816102ba565b6103f5846102cc565b81016020851015610404578190505b610418610410856102cc565b8301826103b8565b50505b505050565b5f82821c905092915050565b5f61043b5f1984600802610420565b1980831691505092915050565b5f610453838361042c565b9150826002028217905092915050565b61046c82610253565b67ffffffffffffffff811115610485576104846100b9565b5b61048f825461028a565b61049a8282856103da565b5f60209050601f8311600181146104cb575f84156104b9578287015190505b6104c38582610448565b86555061052a565b601f1984166104d9866102ba565b5f5b82811015610500578489015182556001820191506020850194506020810190506104db565b8683101561051d5784890151610519601f89168261042c565b8355505b6001600288020188555050505b505050505050565b6080516118c16105585f395f81816104330152818161051401526105c801526118c15ff3fe608060405234801561000f575f5ffd5b50600436106100e8575f3560e01c806370a082311161008a5780639dc29fac116100645780639dc29fac1461025e578063a457c2d71461027a578063a9059cbb146102aa578063dd62ed3e146102da576100e8565b806370a08231146101f25780638da5cb5b1461022257806395d89b4114610240576100e8565b806323b872dd116100c657806323b872dd14610158578063313ce5671461018857806339509351146101a657806340c10f19146101d6576100e8565b806306fdde03146100ec578063095ea7b31461010a57806318160ddd1461013a575b5f5ffd5b6100f461030a565b6040516101019190610fc7565b60405180910390f35b610124600480360381019061011f9190611078565b61039a565b60405161013191906110d0565b60405180910390f35b6101426103bc565b60405161014f91906110f8565b60405180910390f35b610172600480360381019061016d9190611111565b6103c5565b60405161017f91906110d0565b60405180910390f35b6101906103f3565b60405161019d919061117c565b60405180910390f35b6101c060048036038101906101bb9190611078565b6103fb565b6040516101cd91906110d0565b60405180910390f35b6101f060048036038101906101eb9190611078565b610431565b005b61020c60048036038101906102079190611195565b6104cd565b60405161021991906110f8565b60405180910390f35b61022a610512565b60405161023791906111cf565b60405180910390f35b610248610536565b6040516102559190610fc7565b60405180910390f35b61027860048036038101906102739190611078565b6105c6565b005b610294600480360381019061028f9190611078565b610662565b6040516102a191906110d0565b60405180910390f35b6102c460048036038101906102bf9190611078565b6106d7565b6040516102d191906110d0565b60405180910390f35b6102f460048036038101906102ef91906111e8565b6106f9565b60405161030191906110f8565b60405180910390f35b60606003805461031990611253565b80601f016020809104026020016040519081016040528092919081815260200182805461034590611253565b80156103905780601f1061036757610100808354040283529160200191610390565b820191905f5260205f20905b81548152906001019060200180831161037357829003601f168201915b5050505050905090565b5f5f6103a461077b565b90506103b1818585610782565b600191505092915050565b5f600254905090565b5f5f6103cf61077b565b90506103dc858285610945565b6103e78585856109d0565b60019150509392505050565b5f6006905090565b5f5f61040561077b565b905061042681858561041785896106f9565b61042191906112b0565b610782565b600191505092915050565b7f000000000000000000000000000000000000000000000000000000000000000073ffffffffffffffffffffffffffffffffffffffff163373ffffffffffffffffffffffffffffffffffffffff16146104bf576040517f08c379a00000000000000000000000000000000000000000000000000000000081526004016104b69061132d565b60405180910390fd5b6104c98282610c3c565b5050565b5f5f5f8373ffffffffffffffffffffffffffffffffffffffff1673ffffffffffffffffffffffffffffffffffffffff1681526020019081526020015f20549050919050565b7f000000000000000000000000000000000000000000000000000000000000000081565b60606004805461054590611253565b80601f016020809104026020016040519081016040528092919081815260200182805461057190611253565b80156105bc5780601f10610593576101008083540402835291602001916105bc565b820191905f5260205f20905b81548152906001019060200180831161059f57829003601f168201915b5050505050905090565b7f000000000000000000000000000000000000000000000000000000000000000073ffffffffffffffffffffffffffffffffffffffff163373ffffffffffffffffffffffffffffffffffffffff1614610654576040517f08c379a000000000000000000000000000000000000000000000000000000000815260040161064b9061132d565b60405180910390fd5b61065e8282610d8a565b5050565b5f5f61066c61077b565b90505f61067982866106f9565b9050838110156106be576040517f08c379a00000000000000000000000000000000000000000000000000000000081526004016106b5906113bb565b60405180910390fd5b6106cb8286868403610782565b60019250505092915050565b5f5f6106e161077b565b90506106ee8185856109d0565b600191505092915050565b5f60015f8473ffffffffffffffffffffffffffffffffffffffff1673ffffffffffffffffffffffffffffffffffffffff1681526020019081526020015f205f8373ffffffffffffffffffffffffffffffffffffffff1673ffffffffffffffffffffffffffffffffffffffff1681526020019081526020015f2054905092915050565b5f33905090565b5f73ffffffffffffffffffffffffffffffffffffffff168373ffffffffffffffffffffffffffffffffffffffff16036107f0576040517f08c379a00000000000000000000000000000000000000000000000000000000081526004016107e790611449565b60405180910390fd5b5f73ffffffffffffffffffffffffffffffffffffffff168273ffffffffffffffffffffffffffffffffffffffff160361085e576040517f08c379a0000000000000000000000000000000000000000000000000000000008152600401610855906114d7565b60405180910390fd5b8060015f8573ffffffffffffffffffffffffffffffffffffffff1673ffffffffffffffffffffffffffffffffffffffff1681526020019081526020015f205f8473ffffffffffffffffffffffffffffffffffffffff1673ffffffffffffffffffffffffffffffffffffffff1681526020019081526020015f20819055508173ffffffffffffffffffffffffffffffffffffffff168373ffffffffffffffffffffffffffffffffffffffff167f8c5be1e5ebec7d5bd14f71427d1e84f3dd0314c0f7b2291e5b200ac8c7c3b9258360405161093891906110f8565b60405180910390a3505050565b5f61095084846106f9565b90507fffffffffffffffffffffffffffffffffffffffffffffffffffffffffffffffff81146109ca57818110156109bc576040517f08c379a00000000000000000000000000000000000000000000000000000000081526004016109b39061153f565b60405180910390fd5b6109c98484848403610782565b5b50505050565b5f73ffffffffffffffffffffffffffffffffffffffff168373ffffffffffffffffffffffffffffffffffffffff1603610a3e576040517f08c379a0000000000000000000000000000000000000000000000000000000008152600401610a35906115cd565b60405180910390fd5b5f73ffffffffffffffffffffffffffffffffffffffff168273ffffffffffffffffffffffffffffffffffffffff1603610aac576040517f08c379a0000000000000000000000000000000000000000000000000000000008152600401610aa39061165b565b60405180910390fd5b610ab7838383610f4d565b5f5f5f8573ffffffffffffffffffffffffffffffffffffffff1673ffffffffffffffffffffffffffffffffffffffff1681526020019081526020015f2054905081811015610b3a576040517f08c379a0000000000000000000000000000000000000000000000000000000008152600401610b31906116e9565b60405180910390fd5b8181035f5f8673ffffffffffffffffffffffffffffffffffffffff1673ffffffffffffffffffffffffffffffffffffffff1681526020019081526020015f2081905550815f5f8573ffffffffffffffffffffffffffffffffffffffff1673ffffffffffffffffffffffffffffffffffffffff1681526020019081526020015f205f82825401925050819055508273ffffffffffffffffffffffffffffffffffffffff168473ffffffffffffffffffffffffffffffffffffffff167fddf252ad1be2c89b69c2b068fc378daa952ba7f163c4a11628f55a4df523b3ef84604051610c2391906110f8565b60405180910390a3610c36848484610f52565b50505050565b5f73ffffffffffffffffffffffffffffffffffffffff168273ffffffffffffffffffffffffffffffffffffffff1603610caa576040517f08c379a0000000000000000000000000000000000000000000000000000000008152600401610ca190611751565b60405180910390fd5b610cb55f8383610f4d565b8060025f828254610cc691906112b0565b92505081905550805f5f8473ffffffffffffffffffffffffffffffffffffffff1673ffffffffffffffffffffffffffffffffffffffff1681526020019081526020015f205f82825401925050819055508173ffffffffffffffffffffffffffffffffffffffff165f73ffffffffffffffffffffffffffffffffffffffff167fddf252ad1be2c89b69c2b068fc378daa952ba7f163c4a11628f55a4df523b3ef83604051610d7391906110f8565b60405180910390a3610d865f8383610f52565b5050565b5f73ffffffffffffffffffffffffffffffffffffffff168273ffffffffffffffffffffffffffffffffffffffff1603610df8576040517f08c379a0000000000000000000000000000000000000000000000000000000008152600401610def906117df565b60405180910390fd5b610e03825f83610f4d565b5f5f5f8473ffffffffffffffffffffffffffffffffffffffff1673ffffffffffffffffffffffffffffffffffffffff1681526020019081526020015f2054905081811015610e86576040517f08c379a0000000000000000000000000000000000000000000000000000000008152600401610e7d9061186d565b60405180910390fd5b8181035f5f8573ffffffffffffffffffffffffffffffffffffffff1673ffffffffffffffffffffffffffffffffffffffff1681526020019081526020015f20819055508160025f82825403925050819055505f73ffffffffffffffffffffffffffffffffffffffff168373ffffffffffffffffffffffffffffffffffffffff167fddf252ad1be2c89b69c2b068fc378daa952ba7f163c4a11628f55a4df523b3ef84604051610f3591906110f8565b60405180910390a3610f48835f84610f52565b505050565b505050565b505050565b5f81519050919050565b5f82825260208201905092915050565b8281835e5f83830152505050565b5f601f19601f8301169050919050565b5f610f9982610f57565b610fa38185610f61565b9350610fb3818560208601610f71565b610fbc81610f7f565b840191505092915050565b5f6020820190508181035f830152610fdf8184610f8f565b905092915050565b5f5ffd5b5f73ffffffffffffffffffffffffffffffffffffffff82169050919050565b5f61101482610feb565b9050919050565b6110248161100a565b811461102e575f5ffd5b50565b5f8135905061103f8161101b565b92915050565b5f819050919050565b61105781611045565b8114611061575f5ffd5b50565b5f813590506110728161104e565b92915050565b5f5f6040838503121561108e5761108d610fe7565b5b5f61109b85828601611031565b92505060206110ac85828601611064565b9150509250929050565b5f8115159050919050565b6110ca816110b6565b82525050565b5f6020820190506110e35f8301846110c1565b92915050565b6110f281611045565b82525050565b5f60208201905061110b5f8301846110e9565b92915050565b5f5f5f6060848603121561112857611127610fe7565b5b5f61113586828701611031565b935050602061114686828701611031565b925050604061115786828701611064565b9150509250925092565b5f60ff82169050919050565b61117681611161565b82525050565b5f60208201905061118f5f83018461116d565b92915050565b5f602082840312156111aa576111a9610fe7565b5b5f6111b784828501611031565b91505092915050565b6111c98161100a565b82525050565b5f6020820190506111e25f8301846111c0565b92915050565b5f5f604083850312156111fe576111fd610fe7565b5b5f61120b85828601611031565b925050602061121c85828601611031565b9150509250929050565b7f4e487b71000000000000000000000000000000000000000000000000000000005f52602260045260245ffd5b5f600282049050600182168061126a57607f821691505b60208210810361127d5761127c611226565b5b50919050565b7f4e487b71000000000000000000000000000000000000000000000000000000005f52601160045260245ffd5b5f6112ba82611045565b91506112c583611045565b92508282019050808211156112dd576112dc611283565b5b92915050565b7f556e617574686f72697a656400000000000000000000000000000000000000005f82015250565b5f611317600c83610f61565b9150611322826112e3565b602082019050919050565b5f6020820190508181035f8301526113448161130b565b9050919050565b7f45524332303a2064656372656173656420616c6c6f77616e63652062656c6f775f8201527f207a65726f000000000000000000000000000000000000000000000000000000602082015250565b5f6113a5602583610f61565b91506113b08261134b565b604082019050919050565b5f6020820190508181035f8301526113d281611399565b9050919050565b7f45524332303a20617070726f76652066726f6d20746865207a65726f206164645f8201527f7265737300000000000000000000000000000000000000000000000000000000602082015250565b5f611433602483610f61565b915061143e826113d9565b604082019050919050565b5f6020820190508181035f83015261146081611427565b9050919050565b7f45524332303a20617070726f766520746f20746865207a65726f2061646472655f8201527f7373000000000000000000000000000000000000000000000000000000000000602082015250565b5f6114c1602283610f61565b91506114cc82611467565b604082019050919050565b5f6020820190508181035f8301526114ee816114b5565b9050919050565b7f45524332303a20696e73756666696369656e7420616c6c6f77616e63650000005f82015250565b5f611529601d83610f61565b9150611534826114f5565b602082019050919050565b5f6020820190508181035f8301526115568161151d565b9050919050565b7f45524332303a207472616e736665722066726f6d20746865207a65726f2061645f8201527f6472657373000000000000000000000000000000000000000000000000000000602082015250565b5f6115b7602583610f61565b91506115c28261155d565b604082019050919050565b5f6020820190508181035f8301526115e4816115ab565b9050919050565b7f45524332303a207472616e7366657220746f20746865207a65726f20616464725f8201527f6573730000000000000000000000000000000000000000000000000000000000602082015250565b5f611645602383610f61565b9150611650826115eb565b604082019050919050565b5f6020820190508181035f83015261167281611639565b9050919050565b7f45524332303a207472616e7366657220616d6f756e74206578636565647320625f8201527f616c616e63650000000000000000000000000000000000000000000000000000602082015250565b5f6116d3602683610f61565b91506116de82611679565b604082019050919050565b5f6020820190508181035f830152611700816116c7565b9050919050565b7f45524332303a206d696e7420746f20746865207a65726f2061646472657373005f82015250565b5f61173b601f83610f61565b915061174682611707565b602082019050919050565b5f6020820190508181035f8301526117688161172f565b9050919050565b7f45524332303a206275726e2066726f6d20746865207a65726f206164647265735f8201527f7300000000000000000000000000000000000000000000000000000000000000602082015250565b5f6117c9602183610f61565b91506117d48261176f565b604082019050919050565b5f6020820190508181035f8301526117f6816117bd565b9050919050565b7f45524332303a206275726e20616d6f756e7420657863656564732062616c616e5f8201527f6365000000000000000000000000000000000000000000000000000000000000602082015250565b5f611857602283610f61565b9150611862826117fd565b604082019050919050565b5f6020820190508181035f8301526118848161184b565b905091905056fea2646970667358221220a7519588e1790babb413fc03752f8383865e02ec637f80a7487df39a76e5839b64736f6c634300081e0033","linkReferences":{}},"methodIdentifiers":{"E(uint256)":"002ff067","FEE()":"c57981b5","L()":"9f13f76d","R(uint256)":"e5cfd849","RC_DECIMAL_SCALING_FACTOR()":"ee5af833","RC_INITIAL_PRICE()":"cf90d782","RC_MIN_PRICE()":"4a3c48d0","SCALING_FACTOR()":"ef4cadc5","SC_DECIMAL_SCALING_FACTOR()":"e17ca3b4","THRESHOLD_SUPPLY_SC()":"b66e611e","TREASURY()":"2d2c5565","TREASURY_FEE()":"8ce1a483","TX_LIMIT()":"afb5453f","buyReserveCoins(address,uint256,address)":"b77e31f9","buyStableCoins(address,uint256,address)":"574a3093","oracle()":"7dc0d1d0","ratio()":"71ca337d","rcBuyingPrice(uint256)":"e652ae47","rcTargetPrice(uint256)":"88b2cbb6","reserveCoin()":"bfebe182","scMaxPrice(uint256)":"00bccbcb","scMinPrice(uint256)":"957f8afc","sellReserveCoins(uint256,address,uint256,address)":"1ac8fc2f","sellStableCoins(uint256,address,uint256,address)":"7a4f8cba","stableCoin()":"992642e5"},"id":7}