{
  "contractName": "DjedProtocol",
  "abi": [
    {
      "inputs": [
        {
          "internalType": "uint256",
          "name": "_scalingFactor",
          "type": "uint256"
        },
        {
          "internalType": "uint256",
          "name": "_reserveRatioMin",
          "type": "uint256"
        },
        {
          "internalType": "uint256",
          "name": "_reserveRatioMax",
          "type": "uint256"
        },
        {
          "internalType": "uint256",
          "name": "_fee",
          "type": "uint256"
        },
        {
          "internalType": "uint256",
          "name": "_thresholdNumberSC",
          "type": "uint256"
        },
        {
          "internalType": "uint256",
          "name": "_reserveCoinWholeMinimumPriceBC",
          "type": "uint256"
        },
        {
          "internalType": "address",
          "name": "oracleAddress",
          "type": "address"
        }
      ],
      "stateMutability": "payable",
      "type": "constructor",
      "payable": true
    },
    {
      "anonymous": false,
      "inputs": [
        {
          "indexed": true,
          "internalType": "address",
          "name": "buyer",
          "type": "address"
        },
        {
          "indexed": false,
          "internalType": "uint256",
          "name": "amount",
          "type": "uint256"
        }
      ],
      "name": "BoughtReserveCoins",
      "type": "event"
    },
    {
      "anonymous": false,
      "inputs": [
        {
          "indexed": true,
          "internalType": "address",
          "name": "buyer",
          "type": "address"
        },
        {
          "indexed": false,
          "internalType": "uint256",
          "name": "amount",
          "type": "uint256"
        }
      ],
      "name": "BoughtStableCoins",
      "type": "event"
    },
    {
      "anonymous": false,
      "inputs": [
        {
          "indexed": false,
          "internalType": "uint256",
          "name": "amountRC",
          "type": "uint256"
        },
        {
          "indexed": false,
          "internalType": "uint256",
          "name": "totalBC",
          "type": "uint256"
        }
      ],
      "name": "PriceBuyRc",
      "type": "event"
    },
    {
      "anonymous": false,
      "inputs": [
        {
          "indexed": false,
          "internalType": "uint256",
          "name": "amountSC",
          "type": "uint256"
        },
        {
          "indexed": false,
          "internalType": "uint256",
          "name": "totalBC",
          "type": "uint256"
        }
      ],
      "name": "PriceBuySc",
      "type": "event"
    },
    {
      "anonymous": false,
      "inputs": [
        {
          "indexed": false,
          "internalType": "uint256",
          "name": "amountRC",
          "type": "uint256"
        },
        {
          "indexed": false,
          "internalType": "uint256",
          "name": "totalBC",
          "type": "uint256"
        }
      ],
      "name": "PriceSellRc",
      "type": "event"
    },
    {
      "anonymous": false,
      "inputs": [
        {
          "indexed": false,
          "internalType": "uint256",
          "name": "amountSC",
          "type": "uint256"
        },
        {
          "indexed": false,
          "internalType": "uint256",
          "name": "totalBC",
          "type": "uint256"
        }
      ],
      "name": "PriceSellSc",
      "type": "event"
    },
    {
      "anonymous": false,
      "inputs": [
        {
          "indexed": true,
          "internalType": "address",
          "name": "sender",
          "type": "address"
        },
        {
          "indexed": false,
          "internalType": "uint256",
          "name": "amount",
          "type": "uint256"
        }
      ],
      "name": "ReceivedBaseCoins",
      "type": "event"
    },
    {
      "anonymous": false,
      "inputs": [
        {
          "indexed": true,
          "internalType": "address",
          "name": "seller",
          "type": "address"
        },
        {
          "indexed": false,
          "internalType": "uint256",
          "name": "amount",
          "type": "uint256"
        }
      ],
      "name": "SoldReserveCoins",
      "type": "event"
    },
    {
      "anonymous": false,
      "inputs": [
        {
          "indexed": true,
          "internalType": "address",
          "name": "seller",
          "type": "address"
        },
        {
          "indexed": false,
          "internalType": "uint256",
          "name": "amount",
          "type": "uint256"
        }
      ],
      "name": "SoldStableCoins",
      "type": "event"
    },
    {
      "stateMutability": "payable",
      "type": "fallback",
      "payable": true
    },
    {
      "inputs": [],
      "name": "reserveBC",
      "outputs": [
        {
          "internalType": "uint256",
          "name": "",
          "type": "uint256"
        }
      ],
      "stateMutability": "view",
      "type": "function",
      "constant": true
    },
    {
      "inputs": [],
      "name": "reserveCoin",
      "outputs": [
        {
          "internalType": "contract DjedReserveCoin",
          "name": "",
          "type": "address"
        }
      ],
      "stateMutability": "view",
      "type": "function",
      "constant": true
    },
    {
      "inputs": [],
      "name": "stableCoin",
      "outputs": [
        {
          "internalType": "contract DjedStableCoin",
          "name": "",
          "type": "address"
        }
      ],
      "stateMutability": "view",
      "type": "function",
      "constant": true
    },
    {
      "stateMutability": "payable",
      "type": "receive",
      "payable": true
    },
    {
      "inputs": [],
      "name": "buyStableCoins",
      "outputs": [],
      "stateMutability": "payable",
      "type": "function",
      "payable": true
    },
    {
      "inputs": [
        {
          "internalType": "uint256",
          "name": "amountSC",
          "type": "uint256"
        }
      ],
      "name": "sellStableCoins",
      "outputs": [],
      "stateMutability": "payable",
      "type": "function",
      "payable": true
    },
    {
      "inputs": [],
      "name": "buyReserveCoins",
      "outputs": [],
      "stateMutability": "payable",
      "type": "function",
      "payable": true
    },
    {
      "inputs": [
        {
          "internalType": "uint256",
          "name": "amountRC",
          "type": "uint256"
        }
      ],
      "name": "sellReserveCoins",
      "outputs": [],
      "stateMutability": "payable",
      "type": "function",
      "payable": true
    },
    {
      "inputs": [
        {
          "internalType": "uint256",
          "name": "amountSC",
          "type": "uint256"
        }
      ],
      "name": "getPriceBuyNStableCoinsBC",
      "outputs": [
        {
          "internalType": "uint256",
          "name": "",
          "type": "uint256"
        }
      ],
      "stateMutability": "nonpayable",
      "type": "function"
    },
    {
      "inputs": [
        {
          "internalType": "uint256",
          "name": "amountSC",
          "type": "uint256"
        }
      ],
      "name": "getPriceSellNStableCoinsBC",
      "outputs": [
        {
          "internalType": "uint256",
          "name": "",
          "type": "uint256"
        }
      ],
      "stateMutability": "nonpayable",
      "type": "function"
    },
    {
      "inputs": [
        {
          "internalType": "uint256",
          "name": "amountRC",
          "type": "uint256"
        }
      ],
      "name": "getPriceBuyNReserveCoinsBC",
      "outputs": [
        {
          "internalType": "uint256",
          "name": "",
          "type": "uint256"
        }
      ],
      "stateMutability": "nonpayable",
      "type": "function"
    },
    {
      "inputs": [
        {
          "internalType": "uint256",
          "name": "amountRC",
          "type": "uint256"
        }
      ],
      "name": "getPriceSellNReserveCoinsBC",
      "outputs": [
        {
          "internalType": "uint256",
          "name": "",
          "type": "uint256"
        }
      ],
      "stateMutability": "nonpayable",
      "type": "function"
    },
    {
      "inputs": [],
      "name": "getReserveRatio",
      "outputs": [
        {
          "internalType": "uint256",
          "name": "",
          "type": "uint256"
        }
      ],
      "stateMutability": "nonpayable",
      "type": "function"
    }
  ],
  "bytecode": "0x61018060405260405162006f0d38038062006f0d83398181016040528101906200002a9190620003bb565b34600381905550306040516200004090620002fa565b6200004c91906200047f565b604051809103906000f08015801562000069573d6000803e3d6000fd5b506000806101000a81548173ffffffffffffffffffffffffffffffffffffffff021916908373ffffffffffffffffffffffffffffffffffffffff16021790555030604051620000b89062000308565b620000c491906200047f565b604051809103906000f080158015620000e1573d6000803e3d6000fd5b50600160006101000a81548173ffffffffffffffffffffffffffffffffffffffff021916908373ffffffffffffffffffffffffffffffffffffffff16021790555060008054906101000a900473ffffffffffffffffffffffffffffffffffffffff1673ffffffffffffffffffffffffffffffffffffffff1663313ce5676040518163ffffffff1660e01b8152600401602060405180830381865afa1580156200018e573d6000803e3d6000fd5b505050506040513d601f19601f82011682018060405250810190620001b49190620004da565b60ff16600a620001c591906200068f565b60a08181525050600160009054906101000a900473ffffffffffffffffffffffffffffffffffffffff1673ffffffffffffffffffffffffffffffffffffffff1663313ce5676040518163ffffffff1660e01b8152600401602060405180830381865afa1580156200023a573d6000803e3d6000fd5b505050506040513d601f19601f82011682018060405250810190620002609190620004da565b60ff16600a6200027191906200068f565b60c0818152505080600260006101000a81548173ffffffffffffffffffffffffffffffffffffffff021916908373ffffffffffffffffffffffffffffffffffffffff16021790555086608081815250508560e0818152505084610100818152505083610120818152505082610140818152505081610160818152505050505050505050620006e0565b611da380620033c783390190565b611da3806200516a83390190565b600080fd5b6000819050919050565b62000330816200031b565b81146200033c57600080fd5b50565b600081519050620003508162000325565b92915050565b600073ffffffffffffffffffffffffffffffffffffffff82169050919050565b6000620003838262000356565b9050919050565b620003958162000376565b8114620003a157600080fd5b50565b600081519050620003b5816200038a565b92915050565b600080600080600080600060e0888a031215620003dd57620003dc62000316565b5b6000620003ed8a828b016200033f565b9750506020620004008a828b016200033f565b9650506040620004138a828b016200033f565b9550506060620004268a828b016200033f565b9450506080620004398a828b016200033f565b93505060a06200044c8a828b016200033f565b92505060c06200045f8a828b01620003a4565b91505092959891949750929550565b620004798162000376565b82525050565b60006020820190506200049660008301846200046e565b92915050565b600060ff82169050919050565b620004b4816200049c565b8114620004c057600080fd5b50565b600081519050620004d481620004a9565b92915050565b600060208284031215620004f357620004f262000316565b5b60006200050384828501620004c3565b91505092915050565b7f4e487b7100000000000000000000000000000000000000000000000000000000600052601160045260246000fd5b60008160011c9050919050565b6000808291508390505b60018511156200059a578086048111156200057257620005716200050c565b5b6001851615620005825780820291505b808102905062000592856200053b565b945062000552565b94509492505050565b600082620005b5576001905062000688565b81620005c5576000905062000688565b8160018114620005de5760028114620005e9576200061f565b600191505062000688565b60ff841115620005fe57620005fd6200050c565b5b8360020a9150848211156200061857620006176200050c565b5b5062000688565b5060208310610133831016604e8410600b8410161715620006595782820a9050838111156200065357620006526200050c565b5b62000688565b62000668848484600162000548565b925090508184048111156200068257620006816200050c565b5b81810290505b9392505050565b60006200069c826200031b565b9150620006a9836200031b565b9250620006d87fffffffffffffffffffffffffffffffffffffffffffffffffffffffffffffffff8484620005a3565b905092915050565b60805160a05160c05160e05161010051610120516101405161016051612bc46200080360003960008181611ed801528181611f100152611f3701526000610923015260008181611e5a01528181611f70015261209301526000612227015260006122c20152600081816108cc015281816108fb0152818161120b01528181611492015281816117bf015261219a0152600081816104b30152818161067e01528181610c4e01528181610e5601528181610e8501528181611b3801528181611dd70152818161216e015281816121d10152818161225e01526122f901526000818161069f01528181611e2e01528181611e7b01528181611f9101528181611fc701528181612067015281816120b40152818161227f015261231a0152612bc46000f3fe6080604052600436106100ab5760003560e01c8063bfebe18211610064578063bfebe18214610287578063c4c1f042146102b2578063c5054621146102bc578063c688495d146102f9578063c75dbd7314610336578063d10c285c1461035257610119565b80632b2dc0241461018257806356b6d0d5146101bf5780637616121d146101ea57806386d20c53146101f45780638e2e873214610231578063992642e51461025c57610119565b366101195734600360008282546100c29190612392565b925050819055503373ffffffffffffffffffffffffffffffffffffffff167fae786ea72ec3a884875da7f10f6311ab3e5fe5f17cbfff151b4ef848e2664c473460405161010f91906123f7565b60405180910390a2005b346003600082825461012b9190612392565b925050819055503373ffffffffffffffffffffffffffffffffffffffff167fae786ea72ec3a884875da7f10f6311ab3e5fe5f17cbfff151b4ef848e2664c473460405161017891906123f7565b60405180910390a2005b34801561018e57600080fd5b506101a960048036038101906101a49190612443565b61036e565b6040516101b691906123f7565b60405180910390f35b3480156101cb57600080fd5b506101d461051c565b6040516101e191906123f7565b60405180910390f35b6101f26106e7565b005b34801561020057600080fd5b5061021b60048036038101906102169190612443565b610b09565b60405161022891906123f7565b60405180910390f35b34801561023d57600080fd5b50610246610cb7565b60405161025391906123f7565b60405180910390f35b34801561026857600080fd5b50610271610cbd565b60405161027e91906124ef565b60405180910390f35b34801561029357600080fd5b5061029c610ce1565b6040516102a9919061252b565b60405180910390f35b6102ba610d07565b005b3480156102c857600080fd5b506102e360048036038101906102de9190612443565b611035565b6040516102f091906123f7565b60405180910390f35b34801561030557600080fd5b50610320600480360381019061031b9190612443565b611274565b60405161032d91906123f7565b60405180910390f35b610350600480360381019061034b9190612443565b6114fc565b005b61036c60048036038101906103679190612443565b6119ee565b005b6000806104a860008054906101000a900473ffffffffffffffffffffffffffffffffffffffff1673ffffffffffffffffffffffffffffffffffffffff166318160ddd6040518163ffffffff1660e01b8152600401602060405180830381865afa1580156103df573d6000803e3d6000fd5b505050506040513d601f19601f82011682018060405250810190610403919061255b565b600354600260009054906101000a900473ffffffffffffffffffffffffffffffffffffffff1673ffffffffffffffffffffffffffffffffffffffff16633ba0b9a96040518163ffffffff1660e01b81526004016020604051808303816000875af1158015610475573d6000803e3d6000fd5b505050506040513d601f19601f8201168201806040525081019061049991906125c8565b67ffffffffffffffff16611dc0565b905060006104d784837f0000000000000000000000000000000000000000000000000000000000000000611e29565b90507fefdf667f55b25bad666c896954940f457a88f2d7ef5d543f7ae7df5797e1759b848260405161050a9291906125f5565b60405180910390a18092505050919050565b60008060008054906101000a900473ffffffffffffffffffffffffffffffffffffffff1673ffffffffffffffffffffffffffffffffffffffff166318160ddd6040518163ffffffff1660e01b8152600401602060405180830381865afa15801561058a573d6000803e3d6000fd5b505050506040513d601f19601f820116820180604052508101906105ae919061255b565b905060008114156105c35760009150506106e4565b600061066e82600354600260009054906101000a900473ffffffffffffffffffffffffffffffffffffffff1673ffffffffffffffffffffffffffffffffffffffff16633ba0b9a96040518163ffffffff1660e01b81526004016020604051808303816000875af115801561063b573d6000803e3d6000fd5b505050506040513d601f19601f8201168201806040525081019061065f91906125c8565b67ffffffffffffffff16611dc0565b9050818161067c919061261e565b7f00000000000000000000000000000000000000000000000000000000000000007f00000000000000000000000000000000000000000000000000000000000000006003546106cb919061261e565b6106d5919061261e565b6106df91906126a7565b925050505b90565b60008060009054906101000a900473ffffffffffffffffffffffffffffffffffffffff1673ffffffffffffffffffffffffffffffffffffffff166318160ddd6040518163ffffffff1660e01b8152600401602060405180830381865afa158015610755573d6000803e3d6000fd5b505050506040513d601f19601f82011682018060405250810190610779919061255b565b90506000600160009054906101000a900473ffffffffffffffffffffffffffffffffffffffff1673ffffffffffffffffffffffffffffffffffffffff166318160ddd6040518163ffffffff1660e01b8152600401602060405180830381865afa1580156107ea573d6000803e3d6000fd5b505050506040513d601f19601f8201168201806040525081019061080e919061255b565b90506000600260009054906101000a900473ffffffffffffffffffffffffffffffffffffffff1673ffffffffffffffffffffffffffffffffffffffff16633ba0b9a96040518163ffffffff1660e01b81526004016020604051808303816000875af1158015610881573d6000803e3d6000fd5b505050506040513d601f19601f820116820180604052508101906108a591906125c8565b67ffffffffffffffff16905060006108c1838560035485611ecc565b905060006108f034837f0000000000000000000000000000000000000000000000000000000000000000611f6b565b9050600061091f82847f0000000000000000000000000000000000000000000000000000000000000000611e29565b90507f000000000000000000000000000000000000000000000000000000000000000086106109c85760006109578760035487611dc0565b90506000826003546109699190612392565b90506000610978898389611dc0565b90506109a06003548a85604051806060016040528060218152602001612b086021913961200e565b6109c4828a83604051806060016040528060228152602001612b296022913961200e565b5050505b80341015610a0b576040517f08c379a0000000000000000000000000000000000000000000000000000000008152600401610a029061275b565b60405180910390fd5b8060036000828254610a1d9190612392565b92505081905550600160009054906101000a900473ffffffffffffffffffffffffffffffffffffffff1673ffffffffffffffffffffffffffffffffffffffff166340c10f1933846040518363ffffffff1660e01b8152600401610a8192919061279c565b600060405180830381600087803b158015610a9b57600080fd5b505af1158015610aaf573d6000803e3d6000fd5b505050503373ffffffffffffffffffffffffffffffffffffffff167f5f360c6e95a1f57a89921801996b387131d8a1c6db8049460249cb9499a38b9583604051610af991906123f7565b60405180910390a2505050505050565b600080610c4360008054906101000a900473ffffffffffffffffffffffffffffffffffffffff1673ffffffffffffffffffffffffffffffffffffffff166318160ddd6040518163ffffffff1660e01b8152600401602060405180830381865afa158015610b7a573d6000803e3d6000fd5b505050506040513d601f19601f82011682018060405250810190610b9e919061255b565b600354600260009054906101000a900473ffffffffffffffffffffffffffffffffffffffff1673ffffffffffffffffffffffffffffffffffffffff16633ba0b9a96040518163ffffffff1660e01b81526004016020604051808303816000875af1158015610c10573d6000803e3d6000fd5b505050506040513d601f19601f82011682018060405250810190610c3491906125c8565b67ffffffffffffffff16611dc0565b90506000610c7284837f0000000000000000000000000000000000000000000000000000000000000000612062565b90507faf71c8ed47d5395b4b0f3c69ceb5ceeb9badd654dd294b388fda7fee7c80b9568482604051610ca59291906125f5565b60405180910390a18092505050919050565b60035481565b60008054906101000a900473ffffffffffffffffffffffffffffffffffffffff1681565b600160009054906101000a900473ffffffffffffffffffffffffffffffffffffffff1681565b60008060009054906101000a900473ffffffffffffffffffffffffffffffffffffffff1673ffffffffffffffffffffffffffffffffffffffff166318160ddd6040518163ffffffff1660e01b8152600401602060405180830381865afa158015610d75573d6000803e3d6000fd5b505050506040513d601f19601f82011682018060405250810190610d99919061255b565b90506000600260009054906101000a900473ffffffffffffffffffffffffffffffffffffffff1673ffffffffffffffffffffffffffffffffffffffff16633ba0b9a96040518163ffffffff1660e01b81526004016020604051808303816000875af1158015610e0c573d6000803e3d6000fd5b505050506040513d601f19601f82011682018060405250810190610e3091906125c8565b67ffffffffffffffff1690506000610e4b8360035484611dc0565b90506000610e7a34837f0000000000000000000000000000000000000000000000000000000000000000611f6b565b90506000610ea982847f0000000000000000000000000000000000000000000000000000000000000000611e29565b905060008286610eb99190612392565b9050600082600354610ecb9190612392565b90506000610eda838389611dc0565b9050610f026003548988604051806060016040528060218152602001612ae760219139612105565b610f26828483604051806060016040528060228152602001612b6d60229139612105565b83341015610f3757610f366127c5565b5b8360036000828254610f499190612392565b9250508190555060008054906101000a900473ffffffffffffffffffffffffffffffffffffffff1673ffffffffffffffffffffffffffffffffffffffff166340c10f1933876040518363ffffffff1660e01b8152600401610fab92919061279c565b600060405180830381600087803b158015610fc557600080fd5b505af1158015610fd9573d6000803e3d6000fd5b505050503373ffffffffffffffffffffffffffffffffffffffff167fa0513cc357003c76f3b8cb3e013a54447b25f30ad8f3a9b474ed15ddfad603818660405161102391906123f7565b60405180910390a25050505050505050565b600080611200600160009054906101000a900473ffffffffffffffffffffffffffffffffffffffff1673ffffffffffffffffffffffffffffffffffffffff166318160ddd6040518163ffffffff1660e01b8152600401602060405180830381865afa1580156110a8573d6000803e3d6000fd5b505050506040513d601f19601f820116820180604052508101906110cc919061255b565b60008054906101000a900473ffffffffffffffffffffffffffffffffffffffff1673ffffffffffffffffffffffffffffffffffffffff166318160ddd6040518163ffffffff1660e01b8152600401602060405180830381865afa158015611137573d6000803e3d6000fd5b505050506040513d601f19601f8201168201806040525081019061115b919061255b565b600354600260009054906101000a900473ffffffffffffffffffffffffffffffffffffffff1673ffffffffffffffffffffffffffffffffffffffff16633ba0b9a96040518163ffffffff1660e01b81526004016020604051808303816000875af11580156111cd573d6000803e3d6000fd5b505050506040513d601f19601f820116820180604052508101906111f191906125c8565b67ffffffffffffffff16611ecc565b9050600061122f84837f0000000000000000000000000000000000000000000000000000000000000000611e29565b90507f476b4ca0a9077445399e5ec9f4278c25e0a0ba9d18b9bb9b7e42ec5e4233466884826040516112629291906125f5565b60405180910390a18092505050919050565b600080600160009054906101000a900473ffffffffffffffffffffffffffffffffffffffff1673ffffffffffffffffffffffffffffffffffffffff166318160ddd6040518163ffffffff1660e01b8152600401602060405180830381865afa1580156112e4573d6000803e3d6000fd5b505050506040513d601f19601f82011682018060405250810190611308919061255b565b90506000811161134d576040517f08c379a000000000000000000000000000000000000000000000000000000000815260040161134490612866565b60405180910390fd5b60006114878260008054906101000a900473ffffffffffffffffffffffffffffffffffffffff1673ffffffffffffffffffffffffffffffffffffffff166318160ddd6040518163ffffffff1660e01b8152600401602060405180830381865afa1580156113be573d6000803e3d6000fd5b505050506040513d601f19601f820116820180604052508101906113e2919061255b565b600354600260009054906101000a900473ffffffffffffffffffffffffffffffffffffffff1673ffffffffffffffffffffffffffffffffffffffff16633ba0b9a96040518163ffffffff1660e01b81526004016020604051808303816000875af1158015611454573d6000803e3d6000fd5b505050506040513d601f19601f8201168201806040525081019061147891906125c8565b67ffffffffffffffff16612159565b905060006114b685837f0000000000000000000000000000000000000000000000000000000000000000612062565b90507f305aefe3ede91b4130d176641a725a1cf67befd9920dacfa7cdbe03a6c27b87a85826040516114e99291906125f5565b60405180910390a1809350505050919050565b80600160009054906101000a900473ffffffffffffffffffffffffffffffffffffffff1673ffffffffffffffffffffffffffffffffffffffff166370a08231336040518263ffffffff1660e01b81526004016115589190612886565b602060405180830381865afa158015611575573d6000803e3d6000fd5b505050506040513d601f19601f82011682018060405250810190611599919061255b565b10156115da576040517f08c379a00000000000000000000000000000000000000000000000000000000081526004016115d1906128ed565b60405180910390fd5b60008060009054906101000a900473ffffffffffffffffffffffffffffffffffffffff1673ffffffffffffffffffffffffffffffffffffffff166318160ddd6040518163ffffffff1660e01b8152600401602060405180830381865afa158015611648573d6000803e3d6000fd5b505050506040513d601f19601f8201168201806040525081019061166c919061255b565b90506000600160009054906101000a900473ffffffffffffffffffffffffffffffffffffffff1673ffffffffffffffffffffffffffffffffffffffff166318160ddd6040518163ffffffff1660e01b8152600401602060405180830381865afa1580156116dd573d6000803e3d6000fd5b505050506040513d601f19601f82011682018060405250810190611701919061255b565b90506000600260009054906101000a900473ffffffffffffffffffffffffffffffffffffffff1673ffffffffffffffffffffffffffffffffffffffff16633ba0b9a96040518163ffffffff1660e01b81526004016020604051808303816000875af1158015611774573d6000803e3d6000fd5b505050506040513d601f19601f8201168201806040525081019061179891906125c8565b67ffffffffffffffff16905060006117b4838560035485612159565b905060006117e386837f0000000000000000000000000000000000000000000000000000000000000000612062565b905060006117f48660035486611dc0565b9050600082600354611806919061290d565b90506000611815888388611dc0565b905061183d6003548985604051806060016040528060228152602001612b4b60229139612105565b611861828983604051806060016040528060238152602001612ac460239139612105565b8360035410156118a6576040517f08c379a000000000000000000000000000000000000000000000000000000000815260040161189d9061298d565b60405180910390fd5b83600360008282546118b8919061290d565b92505081905550600160009054906101000a900473ffffffffffffffffffffffffffffffffffffffff1673ffffffffffffffffffffffffffffffffffffffff16639dc29fac338b6040518363ffffffff1660e01b815260040161191c92919061279c565b600060405180830381600087803b15801561193657600080fd5b505af115801561194a573d6000803e3d6000fd5b505050503373ffffffffffffffffffffffffffffffffffffffff166108fc859081150290604051600060405180830381858888f19350505050158015611994573d6000803e3d6000fd5b503373ffffffffffffffffffffffffffffffffffffffff167fca76755bde817115b0cb1a1d8be6c1e36ae91f97719de5b6d5e2a146bce91d178a6040516119db91906123f7565b60405180910390a2505050505050505050565b60008060009054906101000a900473ffffffffffffffffffffffffffffffffffffffff1673ffffffffffffffffffffffffffffffffffffffff166318160ddd6040518163ffffffff1660e01b8152600401602060405180830381865afa158015611a5c573d6000803e3d6000fd5b505050506040513d601f19601f82011682018060405250810190611a80919061255b565b90506000611b2d82600354600260009054906101000a900473ffffffffffffffffffffffffffffffffffffffff1673ffffffffffffffffffffffffffffffffffffffff16633ba0b9a96040518163ffffffff1660e01b81526004016020604051808303816000875af1158015611afa573d6000803e3d6000fd5b505050506040513d601f19601f82011682018060405250810190611b1e91906125c8565b67ffffffffffffffff16611dc0565b90506000611b5c84837f0000000000000000000000000000000000000000000000000000000000000000612062565b90508360008054906101000a900473ffffffffffffffffffffffffffffffffffffffff1673ffffffffffffffffffffffffffffffffffffffff166370a08231336040518263ffffffff1660e01b8152600401611bb89190612886565b602060405180830381865afa158015611bd5573d6000803e3d6000fd5b505050506040513d601f19601f82011682018060405250810190611bf9919061255b565b1015611c3a576040517f08c379a0000000000000000000000000000000000000000000000000000000008152600401611c31906129f9565b60405180910390fd5b806003541015611c7f576040517f08c379a0000000000000000000000000000000000000000000000000000000008152600401611c769061298d565b60405180910390fd5b8060036000828254611c91919061290d565b9250508190555060008054906101000a900473ffffffffffffffffffffffffffffffffffffffff1673ffffffffffffffffffffffffffffffffffffffff16639dc29fac33866040518363ffffffff1660e01b8152600401611cf392919061279c565b600060405180830381600087803b158015611d0d57600080fd5b505af1158015611d21573d6000803e3d6000fd5b505050503373ffffffffffffffffffffffffffffffffffffffff166108fc829081150290604051600060405180830381858888f19350505050158015611d6b573d6000803e3d6000fd5b503373ffffffffffffffffffffffffffffffffffffffff167fcecdd70bead12876e23eb751da7ba3e55045ac51a9673372db3475c8c3235ec785604051611db291906123f7565b60405180910390a250505050565b600080841415611dd257819050611e22565b6000847f000000000000000000000000000000000000000000000000000000000000000085611e01919061261e565b611e0b91906126a7565b9050828110611e1d5782915050611e22565b809150505b9392505050565b6000817f0000000000000000000000000000000000000000000000000000000000000000611e57919061261e565b837f00000000000000000000000000000000000000000000000000000000000000007f0000000000000000000000000000000000000000000000000000000000000000611ea49190612392565b86611eaf919061261e565b611eb9919061261e565b611ec391906126a7565b90509392505050565b600080851415611efe577f00000000000000000000000000000000000000000000000000000000000000009050611f63565b6000611f0c86868686612159565b90507f00000000000000000000000000000000000000000000000000000000000000008111611f5e577f0000000000000000000000000000000000000000000000000000000000000000915050611f63565b809150505b949350505050565b6000827f00000000000000000000000000000000000000000000000000000000000000007f0000000000000000000000000000000000000000000000000000000000000000611fba9190612392565b611fc4919061261e565b827f000000000000000000000000000000000000000000000000000000000000000086611ff1919061261e565b611ffb919061261e565b61200591906126a7565b90509392505050565b612019848484612223565b819061205b576040517f08c379a00000000000000000000000000000000000000000000000000000000081526004016120529190612aa1565b60405180910390fd5b5050505050565b6000817f0000000000000000000000000000000000000000000000000000000000000000612090919061261e565b837f00000000000000000000000000000000000000000000000000000000000000007f00000000000000000000000000000000000000000000000000000000000000006120dd919061290d565b866120e8919061261e565b6120f2919061261e565b6120fc91906126a7565b90509392505050565b6121108484846122be565b8190612152576040517f08c379a00000000000000000000000000000000000000000000000000000000081526004016121499190612aa1565b60405180910390fd5b5050505050565b60008085141561216c5761216b6127c5565b5b7f000000000000000000000000000000000000000000000000000000000000000085612198919061261e565b7f00000000000000000000000000000000000000000000000000000000000000006121c4868686611dc0565b866121cf919061261e565b7f0000000000000000000000000000000000000000000000000000000000000000866121fb919061261e565b612205919061290d565b61220f919061261e565b61221991906126a7565b9050949350505050565b60007f00000000000000000000000000000000000000000000000000000000000000008284612252919061261e565b61225c919061261e565b7f00000000000000000000000000000000000000000000000000000000000000007f0000000000000000000000000000000000000000000000000000000000000000866122a9919061261e565b6122b3919061261e565b111590509392505050565b60007f000000000000000000000000000000000000000000000000000000000000000082846122ed919061261e565b6122f7919061261e565b7f00000000000000000000000000000000000000000000000000000000000000007f000000000000000000000000000000000000000000000000000000000000000086612344919061261e565b61234e919061261e565b101590509392505050565b6000819050919050565b7f4e487b7100000000000000000000000000000000000000000000000000000000600052601160045260246000fd5b600061239d82612359565b91506123a883612359565b9250827fffffffffffffffffffffffffffffffffffffffffffffffffffffffffffffffff038211156123dd576123dc612363565b5b828201905092915050565b6123f181612359565b82525050565b600060208201905061240c60008301846123e8565b92915050565b600080fd5b61242081612359565b811461242b57600080fd5b50565b60008135905061243d81612417565b92915050565b60006020828403121561245957612458612412565b5b60006124678482850161242e565b91505092915050565b600073ffffffffffffffffffffffffffffffffffffffff82169050919050565b6000819050919050565b60006124b56124b06124ab84612470565b612490565b612470565b9050919050565b60006124c78261249a565b9050919050565b60006124d9826124bc565b9050919050565b6124e9816124ce565b82525050565b600060208201905061250460008301846124e0565b92915050565b6000612515826124bc565b9050919050565b6125258161250a565b82525050565b6000602082019050612540600083018461251c565b92915050565b60008151905061255581612417565b92915050565b60006020828403121561257157612570612412565b5b600061257f84828501612546565b91505092915050565b600067ffffffffffffffff82169050919050565b6125a581612588565b81146125b057600080fd5b50565b6000815190506125c28161259c565b92915050565b6000602082840312156125de576125dd612412565b5b60006125ec848285016125b3565b91505092915050565b600060408201905061260a60008301856123e8565b61261760208301846123e8565b9392505050565b600061262982612359565b915061263483612359565b9250817fffffffffffffffffffffffffffffffffffffffffffffffffffffffffffffffff048311821515161561266d5761266c612363565b5b828202905092915050565b7f4e487b7100000000000000000000000000000000000000000000000000000000600052601260045260246000fd5b60006126b282612359565b91506126bd83612359565b9250826126cd576126cc612678565b5b828204905092915050565b600082825260208201905092915050565b7f537570706c6965642076616c7565206e6f7420657175616c20746f206578706560008201527f6374656400000000000000000000000000000000000000000000000000000000602082015250565b60006127456024836126d8565b9150612750826126e9565b604082019050919050565b6000602082019050818103600083015261277481612738565b9050919050565b600061278682612470565b9050919050565b6127968161277b565b82525050565b60006040820190506127b1600083018561278d565b6127be60208301846123e8565b9392505050565b7f4e487b7100000000000000000000000000000000000000000000000000000000600052600160045260246000fd5b7f4e6f2052437320696e2063697263756c6174696f6e2c20756e646566696e656460008201527f2070726963650000000000000000000000000000000000000000000000000000602082015250565b60006128506026836126d8565b915061285b826127f4565b604082019050919050565b6000602082019050818103600083015261287f81612843565b9050919050565b600060208201905061289b600083018461278d565b92915050565b7f53656c6c65722068617320746f6f206665772052437300000000000000000000600082015250565b60006128d76016836126d8565b91506128e2826128a1565b602082019050919050565b60006020820190508181036000830152612906816128ca565b9050919050565b600061291882612359565b915061292383612359565b92508282101561293657612935612363565b5b828203905092915050565b7f4e6f7420656e6f7567682042437320696e207265736572766500000000000000600082015250565b60006129776019836126d8565b915061298282612941565b602082019050919050565b600060208201905081810360008301526129a68161296a565b9050919050565b7f53656c6c65722068617320746f6f206665772053437300000000000000000000600082015250565b60006129e36016836126d8565b91506129ee826129ad565b602082019050919050565b60006020820190508181036000830152612a12816129d6565b9050919050565b600081519050919050565b60005b83811015612a42578082015181840152602081019050612a27565b83811115612a51576000848401525b50505050565b6000601f19601f8301169050919050565b6000612a7382612a19565b612a7d81856126d8565b9350612a8d818560208601612a24565b612a9681612a57565b840191505092915050565b60006020820190508181036000830152612abb8184612a68565b90509291505056fe52432073656c6c20706f7374636f6e646974696f6e20646f6573206e6f7420686f6c6453432062757920707265636f6e646974696f6e20646f6573206e6f7420686f6c6452432062757920707265636f6e646974696f6e20646f6573206e6f7420686f6c6452432062757920706f7374636f6e646974696f6e20646f6573206e6f7420686f6c6452432073656c6c20707265636f6e646974696f6e20646f6573206e6f7420686f6c6453432062757920706f7374636f6e646974696f6e20646f6573206e6f7420686f6c64a26469706673582212201c71a7e7c2a738da9070a60c69e8e42fdf034f234554efbf7971027cade0596c64736f6c634300080a003360a06040523480156200001157600080fd5b5060405162001da338038062001da3833981810160405281019062000037919062000232565b6040518060400160405280601081526020017f446a656420537461626c6520436f696e000000000000000000000000000000008152506040518060400160405280600381526020017f44534300000000000000000000000000000000000000000000000000000000008152508282828160039080519060200190620000be92919062000118565b508060049080519060200190620000d792919062000118565b5050508073ffffffffffffffffffffffffffffffffffffffff1660808173ffffffffffffffffffffffffffffffffffffffff168152505050505050620002c9565b828054620001269062000293565b90600052602060002090601f0160209004810192826200014a576000855562000196565b82601f106200016557805160ff191683800117855562000196565b8280016001018555821562000196579182015b828111156200019557825182559160200191906001019062000178565b5b509050620001a59190620001a9565b5090565b5b80821115620001c4576000816000905550600101620001aa565b5090565b600080fd5b600073ffffffffffffffffffffffffffffffffffffffff82169050919050565b6000620001fa82620001cd565b9050919050565b6200020c81620001ed565b81146200021857600080fd5b50565b6000815190506200022c8162000201565b92915050565b6000602082840312156200024b576200024a620001c8565b5b60006200025b848285016200021b565b91505092915050565b7f4e487b7100000000000000000000000000000000000000000000000000000000600052602260045260246000fd5b60006002820490506001821680620002ac57607f821691505b60208210811415620002c357620002c262000264565b5b50919050565b608051611ab7620002ec6000396000818161047701526105ed0152611ab76000f3fe608060405234801561001057600080fd5b50600436106100cf5760003560e01c806340c10f191161008c5780639dc29fac116100665780639dc29fac14610228578063a457c2d714610244578063a9059cbb14610274578063dd62ed3e146102a4576100cf565b806340c10f19146101be57806370a08231146101da57806395d89b411461020a576100cf565b806306fdde03146100d4578063095ea7b3146100f257806318160ddd1461012257806323b872dd14610140578063313ce56714610170578063395093511461018e575b600080fd5b6100dc6102d4565b6040516100e991906110d5565b60405180910390f35b61010c60048036038101906101079190611190565b610366565b60405161011991906111eb565b60405180910390f35b61012a610389565b6040516101379190611215565b60405180910390f35b61015a60048036038101906101559190611230565b610393565b60405161016791906111eb565b60405180910390f35b6101786103c2565b604051610185919061129f565b60405180910390f35b6101a860048036038101906101a39190611190565b6103cb565b6040516101b591906111eb565b60405180910390f35b6101d860048036038101906101d39190611190565b610475565b005b6101f460048036038101906101ef91906112ba565b610511565b6040516102019190611215565b60405180910390f35b610212610559565b60405161021f91906110d5565b60405180910390f35b610242600480360381019061023d9190611190565b6105eb565b005b61025e60048036038101906102599190611190565b610687565b60405161026b91906111eb565b60405180910390f35b61028e60048036038101906102899190611190565b610771565b60405161029b91906111eb565b60405180910390f35b6102be60048036038101906102b991906112e7565b610794565b6040516102cb9190611215565b60405180910390f35b6060600380546102e390611356565b80601f016020809104026020016040519081016040528092919081815260200182805461030f90611356565b801561035c5780601f106103315761010080835404028352916020019161035c565b820191906000526020600020905b81548152906001019060200180831161033f57829003601f168201915b5050505050905090565b60008061037161081b565b905061037e818585610823565b600191505092915050565b6000600254905090565b60008061039e61081b565b90506103ab8582856109ee565b6103b6858585610a7a565b60019150509392505050565b60006006905090565b6000806103d661081b565b905061046a818585600160008673ffffffffffffffffffffffffffffffffffffffff1673ffffffffffffffffffffffffffffffffffffffff16815260200190815260200160002060008973ffffffffffffffffffffffffffffffffffffffff1673ffffffffffffffffffffffffffffffffffffffff1681526020019081526020016000205461046591906113b7565b610823565b600191505092915050565b7f000000000000000000000000000000000000000000000000000000000000000073ffffffffffffffffffffffffffffffffffffffff163373ffffffffffffffffffffffffffffffffffffffff1614610503576040517f08c379a00000000000000000000000000000000000000000000000000000000081526004016104fa90611459565b60405180910390fd5b61050d8282610cfb565b5050565b60008060008373ffffffffffffffffffffffffffffffffffffffff1673ffffffffffffffffffffffffffffffffffffffff168152602001908152602001600020549050919050565b60606004805461056890611356565b80601f016020809104026020016040519081016040528092919081815260200182805461059490611356565b80156105e15780601f106105b6576101008083540402835291602001916105e1565b820191906000526020600020905b8154815290600101906020018083116105c457829003601f168201915b5050505050905090565b7f000000000000000000000000000000000000000000000000000000000000000073ffffffffffffffffffffffffffffffffffffffff163373ffffffffffffffffffffffffffffffffffffffff1614610679576040517f08c379a0000000000000000000000000000000000000000000000000000000008152600401610670906114c5565b60405180910390fd5b6106838282610e5b565b5050565b60008061069261081b565b90506000600160008373ffffffffffffffffffffffffffffffffffffffff1673ffffffffffffffffffffffffffffffffffffffff16815260200190815260200160002060008673ffffffffffffffffffffffffffffffffffffffff1673ffffffffffffffffffffffffffffffffffffffff16815260200190815260200160002054905083811015610758576040517f08c379a000000000000000000000000000000000000000000000000000000000815260040161074f90611557565b60405180910390fd5b6107658286868403610823565b60019250505092915050565b60008061077c61081b565b9050610789818585610a7a565b600191505092915050565b6000600160008473ffffffffffffffffffffffffffffffffffffffff1673ffffffffffffffffffffffffffffffffffffffff16815260200190815260200160002060008373ffffffffffffffffffffffffffffffffffffffff1673ffffffffffffffffffffffffffffffffffffffff16815260200190815260200160002054905092915050565b600033905090565b600073ffffffffffffffffffffffffffffffffffffffff168373ffffffffffffffffffffffffffffffffffffffff161415610893576040517f08c379a000000000000000000000000000000000000000000000000000000000815260040161088a906115e9565b60405180910390fd5b600073ffffffffffffffffffffffffffffffffffffffff168273ffffffffffffffffffffffffffffffffffffffff161415610903576040517f08c379a00000000000000000000000000000000000000000000000000000000081526004016108fa9061167b565b60405180910390fd5b80600160008573ffffffffffffffffffffffffffffffffffffffff1673ffffffffffffffffffffffffffffffffffffffff16815260200190815260200160002060008473ffffffffffffffffffffffffffffffffffffffff1673ffffffffffffffffffffffffffffffffffffffff168152602001908152602001600020819055508173ffffffffffffffffffffffffffffffffffffffff168373ffffffffffffffffffffffffffffffffffffffff167f8c5be1e5ebec7d5bd14f71427d1e84f3dd0314c0f7b2291e5b200ac8c7c3b925836040516109e19190611215565b60405180910390a3505050565b60006109fa8484610794565b90507fffffffffffffffffffffffffffffffffffffffffffffffffffffffffffffffff8114610a745781811015610a66576040517f08c379a0000000000000000000000000000000000000000000000000000000008152600401610a5d906116e7565b60405180910390fd5b610a738484848403610823565b5b50505050565b600073ffffffffffffffffffffffffffffffffffffffff168373ffffffffffffffffffffffffffffffffffffffff161415610aea576040517f08c379a0000000000000000000000000000000000000000000000000000000008152600401610ae190611779565b60405180910390fd5b600073ffffffffffffffffffffffffffffffffffffffff168273ffffffffffffffffffffffffffffffffffffffff161415610b5a576040517f08c379a0000000000000000000000000000000000000000000000000000000008152600401610b519061180b565b60405180910390fd5b610b65838383611032565b60008060008573ffffffffffffffffffffffffffffffffffffffff1673ffffffffffffffffffffffffffffffffffffffff16815260200190815260200160002054905081811015610beb576040517f08c379a0000000000000000000000000000000000000000000000000000000008152600401610be29061189d565b60405180910390fd5b8181036000808673ffffffffffffffffffffffffffffffffffffffff1673ffffffffffffffffffffffffffffffffffffffff16815260200190815260200160002081905550816000808573ffffffffffffffffffffffffffffffffffffffff1673ffffffffffffffffffffffffffffffffffffffff1681526020019081526020016000206000828254610c7e91906113b7565b925050819055508273ffffffffffffffffffffffffffffffffffffffff168473ffffffffffffffffffffffffffffffffffffffff167fddf252ad1be2c89b69c2b068fc378daa952ba7f163c4a11628f55a4df523b3ef84604051610ce29190611215565b60405180910390a3610cf5848484611037565b50505050565b600073ffffffffffffffffffffffffffffffffffffffff168273ffffffffffffffffffffffffffffffffffffffff161415610d6b576040517f08c379a0000000000000000000000000000000000000000000000000000000008152600401610d6290611909565b60405180910390fd5b610d7760008383611032565b8060026000828254610d8991906113b7565b92505081905550806000808473ffffffffffffffffffffffffffffffffffffffff1673ffffffffffffffffffffffffffffffffffffffff1681526020019081526020016000206000828254610dde91906113b7565b925050819055508173ffffffffffffffffffffffffffffffffffffffff16600073ffffffffffffffffffffffffffffffffffffffff167fddf252ad1be2c89b69c2b068fc378daa952ba7f163c4a11628f55a4df523b3ef83604051610e439190611215565b60405180910390a3610e5760008383611037565b5050565b600073ffffffffffffffffffffffffffffffffffffffff168273ffffffffffffffffffffffffffffffffffffffff161415610ecb576040517f08c379a0000000000000000000000000000000000000000000000000000000008152600401610ec29061199b565b60405180910390fd5b610ed782600083611032565b60008060008473ffffffffffffffffffffffffffffffffffffffff1673ffffffffffffffffffffffffffffffffffffffff16815260200190815260200160002054905081811015610f5d576040517f08c379a0000000000000000000000000000000000000000000000000000000008152600401610f5490611a2d565b60405180910390fd5b8181036000808573ffffffffffffffffffffffffffffffffffffffff1673ffffffffffffffffffffffffffffffffffffffff168152602001908152602001600020819055508160026000828254610fb49190611a4d565b92505081905550600073ffffffffffffffffffffffffffffffffffffffff168373ffffffffffffffffffffffffffffffffffffffff167fddf252ad1be2c89b69c2b068fc378daa952ba7f163c4a11628f55a4df523b3ef846040516110199190611215565b60405180910390a361102d83600084611037565b505050565b505050565b505050565b600081519050919050565b600082825260208201905092915050565b60005b8381101561107657808201518184015260208101905061105b565b83811115611085576000848401525b50505050565b6000601f19601f8301169050919050565b60006110a78261103c565b6110b18185611047565b93506110c1818560208601611058565b6110ca8161108b565b840191505092915050565b600060208201905081810360008301526110ef818461109c565b905092915050565b600080fd5b600073ffffffffffffffffffffffffffffffffffffffff82169050919050565b6000611127826110fc565b9050919050565b6111378161111c565b811461114257600080fd5b50565b6000813590506111548161112e565b92915050565b6000819050919050565b61116d8161115a565b811461117857600080fd5b50565b60008135905061118a81611164565b92915050565b600080604083850312156111a7576111a66110f7565b5b60006111b585828601611145565b92505060206111c68582860161117b565b9150509250929050565b60008115159050919050565b6111e5816111d0565b82525050565b600060208201905061120060008301846111dc565b92915050565b61120f8161115a565b82525050565b600060208201905061122a6000830184611206565b92915050565b600080600060608486031215611249576112486110f7565b5b600061125786828701611145565b935050602061126886828701611145565b92505060406112798682870161117b565b9150509250925092565b600060ff82169050919050565b61129981611283565b82525050565b60006020820190506112b46000830184611290565b92915050565b6000602082840312156112d0576112cf6110f7565b5b60006112de84828501611145565b91505092915050565b600080604083850312156112fe576112fd6110f7565b5b600061130c85828601611145565b925050602061131d85828601611145565b9150509250929050565b7f4e487b7100000000000000000000000000000000000000000000000000000000600052602260045260246000fd5b6000600282049050600182168061136e57607f821691505b6020821081141561138257611381611327565b5b50919050565b7f4e487b7100000000000000000000000000000000000000000000000000000000600052601160045260246000fd5b60006113c28261115a565b91506113cd8361115a565b9250827fffffffffffffffffffffffffffffffffffffffffffffffffffffffffffffffff0382111561140257611401611388565b5b828201905092915050565b7f4f6e6c79206f776e65722063616e206d696e7400000000000000000000000000600082015250565b6000611443601383611047565b915061144e8261140d565b602082019050919050565b6000602082019050818103600083015261147281611436565b9050919050565b7f4f6e6c79206f776e65722063616e206275726e00000000000000000000000000600082015250565b60006114af601383611047565b91506114ba82611479565b602082019050919050565b600060208201905081810360008301526114de816114a2565b9050919050565b7f45524332303a2064656372656173656420616c6c6f77616e63652062656c6f7760008201527f207a65726f000000000000000000000000000000000000000000000000000000602082015250565b6000611541602583611047565b915061154c826114e5565b604082019050919050565b6000602082019050818103600083015261157081611534565b9050919050565b7f45524332303a20617070726f76652066726f6d20746865207a65726f2061646460008201527f7265737300000000000000000000000000000000000000000000000000000000602082015250565b60006115d3602483611047565b91506115de82611577565b604082019050919050565b60006020820190508181036000830152611602816115c6565b9050919050565b7f45524332303a20617070726f766520746f20746865207a65726f20616464726560008201527f7373000000000000000000000000000000000000000000000000000000000000602082015250565b6000611665602283611047565b915061167082611609565b604082019050919050565b6000602082019050818103600083015261169481611658565b9050919050565b7f45524332303a20696e73756666696369656e7420616c6c6f77616e6365000000600082015250565b60006116d1601d83611047565b91506116dc8261169b565b602082019050919050565b60006020820190508181036000830152611700816116c4565b9050919050565b7f45524332303a207472616e736665722066726f6d20746865207a65726f20616460008201527f6472657373000000000000000000000000000000000000000000000000000000602082015250565b6000611763602583611047565b915061176e82611707565b604082019050919050565b6000602082019050818103600083015261179281611756565b9050919050565b7f45524332303a207472616e7366657220746f20746865207a65726f206164647260008201527f6573730000000000000000000000000000000000000000000000000000000000602082015250565b60006117f5602383611047565b915061180082611799565b604082019050919050565b60006020820190508181036000830152611824816117e8565b9050919050565b7f45524332303a207472616e7366657220616d6f756e742065786365656473206260008201527f616c616e63650000000000000000000000000000000000000000000000000000602082015250565b6000611887602683611047565b91506118928261182b565b604082019050919050565b600060208201905081810360008301526118b68161187a565b9050919050565b7f45524332303a206d696e7420746f20746865207a65726f206164647265737300600082015250565b60006118f3601f83611047565b91506118fe826118bd565b602082019050919050565b60006020820190508181036000830152611922816118e6565b9050919050565b7f45524332303a206275726e2066726f6d20746865207a65726f2061646472657360008201527f7300000000000000000000000000000000000000000000000000000000000000602082015250565b6000611985602183611047565b915061199082611929565b604082019050919050565b600060208201905081810360008301526119b481611978565b9050919050565b7f45524332303a206275726e20616d6f756e7420657863656564732062616c616e60008201527f6365000000000000000000000000000000000000000000000000000000000000602082015250565b6000611a17602283611047565b9150611a22826119bb565b604082019050919050565b60006020820190508181036000830152611a4681611a0a565b9050919050565b6000611a588261115a565b9150611a638361115a565b925082821015611a7657611a75611388565b5b82820390509291505056fea26469706673582212203e23171fcc84802c898c25ad75a76b654e4b6afea7b325f904f6f005e25fc8bf64736f6c634300080a003360a06040523480156200001157600080fd5b5060405162001da338038062001da3833981810160405281019062000037919062000232565b6040518060400160405280601181526020017f446a6564205265736572766520436f696e0000000000000000000000000000008152506040518060400160405280600381526020017f44524300000000000000000000000000000000000000000000000000000000008152508282828160039080519060200190620000be92919062000118565b508060049080519060200190620000d792919062000118565b5050508073ffffffffffffffffffffffffffffffffffffffff1660808173ffffffffffffffffffffffffffffffffffffffff168152505050505050620002c9565b828054620001269062000293565b90600052602060002090601f0160209004810192826200014a576000855562000196565b82601f106200016557805160ff191683800117855562000196565b8280016001018555821562000196579182015b828111156200019557825182559160200191906001019062000178565b5b509050620001a59190620001a9565b5090565b5b80821115620001c4576000816000905550600101620001aa565b5090565b600080fd5b600073ffffffffffffffffffffffffffffffffffffffff82169050919050565b6000620001fa82620001cd565b9050919050565b6200020c81620001ed565b81146200021857600080fd5b50565b6000815190506200022c8162000201565b92915050565b6000602082840312156200024b576200024a620001c8565b5b60006200025b848285016200021b565b91505092915050565b7f4e487b7100000000000000000000000000000000000000000000000000000000600052602260045260246000fd5b60006002820490506001821680620002ac57607f821691505b60208210811415620002c357620002c262000264565b5b50919050565b608051611ab7620002ec6000396000818161047701526105ed0152611ab76000f3fe608060405234801561001057600080fd5b50600436106100cf5760003560e01c806340c10f191161008c5780639dc29fac116100665780639dc29fac14610228578063a457c2d714610244578063a9059cbb14610274578063dd62ed3e146102a4576100cf565b806340c10f19146101be57806370a08231146101da57806395d89b411461020a576100cf565b806306fdde03146100d4578063095ea7b3146100f257806318160ddd1461012257806323b872dd14610140578063313ce56714610170578063395093511461018e575b600080fd5b6100dc6102d4565b6040516100e991906110d5565b60405180910390f35b61010c60048036038101906101079190611190565b610366565b60405161011991906111eb565b60405180910390f35b61012a610389565b6040516101379190611215565b60405180910390f35b61015a60048036038101906101559190611230565b610393565b60405161016791906111eb565b60405180910390f35b6101786103c2565b604051610185919061129f565b60405180910390f35b6101a860048036038101906101a39190611190565b6103cb565b6040516101b591906111eb565b60405180910390f35b6101d860048036038101906101d39190611190565b610475565b005b6101f460048036038101906101ef91906112ba565b610511565b6040516102019190611215565b60405180910390f35b610212610559565b60405161021f91906110d5565b60405180910390f35b610242600480360381019061023d9190611190565b6105eb565b005b61025e60048036038101906102599190611190565b610687565b60405161026b91906111eb565b60405180910390f35b61028e60048036038101906102899190611190565b610771565b60405161029b91906111eb565b60405180910390f35b6102be60048036038101906102b991906112e7565b610794565b6040516102cb9190611215565b60405180910390f35b6060600380546102e390611356565b80601f016020809104026020016040519081016040528092919081815260200182805461030f90611356565b801561035c5780601f106103315761010080835404028352916020019161035c565b820191906000526020600020905b81548152906001019060200180831161033f57829003601f168201915b5050505050905090565b60008061037161081b565b905061037e818585610823565b600191505092915050565b6000600254905090565b60008061039e61081b565b90506103ab8582856109ee565b6103b6858585610a7a565b60019150509392505050565b60006006905090565b6000806103d661081b565b905061046a818585600160008673ffffffffffffffffffffffffffffffffffffffff1673ffffffffffffffffffffffffffffffffffffffff16815260200190815260200160002060008973ffffffffffffffffffffffffffffffffffffffff1673ffffffffffffffffffffffffffffffffffffffff1681526020019081526020016000205461046591906113b7565b610823565b600191505092915050565b7f000000000000000000000000000000000000000000000000000000000000000073ffffffffffffffffffffffffffffffffffffffff163373ffffffffffffffffffffffffffffffffffffffff1614610503576040517f08c379a00000000000000000000000000000000000000000000000000000000081526004016104fa90611459565b60405180910390fd5b61050d8282610cfb565b5050565b60008060008373ffffffffffffffffffffffffffffffffffffffff1673ffffffffffffffffffffffffffffffffffffffff168152602001908152602001600020549050919050565b60606004805461056890611356565b80601f016020809104026020016040519081016040528092919081815260200182805461059490611356565b80156105e15780601f106105b6576101008083540402835291602001916105e1565b820191906000526020600020905b8154815290600101906020018083116105c457829003601f168201915b5050505050905090565b7f000000000000000000000000000000000000000000000000000000000000000073ffffffffffffffffffffffffffffffffffffffff163373ffffffffffffffffffffffffffffffffffffffff1614610679576040517f08c379a0000000000000000000000000000000000000000000000000000000008152600401610670906114c5565b60405180910390fd5b6106838282610e5b565b5050565b60008061069261081b565b90506000600160008373ffffffffffffffffffffffffffffffffffffffff1673ffffffffffffffffffffffffffffffffffffffff16815260200190815260200160002060008673ffffffffffffffffffffffffffffffffffffffff1673ffffffffffffffffffffffffffffffffffffffff16815260200190815260200160002054905083811015610758576040517f08c379a000000000000000000000000000000000000000000000000000000000815260040161074f90611557565b60405180910390fd5b6107658286868403610823565b60019250505092915050565b60008061077c61081b565b9050610789818585610a7a565b600191505092915050565b6000600160008473ffffffffffffffffffffffffffffffffffffffff1673ffffffffffffffffffffffffffffffffffffffff16815260200190815260200160002060008373ffffffffffffffffffffffffffffffffffffffff1673ffffffffffffffffffffffffffffffffffffffff16815260200190815260200160002054905092915050565b600033905090565b600073ffffffffffffffffffffffffffffffffffffffff168373ffffffffffffffffffffffffffffffffffffffff161415610893576040517f08c379a000000000000000000000000000000000000000000000000000000000815260040161088a906115e9565b60405180910390fd5b600073ffffffffffffffffffffffffffffffffffffffff168273ffffffffffffffffffffffffffffffffffffffff161415610903576040517f08c379a00000000000000000000000000000000000000000000000000000000081526004016108fa9061167b565b60405180910390fd5b80600160008573ffffffffffffffffffffffffffffffffffffffff1673ffffffffffffffffffffffffffffffffffffffff16815260200190815260200160002060008473ffffffffffffffffffffffffffffffffffffffff1673ffffffffffffffffffffffffffffffffffffffff168152602001908152602001600020819055508173ffffffffffffffffffffffffffffffffffffffff168373ffffffffffffffffffffffffffffffffffffffff167f8c5be1e5ebec7d5bd14f71427d1e84f3dd0314c0f7b2291e5b200ac8c7c3b925836040516109e19190611215565b60405180910390a3505050565b60006109fa8484610794565b90507fffffffffffffffffffffffffffffffffffffffffffffffffffffffffffffffff8114610a745781811015610a66576040517f08c379a0000000000000000000000000000000000000000000000000000000008152600401610a5d906116e7565b60405180910390fd5b610a738484848403610823565b5b50505050565b600073ffffffffffffffffffffffffffffffffffffffff168373ffffffffffffffffffffffffffffffffffffffff161415610aea576040517f08c379a0000000000000000000000000000000000000000000000000000000008152600401610ae190611779565b60405180910390fd5b600073ffffffffffffffffffffffffffffffffffffffff168273ffffffffffffffffffffffffffffffffffffffff161415610b5a576040517f08c379a0000000000000000000000000000000000000000000000000000000008152600401610b519061180b565b60405180910390fd5b610b65838383611032565b60008060008573ffffffffffffffffffffffffffffffffffffffff1673ffffffffffffffffffffffffffffffffffffffff16815260200190815260200160002054905081811015610beb576040517f08c379a0000000000000000000000000000000000000000000000000000000008152600401610be29061189d565b60405180910390fd5b8181036000808673ffffffffffffffffffffffffffffffffffffffff1673ffffffffffffffffffffffffffffffffffffffff16815260200190815260200160002081905550816000808573ffffffffffffffffffffffffffffffffffffffff1673ffffffffffffffffffffffffffffffffffffffff1681526020019081526020016000206000828254610c7e91906113b7565b925050819055508273ffffffffffffffffffffffffffffffffffffffff168473ffffffffffffffffffffffffffffffffffffffff167fddf252ad1be2c89b69c2b068fc378daa952ba7f163c4a11628f55a4df523b3ef84604051610ce29190611215565b60405180910390a3610cf5848484611037565b50505050565b600073ffffffffffffffffffffffffffffffffffffffff168273ffffffffffffffffffffffffffffffffffffffff161415610d6b576040517f08c379a0000000000000000000000000000000000000000000000000000000008152600401610d6290611909565b60405180910390fd5b610d7760008383611032565b8060026000828254610d8991906113b7565b92505081905550806000808473ffffffffffffffffffffffffffffffffffffffff1673ffffffffffffffffffffffffffffffffffffffff1681526020019081526020016000206000828254610dde91906113b7565b925050819055508173ffffffffffffffffffffffffffffffffffffffff16600073ffffffffffffffffffffffffffffffffffffffff167fddf252ad1be2c89b69c2b068fc378daa952ba7f163c4a11628f55a4df523b3ef83604051610e439190611215565b60405180910390a3610e5760008383611037565b5050565b600073ffffffffffffffffffffffffffffffffffffffff168273ffffffffffffffffffffffffffffffffffffffff161415610ecb576040517f08c379a0000000000000000000000000000000000000000000000000000000008152600401610ec29061199b565b60405180910390fd5b610ed782600083611032565b60008060008473ffffffffffffffffffffffffffffffffffffffff1673ffffffffffffffffffffffffffffffffffffffff16815260200190815260200160002054905081811015610f5d576040517f08c379a0000000000000000000000000000000000000000000000000000000008152600401610f5490611a2d565b60405180910390fd5b8181036000808573ffffffffffffffffffffffffffffffffffffffff1673ffffffffffffffffffffffffffffffffffffffff168152602001908152602001600020819055508160026000828254610fb49190611a4d565b92505081905550600073ffffffffffffffffffffffffffffffffffffffff168373ffffffffffffffffffffffffffffffffffffffff167fddf252ad1be2c89b69c2b068fc378daa952ba7f163c4a11628f55a4df523b3ef846040516110199190611215565b60405180910390a361102d83600084611037565b505050565b505050565b505050565b600081519050919050565b600082825260208201905092915050565b60005b8381101561107657808201518184015260208101905061105b565b83811115611085576000848401525b50505050565b6000601f19601f8301169050919050565b60006110a78261103c565b6110b18185611047565b93506110c1818560208601611058565b6110ca8161108b565b840191505092915050565b600060208201905081810360008301526110ef818461109c565b905092915050565b600080fd5b600073ffffffffffffffffffffffffffffffffffffffff82169050919050565b6000611127826110fc565b9050919050565b6111378161111c565b811461114257600080fd5b50565b6000813590506111548161112e565b92915050565b6000819050919050565b61116d8161115a565b811461117857600080fd5b50565b60008135905061118a81611164565b92915050565b600080604083850312156111a7576111a66110f7565b5b60006111b585828601611145565b92505060206111c68582860161117b565b9150509250929050565b60008115159050919050565b6111e5816111d0565b82525050565b600060208201905061120060008301846111dc565b92915050565b61120f8161115a565b82525050565b600060208201905061122a6000830184611206565b92915050565b600080600060608486031215611249576112486110f7565b5b600061125786828701611145565b935050602061126886828701611145565b92505060406112798682870161117b565b9150509250925092565b600060ff82169050919050565b61129981611283565b82525050565b60006020820190506112b46000830184611290565b92915050565b6000602082840312156112d0576112cf6110f7565b5b60006112de84828501611145565b91505092915050565b600080604083850312156112fe576112fd6110f7565b5b600061130c85828601611145565b925050602061131d85828601611145565b9150509250929050565b7f4e487b7100000000000000000000000000000000000000000000000000000000600052602260045260246000fd5b6000600282049050600182168061136e57607f821691505b6020821081141561138257611381611327565b5b50919050565b7f4e487b7100000000000000000000000000000000000000000000000000000000600052601160045260246000fd5b60006113c28261115a565b91506113cd8361115a565b9250827fffffffffffffffffffffffffffffffffffffffffffffffffffffffffffffffff0382111561140257611401611388565b5b828201905092915050565b7f4f6e6c79206f776e65722063616e206d696e7400000000000000000000000000600082015250565b6000611443601383611047565b915061144e8261140d565b602082019050919050565b6000602082019050818103600083015261147281611436565b9050919050565b7f4f6e6c79206f776e65722063616e206275726e00000000000000000000000000600082015250565b60006114af601383611047565b91506114ba82611479565b602082019050919050565b600060208201905081810360008301526114de816114a2565b9050919050565b7f45524332303a2064656372656173656420616c6c6f77616e63652062656c6f7760008201527f207a65726f000000000000000000000000000000000000000000000000000000602082015250565b6000611541602583611047565b915061154c826114e5565b604082019050919050565b6000602082019050818103600083015261157081611534565b9050919050565b7f45524332303a20617070726f76652066726f6d20746865207a65726f2061646460008201527f7265737300000000000000000000000000000000000000000000000000000000602082015250565b60006115d3602483611047565b91506115de82611577565b604082019050919050565b60006020820190508181036000830152611602816115c6565b9050919050565b7f45524332303a20617070726f766520746f20746865207a65726f20616464726560008201527f7373000000000000000000000000000000000000000000000000000000000000602082015250565b6000611665602283611047565b915061167082611609565b604082019050919050565b6000602082019050818103600083015261169481611658565b9050919050565b7f45524332303a20696e73756666696369656e7420616c6c6f77616e6365000000600082015250565b60006116d1601d83611047565b91506116dc8261169b565b602082019050919050565b60006020820190508181036000830152611700816116c4565b9050919050565b7f45524332303a207472616e736665722066726f6d20746865207a65726f20616460008201527f6472657373000000000000000000000000000000000000000000000000000000602082015250565b6000611763602583611047565b915061176e82611707565b604082019050919050565b6000602082019050818103600083015261179281611756565b9050919050565b7f45524332303a207472616e7366657220746f20746865207a65726f206164647260008201527f6573730000000000000000000000000000000000000000000000000000000000602082015250565b60006117f5602383611047565b915061180082611799565b604082019050919050565b60006020820190508181036000830152611824816117e8565b9050919050565b7f45524332303a207472616e7366657220616d6f756e742065786365656473206260008201527f616c616e63650000000000000000000000000000000000000000000000000000602082015250565b6000611887602683611047565b91506118928261182b565b604082019050919050565b600060208201905081810360008301526118b68161187a565b9050919050565b7f45524332303a206d696e7420746f20746865207a65726f206164647265737300600082015250565b60006118f3601f83611047565b91506118fe826118bd565b602082019050919050565b60006020820190508181036000830152611922816118e6565b9050919050565b7f45524332303a206275726e2066726f6d20746865207a65726f2061646472657360008201527f7300000000000000000000000000000000000000000000000000000000000000602082015250565b6000611985602183611047565b915061199082611929565b604082019050919050565b600060208201905081810360008301526119b481611978565b9050919050565b7f45524332303a206275726e20616d6f756e7420657863656564732062616c616e60008201527f6365000000000000000000000000000000000000000000000000000000000000602082015250565b6000611a17602283611047565b9150611a22826119bb565b604082019050919050565b60006020820190508181036000830152611a4681611a0a565b9050919050565b6000611a588261115a565b9150611a638361115a565b925082821015611a7657611a75611388565b5b82820390509291505056fea264697066735822122009cc15f154141b77e793c726f62670ff962f5879a47e01bd43273cf775cb213b64736f6c634300080a0033",
  "immutableReferences": {
    "728": [
      {
        "length": 32,
        "start": 1695
      },
      {
        "length": 32,
        "start": 7726
      },
      {
        "length": 32,
        "start": 7803
      },
      {
        "length": 32,
        "start": 8081
      },
      {
        "length": 32,
        "start": 8135
      },
      {
        "length": 32,
        "start": 8295
      },
      {
        "length": 32,
        "start": 8372
      },
      {
        "length": 32,
        "start": 8831
      },
      {
        "length": 32,
        "start": 8986
      }
    ],
    "730": [
      {
        "length": 32,
        "start": 1203
      },
      {
        "length": 32,
        "start": 1662
      },
      {
        "length": 32,
        "start": 3150
      },
      {
        "length": 32,
        "start": 3670
      },
      {
        "length": 32,
        "start": 3717
      },
      {
        "length": 32,
        "start": 6968
      },
      {
        "length": 32,
        "start": 7639
      },
      {
        "length": 32,
        "start": 8558
      },
      {
        "length": 32,
        "start": 8657
      },
      {
        "length": 32,
        "start": 8798
      },
      {
        "length": 32,
        "start": 8953
      }
    ],
    "732": [
      {
        "length": 32,
        "start": 2252
      },
      {
        "length": 32,
        "start": 2299
      },
      {
        "length": 32,
        "start": 4619
      },
      {
        "length": 32,
        "start": 5266
      },
      {
        "length": 32,
        "start": 6079
      },
      {
        "length": 32,
        "start": 8602
      }
    ],
    "736": [
      {
        "length": 32,
        "start": 8898
      }
    ],
    "738": [
      {
        "length": 32,
        "start": 8743
      }
    ],
    "740": [
      {
        "length": 32,
        "start": 7770
      },
      {
        "length": 32,
        "start": 8048
      },
      {
        "length": 32,
        "start": 8339
      }
    ],
    "742": [
      {
        "length": 32,
        "start": 2339
      }
    ],
    "744": [
      {
        "length": 32,
        "start": 7896
      },
      {
        "length": 32,
        "start": 7952
      },
      {
        "length": 32,
        "start": 7991
      }
    ]
  },
  "source": "// SPDX-License-Identifier: MIT\npragma solidity ^0.8.0;\n\nimport \"./DjedStableCoin.sol\";\nimport \"./DjedReserveCoin.sol\";\n//import \"./ExchangeRateOracle.sol\";\nimport \"./IPriceOracle.sol\";\n\ncontract DjedProtocol {\n    DjedStableCoin public stableCoin;\n    DjedReserveCoin public reserveCoin;\n\n    IPriceOracle oracle;\n\n    uint256 immutable scalingFactor;\n    uint256 immutable scDecimalScalingFactor;\n    uint256 immutable rcDecimalScalingFactor;\n\n    // State variable:\n    uint256 public reserveBC;\n\n    // System parameters:\n    uint256 immutable reserveRatioMin;\n    uint256 immutable reserveRatioMax;\n    uint256 immutable fee;\n    uint256 immutable thresholdNumberSC;\n    uint256 immutable reserveCoinWholeMinimumPriceBC;\n\n    event BoughtStableCoins(address indexed buyer, uint256 amount);\n    event SoldStableCoins(address indexed seller, uint256 amount);\n    event BoughtReserveCoins(address indexed buyer, uint256 amount);\n    event SoldReserveCoins(address indexed seller, uint256 amount);\n\n    event PriceBuySc(uint256 amountSC, uint256 totalBC);\n    event PriceSellSc(uint256 amountSC, uint256 totalBC);\n    event PriceBuyRc(uint256 amountRC, uint256 totalBC);\n    event PriceSellRc(uint256 amountRC, uint256 totalBC);\n\n    event ReceivedBaseCoins(address indexed sender, uint256 amount);\n\n    constructor(\n        uint256 _scalingFactor,\n        uint256 _reserveRatioMin,\n        uint256 _reserveRatioMax,\n        uint256 _fee,\n        uint256 _thresholdNumberSC,\n        uint256 _reserveCoinWholeMinimumPriceBC,\n        address oracleAddress\n    ) payable {\n        reserveBC = msg.value;\n        stableCoin = new DjedStableCoin(address(this));\n        reserveCoin = new DjedReserveCoin(address(this));\n\n        scDecimalScalingFactor = uint256(10)**uint256(stableCoin.decimals());\n        rcDecimalScalingFactor = uint256(10)**uint256(reserveCoin.decimals());\n\n        oracle = IPriceOracle(oracleAddress);\n\n        scalingFactor = _scalingFactor;\n        reserveRatioMin = _reserveRatioMin;\n        reserveRatioMax = _reserveRatioMax;\n        fee = _fee;\n        thresholdNumberSC = _thresholdNumberSC;\n        reserveCoinWholeMinimumPriceBC = _reserveCoinWholeMinimumPriceBC;\n    }\n\n    receive() external payable {\n        reserveBC += msg.value;\n        emit ReceivedBaseCoins(msg.sender, msg.value);\n    }\n\n    fallback() external payable {\n        reserveBC += msg.value;\n        emit ReceivedBaseCoins(msg.sender, msg.value);\n    }\n\n    /// Public trading API:\n\n    // NOTE: the exact amount of BC must be supplied\n    function buyStableCoins() public payable {\n        uint256 numberSC = stableCoin.totalSupply();\n        uint256 scWholeTargetPriceBC = oracle.exchangeRate();\n        uint256 preScWholePriceBC = stableCoinWholePriceBC(\n            numberSC,\n            reserveBC,\n            scWholeTargetPriceBC\n        );\n        uint256 amountSC = getAmountBuyForPrice(\n            msg.value,\n            preScWholePriceBC,\n            scDecimalScalingFactor\n        );\n        uint256 totalBC = getPriceBuyN(\n            amountSC,\n            preScWholePriceBC,\n            scDecimalScalingFactor\n        );\n\n        uint256 postNumberSC = numberSC + amountSC;\n        uint256 postReserveBC = reserveBC + totalBC;\n        uint256 postScWholePriceBC = stableCoinWholePriceBC(\n            postNumberSC,\n            postReserveBC,\n            scWholeTargetPriceBC\n        );\n\n        requireRatioAboveMin(\n            reserveBC,\n            numberSC,\n            preScWholePriceBC,\n            \"SC buy precondition does not hold\"\n        );\n        requireRatioAboveMin(\n            postReserveBC,\n            postNumberSC,\n            postScWholePriceBC,\n            \"SC buy postcondition does not hold\"\n        );\n\n        // The following should always hold assuming the prices are computed correctly:\n        assert(msg.value >= totalBC);\n\n        reserveBC += totalBC;\n        stableCoin.mint(msg.sender, amountSC);\n        emit BoughtStableCoins(msg.sender, amountSC);\n    }\n\n    function sellStableCoins(uint256 amountSC) public payable {\n        uint256 numberSC = stableCoin.totalSupply();\n        uint256 scWholePriceBC = stableCoinWholePriceBC(\n            numberSC,\n            reserveBC,\n            oracle.exchangeRate()\n        );\n        uint256 totalBC = getPriceSellN(\n            amountSC,\n            scWholePriceBC,\n            scDecimalScalingFactor\n        );\n\n        require(\n            stableCoin.balanceOf(msg.sender) >= amountSC,\n            \"Seller has too few SCs\"\n        );\n        require(reserveBC >= totalBC, \"Not enough BCs in reserve\");\n\n        reserveBC -= totalBC;\n        stableCoin.burn(msg.sender, amountSC);\n        payable(msg.sender).transfer(totalBC);\n        emit SoldStableCoins(msg.sender, amountSC);\n    }\n\n    // NOTE: the exact amount of BC must be supplied\n    function buyReserveCoins() public payable {\n        uint256 numberSC = stableCoin.totalSupply();\n        uint256 numberRC = reserveCoin.totalSupply();\n        uint256 scWholeTargetPrice = oracle.exchangeRate();\n        uint256 rcWholePriceBC = reserveCoinWholeBuyPriceBC(\n            numberRC,\n            numberSC,\n            reserveBC,\n            scWholeTargetPrice\n        );\n        uint256 amountRC = getAmountBuyForPrice(\n            msg.value,\n            rcWholePriceBC,\n            rcDecimalScalingFactor\n        );\n        uint256 totalBC = getPriceBuyN(\n            amountRC,\n            rcWholePriceBC,\n            rcDecimalScalingFactor\n        );\n\n        if (numberSC >= thresholdNumberSC) {\n            uint256 preScWholePriceBC = stableCoinWholePriceBC(\n                numberSC,\n                reserveBC,\n                scWholeTargetPrice\n            );\n            uint256 postReserveBC = reserveBC + totalBC;\n            uint256 postScWholePriceBC = stableCoinWholePriceBC(\n                numberSC,\n                postReserveBC,\n                scWholeTargetPrice\n            );\n\n            requireRatioBelowMax(\n                reserveBC,\n                numberSC,\n                preScWholePriceBC,\n                \"RC buy precondition does not hold\"\n            );\n            requireRatioBelowMax(\n                postReserveBC,\n                numberSC,\n                postScWholePriceBC,\n                \"RC buy postcondition does not hold\"\n            );\n        }\n\n        // The following should always hold assuming the prices are computed correctly:\n        require(msg.value >= totalBC, \"Supplied value not equal to expected\");\n\n        reserveBC += totalBC;\n        reserveCoin.mint(msg.sender, amountRC);\n        emit BoughtReserveCoins(msg.sender, amountRC);\n    }\n\n    function sellReserveCoins(uint256 amountRC) public payable {\n        require(\n            reserveCoin.balanceOf(msg.sender) >= amountRC,\n            \"Seller has too few RCs\"\n        );\n        uint256 numberSC = stableCoin.totalSupply();\n        uint256 numberRC = reserveCoin.totalSupply();\n        uint256 scWholeTargetPrice = oracle.exchangeRate();\n        uint256 rcWholePriceBC = reserveCoinWholeTargetPriceBC(\n            numberRC,\n            numberSC,\n            reserveBC,\n            scWholeTargetPrice\n        );\n        uint256 totalBC = getPriceSellN(\n            amountRC,\n            rcWholePriceBC,\n            rcDecimalScalingFactor\n        );\n        uint256 preScWholePriceBC = stableCoinWholePriceBC(\n            numberSC,\n            reserveBC,\n            scWholeTargetPrice\n        );\n        uint256 postReserveBC = reserveBC - totalBC;\n        uint256 postScWholePriceBC = stableCoinWholePriceBC(\n            numberSC,\n            postReserveBC,\n            scWholeTargetPrice\n        );\n\n        requireRatioAboveMin(\n            reserveBC,\n            numberSC,\n            preScWholePriceBC,\n            \"RC sell precondition does not hold\"\n        );\n        requireRatioAboveMin(\n            postReserveBC,\n            numberSC,\n            postScWholePriceBC,\n            \"RC sell postcondition does not hold\"\n        );\n\n        require(reserveBC >= totalBC, \"Not enough BCs in reserve\");\n\n        reserveBC -= totalBC;\n        reserveCoin.burn(msg.sender, amountRC);\n        payable(msg.sender).transfer(totalBC);\n        emit SoldReserveCoins(msg.sender, amountRC);\n    }\n\n    /// Public informative API\n\n    function getPriceBuyNStableCoinsBC(uint256 amountSC)\n        public\n        returns (uint256)\n    {\n        uint256 scWholePriceBC = stableCoinWholePriceBC(\n            stableCoin.totalSupply(),\n            reserveBC,\n            oracle.exchangeRate()\n        );\n        uint256 totalBC = getPriceBuyN(amountSC, scWholePriceBC, scDecimalScalingFactor);\n        emit PriceBuySc(amountSC, totalBC);\n        return totalBC;\n    }\n\n    function getPriceSellNStableCoinsBC(uint256 amountSC)\n        public\n        returns (uint256)\n    {\n        uint256 scWholePriceBC = stableCoinWholePriceBC(\n            stableCoin.totalSupply(),\n            reserveBC,\n            oracle.exchangeRate()\n        );\n        uint256 totalBC = getPriceSellN(amountSC, scWholePriceBC, scDecimalScalingFactor);\n        emit PriceSellSc(amountSC, totalBC);\n        return totalBC;\n    }\n\n    function getPriceBuyNReserveCoinsBC(uint256 amountRC)\n        public\n        returns (uint256)\n    {\n        uint256 rcWholePriceBC = reserveCoinWholeBuyPriceBC(\n            reserveCoin.totalSupply(),\n            stableCoin.totalSupply(),\n            reserveBC,\n            oracle.exchangeRate()\n        );\n        uint256 totalBC = getPriceBuyN(amountRC, rcWholePriceBC, rcDecimalScalingFactor);\n        emit PriceBuyRc(amountRC, totalBC);\n        return totalBC;\n    }\n\n    function getPriceSellNReserveCoinsBC(uint256 amountRC)\n        public\n        returns (uint256)\n    {\n        uint256 numberRC = reserveCoin.totalSupply();\n        require(numberRC > 0, \"No RCs in circulation, undefined price\");\n        uint256 rcWholePriceBC = reserveCoinWholeTargetPriceBC(\n            numberRC,\n            stableCoin.totalSupply(),\n            reserveBC,\n            oracle.exchangeRate()\n        );\n        uint256 totalBC = getPriceSellN(amountRC, rcWholePriceBC, rcDecimalScalingFactor);\n        emit PriceSellRc(amountRC, totalBC);\n        return totalBC;\n    }\n\n    function getReserveRatio() public returns (uint256) {\n        uint256 numberSC = stableCoin.totalSupply();\n        if (numberSC == 0) {\n            return 0;\n        }\n        uint256 scWholePriceBC = stableCoinWholePriceBC(\n            numberSC,\n            reserveBC,\n            oracle.exchangeRate()\n        );\n        return\n            (reserveBC * scalingFactor * scDecimalScalingFactor) /\n            (scWholePriceBC * numberSC);\n    }\n\n    /// Internal utils:\n\n    function requireRatioAboveMin(\n        uint256 _reserveBC,\n        uint256 _numberSC,\n        uint256 _priceScWholeBC,\n        string memory errMsg\n    ) internal view {\n        require(\n            isRatioAboveMin(_reserveBC, _numberSC, _priceScWholeBC),\n            errMsg\n        );\n    }\n\n    function requireRatioBelowMax(\n        uint256 _reserveBC,\n        uint256 _numberSC,\n        uint256 _priceScWholeBC,\n        string memory errMsg\n    ) internal view {\n        require(\n            isRatioBelowMax(_reserveBC, _numberSC, _priceScWholeBC),\n            errMsg\n        );\n    }\n\n    /// Internal calculations:\n\n    function getPriceBuyN(\n        uint256 amount,\n        uint256 unitWholePrice,\n        uint256 decimalScalingFactor\n    ) internal view returns (uint256) {\n        return\n            (amount * (scalingFactor + fee) * unitWholePrice) /\n            (scalingFactor * decimalScalingFactor);\n    }\n\n    function getPriceSellN(\n        uint256 amount,\n        uint256 unitWholePrice,\n        uint256 decimalScalingFactor\n    ) internal view returns (uint256) {\n        return\n            (amount * (scalingFactor - fee) * unitWholePrice) /\n            (scalingFactor * decimalScalingFactor);\n    }\n\n    function getAmountBuyForPrice(\n        uint256 totalBC,\n        uint256 unitWholePrice,\n        uint256 decimalScalingFactor\n    ) internal view returns (uint256) {\n        return\n            (totalBC * scalingFactor * decimalScalingFactor) /\n            ((scalingFactor + fee) * unitWholePrice);\n    }\n\n    function stableCoinWholePriceBC(\n        uint256 numberSC,\n        uint256 _reserveBC,\n        uint256 scWholeTargetPrice\n    ) internal view returns (uint256) {\n        if (numberSC == 0) {\n            return scWholeTargetPrice;\n        }\n\n        uint256 reservePerWholeScBC = (_reserveBC * scDecimalScalingFactor) /\n            numberSC;\n\n        if (reservePerWholeScBC >= scWholeTargetPrice) {\n            return scWholeTargetPrice;\n        } else {\n            return reservePerWholeScBC;\n        }\n    }\n\n    function reserveCoinWholeTargetPriceBC(\n        uint256 numberRC,\n        uint256 numberSC,\n        uint256 _reserveBC,\n        uint256 scWholeTargetPrice\n    ) internal view returns (uint256) {\n        assert(numberRC != 0);\n        return\n            ((_reserveBC *\n                scDecimalScalingFactor -\n                numberSC *\n                stableCoinWholePriceBC(\n                    numberSC,\n                    _reserveBC,\n                    scWholeTargetPrice\n                )) * rcDecimalScalingFactor) /\n            (numberRC * scDecimalScalingFactor);\n    }\n\n    function reserveCoinWholeBuyPriceBC(\n        uint256 numberRC,\n        uint256 numberSC,\n        uint256 _reserveBC,\n        uint256 scWholeTargetPrice\n    ) internal view returns (uint256) {\n        if (numberRC == 0) {\n            return reserveCoinWholeMinimumPriceBC;\n        }\n\n        uint256 rcWholeTargetPriceBC = reserveCoinWholeTargetPriceBC(\n            numberRC,\n            numberSC,\n            _reserveBC,\n            scWholeTargetPrice\n        );\n        if (rcWholeTargetPriceBC <= reserveCoinWholeMinimumPriceBC) {\n            return reserveCoinWholeMinimumPriceBC;\n        } else {\n            return rcWholeTargetPriceBC;\n        }\n    }\n\n    function isRatioAboveMin(\n        uint256 _reserveBC,\n        uint256 _numberSC,\n        uint256 _priceScWholeBC\n    ) internal view returns (bool) {\n        return\n            _reserveBC * scalingFactor * scDecimalScalingFactor >=\n            _numberSC * _priceScWholeBC * reserveRatioMin;\n    }\n\n    function isRatioBelowMax(\n        uint256 _reserveBC,\n        uint256 _numberSC,\n        uint256 _priceScWholeBC\n    ) internal view returns (bool) {\n        return\n            _reserveBC * scalingFactor * scDecimalScalingFactor <=\n            _numberSC * _priceScWholeBC * reserveRatioMax;\n    }\n}\n",
  "sourcePath": "/home/vacuumlabs/git/milkomeda-djed/src/DjedProtocol.sol",
  "compiler": {
    "name": "solc",
    "version": "0.8.10+commit.fc410830.Emscripten.clang"
  },
  "schemaVersion": "3.4.6",
  "updatedAt": "2022-05-19T10:34:51.193Z",
  "networkType": "ethereum",
  "devdoc": {
    "kind": "dev",
    "methods": {},
    "version": 1
  },
  "userdoc": {
    "kind": "user",
    "methods": {
      "buyStableCoins()": {
        "notice": "Public trading API:"
      },
      "getPriceBuyNStableCoinsBC(uint256)": {
        "notice": "Public informative API"
      }
    },
    "version": 1
  }
}