{
  "contractName": "Oracle",
  "abi": [
    {
      "inputs": [
        {
          "internalType": "address",
          "name": "_owner",
          "type": "address"
        },
        {
          "internalType": "string",
          "name": "_description",
          "type": "string"
        },
        {
          "internalType": "uint256",
          "name": "_lockingPeriod",
          "type": "uint256"
        },
        {
          "internalType": "uint256",
          "name": "_baseFee",
          "type": "uint256"
        }
      ],
      "stateMutability": "nonpayable",
      "type": "constructor"
    },
    {
      "anonymous": false,
      "inputs": [
        {
          "indexed": false,
          "internalType": "uint256",
          "name": "writes",
          "type": "uint256"
        },
        {
          "indexed": false,
          "internalType": "uint256",
          "name": "reads",
          "type": "uint256"
        },
        {
          "indexed": false,
          "internalType": "uint256",
          "name": "fee",
          "type": "uint256"
        }
      ],
      "name": "BaseFeeAdjusted",
      "type": "event"
    },
    {
      "anonymous": false,
      "inputs": [
        {
          "indexed": false,
          "internalType": "address",
          "name": "consumer",
          "type": "address"
        },
        {
          "indexed": false,
          "internalType": "uint256",
          "name": "amount",
          "type": "uint256"
        }
      ],
      "name": "CreditDeposited",
      "type": "event"
    },
    {
      "anonymous": false,
      "inputs": [
        {
          "indexed": false,
          "internalType": "address",
          "name": "consumer",
          "type": "address"
        },
        {
          "indexed": false,
          "internalType": "uint256",
          "name": "amount",
          "type": "uint256"
        }
      ],
      "name": "CreditWithdrawn",
      "type": "event"
    },
    {
      "anonymous": false,
      "inputs": [
        {
          "indexed": false,
          "internalType": "address",
          "name": "consumer",
          "type": "address"
        },
        {
          "indexed": false,
          "internalType": "uint256",
          "name": "weight",
          "type": "uint256"
        },
        {
          "indexed": false,
          "internalType": "uint256",
          "name": "data",
          "type": "uint256"
        }
      ],
      "name": "DataRead",
      "type": "event"
    },
    {
      "anonymous": false,
      "inputs": [
        {
          "indexed": false,
          "internalType": "uint256",
          "name": "data",
          "type": "uint256"
        },
        {
          "indexed": false,
          "internalType": "uint256",
          "name": "cost",
          "type": "uint256"
        }
      ],
      "name": "DataWritten",
      "type": "event"
    },
    {
      "anonymous": false,
      "inputs": [
        {
          "indexed": false,
          "internalType": "uint256",
          "name": "maxFee",
          "type": "uint256"
        }
      ],
      "name": "MaxFeeAdjusted",
      "type": "event"
    },
    {
      "anonymous": false,
      "inputs": [
        {
          "indexed": false,
          "internalType": "uint256",
          "name": "maxFeeTimelock",
          "type": "uint256"
        },
        {
          "indexed": false,
          "internalType": "uint256",
          "name": "maxFeeNext",
          "type": "uint256"
        }
      ],
      "name": "MaxFeeAdjustmentScheduled",
      "type": "event"
    },
    {
      "anonymous": false,
      "inputs": [
        {
          "indexed": false,
          "internalType": "address",
          "name": "a",
          "type": "address"
        },
        {
          "indexed": false,
          "internalType": "address",
          "name": "opposer",
          "type": "address"
        }
      ],
      "name": "OppositionAdded",
      "type": "event"
    },
    {
      "anonymous": false,
      "inputs": [
        {
          "indexed": false,
          "internalType": "address",
          "name": "a",
          "type": "address"
        },
        {
          "indexed": false,
          "internalType": "address",
          "name": "opposer",
          "type": "address"
        }
      ],
      "name": "OppositionRemoved",
      "type": "event"
    },
    {
      "anonymous": false,
      "inputs": [
        {
          "indexed": false,
          "internalType": "address",
          "name": "a",
          "type": "address"
        }
      ],
      "name": "OwnerAdded",
      "type": "event"
    },
    {
      "anonymous": false,
      "inputs": [
        {
          "indexed": false,
          "internalType": "address",
          "name": "a",
          "type": "address"
        }
      ],
      "name": "OwnerRemoved",
      "type": "event"
    },
    {
      "anonymous": false,
      "inputs": [
        {
          "indexed": false,
          "internalType": "uint256",
          "name": "cost",
          "type": "uint256"
        },
        {
          "indexed": false,
          "internalType": "uint256",
          "name": "revenue",
          "type": "uint256"
        }
      ],
      "name": "Reset",
      "type": "event"
    },
    {
      "anonymous": false,
      "inputs": [
        {
          "indexed": false,
          "internalType": "address",
          "name": "receiver",
          "type": "address"
        },
        {
          "indexed": false,
          "internalType": "uint256",
          "name": "amount",
          "type": "uint256"
        }
      ],
      "name": "RevenueWithdrawn",
      "type": "event"
    },
    {
      "anonymous": false,
      "inputs": [
        {
          "indexed": false,
          "internalType": "address",
          "name": "a",
          "type": "address"
        },
        {
          "indexed": false,
          "internalType": "address",
          "name": "supporter",
          "type": "address"
        }
      ],
      "name": "SupportAdded",
      "type": "event"
    },
    {
      "anonymous": false,
      "inputs": [
        {
          "indexed": false,
          "internalType": "address",
          "name": "a",
          "type": "address"
        },
        {
          "indexed": false,
          "internalType": "address",
          "name": "supporter",
          "type": "address"
        }
      ],
      "name": "SupportRemoved",
      "type": "event"
    },
    {
      "anonymous": false,
      "inputs": [
        {
          "indexed": false,
          "internalType": "address",
          "name": "consumer",
          "type": "address"
        },
        {
          "indexed": false,
          "internalType": "uint256",
          "name": "weight",
          "type": "uint256"
        }
      ],
      "name": "WeightAdjusted",
      "type": "event"
    },
    {
      "anonymous": false,
      "inputs": [
        {
          "indexed": false,
          "internalType": "address",
          "name": "consumer",
          "type": "address"
        },
        {
          "indexed": false,
          "internalType": "uint256",
          "name": "weightTimelock",
          "type": "uint256"
        },
        {
          "indexed": false,
          "internalType": "uint256",
          "name": "weightNext",
          "type": "uint256"
        }
      ],
      "name": "WeightAdjustmentScheduled",
      "type": "event"
    },
    {
      "inputs": [
        {
          "internalType": "address",
          "name": "a",
          "type": "address"
        }
      ],
      "name": "add",
      "outputs": [],
      "stateMutability": "nonpayable",
      "type": "function"
    },
    {
      "inputs": [],
      "name": "baseFee",
      "outputs": [
        {
          "internalType": "uint256",
          "name": "",
          "type": "uint256"
        }
      ],
      "stateMutability": "view",
      "type": "function",
      "constant": true
    },
    {
      "inputs": [],
      "name": "description",
      "outputs": [
        {
          "internalType": "string",
          "name": "",
          "type": "string"
        }
      ],
      "stateMutability": "view",
      "type": "function",
      "constant": true
    },
    {
      "inputs": [],
      "name": "latestCost",
      "outputs": [
        {
          "internalType": "uint256",
          "name": "",
          "type": "uint256"
        }
      ],
      "stateMutability": "view",
      "type": "function",
      "constant": true
    },
    {
      "inputs": [],
      "name": "latestWrite",
      "outputs": [
        {
          "internalType": "uint256",
          "name": "",
          "type": "uint256"
        }
      ],
      "stateMutability": "view",
      "type": "function",
      "constant": true
    },
    {
      "inputs": [],
      "name": "lockingPeriod",
      "outputs": [
        {
          "internalType": "uint256",
          "name": "",
          "type": "uint256"
        }
      ],
      "stateMutability": "view",
      "type": "function",
      "constant": true
    },
    {
      "inputs": [],
      "name": "maxFee",
      "outputs": [
        {
          "internalType": "uint256",
          "name": "",
          "type": "uint256"
        }
      ],
      "stateMutability": "view",
      "type": "function",
      "constant": true
    },
    {
      "inputs": [],
      "name": "maxFeeNext",
      "outputs": [
        {
          "internalType": "uint256",
          "name": "",
          "type": "uint256"
        }
      ],
      "stateMutability": "view",
      "type": "function",
      "constant": true
    },
    {
      "inputs": [],
      "name": "maxFeeTimelock",
      "outputs": [
        {
          "internalType": "uint256",
          "name": "",
          "type": "uint256"
        }
      ],
      "stateMutability": "view",
      "type": "function",
      "constant": true
    },
    {
      "inputs": [
        {
          "internalType": "address",
          "name": "a",
          "type": "address"
        }
      ],
      "name": "oppose",
      "outputs": [],
      "stateMutability": "nonpayable",
      "type": "function"
    },
    {
      "inputs": [
        {
          "internalType": "address",
          "name": "a",
          "type": "address"
        }
      ],
      "name": "remove",
      "outputs": [],
      "stateMutability": "nonpayable",
      "type": "function"
    },
    {
      "inputs": [],
      "name": "scaling",
      "outputs": [
        {
          "internalType": "uint256",
          "name": "",
          "type": "uint256"
        }
      ],
      "stateMutability": "view",
      "type": "function",
      "constant": true
    },
    {
      "inputs": [
        {
          "internalType": "address",
          "name": "a",
          "type": "address"
        }
      ],
      "name": "support",
      "outputs": [],
      "stateMutability": "nonpayable",
      "type": "function"
    },
    {
      "inputs": [],
      "name": "totalCredit",
      "outputs": [
        {
          "internalType": "uint256",
          "name": "",
          "type": "uint256"
        }
      ],
      "stateMutability": "view",
      "type": "function",
      "constant": true
    },
    {
      "inputs": [
        {
          "internalType": "address",
          "name": "a",
          "type": "address"
        }
      ],
      "name": "unoppose",
      "outputs": [],
      "stateMutability": "nonpayable",
      "type": "function"
    },
    {
      "inputs": [
        {
          "internalType": "address",
          "name": "a",
          "type": "address"
        }
      ],
      "name": "unsupport",
      "outputs": [],
      "stateMutability": "nonpayable",
      "type": "function"
    },
    {
      "inputs": [
        {
          "internalType": "uint256",
          "name": "_data",
          "type": "uint256"
        },
        {
          "internalType": "uint256",
          "name": "cost",
          "type": "uint256"
        }
      ],
      "name": "writeData",
      "outputs": [],
      "stateMutability": "nonpayable",
      "type": "function"
    },
    {
      "inputs": [],
      "name": "readData",
      "outputs": [
        {
          "internalType": "uint256",
          "name": "",
          "type": "uint256"
        }
      ],
      "stateMutability": "nonpayable",
      "type": "function"
    },
    {
      "inputs": [],
      "name": "inspectData",
      "outputs": [
        {
          "internalType": "uint256",
          "name": "",
          "type": "uint256"
        }
      ],
      "stateMutability": "view",
      "type": "function",
      "constant": true
    },
    {
      "inputs": [
        {
          "internalType": "address",
          "name": "consumer",
          "type": "address"
        }
      ],
      "name": "creditOf",
      "outputs": [
        {
          "internalType": "uint256",
          "name": "",
          "type": "uint256"
        }
      ],
      "stateMutability": "view",
      "type": "function",
      "constant": true
    },
    {
      "inputs": [
        {
          "internalType": "address",
          "name": "consumer",
          "type": "address"
        }
      ],
      "name": "weightOf",
      "outputs": [
        {
          "internalType": "uint256",
          "name": "",
          "type": "uint256"
        }
      ],
      "stateMutability": "view",
      "type": "function",
      "constant": true
    },
    {
      "inputs": [
        {
          "internalType": "address",
          "name": "consumer",
          "type": "address"
        }
      ],
      "name": "feeOf",
      "outputs": [
        {
          "internalType": "uint256",
          "name": "",
          "type": "uint256"
        }
      ],
      "stateMutability": "view",
      "type": "function",
      "constant": true
    },
    {
      "inputs": [
        {
          "internalType": "address",
          "name": "consumer",
          "type": "address"
        },
        {
          "internalType": "uint256",
          "name": "_weightNext",
          "type": "uint256"
        }
      ],
      "name": "scheduleWeightAdjustment",
      "outputs": [],
      "stateMutability": "nonpayable",
      "type": "function"
    },
    {
      "inputs": [
        {
          "internalType": "address",
          "name": "consumer",
          "type": "address"
        }
      ],
      "name": "adjustWeight",
      "outputs": [],
      "stateMutability": "nonpayable",
      "type": "function"
    },
    {
      "inputs": [
        {
          "internalType": "uint256",
          "name": "_maxFeeNext",
          "type": "uint256"
        }
      ],
      "name": "scheduleMaxFeeAdjustment",
      "outputs": [],
      "stateMutability": "nonpayable",
      "type": "function"
    },
    {
      "inputs": [],
      "name": "adjustMaxFee",
      "outputs": [],
      "stateMutability": "nonpayable",
      "type": "function"
    },
    {
      "inputs": [],
      "name": "adjustBaseFee",
      "outputs": [],
      "stateMutability": "nonpayable",
      "type": "function"
    },
    {
      "inputs": [
        {
          "internalType": "address",
          "name": "consumer",
          "type": "address"
        }
      ],
      "name": "depositCredit",
      "outputs": [],
      "stateMutability": "payable",
      "type": "function",
      "payable": true
    },
    {
      "inputs": [
        {
          "internalType": "uint256",
          "name": "amount",
          "type": "uint256"
        }
      ],
      "name": "withdrawCredit",
      "outputs": [],
      "stateMutability": "nonpayable",
      "type": "function"
    },
    {
      "inputs": [
        {
          "internalType": "address",
          "name": "receiver",
          "type": "address"
        },
        {
          "internalType": "uint256",
          "name": "amount",
          "type": "uint256"
        }
      ],
      "name": "withdraw",
      "outputs": [],
      "stateMutability": "nonpayable",
      "type": "function"
    },
    {
      "inputs": [],
      "name": "resetCostAndRevenue",
      "outputs": [],
      "stateMutability": "nonpayable",
      "type": "function"
    }
  ],
  "bytecode": "0x60a06040526000600a556000600b556000600c556000600d5560006014553480156200002a57600080fd5b5060405162003d7738038062003d77833981810160405281019062000050919062000323565b836001808190555060016000808373ffffffffffffffffffffffffffffffffffffffff1673ffffffffffffffffffffffffffffffffffffffff16815260200190815260200160002060006101000a81548160ff021916908315150217905550508260089081620000c19190620005f5565b50816080818152505080600e81905550600381620000e091906200070b565b600f81905550505050506200076c565b6000604051905090565b600080fd5b600080fd5b600073ffffffffffffffffffffffffffffffffffffffff82169050919050565b6000620001318262000104565b9050919050565b620001438162000124565b81146200014f57600080fd5b50565b600081519050620001638162000138565b92915050565b600080fd5b600080fd5b6000601f19601f8301169050919050565b7f4e487b7100000000000000000000000000000000000000000000000000000000600052604160045260246000fd5b620001be8262000173565b810181811067ffffffffffffffff82111715620001e057620001df62000184565b5b80604052505050565b6000620001f5620000f0565b9050620002038282620001b3565b919050565b600067ffffffffffffffff82111562000226576200022562000184565b5b620002318262000173565b9050602081019050919050565b60005b838110156200025e57808201518184015260208101905062000241565b60008484015250505050565b6000620002816200027b8462000208565b620001e9565b905082815260208101848484011115620002a0576200029f6200016e565b5b620002ad8482856200023e565b509392505050565b600082601f830112620002cd57620002cc62000169565b5b8151620002df8482602086016200026a565b91505092915050565b6000819050919050565b620002fd81620002e8565b81146200030957600080fd5b50565b6000815190506200031d81620002f2565b92915050565b6000806000806080858703121562000340576200033f620000fa565b5b6000620003508782880162000152565b945050602085015167ffffffffffffffff811115620003745762000373620000ff565b5b6200038287828801620002b5565b935050604062000395878288016200030c565b9250506060620003a8878288016200030c565b91505092959194509250565b600081519050919050565b7f4e487b7100000000000000000000000000000000000000000000000000000000600052602260045260246000fd5b600060028204905060018216806200040757607f821691505b6020821081036200041d576200041c620003bf565b5b50919050565b60008190508160005260206000209050919050565b60006020601f8301049050919050565b600082821b905092915050565b600060088302620004877fffffffffffffffffffffffffffffffffffffffffffffffffffffffffffffffff8262000448565b62000493868362000448565b95508019841693508086168417925050509392505050565b6000819050919050565b6000620004d6620004d0620004ca84620002e8565b620004ab565b620002e8565b9050919050565b6000819050919050565b620004f283620004b5565b6200050a6200050182620004dd565b84845462000455565b825550505050565b600090565b6200052162000512565b6200052e818484620004e7565b505050565b5b8181101562000556576200054a60008262000517565b60018101905062000534565b5050565b601f821115620005a5576200056f8162000423565b6200057a8462000438565b810160208510156200058a578190505b620005a2620005998562000438565b83018262000533565b50505b505050565b600082821c905092915050565b6000620005ca60001984600802620005aa565b1980831691505092915050565b6000620005e58383620005b7565b9150826002028217905092915050565b6200060082620003b4565b67ffffffffffffffff8111156200061c576200061b62000184565b5b620006288254620003ee565b620006358282856200055a565b600060209050601f8311600181146200066d576000841562000658578287015190505b620006648582620005d7565b865550620006d4565b601f1984166200067d8662000423565b60005b82811015620006a75784890151825560018201915060208501945060208101905062000680565b86831015620006c75784890151620006c3601f891682620005b7565b8355505b6001600288020188555050505b505050505050565b7f4e487b7100000000000000000000000000000000000000000000000000000000600052601160045260246000fd5b60006200071882620002e8565b91506200072583620002e8565b9250817fffffffffffffffffffffffffffffffffffffffffffffffffffffffffffffffff0483118215151615620007615762000760620006dc565b5b828202905092915050565b6080516135e16200079660003960008181610ed501528181611368015261158801526135e16000f3fe6080604052600436106101d85760003560e01c80639d61ab3511610102578063cbfa3c9c11610095578063ef6f886a11610064578063ef6f886a1461063f578063f3fef3a314610668578063f7cbc39014610691578063ff8c51b9146106ba576101d8565b8063cbfa3c9c14610597578063dd4bc101146105c2578063ddee192f146105ff578063e660cc0814610616576101d8565b8063b2958501116100d1578063b2958501146104ef578063bc7f292514610518578063bef55ef314610543578063c71ba63b1461056e576101d8565b80639d61ab3514610459578063a161d08814610484578063a43d6404146104ad578063acdfe255146104d8576101d8565b806349fdfb581161017a5780637284e416116101495780637284e416146103b157806375807250146103dc5780637cff0fc514610419578063812035e214610430576101d8565b806349fdfb5814610316578063550066d51461033257806367d6aeb31461035d5780636ef25c3a14610386576101d8565b806325dddba4116101b657806325dddba41461025c57806329092d0e146102995780633fc9d621146102c257806343835a6c146102eb576101d8565b806301f59d16146101dd5780630a3b0a4f1461020857806322588d2114610231575b600080fd5b3480156101e957600080fd5b506101f26106e5565b6040516101ff9190612c3f565b60405180910390f35b34801561021457600080fd5b5061022f600480360381019061022a9190612cbd565b6106eb565b005b34801561023d57600080fd5b506102466108b2565b6040516102539190612c3f565b60405180910390f35b34801561026857600080fd5b50610283600480360381019061027e9190612cbd565b6108b8565b6040516102909190612c3f565b60405180910390f35b3480156102a557600080fd5b506102c060048036038101906102bb9190612cbd565b6108d3565b005b3480156102ce57600080fd5b506102e960048036038101906102e49190612cbd565b610cfb565b005b3480156102f757600080fd5b50610300610d93565b60405161030d9190612c3f565b60405180910390f35b610330600480360381019061032b9190612cbd565b610e28565b005b34801561033e57600080fd5b50610347610ed3565b6040516103549190612c3f565b60405180910390f35b34801561036957600080fd5b50610384600480360381019061037f9190612cbd565b610ef7565b005b34801561039257600080fd5b5061039b610f8f565b6040516103a89190612c3f565b60405180910390f35b3480156103bd57600080fd5b506103c6610f95565b6040516103d39190612d7a565b60405180910390f35b3480156103e857600080fd5b5061040360048036038101906103fe9190612cbd565b611023565b6040516104109190612c3f565b60405180910390f35b34801561042557600080fd5b5061042e61106c565b005b34801561043c57600080fd5b5061045760048036038101906104529190612cbd565b611103565b005b34801561046557600080fd5b5061046e6112d5565b60405161047b9190612c3f565b60405180910390f35b34801561049057600080fd5b506104ab60048036038101906104a69190612dc8565b6112db565b005b3480156104b957600080fd5b506104c26113df565b6040516104cf9190612c3f565b60405180910390f35b3480156104e457600080fd5b506104ed6113e5565b005b3480156104fb57600080fd5b5061051660048036038101906105119190612df5565b6114f9565b005b34801561052457600080fd5b5061052d61167c565b60405161053a9190612c3f565b60405180910390f35b34801561054f57600080fd5b50610558611682565b6040516105659190612c3f565b60405180910390f35b34801561057a57600080fd5b5061059560048036038101906105909190612e35565b611833565b005b3480156105a357600080fd5b506105ac61193e565b6040516105b99190612c3f565b60405180910390f35b3480156105ce57600080fd5b506105e960048036038101906105e49190612cbd565b61194a565b6040516105f69190612c3f565b60405180910390f35b34801561060b57600080fd5b50610614611993565b005b34801561062257600080fd5b5061063d60048036038101906106389190612cbd565b611a3e565b005b34801561064b57600080fd5b5061066660048036038101906106619190612dc8565b611de9565b005b34801561067457600080fd5b5061068f600480360381019061068a9190612df5565b611f5d565b005b34801561069d57600080fd5b506106b860048036038101906106b39190612cbd565b6120bc565b005b3480156106c657600080fd5b506106cf612466565b6040516106dc9190612c3f565b60405180910390f35b600f5481565b806000808273ffffffffffffffffffffffffffffffffffffffff1673ffffffffffffffffffffffffffffffffffffffff16815260200190815260200160002060009054906101000a900460ff1615610778576040517f08c379a000000000000000000000000000000000000000000000000000000000815260040161076f90612ec1565b60405180910390fd5b60026001546107879190612f3f565b600260008473ffffffffffffffffffffffffffffffffffffffff1673ffffffffffffffffffffffffffffffffffffffff1681526020019081526020016000205411610807576040517f08c379a00000000000000000000000000000000000000000000000000000000081526004016107fe90612fbc565b60405180910390fd5b60018060008282546108199190612fdc565b9250508190555060016000808473ffffffffffffffffffffffffffffffffffffffff1673ffffffffffffffffffffffffffffffffffffffff16815260200190815260200160002060006101000a81548160ff0219169083151502179055507f994a936646fe87ffe4f1e469d3d6aa417d6b855598397f323de5b449f765f0c3826040516108a6919061301f565b60405180910390a15050565b60105481565b60006108cc826108c78461194a565b61246c565b9050919050565b806000808273ffffffffffffffffffffffffffffffffffffffff1673ffffffffffffffffffffffffffffffffffffffff16815260200190815260200160002060009054906101000a900460ff1661095f576040517f08c379a000000000000000000000000000000000000000000000000000000000815260040161095690613086565b60405180910390fd5b600260015461096e9190612f3f565b600360008473ffffffffffffffffffffffffffffffffffffffff1673ffffffffffffffffffffffffffffffffffffffff16815260200190815260200160002054116109ee576040517f08c379a00000000000000000000000000000000000000000000000000000000081526004016109e590612fbc565b60405180910390fd5b6001806000828254610a0091906130a6565b9250508190555060005b600660008473ffffffffffffffffffffffffffffffffffffffff1673ffffffffffffffffffffffffffffffffffffffff16815260200190815260200160002080549050811015610aec57610ad9600660008573ffffffffffffffffffffffffffffffffffffffff1673ffffffffffffffffffffffffffffffffffffffff1681526020019081526020016000208281548110610aa857610aa76130da565b5b9060005260206000200160009054906101000a900473ffffffffffffffffffffffffffffffffffffffff16846124d4565b8080610ae490613109565b915050610a0a565b50600660008373ffffffffffffffffffffffffffffffffffffffff1673ffffffffffffffffffffffffffffffffffffffff1681526020019081526020016000206000610b389190612be8565b60005b600760008473ffffffffffffffffffffffffffffffffffffffff1673ffffffffffffffffffffffffffffffffffffffff16815260200190815260200160002080549050811015610c1d57610c0a600760008573ffffffffffffffffffffffffffffffffffffffff1673ffffffffffffffffffffffffffffffffffffffff1681526020019081526020016000208281548110610bd957610bd86130da565b5b9060005260206000200160009054906101000a900473ffffffffffffffffffffffffffffffffffffffff1684612763565b8080610c1590613109565b915050610b3b565b50600760008373ffffffffffffffffffffffffffffffffffffffff1673ffffffffffffffffffffffffffffffffffffffff1681526020019081526020016000206000610c699190612be8565b60008060008473ffffffffffffffffffffffffffffffffffffffff1673ffffffffffffffffffffffffffffffffffffffff16815260200190815260200160002060006101000a81548160ff0219169083151502179055507f58619076adf5bb0943d100ef88d52d7c3fd691b19d3a9071b555b651fbf418da82604051610cef919061301f565b60405180910390a15050565b6000803373ffffffffffffffffffffffffffffffffffffffff1673ffffffffffffffffffffffffffffffffffffffff16815260200190815260200160002060009054906101000a900460ff16610d86576040517f08c379a0000000000000000000000000000000000000000000000000000000008152600401610d7d9061319d565b60405180910390fd5b610d9081336124d4565b50565b60008060003373ffffffffffffffffffffffffffffffffffffffff1673ffffffffffffffffffffffffffffffffffffffff16815260200190815260200160002060009054906101000a900460ff16610e20576040517f08c379a0000000000000000000000000000000000000000000000000000000008152600401610e179061319d565b60405180910390fd5b600954905090565b34601560008373ffffffffffffffffffffffffffffffffffffffff1673ffffffffffffffffffffffffffffffffffffffff1681526020019081526020016000206000828254610e779190612fdc565b925050819055503460146000828254610e909190612fdc565b925050819055507f2f278cf5a42176fbdf59ee579498869d5c3005156b7a8013c5adc90797a086c58134604051610ec89291906131bd565b60405180910390a150565b7f000000000000000000000000000000000000000000000000000000000000000081565b6000803373ffffffffffffffffffffffffffffffffffffffff1673ffffffffffffffffffffffffffffffffffffffff16815260200190815260200160002060009054906101000a900460ff16610f82576040517f08c379a0000000000000000000000000000000000000000000000000000000008152600401610f799061319d565b60405180910390fd5b610f8c8133612763565b50565b600e5481565b60088054610fa290613215565b80601f0160208091040260200160405190810160405280929190818152602001828054610fce90613215565b801561101b5780601f10610ff05761010080835404028352916020019161101b565b820191906000526020600020905b815481529060010190602001808311610ffe57829003601f168201915b505050505081565b6000601560008373ffffffffffffffffffffffffffffffffffffffff1673ffffffffffffffffffffffffffffffffffffffff168152602001908152602001600020549050919050565b7f5ae2e83411b15aef3c1609c37f90fc7c912666cfac3ba72a9ba900a39c5bfaa3600a54600b546040516110a1929190613246565b60405180910390a1600b54600a5411156110dd57600b54600a60008282546110c991906130a6565b925050819055506000600b81905550611101565b600a54600b60008282546110f191906130a6565b925050819055506000600a819055505b565b6000803373ffffffffffffffffffffffffffffffffffffffff1673ffffffffffffffffffffffffffffffffffffffff16815260200190815260200160002060009054906101000a900460ff1661118e576040517f08c379a00000000000000000000000000000000000000000000000000000000081526004016111859061319d565b60405180910390fd5b601960008273ffffffffffffffffffffffffffffffffffffffff1673ffffffffffffffffffffffffffffffffffffffff16815260200190815260200160002054421015611210576040517f08c379a0000000000000000000000000000000000000000000000000000000008152600401611207906132bb565b60405180910390fd5b6000601860008373ffffffffffffffffffffffffffffffffffffffff1673ffffffffffffffffffffffffffffffffffffffff16815260200190815260200160002054905080601760008473ffffffffffffffffffffffffffffffffffffffff1673ffffffffffffffffffffffffffffffffffffffff168152602001908152602001600020819055507ff457312d77aa724190c6961073d18cdabdb4c610f46bc9679c153738180c1e4882826040516112c99291906131bd565b60405180910390a15050565b60115481565b6000803373ffffffffffffffffffffffffffffffffffffffff1673ffffffffffffffffffffffffffffffffffffffff16815260200190815260200160002060009054906101000a900460ff16611366576040517f08c379a000000000000000000000000000000000000000000000000000000000815260040161135d9061319d565b60405180910390fd5b7f0000000000000000000000000000000000000000000000000000000000000000426113929190612fdc565b601181905550806010819055507fd05ff85280ce31a64abd90c4bb911d84b3a96742acbf1bad123828c5029fedfb6011546010546040516113d4929190613246565b60405180910390a150565b60145481565b6000803373ffffffffffffffffffffffffffffffffffffffff1673ffffffffffffffffffffffffffffffffffffffff16815260200190815260200160002060009054906101000a900460ff16611470576040517f08c379a00000000000000000000000000000000000000000000000000000000081526004016114679061319d565b60405180910390fd5b6011544210156114b5576040517f08c379a00000000000000000000000000000000000000000000000000000000081526004016114ac906132bb565b60405180910390fd5b601054600f819055507f08469e8bd7ea4f066203be1e316190e4aa6cf2f3ba37dc2e91b57c40949a9d46600f546040516114ef9190612c3f565b60405180910390a1565b6000803373ffffffffffffffffffffffffffffffffffffffff1673ffffffffffffffffffffffffffffffffffffffff16815260200190815260200160002060009054906101000a900460ff16611584576040517f08c379a000000000000000000000000000000000000000000000000000000000815260040161157b9061319d565b60405180910390fd5b60007f0000000000000000000000000000000000000000000000000000000000000000426115b29190612fdc565b905080601960008573ffffffffffffffffffffffffffffffffffffffff1673ffffffffffffffffffffffffffffffffffffffff1681526020019081526020016000208190555081601860008573ffffffffffffffffffffffffffffffffffffffff1673ffffffffffffffffffffffffffffffffffffffff168152602001908152602001600020819055507fe43cbf9eca83a4940ed48969b421f37c7c14904fe7332cd4da4e08b7b01ac60183828460405161166f939291906132db565b60405180910390a1505050565b60135481565b60008061168e3361194a565b9050600061169c338361246c565b905080601560003373ffffffffffffffffffffffffffffffffffffffff1673ffffffffffffffffffffffffffffffffffffffff168152602001908152602001600020541015611720576040517f08c379a00000000000000000000000000000000000000000000000000000000081526004016117179061335e565b60405180910390fd5b80601560003373ffffffffffffffffffffffffffffffffffffffff1673ffffffffffffffffffffffffffffffffffffffff168152602001908152602001600020600082825461176f91906130a6565b9250508190555081600d60008282546117889190612fdc565b9250508190555080600b60008282546117a19190612fdc565b9250508190555042601660003373ffffffffffffffffffffffffffffffffffffffff1673ffffffffffffffffffffffffffffffffffffffff168152602001908152602001600020819055507f0b841b0dd45a0ceb3028a50d58ac2563abc277ee39d4891235612bd8154c30693383600954604051611821939291906132db565b60405180910390a16009549250505090565b6000803373ffffffffffffffffffffffffffffffffffffffff1673ffffffffffffffffffffffffffffffffffffffff16815260200190815260200160002060009054906101000a900460ff166118be576040517f08c379a00000000000000000000000000000000000000000000000000000000081526004016118b59061319d565b60405180910390fd5b6001600c60008282546118d19190612fdc565b92505081905550816009819055504260138190555080600a60008282546118f89190612fdc565b925050819055507f36c0e38a11934bb6e80e00c4ae42212be021022fdb5aff12c53720f1d951c28160095482604051611932929190613246565b60405180910390a15050565b670de0b6b3a764000081565b6000601760008373ffffffffffffffffffffffffffffffffffffffff1673ffffffffffffffffffffffffffffffffffffffff168152602001908152602001600020549050919050565b6119e56000600d54036119a75760016119ab565b600d545b6119d3600a54600c546012546119c1919061337e565b6119cb9190612fdc565b600b546129f1565b6119dd9190612f3f565b600f54612a16565b600e819055507f11ae82e96e5463f0bace04bd352539e862763064581bf1ebd4ae4ff675d02c4c600c54600d54600e54604051611a24939291906133d8565b60405180910390a16000600c819055506000600d81905550565b6000803373ffffffffffffffffffffffffffffffffffffffff1673ffffffffffffffffffffffffffffffffffffffff16815260200190815260200160002060009054906101000a900460ff16611ac9576040517f08c379a0000000000000000000000000000000000000000000000000000000008152600401611ac09061319d565b60405180910390fd5b806000808273ffffffffffffffffffffffffffffffffffffffff1673ffffffffffffffffffffffffffffffffffffffff16815260200190815260200160002060009054906101000a900460ff1615611b56576040517f08c379a0000000000000000000000000000000000000000000000000000000008152600401611b4d90612ec1565b60405180910390fd5b600460008373ffffffffffffffffffffffffffffffffffffffff1673ffffffffffffffffffffffffffffffffffffffff16815260200190815260200160002060003373ffffffffffffffffffffffffffffffffffffffff1673ffffffffffffffffffffffffffffffffffffffff16815260200190815260200160002060009054906101000a900460ff1615611c20576040517f08c379a0000000000000000000000000000000000000000000000000000000008152600401611c179061345b565b60405180910390fd5b6001600260008473ffffffffffffffffffffffffffffffffffffffff1673ffffffffffffffffffffffffffffffffffffffff1681526020019081526020016000206000828254611c709190612fdc565b925050819055506001600460008473ffffffffffffffffffffffffffffffffffffffff1673ffffffffffffffffffffffffffffffffffffffff16815260200190815260200160002060003373ffffffffffffffffffffffffffffffffffffffff1673ffffffffffffffffffffffffffffffffffffffff16815260200190815260200160002060006101000a81548160ff021916908315150217905550600660003373ffffffffffffffffffffffffffffffffffffffff1673ffffffffffffffffffffffffffffffffffffffff168152602001908152602001600020829080600181540180825580915050600190039060005260206000200160009091909190916101000a81548173ffffffffffffffffffffffffffffffffffffffff021916908373ffffffffffffffffffffffffffffffffffffffff1602179055507fae71767aad8e36528115dfc29d644823b7a154873b9cd22fe1fbceb074b86bd68233604051611ddd92919061347b565b60405180910390a15050565b80601560003373ffffffffffffffffffffffffffffffffffffffff1673ffffffffffffffffffffffffffffffffffffffff168152602001908152602001600020541015611e6b576040517f08c379a0000000000000000000000000000000000000000000000000000000008152600401611e629061335e565b60405180910390fd5b80601560003373ffffffffffffffffffffffffffffffffffffffff1673ffffffffffffffffffffffffffffffffffffffff1681526020019081526020016000206000828254611eba91906130a6565b925050819055508060146000828254611ed391906130a6565b925050819055503373ffffffffffffffffffffffffffffffffffffffff166108fc829081150290604051600060405180830381858888f19350505050158015611f20573d6000803e3d6000fd5b507f6b00960292e7976c9eb5434816470b38a441061eee645921536131ccb937cafe3382604051611f529291906131bd565b60405180910390a150565b6000803373ffffffffffffffffffffffffffffffffffffffff1673ffffffffffffffffffffffffffffffffffffffff16815260200190815260200160002060009054906101000a900460ff16611fe8576040517f08c379a0000000000000000000000000000000000000000000000000000000008152600401611fdf9061319d565b60405180910390fd5b8060145447611ff791906130a6565b1015612038576040517f08c379a000000000000000000000000000000000000000000000000000000000815260040161202f906134f0565b60405180910390fd5b8173ffffffffffffffffffffffffffffffffffffffff166108fc829081150290604051600060405180830381858888f1935050505015801561207e573d6000803e3d6000fd5b507f86a5cc8fe9af9ae68fb50f62885307a7755a30cbd290131644377f0bd94a718182826040516120b09291906131bd565b60405180910390a15050565b6000803373ffffffffffffffffffffffffffffffffffffffff1673ffffffffffffffffffffffffffffffffffffffff16815260200190815260200160002060009054906101000a900460ff16612147576040517f08c379a000000000000000000000000000000000000000000000000000000000815260040161213e9061319d565b60405180910390fd5b806000808273ffffffffffffffffffffffffffffffffffffffff1673ffffffffffffffffffffffffffffffffffffffff16815260200190815260200160002060009054906101000a900460ff166121d3576040517f08c379a00000000000000000000000000000000000000000000000000000000081526004016121ca90613086565b60405180910390fd5b600560008373ffffffffffffffffffffffffffffffffffffffff1673ffffffffffffffffffffffffffffffffffffffff16815260200190815260200160002060003373ffffffffffffffffffffffffffffffffffffffff1673ffffffffffffffffffffffffffffffffffffffff16815260200190815260200160002060009054906101000a900460ff161561229d576040517f08c379a00000000000000000000000000000000000000000000000000000000081526004016122949061355c565b60405180910390fd5b6001600360008473ffffffffffffffffffffffffffffffffffffffff1673ffffffffffffffffffffffffffffffffffffffff16815260200190815260200160002060008282546122ed9190612fdc565b925050819055506001600560008473ffffffffffffffffffffffffffffffffffffffff1673ffffffffffffffffffffffffffffffffffffffff16815260200190815260200160002060003373ffffffffffffffffffffffffffffffffffffffff1673ffffffffffffffffffffffffffffffffffffffff16815260200190815260200160002060006101000a81548160ff021916908315150217905550600760003373ffffffffffffffffffffffffffffffffffffffff1673ffffffffffffffffffffffffffffffffffffffff168152602001908152602001600020829080600181540180825580915050600190039060005260206000200160009091909190916101000a81548173ffffffffffffffffffffffffffffffffffffffff021916908373ffffffffffffffffffffffffffffffffffffffff1602179055507fdaefd7e1f1c540ac266ada14d14c3ed3bf4ab7a722d1ff85578a40f573a0c877823360405161245a92919061347b565b60405180910390a15050565b60125481565b6000601354601660008573ffffffffffffffffffffffffffffffffffffffff1673ffffffffffffffffffffffffffffffffffffffff16815260200190815260200160002054116124c957600e54826124c4919061337e565b6124cc565b60005b905092915050565b816000808273ffffffffffffffffffffffffffffffffffffffff1673ffffffffffffffffffffffffffffffffffffffff16815260200190815260200160002060009054906101000a900460ff1615612561576040517f08c379a000000000000000000000000000000000000000000000000000000000815260040161255890612ec1565b60405180910390fd5b600460008473ffffffffffffffffffffffffffffffffffffffff1673ffffffffffffffffffffffffffffffffffffffff16815260200190815260200160002060008373ffffffffffffffffffffffffffffffffffffffff1673ffffffffffffffffffffffffffffffffffffffff16815260200190815260200160002060009054906101000a900460ff1615612725576001600260008573ffffffffffffffffffffffffffffffffffffffff1673ffffffffffffffffffffffffffffffffffffffff168152602001908152602001600020600082825461264091906130a6565b925050819055506000600460008573ffffffffffffffffffffffffffffffffffffffff1673ffffffffffffffffffffffffffffffffffffffff16815260200190815260200160002060008473ffffffffffffffffffffffffffffffffffffffff1673ffffffffffffffffffffffffffffffffffffffff16815260200190815260200160002060006101000a81548160ff021916908315150217905550612724600660003373ffffffffffffffffffffffffffffffffffffffff1673ffffffffffffffffffffffffffffffffffffffff16815260200190815260200160002084612a2f565b5b7f25203554e06d7ed0bdf690f598f2702a329d230077d9a3c2089d052a77981a02838360405161275692919061347b565b60405180910390a1505050565b816000808273ffffffffffffffffffffffffffffffffffffffff1673ffffffffffffffffffffffffffffffffffffffff16815260200190815260200160002060009054906101000a900460ff166127ef576040517f08c379a00000000000000000000000000000000000000000000000000000000081526004016127e690613086565b60405180910390fd5b600560008473ffffffffffffffffffffffffffffffffffffffff1673ffffffffffffffffffffffffffffffffffffffff16815260200190815260200160002060008373ffffffffffffffffffffffffffffffffffffffff1673ffffffffffffffffffffffffffffffffffffffff16815260200190815260200160002060009054906101000a900460ff16156129b3576001600360008573ffffffffffffffffffffffffffffffffffffffff1673ffffffffffffffffffffffffffffffffffffffff16815260200190815260200160002060008282546128ce91906130a6565b925050819055506000600560008573ffffffffffffffffffffffffffffffffffffffff1673ffffffffffffffffffffffffffffffffffffffff16815260200190815260200160002060008473ffffffffffffffffffffffffffffffffffffffff1673ffffffffffffffffffffffffffffffffffffffff16815260200190815260200160002060006101000a81548160ff0219169083151502179055506129b2600760003373ffffffffffffffffffffffffffffffffffffffff1673ffffffffffffffffffffffffffffffffffffffff16815260200190815260200160002084612a2f565b5b7f63a8b3c7af4fafb0c845e277d80036a0f7f07111f59f2681d9bae6b1e66f104083836040516129e492919061347b565b60405180910390a1505050565b6000828210612a01576000612a0e565b8183612a0d91906130a6565b5b905092915050565b6000828210612a255782612a27565b815b905092915050565b60005b8173ffffffffffffffffffffffffffffffffffffffff16838281548110612a5c57612a5b6130da565b5b9060005260206000200160009054906101000a900473ffffffffffffffffffffffffffffffffffffffff1673ffffffffffffffffffffffffffffffffffffffff1614158015612aae5750828054905081105b15612ac6578080612abe90613109565b915050612a32565b60008190505b60018480549050612add91906130a6565b811015612b9c5783600182612af29190612fdc565b81548110612b0357612b026130da565b5b9060005260206000200160009054906101000a900473ffffffffffffffffffffffffffffffffffffffff16848281548110612b4157612b406130da565b5b9060005260206000200160006101000a81548173ffffffffffffffffffffffffffffffffffffffff021916908373ffffffffffffffffffffffffffffffffffffffff1602179055508080612b9490613109565b915050612acc565b5082805480612bae57612bad61357c565b5b6001900381819060005260206000200160006101000a81549073ffffffffffffffffffffffffffffffffffffffff02191690559055505050565b5080546000825590600052602060002090810190612c069190612c09565b50565b5b80821115612c22576000816000905550600101612c0a565b5090565b6000819050919050565b612c3981612c26565b82525050565b6000602082019050612c546000830184612c30565b92915050565b600080fd5b600073ffffffffffffffffffffffffffffffffffffffff82169050919050565b6000612c8a82612c5f565b9050919050565b612c9a81612c7f565b8114612ca557600080fd5b50565b600081359050612cb781612c91565b92915050565b600060208284031215612cd357612cd2612c5a565b5b6000612ce184828501612ca8565b91505092915050565b600081519050919050565b600082825260208201905092915050565b60005b83811015612d24578082015181840152602081019050612d09565b60008484015250505050565b6000601f19601f8301169050919050565b6000612d4c82612cea565b612d568185612cf5565b9350612d66818560208601612d06565b612d6f81612d30565b840191505092915050565b60006020820190508181036000830152612d948184612d41565b905092915050565b612da581612c26565b8114612db057600080fd5b50565b600081359050612dc281612d9c565b92915050565b600060208284031215612dde57612ddd612c5a565b5b6000612dec84828501612db3565b91505092915050565b60008060408385031215612e0c57612e0b612c5a565b5b6000612e1a85828601612ca8565b9250506020612e2b85828601612db3565b9150509250929050565b60008060408385031215612e4c57612e4b612c5a565b5b6000612e5a85828601612db3565b9250506020612e6b85828601612db3565b9150509250929050565b7f6164647265737320697320616c726561647920616e206f776e65720000000000600082015250565b6000612eab601b83612cf5565b9150612eb682612e75565b602082019050919050565b60006020820190508181036000830152612eda81612e9e565b9050919050565b7f4e487b7100000000000000000000000000000000000000000000000000000000600052601260045260246000fd5b7f4e487b7100000000000000000000000000000000000000000000000000000000600052601160045260246000fd5b6000612f4a82612c26565b9150612f5583612c26565b925082612f6557612f64612ee1565b5b828204905092915050565b7f496e73756666696369656e742071756f72756d00000000000000000000000000600082015250565b6000612fa6601383612cf5565b9150612fb182612f70565b602082019050919050565b60006020820190508181036000830152612fd581612f99565b9050919050565b6000612fe782612c26565b9150612ff283612c26565b925082820190508082111561300a57613009612f10565b5b92915050565b61301981612c7f565b82525050565b60006020820190506130346000830184613010565b92915050565b7f61646472657373206973206e6f7420616e206f776e6572000000000000000000600082015250565b6000613070601783612cf5565b915061307b8261303a565b602082019050919050565b6000602082019050818103600083015261309f81613063565b9050919050565b60006130b182612c26565b91506130bc83612c26565b92508282039050818111156130d4576130d3612f10565b5b92915050565b7f4e487b7100000000000000000000000000000000000000000000000000000000600052603260045260246000fd5b600061311482612c26565b91507fffffffffffffffffffffffffffffffffffffffffffffffffffffffffffffffff820361314657613145612f10565b5b600182019050919050565b7f556e617574686f72697a65640000000000000000000000000000000000000000600082015250565b6000613187600c83612cf5565b915061319282613151565b602082019050919050565b600060208201905081810360008301526131b68161317a565b9050919050565b60006040820190506131d26000830185613010565b6131df6020830184612c30565b9392505050565b7f4e487b7100000000000000000000000000000000000000000000000000000000600052602260045260246000fd5b6000600282049050600182168061322d57607f821691505b6020821081036132405761323f6131e6565b5b50919050565b600060408201905061325b6000830185612c30565b6132686020830184612c30565b9392505050565b7f6c6f636b696e6720706572696f64206e6f7420656c6170736564000000000000600082015250565b60006132a5601a83612cf5565b91506132b08261326f565b602082019050919050565b600060208201905081810360008301526132d481613298565b9050919050565b60006060820190506132f06000830186613010565b6132fd6020830185612c30565b61330a6040830184612c30565b949350505050565b7f496e73756666696369656e742063726564697400000000000000000000000000600082015250565b6000613348601383612cf5565b915061335382613312565b602082019050919050565b600060208201905081810360008301526133778161333b565b9050919050565b600061338982612c26565b915061339483612c26565b9250817fffffffffffffffffffffffffffffffffffffffffffffffffffffffffffffffff04831182151516156133cd576133cc612f10565b5b828202905092915050565b60006060820190506133ed6000830186612c30565b6133fa6020830185612c30565b6134076040830184612c30565b949350505050565b7f616c726561647920737570706f7274696e670000000000000000000000000000600082015250565b6000613445601283612cf5565b91506134508261340f565b602082019050919050565b6000602082019050818103600083015261347481613438565b9050919050565b60006040820190506134906000830185613010565b61349d6020830184613010565b9392505050565b7f496e73756666696369656e742062616c616e6365000000000000000000000000600082015250565b60006134da601483612cf5565b91506134e5826134a4565b602082019050919050565b60006020820190508181036000830152613509816134cd565b9050919050565b7f616c7265616479206f70706f73696e6700000000000000000000000000000000600082015250565b6000613546601083612cf5565b915061355182613510565b602082019050919050565b6000602082019050818103600083015261357581613539565b9050919050565b7f4e487b7100000000000000000000000000000000000000000000000000000000600052603160045260246000fdfea2646970667358221220daab6c944993926c12fba12389f6076d26e07112a3c78a82cb49408b22854bdd64736f6c63430008100033",
  "immutableReferences": {
    "570": [
      {
        "length": 32,
        "start": 3797
      },
      {
        "length": 32,
        "start": 4968
      },
      {
        "length": 32,
        "start": 5512
      }
    ]
  },
  "source": "// SPDX-License-Identifier: UNLICENSED\r\npragma solidity 0.8.16;\r\n\r\nimport \"./MultiOwnable.sol\";\r\n\r\ncontract Oracle is MultiOwnable {\r\n    // # Parameters\r\n    string public description; // short string describing this oracle's data (e.g. \"ADA/USD\")\r\n    uint public constant scaling = 1e18;   // 18 decimals\r\n    uint public immutable lockingPeriod;   // locking period (in seconds) for changes by the owners that may negatively affect consumers\r\n\r\n    // # State Variables\r\n    uint private data;             // latest data provided by the oracle\r\n    uint private totalCost = 0;    // sum of costs informed by owners for writing data (resettable to avoid overflow)\r\n    uint private totalRevenue = 0; // sum of fees paid by consumers for reading data (resettable to avoid overflow)\r\n    uint private writes = 0; // number of writes since last base fee adjustment\r\n    uint private reads = 0;  // number of weighted reads since last base fee adjustment\r\n    uint public baseFee;        // fee to read the data once, only paid if the data is new\r\n    uint public maxFee;         // maximum fee to read the data once\r\n    uint public maxFeeNext;     // next maximum fee, which replaced `maxFee` after `maxFeeTimelock`\r\n    uint public maxFeeTimelock; // timestamp of the earliest time for the next max fee adjustment\r\n    uint public latestCost;  // latest cost of writing data\r\n    uint public latestWrite; // timestamp of the latest write\r\n    uint public totalCredit = 0; // sum of credits of all consumers\r\n    mapping(address => uint) private credit; // credit of a consumer, used to pay for data reads\r\n    mapping(address => uint) private latestRead; // timestamps of the latest reads of consumers\r\n    mapping(address => uint) private weight; // weight imposed by owners on consumers that are reselling the data, to prevent free-riding\r\n    mapping(address => uint) private weightNext; // next weight, which replaces the current weight after the timelock\r\n    mapping(address => uint) private weightTimelock; // timestamp of the earliest time for the next weight adjustment\r\n    \r\n    event DataWritten(uint data, uint cost);\r\n    event DataRead(address consumer, uint weight, uint data);\r\n    event WeightAdjustmentScheduled(address consumer, uint weightTimelock, uint weightNext);\r\n    event WeightAdjusted(address consumer, uint weight);\r\n    event MaxFeeAdjustmentScheduled(uint maxFeeTimelock, uint maxFeeNext);\r\n    event MaxFeeAdjusted(uint maxFee);\r\n    event BaseFeeAdjusted(uint writes, uint reads, uint fee);  \r\n    event CreditDeposited(address consumer, uint amount);\r\n    event CreditWithdrawn(address consumer, uint amount);\r\n    event RevenueWithdrawn(address receiver, uint amount);\r\n    event Reset(uint cost, uint revenue);\r\n\r\n    constructor(address _owner, string memory _description, uint _lockingPeriod, uint _baseFee) MultiOwnable(_owner) {\r\n        description = _description;\r\n        lockingPeriod = _lockingPeriod;\r\n        baseFee = _baseFee;\r\n        maxFee = _baseFee * 3;\r\n    }\r\n\r\n    // # Functions to Write and Read Data.\r\n\r\n    function writeData(uint _data, uint cost) external onlyOwner {\r\n        writes += 1;\r\n        data = _data;\r\n        latestWrite = block.timestamp;\r\n        totalCost += cost;\r\n        emit DataWritten(data, cost);\r\n    }\r\n\r\n    function readData() external returns (uint) {\r\n        uint w = weightOf(msg.sender);\r\n        uint f = feeOf(msg.sender, w);\r\n        require(credit[msg.sender] >= f, \"Insufficient credit\");\r\n        credit[msg.sender] -= f; // Consumer pays to read data\r\n        reads += w;\r\n        totalRevenue += f;\r\n        latestRead[msg.sender] = block.timestamp; // update the consumer's latest read timestamp\r\n        emit DataRead(msg.sender, w, data);\r\n        return data;\r\n    }\r\n\r\n    function inspectData() external view onlyOwner() returns (uint) { return data; } // Owners can read data for free.\r\n\r\n    // # Functions to View a Consumer's State.\r\n\r\n    function creditOf(address consumer) external view returns (uint) { return credit[consumer]; }\r\n    function weightOf(address consumer) public view returns (uint) { return weight[consumer]; }\r\n    function feeOf(address consumer) public view returns (uint) { return feeOf(consumer, weightOf(consumer)); }\r\n    function feeOf(address consumer, uint _weight) internal view returns (uint) { return latestRead[consumer] > latestWrite ? 0 : (_weight * baseFee); }\r\n\r\n    // # Functions for owners to adjust fees and weights\r\n    //\r\n    // To protect consumers from sudden changes, adjustments must be scheduled in advance.\r\n\r\n    function scheduleWeightAdjustment(address consumer, uint _weightNext) external onlyOwner {\r\n        uint t = block.timestamp + lockingPeriod;\r\n        weightTimelock[consumer] = t;\r\n        weightNext[consumer] = _weightNext;\r\n        emit WeightAdjustmentScheduled(consumer, t, _weightNext);\r\n    }\r\n\r\n    function adjustWeight(address consumer) external onlyOwner {\r\n        require(block.timestamp >= weightTimelock[consumer], \"locking period not elapsed\");\r\n        uint w = weightNext[consumer];\r\n        weight[consumer] = w;\r\n        emit WeightAdjusted(consumer, w);\r\n    }\r\n\r\n    function scheduleMaxFeeAdjustment(uint _maxFeeNext) external onlyOwner {\r\n        maxFeeTimelock = block.timestamp + lockingPeriod;\r\n        maxFeeNext = _maxFeeNext;\r\n        emit MaxFeeAdjustmentScheduled(maxFeeTimelock, maxFeeNext);\r\n    }\r\n\r\n    function adjustMaxFee() external onlyOwner {\r\n        require(block.timestamp >= maxFeeTimelock, \"locking period not elapsed\");\r\n        maxFee = maxFeeNext;\r\n        emit MaxFeeAdjusted(maxFee);\r\n    }\r\n\r\n    // We extrapolate that, from now until next call to `adjustFee`, number of writes and reads will be the same as in previous period.\r\n    // We extrapolate that the cost of every future write will be the same as the cost of the latest write.\r\n    // If true and we are not in a corner case of integer subtraction or division, `totalCost` will be equal to `totalRevenue` at the next call to `adjustFees`.\r\n    function adjustBaseFee() external {\r\n        baseFee = min(subtraction((latestCost * writes) + totalCost, totalRevenue) / ((reads != 0) ? reads : 1), maxFee);\r\n        emit BaseFeeAdjusted(writes, reads, baseFee);\r\n        writes = 0;\r\n        reads = 0;\r\n    }\r\n\r\n    // # Functions for consumers to deposit, withdraw and view their credits\r\n\r\n    function depositCredit(address consumer) external payable { \r\n        credit[consumer] += msg.value; \r\n        totalCredit += msg.value;\r\n        emit CreditDeposited(consumer, msg.value);\r\n    }\r\n\r\n    function withdrawCredit(uint amount) external {\r\n        require(credit[msg.sender] >= amount, \"Insufficient credit\");\r\n        credit[msg.sender] -= amount;\r\n        totalCredit -= amount;\r\n        payable(msg.sender).transfer(amount);\r\n        emit CreditWithdrawn(msg.sender, amount);\r\n    }\r\n\r\n    // Withdraws part of the revenue accumulated by the contract to a receiver specified by the calling owner\r\n    function withdraw(address receiver, uint amount) external onlyOwner {\r\n        require(address(this).balance - totalCredit >= amount, \"Insufficient balance\");\r\n        payable(receiver).transfer(amount);\r\n        emit RevenueWithdrawn(receiver, amount);\r\n    }\r\n\r\n    // Prevents overflow of `totalCost` and `totalRevenue`, preserving their difference\r\n    function resetCostAndRevenue() external {\r\n        emit Reset(totalCost, totalRevenue);\r\n        if (totalCost > totalRevenue) {\r\n            totalCost -= totalRevenue;\r\n            totalRevenue = 0;\r\n        } else {\r\n            totalRevenue -= totalCost;\r\n            totalCost = 0;\r\n        }\r\n    }\r\n\r\n    function subtraction(uint a, uint b) internal pure returns (uint) { return (b < a) ? (a - b) : 0; } \r\n    function max(uint a, uint b) internal pure returns (uint) { return (b < a) ? a : b; } \r\n    function min(uint a, uint b) internal pure returns (uint) { return (b < a) ? b : a; }\r\n}\r\n",
  "sourcePath": "/Users/bruno/Dropbox/DjedAlliance/Code/Oracle-Solidity/contracts/Oracle.sol",
  "compiler": {
    "name": "solc",
    "version": "0.8.16+commit.07a7930e.Emscripten.clang"
  },
  "schemaVersion": "3.4.9",
  "updatedAt": "2022-09-14T11:16:19.165Z",
  "networkType": "ethereum",
  "devdoc": {
    "kind": "dev",
    "methods": {},
    "version": 1
  },
  "userdoc": {
    "kind": "user",
    "methods": {},
    "version": 1
  }
}